{"contracts/Voting.sol":{"Voting":{"abi":[{"inputs":[],"stateMutability":"nonpayable","type":"constructor"},{"inputs":[{"internalType":"address","name":"owner","type":"address"}],"name":"OwnableInvalidOwner","type":"error"},{"inputs":[{"internalType":"address","name":"account","type":"address"}],"name":"OwnableUnauthorizedAccount","type":"error"},{"inputs":[],"name":"ReentrancyGuardReentrantCall","type":"error"},{"anonymous":false,"inputs":[{"indexed":true,"internalType":"uint256","name":"electionId","type":"uint256"},{"indexed":false,"internalType":"string","name":"positionName","type":"string"},{"indexed":false,"internalType":"string","name":"candidateName","type":"string"}],"name":"CandidateApproved","type":"event"},{"anonymous":false,"inputs":[{"indexed":true,"internalType":"uint256","name":"electionId","type":"uint256"},{"indexed":false,"internalType":"string","name":"positionName","type":"string"},{"indexed":false,"internalType":"string","name":"candidateName","type":"string"}],"name":"CandidateRegistered","type":"event"},{"anonymous":false,"inputs":[{"indexed":true,"internalType":"uint256","name":"electionId","type":"uint256"},{"indexed":false,"internalType":"string","name":"positionName","type":"string"},{"indexed":false,"internalType":"string","name":"candidateName","type":"string"}],"name":"CandidateRejected","type":"event"},{"anonymous":false,"inputs":[{"indexed":true,"internalType":"uint256","name":"electionId","type":"uint256"}],"name":"ElectionClosed","type":"event"},{"anonymous":false,"inputs":[{"indexed":true,"internalType":"uint256","name":"electionId","type":"uint256"},{"indexed":false,"internalType":"string","name":"name","type":"string"}],"name":"ElectionCreated","type":"event"},{"anonymous":false,"inputs":[],"name":"ElectionEnded","type":"event"},{"anonymous":false,"inputs":[{"indexed":true,"internalType":"uint256","name":"electionId","type":"uint256"}],"name":"ElectionOpened","type":"event"},{"anonymous":false,"inputs":[],"name":"ElectionStarted","type":"event"},{"anonymous":false,"inputs":[{"indexed":true,"internalType":"uint256","name":"electionId","type":"uint256"},{"indexed":false,"internalType":"uint256","name":"newEndTime","type":"uint256"}],"name":"ElectionTimeExtended","type":"event"},{"anonymous":false,"inputs":[{"indexed":true,"internalType":"address","name":"previousOwner","type":"address"},{"indexed":true,"internalType":"address","name":"newOwner","type":"address"}],"name":"OwnershipTransferred","type":"event"},{"anonymous":false,"inputs":[{"indexed":true,"internalType":"uint256","name":"electionId","type":"uint256"},{"indexed":false,"internalType":"string","name":"positionName","type":"string"}],"name":"PositionCreated","type":"event"},{"anonymous":false,"inputs":[],"name":"RegisteredAddressesReset","type":"event"},{"anonymous":false,"inputs":[{"indexed":true,"internalType":"uint256","name":"electionId","type":"uint256"},{"indexed":true,"internalType":"address","name":"voterAddress","type":"address"},{"indexed":false,"internalType":"string","name":"positionName","type":"string"},{"indexed":true,"internalType":"uint256","name":"candidateId","type":"uint256"}],"name":"VoteCast","type":"event"},{"anonymous":false,"inputs":[{"indexed":true,"internalType":"address","name":"voterAddress","type":"address"},{"indexed":false,"internalType":"string","name":"email","type":"string"}],"name":"VoterApproved","type":"event"},{"anonymous":false,"inputs":[{"indexed":true,"internalType":"address","name":"voterAddress","type":"address"},{"indexed":false,"internalType":"string","name":"email","type":"string"}],"name":"VoterRegistered","type":"event"},{"anonymous":false,"inputs":[{"indexed":true,"internalType":"address","name":"voterAddress","type":"address"},{"indexed":false,"internalType":"string","name":"email","type":"string"}],"name":"VoterRejected","type":"event"},{"inputs":[{"internalType":"uint256","name":"_electionId","type":"uint256"},{"internalType":"string","name":"_positionName","type":"string"},{"internalType":"uint256","name":"_candidateId","type":"uint256"}],"name":"approveCandidate","outputs":[],"stateMutability":"nonpayable","type":"function"},{"inputs":[{"internalType":"address","name":"_voterAddress","type":"address"}],"name":"approveVoter","outputs":[],"stateMutability":"nonpayable","type":"function"},{"inputs":[{"internalType":"uint256","name":"","type":"uint256"}],"name":"approvedVoters","outputs":[{"internalType":"address","name":"","type":"address"}],"stateMutability":"view","type":"function"},{"inputs":[{"internalType":"uint256","name":"","type":"uint256"}],"name":"candidateCounts","outputs":[{"internalType":"uint256","name":"","type":"uint256"}],"stateMutability":"view","type":"function"},{"inputs":[{"internalType":"uint256","name":"_electionId","type":"uint256"}],"name":"closeElection","outputs":[],"stateMutability":"nonpayable","type":"function"},{"inputs":[{"internalType":"string","name":"_name","type":"string"},{"internalType":"uint256","name":"_startTime","type":"uint256"},{"internalType":"uint256","name":"_endTime","type":"uint256"}],"name":"createElection","outputs":[],"stateMutability":"nonpayable","type":"function"},{"inputs":[{"internalType":"uint256","name":"_electionId","type":"uint256"},{"internalType":"string","name":"_positionName","type":"string"}],"name":"createPosition","outputs":[],"stateMutability":"nonpayable","type":"function"},{"inputs":[],"name":"electionCount","outputs":[{"internalType":"uint256","name":"","type":"uint256"}],"stateMutability":"view","type":"function"},{"inputs":[],"name":"electionEnded","outputs":[{"internalType":"bool","name":"","type":"bool"}],"stateMutability":"view","type":"function"},{"inputs":[],"name":"electionStarted","outputs":[{"internalType":"bool","name":"","type":"bool"}],"stateMutability":"view","type":"function"},{"inputs":[{"internalType":"uint256","name":"","type":"uint256"}],"name":"elections","outputs":[{"internalType":"string","name":"name","type":"string"},{"internalType":"bool","name":"isOpen","type":"bool"},{"internalType":"uint256","name":"startTime","type":"uint256"},{"internalType":"uint256","name":"endTime","type":"uint256"}],"stateMutability":"view","type":"function"},{"inputs":[],"name":"endElection","outputs":[],"stateMutability":"nonpayable","type":"function"},{"inputs":[{"internalType":"uint256","name":"_electionId","type":"uint256"},{"internalType":"uint256","name":"_newEndTime","type":"uint256"}],"name":"extendElectionTime","outputs":[],"stateMutability":"nonpayable","type":"function"},{"inputs":[{"internalType":"uint256","name":"index","type":"uint256"}],"name":"getApprovedVoters","outputs":[{"internalType":"address","name":"","type":"address"}],"stateMutability":"view","type":"function"},{"inputs":[{"internalType":"uint256","name":"_electionId","type":"uint256"}],"name":"getElection","outputs":[{"internalType":"string","name":"","type":"string"},{"internalType":"bool","name":"","type":"bool"},{"internalType":"uint256","name":"","type":"uint256"},{"internalType":"uint256","name":"","type":"uint256"},{"internalType":"string[]","name":"","type":"string[]"}],"stateMutability":"view","type":"function"},{"inputs":[{"internalType":"uint256","name":"_electionId","type":"uint256"},{"internalType":"string","name":"_positionName","type":"string"}],"name":"getElectionProgress","outputs":[{"internalType":"string","name":"","type":"string"},{"internalType":"uint256[]","name":"","type":"uint256[]"},{"internalType":"uint256[]","name":"","type":"uint256[]"}],"stateMutability":"view","type":"function"},{"inputs":[{"internalType":"uint256","name":"_electionId","type":"uint256"},{"internalType":"string","name":"_positionName","type":"string"}],"name":"getElectionResult","outputs":[{"internalType":"string","name":"","type":"string"},{"internalType":"uint256[]","name":"","type":"uint256[]"},{"internalType":"uint256[]","name":"","type":"uint256[]"}],"stateMutability":"view","type":"function"},{"inputs":[],"name":"getPendingVoters","outputs":[{"internalType":"address[]","name":"","type":"address[]"}],"stateMutability":"view","type":"function"},{"inputs":[{"internalType":"uint256","name":"_electionId","type":"uint256"},{"internalType":"string","name":"_positionName","type":"string"}],"name":"getRegisteredCandidates","outputs":[{"internalType":"uint256[]","name":"","type":"uint256[]"},{"internalType":"string[]","name":"","type":"string[]"},{"internalType":"bool[]","name":"","type":"bool[]"}],"stateMutability":"view","type":"function"},{"inputs":[{"internalType":"address","name":"_voterAddress","type":"address"}],"name":"getVoter","outputs":[{"internalType":"string","name":"","type":"string"},{"internalType":"string","name":"","type":"string"},{"internalType":"string","name":"","type":"string"},{"internalType":"string","name":"","type":"string"},{"internalType":"string","name":"","type":"string"},{"internalType":"address","name":"","type":"address"},{"internalType":"bool","name":"","type":"bool"},{"internalType":"bool","name":"","type":"bool"}],"stateMutability":"view","type":"function"},{"inputs":[{"internalType":"address","name":"_address","type":"address"}],"name":"isOwner","outputs":[{"internalType":"bool","name":"","type":"bool"}],"stateMutability":"view","type":"function"},{"inputs":[{"internalType":"uint256","name":"_electionId","type":"uint256"}],"name":"openElection","outputs":[],"stateMutability":"nonpayable","type":"function"},{"inputs":[],"name":"owner","outputs":[{"internalType":"address","name":"","type":"address"}],"stateMutability":"view","type":"function"},{"inputs":[{"internalType":"uint256","name":"","type":"uint256"}],"name":"pendingVoters","outputs":[{"internalType":"address","name":"","type":"address"}],"stateMutability":"view","type":"function"},{"inputs":[{"internalType":"uint256","name":"_electionId","type":"uint256"},{"internalType":"string","name":"_positionName","type":"string"},{"internalType":"string","name":"_candidateName","type":"string"}],"name":"registerCandidate","outputs":[],"stateMutability":"nonpayable","type":"function"},{"inputs":[{"internalType":"string","name":"_firstName","type":"string"},{"internalType":"string","name":"_lastName","type":"string"},{"internalType":"string","name":"_registrationNumber","type":"string"},{"internalType":"string","name":"_email","type":"string"},{"internalType":"string","name":"_phoneNumber","type":"string"},{"internalType":"address","name":"_metamaskAddress","type":"address"}],"name":"registerVoter","outputs":[],"stateMutability":"nonpayable","type":"function"},{"inputs":[{"internalType":"uint256","name":"_electionId","type":"uint256"},{"internalType":"string","name":"_positionName","type":"string"},{"internalType":"uint256","name":"_candidateId","type":"uint256"}],"name":"rejectCandidate","outputs":[],"stateMutability":"nonpayable","type":"function"},{"inputs":[{"internalType":"address","name":"_voterAddress","type":"address"}],"name":"rejectVoter","outputs":[],"stateMutability":"nonpayable","type":"function"},{"inputs":[],"name":"renounceOwnership","outputs":[],"stateMutability":"nonpayable","type":"function"},{"inputs":[],"name":"resetRegisteredAddresses","outputs":[],"stateMutability":"nonpayable","type":"function"},{"inputs":[],"name":"startElection","outputs":[],"stateMutability":"nonpayable","type":"function"},{"inputs":[{"internalType":"address","name":"newOwner","type":"address"}],"name":"transferOwnership","outputs":[],"stateMutability":"nonpayable","type":"function"},{"inputs":[{"internalType":"uint256","name":"_electionId","type":"uint256"},{"internalType":"string","name":"_positionName","type":"string"},{"internalType":"uint256","name":"_candidateId","type":"uint256"}],"name":"vote","outputs":[],"stateMutability":"nonpayable","type":"function"},{"inputs":[{"internalType":"address","name":"","type":"address"}],"name":"voters","outputs":[{"internalType":"string","name":"firstName","type":"string"},{"internalType":"string","name":"lastName","type":"string"},{"internalType":"string","name":"registrationNumber","type":"string"},{"internalType":"string","name":"email","type":"string"},{"internalType":"string","name":"phoneNumber","type":"string"},{"internalType":"address","name":"metamaskAddress","type":"address"},{"internalType":"bool","name":"approved","type":"bool"},{"internalType":"bool","name":"voted","type":"bool"}],"stateMutability":"view","type":"function"}],"evm":{"bytecode":{"linkReferences":{},"object":"6080806040523461007e5733156100685760008054336001600160a01b03198216811783556040519290916001600160a01b0316907f8be0079c531659141344cd1fd0a4f28419497f9722a3daafe3b4186f6b6457e09080a3600180556132a990816100848239f35b631e4fbdf760e01b815260006004820152602490fd5b600080fdfe6080604052600436101561001257600080fd5b60003560e01c806203a3d11461023657806309e33d0714610231578063119d4ddb1461022c5780631b04772b1461022757806324a9267b146102225780632f54bf6e1461021d5780633cfe3a37146102185780634da3fe5a146102135780634f3333691461020e57806351090d33146102095780635824bf301461020457806359f78468146101ff5780635e6fef01146101fa57806362d73eb8146101f5578063715018a6146101f0578063760b5b23146101eb5780638da5cb5b146101e6578063997d2830146101e15780639a1d5956146101dc5780639d710777146101d7578063a3ec138d146101d2578063aed93010146101cd578063bd5b5faf146101c8578063c3322d09146101c3578063c94ca9e3146101be578063d4f50f98146101b9578063d5346da1146101b4578063d6c79eaa146101af578063f0f45457146101aa578063f2fde38b146101a5578063f309ed15146101a0578063f452130b1461019b578063f49a7a17146101965763ff9e50fe1461019157600080fd5b612003565b611eae565b611e30565b611c45565b611bbd565b6119d4565b611904565b6118e1565b611802565b6117dc565b611727565b6115a0565b611557565b611493565b611337565b61122c565b61120e565b6111e5565b6110f5565b61109a565b61102f565b610fbb565b610e18565b610dec565b610c8e565b610acd565b6109a6565b6108a3565b61086e565b610825565b6106fd565b6105f8565b6104fc565b610415565b634e487b7160e01b600052604160045260246000fd5b90601f801991011681019081106001600160401b0382111761027257604052565b61023b565b60405190604082018281106001600160401b0382111761027257604052565b60405190608082018281106001600160401b0382111761027257604052565b6040519061010082018281106001600160401b0382111761027257604052565b81601f8201121561032b578035906001600160401b0382116102725760405192610309601f8401601f191660200185610251565b8284526020838301011161032b57816000926020809301838601378301015290565b600080fd5b90604060031983011261032b5760043591602435906001600160401b03821161032b5761035f916004016102d5565b90565b60005b8381106103755750506000910152565b8181015183820152602001610365565b9060209161039e81518092818552858086019101610362565b601f01601f1916010190565b90815180825260208080930193019160005b8281106103ca575050505090565b8351855293810193928101926001016103bc565b91610407906103f961035f9593606086526060860190610385565b9084820360208601526103aa565b9160408184039101526103aa565b3461032b5761042336610330565b906104326006548211156120a5565b806000526005602052610461604060002092600460019461045a60ff600183015416156120f1565b0190612136565b61046d6001820161215c565b9261047884516121ec565b926000825b6104a2575b50505061049161049e91610f9e565b91604051938493846103de565b0390f35b85518110156104f75790828260026104e26104be84968b61221e565b516104d3866000526007602052604060002090565b90600052602052604060002090565b01546104ee828961221e565b5201909161047d565b610482565b3461032b57602036600319011261032b576004356105186130a3565b6105266006548211156120a5565b6000908082526005602052604082206001810160ff81541615610587576105566003610560930154421015612232565b805460ff19169055565b7f393c4b8e62f1195313cf17dcf00793c668ddfc35881cd8015559c074f6d61e838280a280f35b60405162461bcd60e51b815260206004820152601a60248201527f456c656374696f6e20697320616c726561647920636c6f7365640000000000006044820152606490fd5b600435906001600160a01b038216820361032b57565b60a435906001600160a01b038216820361032b57565b3461032b57602036600319011261032b576106116105cc565b6106196130a3565b61062a610625826130cf565b612288565b6001600160a01b0381166000818152600260205260408120600501805460ff60a01b1916600160a01b1790556004549092600160401b8210156102725760018201806004558210156106f8576004845260008051602061325483398151915290910180546001600160a01b0319166001600160a01b0383161790556106b390613123565b613123565b80825260026020527f5ae161ff96a81f4fa8ddd8555ab13483a0fe416f296b510e08cbb11f98f9a10e6106f26003604085200160405191829182612328565b0390a280f35b6107ad565b3461032b57602036600319011261032b576107166105cc565b61071e6130a3565b61072a610625826130cf565b60018060a01b0381167f376d99d855649bd6e81e7fce16d54ac5f2c7fadae7b2f50b619c182afe401bbb6106f261077e61079960009585875260026020526107856003604089200160405194858092610f08565b0384610251565b85875260026020526106ae604088206123af565b604051918291602083526020830190610385565b634e487b7160e01b600052603260045260246000fd5b6003548110156106f85760036000526000805160206132348339815191520190600090565b6004548110156106f85760046000526000805160206132548339815191520190600090565b80548210156106f85760005260206000200190600090565b3461032b57602036600319011261032b5760043560035481101561032b57600360005260008051602061323483398151915201546040516001600160a01b039091168152602090f35b3461032b57602036600319011261032b5760206108896105cc565b6000546040516001600160a01b0392831691909216148152f35b3461032b576000806003193601126109a3576108bd6130a3565b6108d86108d36108cf600a5460ff1690565b1590565b612402565b805b600354811015610933578061092d61092861090e6108f96001956107c3565b905460039190911b1c6001600160a01b031690565b6001600160a01b0316600090815260026020526040902090565b6123af565b016108da565b50805b60045481101561095b578061095561092861090e6108f96001956107e8565b01610936565b5061096c6109676121c4565b612474565b61097c6109776121c4565b612508565b7f351a0247e8bb60a07bea1959df8f0e260dee3b0ccbbef1517ca1367b986664eb8180a180f35b80fd5b3461032b57604036600319011261032b576004356024356109c56130a3565b6109d36006548311156120a5565b816000526005602052600360406000206109f360ff60018301541661259c565b018054821115610a33578190556040519081527f9957539d9b3c3f294da9088900bece7540cdb76274e882913ae25bca90b2061e9080602081015b0390a2005b60405162461bcd60e51b815260206004820152603660248201527f4e657720656e642074696d65206d7573742062652067726561746572207468616044820152756e207468652063757272656e7420656e642074696d6560501b6064820152608490fd5b90606060031983011261032b5760043591602435906001600160401b03821161032b57610ac6916004016102d5565b9060443590565b3461032b577fe46ef16f45f14b433702c21c325ca11d00b469b9c13d430220e2b5726cdfa25e6001610afe36610a97565b610b0b94929391946130a3565b610b196006548511156120a5565b6106f26000958587526005602052610b4a610b43610b3d600460408b200184612136565b54610ece565b15156125e9565b8587526005602052610b6460026040892001544210612635565b858752600760205260408720838852602052610bc0604088209360038501868154610b9260ff821615612681565b60ff191617905585610bba6004610bb38b6000526005602052604060002090565b0185612136565b016126cd565b6040519384930190836126f0565b90808251908181526020809101926020808460051b8301019501936000915b848310610bfd5750505050505090565b9091929394958480610c1b600193601f198682030187528a51610385565b9801930193019194939290610bed565b90610c41610c51916060845260608401906103aa565b6020938382036020850152610bce565b9060408183039101526020808451928381520193019160005b828110610c78575050505090565b8351151585529381019392810192600101610c6a565b3461032b57610c9c36610330565b610caa6006548311156120a5565b816000526005602052610cca610b43610b3d600460406000200184612136565b81600052600860205260406000205491610ce3836121ec565b91610ced84612715565b93610cf7816121ec565b9260009260019060015b84811115610d22578588528589528587526040518061049e898c8c84610c2b565b610d3a816104d3866000526007602052604060002090565b89610d58610d52876000526009602052604060002090565b85612136565b8a610d70610d698886019384612773565b5460ff1690565b610d87575b50505050610d829061275f565b610d01565b6003610de294610dc38c8096610db38a9f97610d829b610dad610ddd9a610dcc9a61221e565b52610f9e565b610dbd838361221e565b5261221e565b50015460ff1690565b610dd6838c61221e565b9015159052565b61275f565b959089388a610d75565b3461032b57602036600319011261032b5760043560005260086020526020604060002054604051908152f35b3461032b576000806003193601126109a357610e326130a3565b600a5460ff811615610e895760ff610e4e9160081c1615612805565b610e6261010061ff0019600a541617600a55565b7f66ec723071e4bb646f7b35d31bc2dee8510979bd8c180edd0690d4f5e802f1e48180a180f35b60405162461bcd60e51b815260206004820152601c60248201527f456c656374696f6e20686173206e6f74207374617274656420796574000000006044820152606490fd5b90600182811c92168015610efe575b6020831014610ee857565b634e487b7160e01b600052602260045260246000fd5b91607f1691610edd565b805460009392610f1782610ece565b91828252602093600191600181169081600014610f7f5750600114610f3e575b5050505050565b90939495506000929192528360002092846000945b838610610f6b57505050500101903880808080610f37565b805485870183015294019385908201610f53565b60ff19168685015250505090151560051b010191503880808080610f37565b90610fb9610fb29260405193848092610f08565b0383610251565b565b3461032b57602036600319011261032b576004356000526005602052611019604060002060405190610ff182610fb28184610f08565b60ff600182015416906003600282015491015490604051948594608086526080860190610385565b9215156020850152604084015260608301520390f35b3461032b576000806003193601126109a3576110496130a3565b6001600a5461105b60ff821615612635565b61106b60ff8260081c1615612805565b60ff191617600a557fc475c26aa25ed8e85a7faa790e5f63b5d7ee1025f12821f4c9bfddd36ab4d1128180a180f35b3461032b576000806003193601126109a3576110b46130a3565b80546001600160a01b03198116825581906001600160a01b03167f8be0079c531659141344cd1fd0a4f28419497f9722a3daafe3b4186f6b6457e08280a380f35b3461032b5761110336610330565b61110b6130a3565b6111196006548311156120a5565b8051156111a057610a2e7f9d3f9d97cfa4d97c52f6be76984c7c9ac6dcbfd36f22e4b5ba1a4fbf01d83a7c9161119461115c856000526005602052604060002090565b611169836005830161296b565b61118f60046111766121c4565b9261117f610277565b9386855260208501520184612136565b6129ae565b604051918291826123f1565b60405162461bcd60e51b815260206004820152601d60248201527f506f736974696f6e206e616d652063616e6e6f7420626520656d7074790000006044820152606490fd5b3461032b57600036600319011261032b576000546040516001600160a01b039091168152602090f35b3461032b57600036600319011261032b576020600654604051908152f35b3461032b57602036600319011261032b576004356112486130a3565b6112566006548211156120a5565b6000908082526005602052604082206001810160ff8154166112b9576112856002611292930154421015612a3e565b805460ff19166001179055565b7f0589f8b93514c651c0c92b06bdb8118fe508daadf2ffdac1f516191be20fcb858280a280f35b60405162461bcd60e51b815260206004820152601860248201527f456c656374696f6e20697320616c7265616479206f70656e00000000000000006044820152606490fd5b9193909261131861035f969460a0855260a0850190610385565b9415156020840152604083015260608201526080818403910152610bce565b3461032b5760208060031936011261032b5760043561135a6006548211156120a5565b600052600560205260409061139a60406000209260019360ff600182015416936002820154906003830154926113a1600582019160405197888092610f08565b0387610251565b8054916113ad836121ad565b956113bb6040519788610251565b83875260208701926000526020600020906000935b8585106113eb578a8a61049e8b8b8b604051958695866112fe565b8b8481928451611406816113ff818a610f08565b0382610251565b8152019301940193916113d0565b96936114596114759461144b60e0999c9b989561143d611467968d610100908181520190610385565b8c810360208e015290610385565b908a820360408c0152610385565b9088820360608a0152610385565b908682036080880152610385565b6001600160a01b0390961660a0850152151560c08401521515910152565b3461032b57602036600319011261032b576001600160a01b03806114b56105cc565b166000526002602052604061049e81600020928251926114e0846114d98188610f08565b0385610251565b8051936114fb856114f48160018a01610f08565b0386610251565b8151956115168761150f8160028501610f08565b0388610251565b8251611529816113ff8160038601610f08565b600561153760048401610f9e565b920154935197889760ff8660a81c169660ff8760a01c1696169489611414565b3461032b57602036600319011261032b5760043560045481101561032b57600460005260008051602061325483398151915201546040516001600160a01b039091168152602090f35b3461032b57606036600319011261032b576001600160401b0360043560243582811161032b576115d49036906004016102d5565b9160443590811161032b5761160e7f0ec1a365aeeec255796bf50d7a2a8f24d0d5f5c6ada0167b6c647428d91645829136906004016102d5565b61161c6006548411156120a5565b600093838552600560205261163d610b43610b3d6004604089200184612136565b838552600560205261165760026040872001544210612635565b838552600960205261168361167e6108cf610d6961167860408a2086612136565b86612136565b612a96565b611697846000526008602052604060002090565b6116a1815461275f565b90556116f56116ba856000526008602052604060002090565b546116f06116c6610296565b918083528560208401528860408401528860608401526104d3886000526007602052604060002090565b612ae2565b611718611285611712611712876000526009602052604060002090565b84612136565b6106f260405192839283612b1a565b3461032b576000806003193601126109a357604051809160035490818352602080930180926003835260008051602061323483398151915290835b8181106117bf5750505084611778910385610251565b60405193838594850191818652518092526040850193925b82811061179f57505050500390f35b83516001600160a01b031685528695509381019392810192600101611790565b82546001600160a01b031684529286019260019283019201611762565b3461032b57600036600319011261032b57602060ff600a5460081c166040519015158152f35b3461032b57602036600319011261032b5761181b6105cc565b61184d60018060a01b0391828116600052600260205282600560406000200154161515806118b2575b61090e90612b3f565b9061049e60058301549161186084610f9e565b9261186d60018601610f9e565b9361187a60028701610f9e565b95611893600461188c60038401610f9e565b9201610f9e565b9060405197889760ff8660a81c169660ff8760a01c1696169489611414565b506001600160a01b038116600090815260026020526040902061090e906118d8906125df565b15159050611844565b3461032b57600036600319011261032b57602060ff600a54166040519015158152f35b3461032b5761191236610330565b6119206006548311156120a5565b60046000928060005260209260056020526040916119526040600020926001958461045a60ff60018a9801541661259c565b9261195f6001850161215c565b9661196a88516121ec565b966000965b611982575b888861049e61049189610f9e565b8880518810156119ce578760026119b961199f899a9b8a9561221e565b518887526007865287872090600052602052604060002090565b01546119c5828c61221e565b5201969561196f565b50611974565b3461032b576119e236610a97565b91600260015414611bab576002600155611a006006548211156120a5565b806000526005602052611a20610b43610b3d600460406000200185612136565b611af0611aeb84611ae66001611ae06004611a45886000526005602052604060002090565b611a5a611a558583015460ff1690565b612b82565b336000908152600260205260409020611a8590611a80906005905b015460a01c60ff1690565b612bce565b336000908152600260205260409020611ab290611aad906108cf906005015460a81c60ff1690565b612c12565b33600090815260026020526040902060050154611ad9906001600160a01b03163314612c5e565b0188612136565b0161215c565b6131fd565b612cba565b611b1d611b186003611b10866104d3866000526007602052604060002090565b015460ff1690565b612cfa565b336000908152600260205260409020611b4690600501805460ff60a81b1916600160a81b179055565b6002611b60846104d3846000526007602052604060002090565b01611b6b815461275f565b90557fd9f61bad27b367f9d956d43115ce9b23449b64e56e608eb9569f6b929b632e7e60405180611b9d3395826123f1565b0390a4611ba960018055565b005b604051633ee5aeb560e01b8152600490fd5b3461032b57602036600319011261032b57611bd66105cc565b611bde6130a3565b6001600160a01b039081168015611c2c57600080546001600160a01b03198116831782559092167f8be0079c531659141344cd1fd0a4f28419497f9722a3daafe3b4186f6b6457e08380a380f35b604051631e4fbdf760e01b815260006004820152602490fd5b3461032b57611c5336610a97565b9091611c5d6130a3565b611c6b6006548211156120a5565b6000918183526005602052611c8c610b43610b3d6004604087200187612136565b8183526005602052611ca660026040852001544210612635565b611cbe816104d3846000526007602052604060002090565b93611cd8611cd36108cf600388015460ff1690565b612681565b611ce56001809601610f9e565b91611d03610556610d52610d52876000526009602052604060002090565b611d23611d1e826104d3876000526007602052604060002090565b612d46565b6001611d456004611d3e876000526005602052604060002090565b0184612136565b019085875b611d84575b505050907fc965973ca1e6509f55ff868bce7a20c938b1b78836c93db3d55171313e920b83916106f260405192839283612b1a565b825480821015611e2a5782611da6611d9c848761080d565b90549060031b1c90565b14611db45750870187611d4a565b7fc965973ca1e6509f55ff868bce7a20c938b1b78836c93db3d55171313e920b8396979850611e2093925090611e02611dfb611d9c611df5611e1b95612d64565b8661080d565b918461080d565b90919082549060031b91821b91600019901b1916179055565b612d89565b8493923880611d4f565b50611d4f565b3461032b57602036600319011261032b57600435600454811015611e7957600460005260008051602061325483398151915201546040516001600160a01b039091168152602090f35b60405162461bcd60e51b815260206004820152600d60248201526c092dcecc2d8d2c840d2dcc8caf609b1b6044820152606490fd5b3461032b57606036600319011261032b576004356001600160401b03811161032b57611ede9036906004016102d5565b602435604435611eec6130a3565b80821015611fb2577f52be7c4e77b4de76b7607d621492061fe13b58597e72dfb5e51ab8f6187ed14191610a2e91600691611f2f611f2a845461275f565b600655565b611f4d86611f4885546000526005602052604060002090565b612896565b611f726001611f6785546000526005602052604060002090565b01805460ff19169055565b6002611f8984546000526005602052604060002090565b01556003611fa283546000526005602052604060002090565b01555492604051918291826123f1565b60405162461bcd60e51b815260206004820152602360248201527f496e76616c696420656c656374696f6e20737461727420616e6420656e642074604482015262696d6560e81b6064820152608490fd5b3461032b5760c036600319011261032b5760046001600160401b03813581811161032b5761203490369084016102d5565b9060243581811161032b5761204c90369085016102d5565b9060443581811161032b5761206490369086016102d5565b60643582811161032b5761207b90369087016102d5565b9160843590811161032b57611ba995612096913691016102d5565b9261209f6105e2565b94612f9f565b156120ac57565b60405162461bcd60e51b815260206004820152601760248201527f456c656374696f6e20646f6573206e6f742065786973740000000000000000006044820152606490fd5b156120f857565b60405162461bcd60e51b815260206004820152601660248201527522b632b1ba34b7b71034b99039ba34b6361037b832b760511b6044820152606490fd5b602090612150928260405194838680955193849201610362565b82019081520301902090565b90604051918281549182825260209260208301916000526020600020936000905b82821061219357505050610fb992500383610251565b85548452600195860195889550938101939091019061217d565b6001600160401b0381116102725760051b60200190565b604051602081018181106001600160401b038211176102725760405260008152906000368137565b906121f6826121ad565b6122036040519182610251565b8281528092612214601f19916121ad565b0190602036910137565b80518210156106f85760209160051b010190565b1561223957565b60405162461bcd60e51b815260206004820152602160248201527f456c656374696f6e20656e642074696d6520686173206e6f74207265616368656044820152601960fa1b6064820152608490fd5b1561228f57565b606460405162461bcd60e51b815260206004820152602060248201527f566f746572206973206e6f7420696e207468652070656e64696e67206c6973746044820152fd5b60035490600160401b8210156102725760018201806003558210156106f857600360005260008051602061323483398151915290910180546001600160a01b0319166001600160a01b03909216919091179055565b90602061035f928181520190610f08565b818110612344575050565b60008155600101612339565b634e487b7160e01b600052601160045260246000fd5b6123708154610ece565b908161237a575050565b81601f6000931160011461238c575055565b9080839182526123ab601f60208420940160051c840160018501612339565b5555565b60056000916123bd81612366565b6123c960018201612366565b6123d560028201612366565b6123e160038201612366565b6123ed60048201612366565b0155565b90602061035f928181520190610385565b1561240957565b60405162461bcd60e51b815260206004820152603760248201527f43616e6e6f7420726573657420616464726573736573207768696c6520616e2060448201527f656c656374696f6e20697320696e2070726f67726573730000000000000000006064820152608490fd5b8051906001600160401b03821161027257600160401b821161027257600354826003558083106124e4575b50602080910190600360005260005b8381106124bb5750505050565b82516001600160a01b0316600080516020613234833981519152820155918101916001016124ae565b61250290836000805160206132348339815191529182019101612339565b3861249f565b8051906001600160401b03821161027257600160401b82116102725760045482600455808310612578575b50602080910190600460005260005b83811061254f5750505050565b82516001600160a01b031660008051602061325483398151915282015591810191600101612542565b61259690836000805160206132548339815191529182019101612339565b38612533565b156125a357565b60405162461bcd60e51b815260206004820152601460248201527322b632b1ba34b7b71034b9903737ba1037b832b760611b6044820152606490fd5b61035f9054610ece565b156125f057565b60405162461bcd60e51b815260206004820152601760248201527f506f736974696f6e20646f6573206e6f742065786973740000000000000000006044820152606490fd5b1561263c57565b60405162461bcd60e51b815260206004820152601c60248201527f456c656374696f6e2068617320616c72656164792073746172746564000000006044820152606490fd5b1561268857565b60405162461bcd60e51b815260206004820152601d60248201527f43616e64696461746520697320616c726561647920617070726f7665640000006044820152606490fd5b90815491600160401b8310156102725782611e02916001610fb99501815561080d565b909161270761035f93604084526040840190610385565b916020818403910152610f08565b9061271f826121ad565b61272c6040519182610251565b828152809261273d601f19916121ad565b019060005b82811061274e57505050565b806060602080938501015201612742565b600019811461276e5760010190565b612350565b906040518092600090805461278781610ece565b916001918083169081156127eb57506001146127ad575b50505060209281520301902090565b60009081526020808220969450915b8382106127d5575050506020935082019092388061279e565b86548883015295860195879550908201906127bc565b60ff1916865250505080151502820190506020388061279e565b1561280c57565b60405162461bcd60e51b815260206004820152601a60248201527f456c656374696f6e2068617320616c726561647920656e6465640000000000006044820152606490fd5b9190601f811161286057505050565b610fb9926000526020600020906020601f840160051c8301931061288c575b601f0160051c0190612339565b909150819061287f565b91909182516001600160401b038111610272576128bd816128b78454610ece565b84612851565b602080601f8311600114612900575081906128f19394956000926128f5575b50508160011b916000199060031b1c19161790565b9055565b0151905038806128dc565b90601f1983169561291685600052602060002090565b926000905b8882106129535750508360019596971061293a575b505050811b019055565b015160001960f88460031b161c19169055388080612930565b8060018596829496860151815501950193019061291b565b8054600160401b811015610272576129889160018201815561080d565b91909161299857610fb991612896565b634e487b7160e01b600052600060045260246000fd5b906129ba815183612896565b6001809201602080920151918251926001600160401b03841161027257600160401b8411610272576020908354858555808610612a21575b50019160005260206000209060005b848110612a1057505050505050565b835183820155928101928501612a01565b612a38908560005286846000209182019101612339565b386129f2565b15612a4557565b60405162461bcd60e51b815260206004820152602360248201527f456c656374696f6e2073746172742074696d6520686173206e6f7420726561636044820152621a195960ea1b6064820152608490fd5b15612a9d57565b60405162461bcd60e51b815260206004820152601d60248201527f43616e646964617465206e616d6520616c7265616479206578697374730000006044820152606490fd5b600360609183518155612afc602085015160018301612896565b6040840151600282015501910151151560ff80198354169116179055565b9091612b3161035f93604084526040840190610385565b916020818403910152610385565b15612b4657565b60405162461bcd60e51b8152602060048201526014602482015273159bdd195c88191bd95cc81b9bdd08195e1a5cdd60621b6044820152606490fd5b15612b8957565b60405162461bcd60e51b815260206004820152601f60248201527f456c656374696f6e206973206e6f74206f70656e20666f7220766f74696e67006044820152606490fd5b15612bd557565b60405162461bcd60e51b8152602060048201526015602482015274159bdd195c881a5cc81b9bdd08185c1c1c9bdd9959605a1b6044820152606490fd5b15612c1957565b60405162461bcd60e51b815260206004820152601760248201527f566f7465722068617320616c726561647920766f7465640000000000000000006044820152606490fd5b15612c6557565b60405162461bcd60e51b815260206004820152602760248201527f566f7465722773204d6574616d61736b206164647265737320646f6573206e6f6044820152660e840dac2e8c6d60cb1b6064820152608490fd5b15612cc157565b60405162461bcd60e51b8152602060048201526011602482015270496e76616c69642063616e64696461746560781b6044820152606490fd5b15612d0157565b60405162461bcd60e51b815260206004820152601960248201527f43616e646964617465206973206e6f7420617070726f766564000000000000006044820152606490fd5b6003600091828155612d5a60018201612366565b8260028201550155565b60001981019190821161276e57565b634e487b7160e01b600052603160045260246000fd5b8054908115612db35760001991820191612da3838361080d565b909182549160031b1b1916905555565b612d73565b15612dbf57565b60405162461bcd60e51b815260206004820152603560248201527f43616e6e6f7420726567697374657220766f746572732061667465722074686560448201527408195b1958dd1a5bdb881a185cc81cdd185c9d1959605a1b6064820152608490fd5b15612e2957565b60405162461bcd60e51b815260206004820152602860248201527f566f74657220697320616c7265616479207265676973746572656420616e6420604482015267185c1c1c9bdd995960c21b6064820152608490fd5b15612e8657565b60405162461bcd60e51b815260206004820152603060248201527f566f74657220697320616c7265616479207265676973746572656420616e642060448201526f1c195b991a5b99c8185c1c1c9bdd985b60821b6064820152608490fd5b90612f8560e06005610fb994612efb855182612896565b612f0c602086015160018301612896565b612f1d604086015160028301612896565b612f2e606086015160038301612896565b612f3f608086015160048301612896565b60a08581015191909201805460c087015160ff60a01b90151590941b939093166001600160a01b039092166001600160a81b031990931692909217178155920151151590565b815460ff60a81b191690151560a81b60ff60a81b16179055565b7fffeb7702be7dcd8fee170d954b70afb9a7c78f7f5cff232d037e7b9d8243356a9461309e94969361307c93612fe2612fdd6108cf600a5460ff1690565b612db8565b61300e6130096108cf6005611a758a60018060a01b03166000526002602052604060002090565b612e22565b61302261301d6108cf886130cf565b612e7f565b61302a6102b5565b938452602084015260408301526060820187905260808201526001600160a01b03831660a0820152600060c0820181905260e082018190526001600160a01b0384168152600260205260409020612ee4565b613085816122d3565b6040516001600160a01b039091169390918291826123f1565b0390a2565b6000546001600160a01b031633036130b757565b60405163118cdaa760e01b8152336004820152602490fd5b6003805491906000805b8481106130ea575050505050600090565b8282526000805160206132348339815191528101546001600160a01b03858116911614613119576001016130d9565b5050505050600190565b6000805b6003805480831015610f37578184526000805160206132348339815191528301546001600160a01b03919082168683161461316757505050600101613127565b6131af93929495509061318461317f61319193612d64565b6107c3565b905490861b1c16916107c3565b90919060018060a01b038084549260031b9316831b921b1916179055565b8054918215612db357600019830192808410156106f857908290527fc2575a0e9e593c00f959f8c92f12db2869c3395a3b0502d05e2516446f71f85a0180546001600160a01b031916905555565b9060005b825181101561322b5781613215828561221e565b511461322357600101613201565b505050600190565b50505060009056fec2575a0e9e593c00f959f8c92f12db2869c3395a3b0502d05e2516446f71f85b8a35acfbc15ff81a39ae7d344fd709f28e8600b4aa8c65c6b64bfe7fe36bd19ba2646970667358221220d53a94862d30df07418650d74c5382b56d0929c94d18611028e7fd55a282a00964736f6c63430008180033","opcodes":"PUSH1 0x80 DUP1 PUSH1 0x40 MSTORE CALLVALUE PUSH2 0x7E JUMPI CALLER ISZERO PUSH2 0x68 JUMPI PUSH1 0x0 DUP1 SLOAD CALLER PUSH1 0x1 PUSH1 0x1 PUSH1 0xA0 SHL SUB NOT DUP3 AND DUP2 OR DUP4 SSTORE PUSH1 0x40 MLOAD SWAP3 SWAP1 SWAP2 PUSH1 0x1 PUSH1 0x1 PUSH1 0xA0 SHL SUB AND SWAP1 PUSH32 0x8BE0079C531659141344CD1FD0A4F28419497F9722A3DAAFE3B4186F6B6457E0 SWAP1 DUP1 LOG3 PUSH1 0x1 DUP1 SSTORE PUSH2 0x32A9 SWAP1 DUP2 PUSH2 0x84 DUP3 CODECOPY RETURN JUMPDEST PUSH4 0x1E4FBDF7 PUSH1 0xE0 SHL DUP2 MSTORE PUSH1 0x0 PUSH1 0x4 DUP3 ADD MSTORE PUSH1 0x24 SWAP1 REVERT JUMPDEST PUSH1 0x0 DUP1 REVERT INVALID PUSH1 0x80 PUSH1 0x40 MSTORE PUSH1 0x4 CALLDATASIZE LT ISZERO PUSH2 0x12 JUMPI PUSH1 0x0 DUP1 REVERT JUMPDEST PUSH1 0x0 CALLDATALOAD PUSH1 0xE0 SHR DUP1 PUSH3 0x3A3D1 EQ PUSH2 0x236 JUMPI DUP1 PUSH4 0x9E33D07 EQ PUSH2 0x231 JUMPI DUP1 PUSH4 0x119D4DDB EQ PUSH2 0x22C JUMPI DUP1 PUSH4 0x1B04772B EQ PUSH2 0x227 JUMPI DUP1 PUSH4 0x24A9267B EQ PUSH2 0x222 JUMPI DUP1 PUSH4 0x2F54BF6E EQ PUSH2 0x21D JUMPI DUP1 PUSH4 0x3CFE3A37 EQ PUSH2 0x218 JUMPI DUP1 PUSH4 0x4DA3FE5A EQ PUSH2 0x213 JUMPI DUP1 PUSH4 0x4F333369 EQ PUSH2 0x20E JUMPI DUP1 PUSH4 0x51090D33 EQ PUSH2 0x209 JUMPI DUP1 PUSH4 0x5824BF30 EQ PUSH2 0x204 JUMPI DUP1 PUSH4 0x59F78468 EQ PUSH2 0x1FF JUMPI DUP1 PUSH4 0x5E6FEF01 EQ PUSH2 0x1FA JUMPI DUP1 PUSH4 0x62D73EB8 EQ PUSH2 0x1F5 JUMPI DUP1 PUSH4 0x715018A6 EQ PUSH2 0x1F0 JUMPI DUP1 PUSH4 0x760B5B23 EQ PUSH2 0x1EB JUMPI DUP1 PUSH4 0x8DA5CB5B EQ PUSH2 0x1E6 JUMPI DUP1 PUSH4 0x997D2830 EQ PUSH2 0x1E1 JUMPI DUP1 PUSH4 0x9A1D5956 EQ PUSH2 0x1DC JUMPI DUP1 PUSH4 0x9D710777 EQ PUSH2 0x1D7 JUMPI DUP1 PUSH4 0xA3EC138D EQ PUSH2 0x1D2 JUMPI DUP1 PUSH4 0xAED93010 EQ PUSH2 0x1CD JUMPI DUP1 PUSH4 0xBD5B5FAF EQ PUSH2 0x1C8 JUMPI DUP1 PUSH4 0xC3322D09 EQ PUSH2 0x1C3 JUMPI DUP1 PUSH4 0xC94CA9E3 EQ PUSH2 0x1BE JUMPI DUP1 PUSH4 0xD4F50F98 EQ PUSH2 0x1B9 JUMPI DUP1 PUSH4 0xD5346DA1 EQ PUSH2 0x1B4 JUMPI DUP1 PUSH4 0xD6C79EAA EQ PUSH2 0x1AF JUMPI DUP1 PUSH4 0xF0F45457 EQ PUSH2 0x1AA JUMPI DUP1 PUSH4 0xF2FDE38B EQ PUSH2 0x1A5 JUMPI DUP1 PUSH4 0xF309ED15 EQ PUSH2 0x1A0 JUMPI DUP1 PUSH4 0xF452130B EQ PUSH2 0x19B JUMPI DUP1 PUSH4 0xF49A7A17 EQ PUSH2 0x196 JUMPI PUSH4 0xFF9E50FE EQ PUSH2 0x191 JUMPI PUSH1 0x0 DUP1 REVERT JUMPDEST PUSH2 0x2003 JUMP JUMPDEST PUSH2 0x1EAE JUMP JUMPDEST PUSH2 0x1E30 JUMP JUMPDEST PUSH2 0x1C45 JUMP JUMPDEST PUSH2 0x1BBD JUMP JUMPDEST PUSH2 0x19D4 JUMP JUMPDEST PUSH2 0x1904 JUMP JUMPDEST PUSH2 0x18E1 JUMP JUMPDEST PUSH2 0x1802 JUMP JUMPDEST PUSH2 0x17DC JUMP JUMPDEST PUSH2 0x1727 JUMP JUMPDEST PUSH2 0x15A0 JUMP JUMPDEST PUSH2 0x1557 JUMP JUMPDEST PUSH2 0x1493 JUMP JUMPDEST PUSH2 0x1337 JUMP JUMPDEST PUSH2 0x122C JUMP JUMPDEST PUSH2 0x120E JUMP JUMPDEST PUSH2 0x11E5 JUMP JUMPDEST PUSH2 0x10F5 JUMP JUMPDEST PUSH2 0x109A JUMP JUMPDEST PUSH2 0x102F JUMP JUMPDEST PUSH2 0xFBB JUMP JUMPDEST PUSH2 0xE18 JUMP JUMPDEST PUSH2 0xDEC JUMP JUMPDEST PUSH2 0xC8E JUMP JUMPDEST PUSH2 0xACD JUMP JUMPDEST PUSH2 0x9A6 JUMP JUMPDEST PUSH2 0x8A3 JUMP JUMPDEST PUSH2 0x86E JUMP JUMPDEST PUSH2 0x825 JUMP JUMPDEST PUSH2 0x6FD JUMP JUMPDEST PUSH2 0x5F8 JUMP JUMPDEST PUSH2 0x4FC JUMP JUMPDEST PUSH2 0x415 JUMP JUMPDEST PUSH4 0x4E487B71 PUSH1 0xE0 SHL PUSH1 0x0 MSTORE PUSH1 0x41 PUSH1 0x4 MSTORE PUSH1 0x24 PUSH1 0x0 REVERT JUMPDEST SWAP1 PUSH1 0x1F DUP1 NOT SWAP2 ADD AND DUP2 ADD SWAP1 DUP2 LT PUSH1 0x1 PUSH1 0x1 PUSH1 0x40 SHL SUB DUP3 GT OR PUSH2 0x272 JUMPI PUSH1 0x40 MSTORE JUMP JUMPDEST PUSH2 0x23B JUMP JUMPDEST PUSH1 0x40 MLOAD SWAP1 PUSH1 0x40 DUP3 ADD DUP3 DUP2 LT PUSH1 0x1 PUSH1 0x1 PUSH1 0x40 SHL SUB DUP3 GT OR PUSH2 0x272 JUMPI PUSH1 0x40 MSTORE JUMP JUMPDEST PUSH1 0x40 MLOAD SWAP1 PUSH1 0x80 DUP3 ADD DUP3 DUP2 LT PUSH1 0x1 PUSH1 0x1 PUSH1 0x40 SHL SUB DUP3 GT OR PUSH2 0x272 JUMPI PUSH1 0x40 MSTORE JUMP JUMPDEST PUSH1 0x40 MLOAD SWAP1 PUSH2 0x100 DUP3 ADD DUP3 DUP2 LT PUSH1 0x1 PUSH1 0x1 PUSH1 0x40 SHL SUB DUP3 GT OR PUSH2 0x272 JUMPI PUSH1 0x40 MSTORE JUMP JUMPDEST DUP2 PUSH1 0x1F DUP3 ADD SLT ISZERO PUSH2 0x32B JUMPI DUP1 CALLDATALOAD SWAP1 PUSH1 0x1 PUSH1 0x1 PUSH1 0x40 SHL SUB DUP3 GT PUSH2 0x272 JUMPI PUSH1 0x40 MLOAD SWAP3 PUSH2 0x309 PUSH1 0x1F DUP5 ADD PUSH1 0x1F NOT AND PUSH1 0x20 ADD DUP6 PUSH2 0x251 JUMP JUMPDEST DUP3 DUP5 MSTORE PUSH1 0x20 DUP4 DUP4 ADD ADD GT PUSH2 0x32B JUMPI DUP2 PUSH1 0x0 SWAP3 PUSH1 0x20 DUP1 SWAP4 ADD DUP4 DUP7 ADD CALLDATACOPY DUP4 ADD ADD MSTORE SWAP1 JUMP JUMPDEST PUSH1 0x0 DUP1 REVERT JUMPDEST SWAP1 PUSH1 0x40 PUSH1 0x3 NOT DUP4 ADD SLT PUSH2 0x32B JUMPI PUSH1 0x4 CALLDATALOAD SWAP2 PUSH1 0x24 CALLDATALOAD SWAP1 PUSH1 0x1 PUSH1 0x1 PUSH1 0x40 SHL SUB DUP3 GT PUSH2 0x32B JUMPI PUSH2 0x35F SWAP2 PUSH1 0x4 ADD PUSH2 0x2D5 JUMP JUMPDEST SWAP1 JUMP JUMPDEST PUSH1 0x0 JUMPDEST DUP4 DUP2 LT PUSH2 0x375 JUMPI POP POP PUSH1 0x0 SWAP2 ADD MSTORE JUMP JUMPDEST DUP2 DUP2 ADD MLOAD DUP4 DUP3 ADD MSTORE PUSH1 0x20 ADD PUSH2 0x365 JUMP JUMPDEST SWAP1 PUSH1 0x20 SWAP2 PUSH2 0x39E DUP2 MLOAD DUP1 SWAP3 DUP2 DUP6 MSTORE DUP6 DUP1 DUP7 ADD SWAP2 ADD PUSH2 0x362 JUMP JUMPDEST PUSH1 0x1F ADD PUSH1 0x1F NOT AND ADD ADD SWAP1 JUMP JUMPDEST SWAP1 DUP2 MLOAD DUP1 DUP3 MSTORE PUSH1 0x20 DUP1 DUP1 SWAP4 ADD SWAP4 ADD SWAP2 PUSH1 0x0 JUMPDEST DUP3 DUP2 LT PUSH2 0x3CA JUMPI POP POP POP POP SWAP1 JUMP JUMPDEST DUP4 MLOAD DUP6 MSTORE SWAP4 DUP2 ADD SWAP4 SWAP3 DUP2 ADD SWAP3 PUSH1 0x1 ADD PUSH2 0x3BC JUMP JUMPDEST SWAP2 PUSH2 0x407 SWAP1 PUSH2 0x3F9 PUSH2 0x35F SWAP6 SWAP4 PUSH1 0x60 DUP7 MSTORE PUSH1 0x60 DUP7 ADD SWAP1 PUSH2 0x385 JUMP JUMPDEST SWAP1 DUP5 DUP3 SUB PUSH1 0x20 DUP7 ADD MSTORE PUSH2 0x3AA JUMP JUMPDEST SWAP2 PUSH1 0x40 DUP2 DUP5 SUB SWAP2 ADD MSTORE PUSH2 0x3AA JUMP JUMPDEST CALLVALUE PUSH2 0x32B JUMPI PUSH2 0x423 CALLDATASIZE PUSH2 0x330 JUMP JUMPDEST SWAP1 PUSH2 0x432 PUSH1 0x6 SLOAD DUP3 GT ISZERO PUSH2 0x20A5 JUMP JUMPDEST DUP1 PUSH1 0x0 MSTORE PUSH1 0x5 PUSH1 0x20 MSTORE PUSH2 0x461 PUSH1 0x40 PUSH1 0x0 KECCAK256 SWAP3 PUSH1 0x4 PUSH1 0x1 SWAP5 PUSH2 0x45A PUSH1 0xFF PUSH1 0x1 DUP4 ADD SLOAD AND ISZERO PUSH2 0x20F1 JUMP JUMPDEST ADD SWAP1 PUSH2 0x2136 JUMP JUMPDEST PUSH2 0x46D PUSH1 0x1 DUP3 ADD PUSH2 0x215C JUMP JUMPDEST SWAP3 PUSH2 0x478 DUP5 MLOAD PUSH2 0x21EC JUMP JUMPDEST SWAP3 PUSH1 0x0 DUP3 JUMPDEST PUSH2 0x4A2 JUMPI JUMPDEST POP POP POP PUSH2 0x491 PUSH2 0x49E SWAP2 PUSH2 0xF9E JUMP JUMPDEST SWAP2 PUSH1 0x40 MLOAD SWAP4 DUP5 SWAP4 DUP5 PUSH2 0x3DE JUMP JUMPDEST SUB SWAP1 RETURN JUMPDEST DUP6 MLOAD DUP2 LT ISZERO PUSH2 0x4F7 JUMPI SWAP1 DUP3 DUP3 PUSH1 0x2 PUSH2 0x4E2 PUSH2 0x4BE DUP5 SWAP7 DUP12 PUSH2 0x221E JUMP JUMPDEST MLOAD PUSH2 0x4D3 DUP7 PUSH1 0x0 MSTORE PUSH1 0x7 PUSH1 0x20 MSTORE PUSH1 0x40 PUSH1 0x0 KECCAK256 SWAP1 JUMP JUMPDEST SWAP1 PUSH1 0x0 MSTORE PUSH1 0x20 MSTORE PUSH1 0x40 PUSH1 0x0 KECCAK256 SWAP1 JUMP JUMPDEST ADD SLOAD PUSH2 0x4EE DUP3 DUP10 PUSH2 0x221E JUMP JUMPDEST MSTORE ADD SWAP1 SWAP2 PUSH2 0x47D JUMP JUMPDEST PUSH2 0x482 JUMP JUMPDEST CALLVALUE PUSH2 0x32B JUMPI PUSH1 0x20 CALLDATASIZE PUSH1 0x3 NOT ADD SLT PUSH2 0x32B JUMPI PUSH1 0x4 CALLDATALOAD PUSH2 0x518 PUSH2 0x30A3 JUMP JUMPDEST PUSH2 0x526 PUSH1 0x6 SLOAD DUP3 GT ISZERO PUSH2 0x20A5 JUMP JUMPDEST PUSH1 0x0 SWAP1 DUP1 DUP3 MSTORE PUSH1 0x5 PUSH1 0x20 MSTORE PUSH1 0x40 DUP3 KECCAK256 PUSH1 0x1 DUP2 ADD PUSH1 0xFF DUP2 SLOAD AND ISZERO PUSH2 0x587 JUMPI PUSH2 0x556 PUSH1 0x3 PUSH2 0x560 SWAP4 ADD SLOAD TIMESTAMP LT ISZERO PUSH2 0x2232 JUMP JUMPDEST DUP1 SLOAD PUSH1 0xFF NOT AND SWAP1 SSTORE JUMP JUMPDEST PUSH32 0x393C4B8E62F1195313CF17DCF00793C668DDFC35881CD8015559C074F6D61E83 DUP3 DUP1 LOG2 DUP1 RETURN JUMPDEST PUSH1 0x40 MLOAD PUSH3 0x461BCD PUSH1 0xE5 SHL DUP2 MSTORE PUSH1 0x20 PUSH1 0x4 DUP3 ADD MSTORE PUSH1 0x1A PUSH1 0x24 DUP3 ADD MSTORE PUSH32 0x456C656374696F6E20697320616C726561647920636C6F736564000000000000 PUSH1 0x44 DUP3 ADD MSTORE PUSH1 0x64 SWAP1 REVERT JUMPDEST PUSH1 0x4 CALLDATALOAD SWAP1 PUSH1 0x1 PUSH1 0x1 PUSH1 0xA0 SHL SUB DUP3 AND DUP3 SUB PUSH2 0x32B JUMPI JUMP JUMPDEST PUSH1 0xA4 CALLDATALOAD SWAP1 PUSH1 0x1 PUSH1 0x1 PUSH1 0xA0 SHL SUB DUP3 AND DUP3 SUB PUSH2 0x32B JUMPI JUMP JUMPDEST CALLVALUE PUSH2 0x32B JUMPI PUSH1 0x20 CALLDATASIZE PUSH1 0x3 NOT ADD SLT PUSH2 0x32B JUMPI PUSH2 0x611 PUSH2 0x5CC JUMP JUMPDEST PUSH2 0x619 PUSH2 0x30A3 JUMP JUMPDEST PUSH2 0x62A PUSH2 0x625 DUP3 PUSH2 0x30CF JUMP JUMPDEST PUSH2 0x2288 JUMP JUMPDEST PUSH1 0x1 PUSH1 0x1 PUSH1 0xA0 SHL SUB DUP2 AND PUSH1 0x0 DUP2 DUP2 MSTORE PUSH1 0x2 PUSH1 0x20 MSTORE PUSH1 0x40 DUP2 KECCAK256 PUSH1 0x5 ADD DUP1 SLOAD PUSH1 0xFF PUSH1 0xA0 SHL NOT AND PUSH1 0x1 PUSH1 0xA0 SHL OR SWAP1 SSTORE PUSH1 0x4 SLOAD SWAP1 SWAP3 PUSH1 0x1 PUSH1 0x40 SHL DUP3 LT ISZERO PUSH2 0x272 JUMPI PUSH1 0x1 DUP3 ADD DUP1 PUSH1 0x4 SSTORE DUP3 LT ISZERO PUSH2 0x6F8 JUMPI PUSH1 0x4 DUP5 MSTORE PUSH1 0x0 DUP1 MLOAD PUSH1 0x20 PUSH2 0x3254 DUP4 CODECOPY DUP2 MLOAD SWAP2 MSTORE SWAP1 SWAP2 ADD DUP1 SLOAD PUSH1 0x1 PUSH1 0x1 PUSH1 0xA0 SHL SUB NOT AND PUSH1 0x1 PUSH1 0x1 PUSH1 0xA0 SHL SUB DUP4 AND OR SWAP1 SSTORE PUSH2 0x6B3 SWAP1 PUSH2 0x3123 JUMP JUMPDEST PUSH2 0x3123 JUMP JUMPDEST DUP1 DUP3 MSTORE PUSH1 0x2 PUSH1 0x20 MSTORE PUSH32 0x5AE161FF96A81F4FA8DDD8555AB13483A0FE416F296B510E08CBB11F98F9A10E PUSH2 0x6F2 PUSH1 0x3 PUSH1 0x40 DUP6 KECCAK256 ADD PUSH1 0x40 MLOAD SWAP2 DUP3 SWAP2 DUP3 PUSH2 0x2328 JUMP JUMPDEST SUB SWAP1 LOG2 DUP1 RETURN JUMPDEST PUSH2 0x7AD JUMP JUMPDEST CALLVALUE PUSH2 0x32B JUMPI PUSH1 0x20 CALLDATASIZE PUSH1 0x3 NOT ADD SLT PUSH2 0x32B JUMPI PUSH2 0x716 PUSH2 0x5CC JUMP JUMPDEST PUSH2 0x71E PUSH2 0x30A3 JUMP JUMPDEST PUSH2 0x72A PUSH2 0x625 DUP3 PUSH2 0x30CF JUMP JUMPDEST PUSH1 0x1 DUP1 PUSH1 0xA0 SHL SUB DUP2 AND PUSH32 0x376D99D855649BD6E81E7FCE16D54AC5F2C7FADAE7B2F50B619C182AFE401BBB PUSH2 0x6F2 PUSH2 0x77E PUSH2 0x799 PUSH1 0x0 SWAP6 DUP6 DUP8 MSTORE PUSH1 0x2 PUSH1 0x20 MSTORE PUSH2 0x785 PUSH1 0x3 PUSH1 0x40 DUP10 KECCAK256 ADD PUSH1 0x40 MLOAD SWAP5 DUP6 DUP1 SWAP3 PUSH2 0xF08 JUMP JUMPDEST SUB DUP5 PUSH2 0x251 JUMP JUMPDEST DUP6 DUP8 MSTORE PUSH1 0x2 PUSH1 0x20 MSTORE PUSH2 0x6AE PUSH1 0x40 DUP9 KECCAK256 PUSH2 0x23AF JUMP JUMPDEST PUSH1 0x40 MLOAD SWAP2 DUP3 SWAP2 PUSH1 0x20 DUP4 MSTORE PUSH1 0x20 DUP4 ADD SWAP1 PUSH2 0x385 JUMP JUMPDEST PUSH4 0x4E487B71 PUSH1 0xE0 SHL PUSH1 0x0 MSTORE PUSH1 0x32 PUSH1 0x4 MSTORE PUSH1 0x24 PUSH1 0x0 REVERT JUMPDEST PUSH1 0x3 SLOAD DUP2 LT ISZERO PUSH2 0x6F8 JUMPI PUSH1 0x3 PUSH1 0x0 MSTORE PUSH1 0x0 DUP1 MLOAD PUSH1 0x20 PUSH2 0x3234 DUP4 CODECOPY DUP2 MLOAD SWAP2 MSTORE ADD SWAP1 PUSH1 0x0 SWAP1 JUMP JUMPDEST PUSH1 0x4 SLOAD DUP2 LT ISZERO PUSH2 0x6F8 JUMPI PUSH1 0x4 PUSH1 0x0 MSTORE PUSH1 0x0 DUP1 MLOAD PUSH1 0x20 PUSH2 0x3254 DUP4 CODECOPY DUP2 MLOAD SWAP2 MSTORE ADD SWAP1 PUSH1 0x0 SWAP1 JUMP JUMPDEST DUP1 SLOAD DUP3 LT ISZERO PUSH2 0x6F8 JUMPI PUSH1 0x0 MSTORE PUSH1 0x20 PUSH1 0x0 KECCAK256 ADD SWAP1 PUSH1 0x0 SWAP1 JUMP JUMPDEST CALLVALUE PUSH2 0x32B JUMPI PUSH1 0x20 CALLDATASIZE PUSH1 0x3 NOT ADD SLT PUSH2 0x32B JUMPI PUSH1 0x4 CALLDATALOAD PUSH1 0x3 SLOAD DUP2 LT ISZERO PUSH2 0x32B JUMPI PUSH1 0x3 PUSH1 0x0 MSTORE PUSH1 0x0 DUP1 MLOAD PUSH1 0x20 PUSH2 0x3234 DUP4 CODECOPY DUP2 MLOAD SWAP2 MSTORE ADD SLOAD PUSH1 0x40 MLOAD PUSH1 0x1 PUSH1 0x1 PUSH1 0xA0 SHL SUB SWAP1 SWAP2 AND DUP2 MSTORE PUSH1 0x20 SWAP1 RETURN JUMPDEST CALLVALUE PUSH2 0x32B JUMPI PUSH1 0x20 CALLDATASIZE PUSH1 0x3 NOT ADD SLT PUSH2 0x32B JUMPI PUSH1 0x20 PUSH2 0x889 PUSH2 0x5CC JUMP JUMPDEST PUSH1 0x0 SLOAD PUSH1 0x40 MLOAD PUSH1 0x1 PUSH1 0x1 PUSH1 0xA0 SHL SUB SWAP3 DUP4 AND SWAP2 SWAP1 SWAP3 AND EQ DUP2 MSTORE RETURN JUMPDEST CALLVALUE PUSH2 0x32B JUMPI PUSH1 0x0 DUP1 PUSH1 0x3 NOT CALLDATASIZE ADD SLT PUSH2 0x9A3 JUMPI PUSH2 0x8BD PUSH2 0x30A3 JUMP JUMPDEST PUSH2 0x8D8 PUSH2 0x8D3 PUSH2 0x8CF PUSH1 0xA SLOAD PUSH1 0xFF AND SWAP1 JUMP JUMPDEST ISZERO SWAP1 JUMP JUMPDEST PUSH2 0x2402 JUMP JUMPDEST DUP1 JUMPDEST PUSH1 0x3 SLOAD DUP2 LT ISZERO PUSH2 0x933 JUMPI DUP1 PUSH2 0x92D PUSH2 0x928 PUSH2 0x90E PUSH2 0x8F9 PUSH1 0x1 SWAP6 PUSH2 0x7C3 JUMP JUMPDEST SWAP1 SLOAD PUSH1 0x3 SWAP2 SWAP1 SWAP2 SHL SHR PUSH1 0x1 PUSH1 0x1 PUSH1 0xA0 SHL SUB AND SWAP1 JUMP JUMPDEST PUSH1 0x1 PUSH1 0x1 PUSH1 0xA0 SHL SUB AND PUSH1 0x0 SWAP1 DUP2 MSTORE PUSH1 0x2 PUSH1 0x20 MSTORE PUSH1 0x40 SWAP1 KECCAK256 SWAP1 JUMP JUMPDEST PUSH2 0x23AF JUMP JUMPDEST ADD PUSH2 0x8DA JUMP JUMPDEST POP DUP1 JUMPDEST PUSH1 0x4 SLOAD DUP2 LT ISZERO PUSH2 0x95B JUMPI DUP1 PUSH2 0x955 PUSH2 0x928 PUSH2 0x90E PUSH2 0x8F9 PUSH1 0x1 SWAP6 PUSH2 0x7E8 JUMP JUMPDEST ADD PUSH2 0x936 JUMP JUMPDEST POP PUSH2 0x96C PUSH2 0x967 PUSH2 0x21C4 JUMP JUMPDEST PUSH2 0x2474 JUMP JUMPDEST PUSH2 0x97C PUSH2 0x977 PUSH2 0x21C4 JUMP JUMPDEST PUSH2 0x2508 JUMP JUMPDEST PUSH32 0x351A0247E8BB60A07BEA1959DF8F0E260DEE3B0CCBBEF1517CA1367B986664EB DUP2 DUP1 LOG1 DUP1 RETURN JUMPDEST DUP1 REVERT JUMPDEST CALLVALUE PUSH2 0x32B JUMPI PUSH1 0x40 CALLDATASIZE PUSH1 0x3 NOT ADD SLT PUSH2 0x32B JUMPI PUSH1 0x4 CALLDATALOAD PUSH1 0x24 CALLDATALOAD PUSH2 0x9C5 PUSH2 0x30A3 JUMP JUMPDEST PUSH2 0x9D3 PUSH1 0x6 SLOAD DUP4 GT ISZERO PUSH2 0x20A5 JUMP JUMPDEST DUP2 PUSH1 0x0 MSTORE PUSH1 0x5 PUSH1 0x20 MSTORE PUSH1 0x3 PUSH1 0x40 PUSH1 0x0 KECCAK256 PUSH2 0x9F3 PUSH1 0xFF PUSH1 0x1 DUP4 ADD SLOAD AND PUSH2 0x259C JUMP JUMPDEST ADD DUP1 SLOAD DUP3 GT ISZERO PUSH2 0xA33 JUMPI DUP2 SWAP1 SSTORE PUSH1 0x40 MLOAD SWAP1 DUP2 MSTORE PUSH32 0x9957539D9B3C3F294DA9088900BECE7540CDB76274E882913AE25BCA90B2061E SWAP1 DUP1 PUSH1 0x20 DUP2 ADD JUMPDEST SUB SWAP1 LOG2 STOP JUMPDEST PUSH1 0x40 MLOAD PUSH3 0x461BCD PUSH1 0xE5 SHL DUP2 MSTORE PUSH1 0x20 PUSH1 0x4 DUP3 ADD MSTORE PUSH1 0x36 PUSH1 0x24 DUP3 ADD MSTORE PUSH32 0x4E657720656E642074696D65206D757374206265206772656174657220746861 PUSH1 0x44 DUP3 ADD MSTORE PUSH22 0x6E207468652063757272656E7420656E642074696D65 PUSH1 0x50 SHL PUSH1 0x64 DUP3 ADD MSTORE PUSH1 0x84 SWAP1 REVERT JUMPDEST SWAP1 PUSH1 0x60 PUSH1 0x3 NOT DUP4 ADD SLT PUSH2 0x32B JUMPI PUSH1 0x4 CALLDATALOAD SWAP2 PUSH1 0x24 CALLDATALOAD SWAP1 PUSH1 0x1 PUSH1 0x1 PUSH1 0x40 SHL SUB DUP3 GT PUSH2 0x32B JUMPI PUSH2 0xAC6 SWAP2 PUSH1 0x4 ADD PUSH2 0x2D5 JUMP JUMPDEST SWAP1 PUSH1 0x44 CALLDATALOAD SWAP1 JUMP JUMPDEST CALLVALUE PUSH2 0x32B JUMPI PUSH32 0xE46EF16F45F14B433702C21C325CA11D00B469B9C13D430220E2B5726CDFA25E PUSH1 0x1 PUSH2 0xAFE CALLDATASIZE PUSH2 0xA97 JUMP JUMPDEST PUSH2 0xB0B SWAP5 SWAP3 SWAP4 SWAP2 SWAP5 PUSH2 0x30A3 JUMP JUMPDEST PUSH2 0xB19 PUSH1 0x6 SLOAD DUP6 GT ISZERO PUSH2 0x20A5 JUMP JUMPDEST PUSH2 0x6F2 PUSH1 0x0 SWAP6 DUP6 DUP8 MSTORE PUSH1 0x5 PUSH1 0x20 MSTORE PUSH2 0xB4A PUSH2 0xB43 PUSH2 0xB3D PUSH1 0x4 PUSH1 0x40 DUP12 KECCAK256 ADD DUP5 PUSH2 0x2136 JUMP JUMPDEST SLOAD PUSH2 0xECE JUMP JUMPDEST ISZERO ISZERO PUSH2 0x25E9 JUMP JUMPDEST DUP6 DUP8 MSTORE PUSH1 0x5 PUSH1 0x20 MSTORE PUSH2 0xB64 PUSH1 0x2 PUSH1 0x40 DUP10 KECCAK256 ADD SLOAD TIMESTAMP LT PUSH2 0x2635 JUMP JUMPDEST DUP6 DUP8 MSTORE PUSH1 0x7 PUSH1 0x20 MSTORE PUSH1 0x40 DUP8 KECCAK256 DUP4 DUP9 MSTORE PUSH1 0x20 MSTORE PUSH2 0xBC0 PUSH1 0x40 DUP9 KECCAK256 SWAP4 PUSH1 0x3 DUP6 ADD DUP7 DUP2 SLOAD PUSH2 0xB92 PUSH1 0xFF DUP3 AND ISZERO PUSH2 0x2681 JUMP JUMPDEST PUSH1 0xFF NOT AND OR SWAP1 SSTORE DUP6 PUSH2 0xBBA PUSH1 0x4 PUSH2 0xBB3 DUP12 PUSH1 0x0 MSTORE PUSH1 0x5 PUSH1 0x20 MSTORE PUSH1 0x40 PUSH1 0x0 KECCAK256 SWAP1 JUMP JUMPDEST ADD DUP6 PUSH2 0x2136 JUMP JUMPDEST ADD PUSH2 0x26CD JUMP JUMPDEST PUSH1 0x40 MLOAD SWAP4 DUP5 SWAP4 ADD SWAP1 DUP4 PUSH2 0x26F0 JUMP JUMPDEST SWAP1 DUP1 DUP3 MLOAD SWAP1 DUP2 DUP2 MSTORE PUSH1 0x20 DUP1 SWAP2 ADD SWAP3 PUSH1 0x20 DUP1 DUP5 PUSH1 0x5 SHL DUP4 ADD ADD SWAP6 ADD SWAP4 PUSH1 0x0 SWAP2 JUMPDEST DUP5 DUP4 LT PUSH2 0xBFD JUMPI POP POP POP POP POP POP SWAP1 JUMP JUMPDEST SWAP1 SWAP2 SWAP3 SWAP4 SWAP5 SWAP6 DUP5 DUP1 PUSH2 0xC1B PUSH1 0x1 SWAP4 PUSH1 0x1F NOT DUP7 DUP3 SUB ADD DUP8 MSTORE DUP11 MLOAD PUSH2 0x385 JUMP JUMPDEST SWAP9 ADD SWAP4 ADD SWAP4 ADD SWAP2 SWAP5 SWAP4 SWAP3 SWAP1 PUSH2 0xBED JUMP JUMPDEST SWAP1 PUSH2 0xC41 PUSH2 0xC51 SWAP2 PUSH1 0x60 DUP5 MSTORE PUSH1 0x60 DUP5 ADD SWAP1 PUSH2 0x3AA JUMP JUMPDEST PUSH1 0x20 SWAP4 DUP4 DUP3 SUB PUSH1 0x20 DUP6 ADD MSTORE PUSH2 0xBCE JUMP JUMPDEST SWAP1 PUSH1 0x40 DUP2 DUP4 SUB SWAP2 ADD MSTORE PUSH1 0x20 DUP1 DUP5 MLOAD SWAP3 DUP4 DUP2 MSTORE ADD SWAP4 ADD SWAP2 PUSH1 0x0 JUMPDEST DUP3 DUP2 LT PUSH2 0xC78 JUMPI POP POP POP POP SWAP1 JUMP JUMPDEST DUP4 MLOAD ISZERO ISZERO DUP6 MSTORE SWAP4 DUP2 ADD SWAP4 SWAP3 DUP2 ADD SWAP3 PUSH1 0x1 ADD PUSH2 0xC6A JUMP JUMPDEST CALLVALUE PUSH2 0x32B JUMPI PUSH2 0xC9C CALLDATASIZE PUSH2 0x330 JUMP JUMPDEST PUSH2 0xCAA PUSH1 0x6 SLOAD DUP4 GT ISZERO PUSH2 0x20A5 JUMP JUMPDEST DUP2 PUSH1 0x0 MSTORE PUSH1 0x5 PUSH1 0x20 MSTORE PUSH2 0xCCA PUSH2 0xB43 PUSH2 0xB3D PUSH1 0x4 PUSH1 0x40 PUSH1 0x0 KECCAK256 ADD DUP5 PUSH2 0x2136 JUMP JUMPDEST DUP2 PUSH1 0x0 MSTORE PUSH1 0x8 PUSH1 0x20 MSTORE PUSH1 0x40 PUSH1 0x0 KECCAK256 SLOAD SWAP2 PUSH2 0xCE3 DUP4 PUSH2 0x21EC JUMP JUMPDEST SWAP2 PUSH2 0xCED DUP5 PUSH2 0x2715 JUMP JUMPDEST SWAP4 PUSH2 0xCF7 DUP2 PUSH2 0x21EC JUMP JUMPDEST SWAP3 PUSH1 0x0 SWAP3 PUSH1 0x1 SWAP1 PUSH1 0x1 JUMPDEST DUP5 DUP2 GT ISZERO PUSH2 0xD22 JUMPI DUP6 DUP9 MSTORE DUP6 DUP10 MSTORE DUP6 DUP8 MSTORE PUSH1 0x40 MLOAD DUP1 PUSH2 0x49E DUP10 DUP13 DUP13 DUP5 PUSH2 0xC2B JUMP JUMPDEST PUSH2 0xD3A DUP2 PUSH2 0x4D3 DUP7 PUSH1 0x0 MSTORE PUSH1 0x7 PUSH1 0x20 MSTORE PUSH1 0x40 PUSH1 0x0 KECCAK256 SWAP1 JUMP JUMPDEST DUP10 PUSH2 0xD58 PUSH2 0xD52 DUP8 PUSH1 0x0 MSTORE PUSH1 0x9 PUSH1 0x20 MSTORE PUSH1 0x40 PUSH1 0x0 KECCAK256 SWAP1 JUMP JUMPDEST DUP6 PUSH2 0x2136 JUMP JUMPDEST DUP11 PUSH2 0xD70 PUSH2 0xD69 DUP9 DUP7 ADD SWAP4 DUP5 PUSH2 0x2773 JUMP JUMPDEST SLOAD PUSH1 0xFF AND SWAP1 JUMP JUMPDEST PUSH2 0xD87 JUMPI JUMPDEST POP POP POP POP PUSH2 0xD82 SWAP1 PUSH2 0x275F JUMP JUMPDEST PUSH2 0xD01 JUMP JUMPDEST PUSH1 0x3 PUSH2 0xDE2 SWAP5 PUSH2 0xDC3 DUP13 DUP1 SWAP7 PUSH2 0xDB3 DUP11 SWAP16 SWAP8 PUSH2 0xD82 SWAP12 PUSH2 0xDAD PUSH2 0xDDD SWAP11 PUSH2 0xDCC SWAP11 PUSH2 0x221E JUMP JUMPDEST MSTORE PUSH2 0xF9E JUMP JUMPDEST PUSH2 0xDBD DUP4 DUP4 PUSH2 0x221E JUMP JUMPDEST MSTORE PUSH2 0x221E JUMP JUMPDEST POP ADD SLOAD PUSH1 0xFF AND SWAP1 JUMP JUMPDEST PUSH2 0xDD6 DUP4 DUP13 PUSH2 0x221E JUMP JUMPDEST SWAP1 ISZERO ISZERO SWAP1 MSTORE JUMP JUMPDEST PUSH2 0x275F JUMP JUMPDEST SWAP6 SWAP1 DUP10 CODESIZE DUP11 PUSH2 0xD75 JUMP JUMPDEST CALLVALUE PUSH2 0x32B JUMPI PUSH1 0x20 CALLDATASIZE PUSH1 0x3 NOT ADD SLT PUSH2 0x32B JUMPI PUSH1 0x4 CALLDATALOAD PUSH1 0x0 MSTORE PUSH1 0x8 PUSH1 0x20 MSTORE PUSH1 0x20 PUSH1 0x40 PUSH1 0x0 KECCAK256 SLOAD PUSH1 0x40 MLOAD SWAP1 DUP2 MSTORE RETURN JUMPDEST CALLVALUE PUSH2 0x32B JUMPI PUSH1 0x0 DUP1 PUSH1 0x3 NOT CALLDATASIZE ADD SLT PUSH2 0x9A3 JUMPI PUSH2 0xE32 PUSH2 0x30A3 JUMP JUMPDEST PUSH1 0xA SLOAD PUSH1 0xFF DUP2 AND ISZERO PUSH2 0xE89 JUMPI PUSH1 0xFF PUSH2 0xE4E SWAP2 PUSH1 0x8 SHR AND ISZERO PUSH2 0x2805 JUMP JUMPDEST PUSH2 0xE62 PUSH2 0x100 PUSH2 0xFF00 NOT PUSH1 0xA SLOAD AND OR PUSH1 0xA SSTORE JUMP JUMPDEST PUSH32 0x66EC723071E4BB646F7B35D31BC2DEE8510979BD8C180EDD0690D4F5E802F1E4 DUP2 DUP1 LOG1 DUP1 RETURN JUMPDEST PUSH1 0x40 MLOAD PUSH3 0x461BCD PUSH1 0xE5 SHL DUP2 MSTORE PUSH1 0x20 PUSH1 0x4 DUP3 ADD MSTORE PUSH1 0x1C PUSH1 0x24 DUP3 ADD MSTORE PUSH32 0x456C656374696F6E20686173206E6F7420737461727465642079657400000000 PUSH1 0x44 DUP3 ADD MSTORE PUSH1 0x64 SWAP1 REVERT JUMPDEST SWAP1 PUSH1 0x1 DUP3 DUP2 SHR SWAP3 AND DUP1 ISZERO PUSH2 0xEFE JUMPI JUMPDEST PUSH1 0x20 DUP4 LT EQ PUSH2 0xEE8 JUMPI JUMP JUMPDEST PUSH4 0x4E487B71 PUSH1 0xE0 SHL PUSH1 0x0 MSTORE PUSH1 0x22 PUSH1 0x4 MSTORE PUSH1 0x24 PUSH1 0x0 REVERT JUMPDEST SWAP2 PUSH1 0x7F AND SWAP2 PUSH2 0xEDD JUMP JUMPDEST DUP1 SLOAD PUSH1 0x0 SWAP4 SWAP3 PUSH2 0xF17 DUP3 PUSH2 0xECE JUMP JUMPDEST SWAP2 DUP3 DUP3 MSTORE PUSH1 0x20 SWAP4 PUSH1 0x1 SWAP2 PUSH1 0x1 DUP2 AND SWAP1 DUP2 PUSH1 0x0 EQ PUSH2 0xF7F JUMPI POP PUSH1 0x1 EQ PUSH2 0xF3E JUMPI JUMPDEST POP POP POP POP POP JUMP JUMPDEST SWAP1 SWAP4 SWAP5 SWAP6 POP PUSH1 0x0 SWAP3 SWAP2 SWAP3 MSTORE DUP4 PUSH1 0x0 KECCAK256 SWAP3 DUP5 PUSH1 0x0 SWAP5 JUMPDEST DUP4 DUP7 LT PUSH2 0xF6B JUMPI POP POP POP POP ADD ADD SWAP1 CODESIZE DUP1 DUP1 DUP1 DUP1 PUSH2 0xF37 JUMP JUMPDEST DUP1 SLOAD DUP6 DUP8 ADD DUP4 ADD MSTORE SWAP5 ADD SWAP4 DUP6 SWAP1 DUP3 ADD PUSH2 0xF53 JUMP JUMPDEST PUSH1 0xFF NOT AND DUP7 DUP6 ADD MSTORE POP POP POP SWAP1 ISZERO ISZERO PUSH1 0x5 SHL ADD ADD SWAP2 POP CODESIZE DUP1 DUP1 DUP1 DUP1 PUSH2 0xF37 JUMP JUMPDEST SWAP1 PUSH2 0xFB9 PUSH2 0xFB2 SWAP3 PUSH1 0x40 MLOAD SWAP4 DUP5 DUP1 SWAP3 PUSH2 0xF08 JUMP JUMPDEST SUB DUP4 PUSH2 0x251 JUMP JUMPDEST JUMP JUMPDEST CALLVALUE PUSH2 0x32B JUMPI PUSH1 0x20 CALLDATASIZE PUSH1 0x3 NOT ADD SLT PUSH2 0x32B JUMPI PUSH1 0x4 CALLDATALOAD PUSH1 0x0 MSTORE PUSH1 0x5 PUSH1 0x20 MSTORE PUSH2 0x1019 PUSH1 0x40 PUSH1 0x0 KECCAK256 PUSH1 0x40 MLOAD SWAP1 PUSH2 0xFF1 DUP3 PUSH2 0xFB2 DUP2 DUP5 PUSH2 0xF08 JUMP JUMPDEST PUSH1 0xFF PUSH1 0x1 DUP3 ADD SLOAD AND SWAP1 PUSH1 0x3 PUSH1 0x2 DUP3 ADD SLOAD SWAP2 ADD SLOAD SWAP1 PUSH1 0x40 MLOAD SWAP5 DUP6 SWAP5 PUSH1 0x80 DUP7 MSTORE PUSH1 0x80 DUP7 ADD SWAP1 PUSH2 0x385 JUMP JUMPDEST SWAP3 ISZERO ISZERO PUSH1 0x20 DUP6 ADD MSTORE PUSH1 0x40 DUP5 ADD MSTORE PUSH1 0x60 DUP4 ADD MSTORE SUB SWAP1 RETURN JUMPDEST CALLVALUE PUSH2 0x32B JUMPI PUSH1 0x0 DUP1 PUSH1 0x3 NOT CALLDATASIZE ADD SLT PUSH2 0x9A3 JUMPI PUSH2 0x1049 PUSH2 0x30A3 JUMP JUMPDEST PUSH1 0x1 PUSH1 0xA SLOAD PUSH2 0x105B PUSH1 0xFF DUP3 AND ISZERO PUSH2 0x2635 JUMP JUMPDEST PUSH2 0x106B PUSH1 0xFF DUP3 PUSH1 0x8 SHR AND ISZERO PUSH2 0x2805 JUMP JUMPDEST PUSH1 0xFF NOT AND OR PUSH1 0xA SSTORE PUSH32 0xC475C26AA25ED8E85A7FAA790E5F63B5D7EE1025F12821F4C9BFDDD36AB4D112 DUP2 DUP1 LOG1 DUP1 RETURN JUMPDEST CALLVALUE PUSH2 0x32B JUMPI PUSH1 0x0 DUP1 PUSH1 0x3 NOT CALLDATASIZE ADD SLT PUSH2 0x9A3 JUMPI PUSH2 0x10B4 PUSH2 0x30A3 JUMP JUMPDEST DUP1 SLOAD PUSH1 0x1 PUSH1 0x1 PUSH1 0xA0 SHL SUB NOT DUP2 AND DUP3 SSTORE DUP2 SWAP1 PUSH1 0x1 PUSH1 0x1 PUSH1 0xA0 SHL SUB AND PUSH32 0x8BE0079C531659141344CD1FD0A4F28419497F9722A3DAAFE3B4186F6B6457E0 DUP3 DUP1 LOG3 DUP1 RETURN JUMPDEST CALLVALUE PUSH2 0x32B JUMPI PUSH2 0x1103 CALLDATASIZE PUSH2 0x330 JUMP JUMPDEST PUSH2 0x110B PUSH2 0x30A3 JUMP JUMPDEST PUSH2 0x1119 PUSH1 0x6 SLOAD DUP4 GT ISZERO PUSH2 0x20A5 JUMP JUMPDEST DUP1 MLOAD ISZERO PUSH2 0x11A0 JUMPI PUSH2 0xA2E PUSH32 0x9D3F9D97CFA4D97C52F6BE76984C7C9AC6DCBFD36F22E4B5BA1A4FBF01D83A7C SWAP2 PUSH2 0x1194 PUSH2 0x115C DUP6 PUSH1 0x0 MSTORE PUSH1 0x5 PUSH1 0x20 MSTORE PUSH1 0x40 PUSH1 0x0 KECCAK256 SWAP1 JUMP JUMPDEST PUSH2 0x1169 DUP4 PUSH1 0x5 DUP4 ADD PUSH2 0x296B JUMP JUMPDEST PUSH2 0x118F PUSH1 0x4 PUSH2 0x1176 PUSH2 0x21C4 JUMP JUMPDEST SWAP3 PUSH2 0x117F PUSH2 0x277 JUMP JUMPDEST SWAP4 DUP7 DUP6 MSTORE PUSH1 0x20 DUP6 ADD MSTORE ADD DUP5 PUSH2 0x2136 JUMP JUMPDEST PUSH2 0x29AE JUMP JUMPDEST PUSH1 0x40 MLOAD SWAP2 DUP3 SWAP2 DUP3 PUSH2 0x23F1 JUMP JUMPDEST PUSH1 0x40 MLOAD PUSH3 0x461BCD PUSH1 0xE5 SHL DUP2 MSTORE PUSH1 0x20 PUSH1 0x4 DUP3 ADD MSTORE PUSH1 0x1D PUSH1 0x24 DUP3 ADD MSTORE PUSH32 0x506F736974696F6E206E616D652063616E6E6F7420626520656D707479000000 PUSH1 0x44 DUP3 ADD MSTORE PUSH1 0x64 SWAP1 REVERT JUMPDEST CALLVALUE PUSH2 0x32B JUMPI PUSH1 0x0 CALLDATASIZE PUSH1 0x3 NOT ADD SLT PUSH2 0x32B JUMPI PUSH1 0x0 SLOAD PUSH1 0x40 MLOAD PUSH1 0x1 PUSH1 0x1 PUSH1 0xA0 SHL SUB SWAP1 SWAP2 AND DUP2 MSTORE PUSH1 0x20 SWAP1 RETURN JUMPDEST CALLVALUE PUSH2 0x32B JUMPI PUSH1 0x0 CALLDATASIZE PUSH1 0x3 NOT ADD SLT PUSH2 0x32B JUMPI PUSH1 0x20 PUSH1 0x6 SLOAD PUSH1 0x40 MLOAD SWAP1 DUP2 MSTORE RETURN JUMPDEST CALLVALUE PUSH2 0x32B JUMPI PUSH1 0x20 CALLDATASIZE PUSH1 0x3 NOT ADD SLT PUSH2 0x32B JUMPI PUSH1 0x4 CALLDATALOAD PUSH2 0x1248 PUSH2 0x30A3 JUMP JUMPDEST PUSH2 0x1256 PUSH1 0x6 SLOAD DUP3 GT ISZERO PUSH2 0x20A5 JUMP JUMPDEST PUSH1 0x0 SWAP1 DUP1 DUP3 MSTORE PUSH1 0x5 PUSH1 0x20 MSTORE PUSH1 0x40 DUP3 KECCAK256 PUSH1 0x1 DUP2 ADD PUSH1 0xFF DUP2 SLOAD AND PUSH2 0x12B9 JUMPI PUSH2 0x1285 PUSH1 0x2 PUSH2 0x1292 SWAP4 ADD SLOAD TIMESTAMP LT ISZERO PUSH2 0x2A3E JUMP JUMPDEST DUP1 SLOAD PUSH1 0xFF NOT AND PUSH1 0x1 OR SWAP1 SSTORE JUMP JUMPDEST PUSH32 0x589F8B93514C651C0C92B06BDB8118FE508DAADF2FFDAC1F516191BE20FCB85 DUP3 DUP1 LOG2 DUP1 RETURN JUMPDEST PUSH1 0x40 MLOAD PUSH3 0x461BCD PUSH1 0xE5 SHL DUP2 MSTORE PUSH1 0x20 PUSH1 0x4 DUP3 ADD MSTORE PUSH1 0x18 PUSH1 0x24 DUP3 ADD MSTORE PUSH32 0x456C656374696F6E20697320616C7265616479206F70656E0000000000000000 PUSH1 0x44 DUP3 ADD MSTORE PUSH1 0x64 SWAP1 REVERT JUMPDEST SWAP2 SWAP4 SWAP1 SWAP3 PUSH2 0x1318 PUSH2 0x35F SWAP7 SWAP5 PUSH1 0xA0 DUP6 MSTORE PUSH1 0xA0 DUP6 ADD SWAP1 PUSH2 0x385 JUMP JUMPDEST SWAP5 ISZERO ISZERO PUSH1 0x20 DUP5 ADD MSTORE PUSH1 0x40 DUP4 ADD MSTORE PUSH1 0x60 DUP3 ADD MSTORE PUSH1 0x80 DUP2 DUP5 SUB SWAP2 ADD MSTORE PUSH2 0xBCE JUMP JUMPDEST CALLVALUE PUSH2 0x32B JUMPI PUSH1 0x20 DUP1 PUSH1 0x3 NOT CALLDATASIZE ADD SLT PUSH2 0x32B JUMPI PUSH1 0x4 CALLDATALOAD PUSH2 0x135A PUSH1 0x6 SLOAD DUP3 GT ISZERO PUSH2 0x20A5 JUMP JUMPDEST PUSH1 0x0 MSTORE PUSH1 0x5 PUSH1 0x20 MSTORE PUSH1 0x40 SWAP1 PUSH2 0x139A PUSH1 0x40 PUSH1 0x0 KECCAK256 SWAP3 PUSH1 0x1 SWAP4 PUSH1 0xFF PUSH1 0x1 DUP3 ADD SLOAD AND SWAP4 PUSH1 0x2 DUP3 ADD SLOAD SWAP1 PUSH1 0x3 DUP4 ADD SLOAD SWAP3 PUSH2 0x13A1 PUSH1 0x5 DUP3 ADD SWAP2 PUSH1 0x40 MLOAD SWAP8 DUP9 DUP1 SWAP3 PUSH2 0xF08 JUMP JUMPDEST SUB DUP8 PUSH2 0x251 JUMP JUMPDEST DUP1 SLOAD SWAP2 PUSH2 0x13AD DUP4 PUSH2 0x21AD JUMP JUMPDEST SWAP6 PUSH2 0x13BB PUSH1 0x40 MLOAD SWAP8 DUP9 PUSH2 0x251 JUMP JUMPDEST DUP4 DUP8 MSTORE PUSH1 0x20 DUP8 ADD SWAP3 PUSH1 0x0 MSTORE PUSH1 0x20 PUSH1 0x0 KECCAK256 SWAP1 PUSH1 0x0 SWAP4 JUMPDEST DUP6 DUP6 LT PUSH2 0x13EB JUMPI DUP11 DUP11 PUSH2 0x49E DUP12 DUP12 DUP12 PUSH1 0x40 MLOAD SWAP6 DUP7 SWAP6 DUP7 PUSH2 0x12FE JUMP JUMPDEST DUP12 DUP5 DUP2 SWAP3 DUP5 MLOAD PUSH2 0x1406 DUP2 PUSH2 0x13FF DUP2 DUP11 PUSH2 0xF08 JUMP JUMPDEST SUB DUP3 PUSH2 0x251 JUMP JUMPDEST DUP2 MSTORE ADD SWAP4 ADD SWAP5 ADD SWAP4 SWAP2 PUSH2 0x13D0 JUMP JUMPDEST SWAP7 SWAP4 PUSH2 0x1459 PUSH2 0x1475 SWAP5 PUSH2 0x144B PUSH1 0xE0 SWAP10 SWAP13 SWAP12 SWAP9 SWAP6 PUSH2 0x143D PUSH2 0x1467 SWAP7 DUP14 PUSH2 0x100 SWAP1 DUP2 DUP2 MSTORE ADD SWAP1 PUSH2 0x385 JUMP JUMPDEST DUP13 DUP2 SUB PUSH1 0x20 DUP15 ADD MSTORE SWAP1 PUSH2 0x385 JUMP JUMPDEST SWAP1 DUP11 DUP3 SUB PUSH1 0x40 DUP13 ADD MSTORE PUSH2 0x385 JUMP JUMPDEST SWAP1 DUP9 DUP3 SUB PUSH1 0x60 DUP11 ADD MSTORE PUSH2 0x385 JUMP JUMPDEST SWAP1 DUP7 DUP3 SUB PUSH1 0x80 DUP9 ADD MSTORE PUSH2 0x385 JUMP JUMPDEST PUSH1 0x1 PUSH1 0x1 PUSH1 0xA0 SHL SUB SWAP1 SWAP7 AND PUSH1 0xA0 DUP6 ADD MSTORE ISZERO ISZERO PUSH1 0xC0 DUP5 ADD MSTORE ISZERO ISZERO SWAP2 ADD MSTORE JUMP JUMPDEST CALLVALUE PUSH2 0x32B JUMPI PUSH1 0x20 CALLDATASIZE PUSH1 0x3 NOT ADD SLT PUSH2 0x32B JUMPI PUSH1 0x1 PUSH1 0x1 PUSH1 0xA0 SHL SUB DUP1 PUSH2 0x14B5 PUSH2 0x5CC JUMP JUMPDEST AND PUSH1 0x0 MSTORE PUSH1 0x2 PUSH1 0x20 MSTORE PUSH1 0x40 PUSH2 0x49E DUP2 PUSH1 0x0 KECCAK256 SWAP3 DUP3 MLOAD SWAP3 PUSH2 0x14E0 DUP5 PUSH2 0x14D9 DUP2 DUP9 PUSH2 0xF08 JUMP JUMPDEST SUB DUP6 PUSH2 0x251 JUMP JUMPDEST DUP1 MLOAD SWAP4 PUSH2 0x14FB DUP6 PUSH2 0x14F4 DUP2 PUSH1 0x1 DUP11 ADD PUSH2 0xF08 JUMP JUMPDEST SUB DUP7 PUSH2 0x251 JUMP JUMPDEST DUP2 MLOAD SWAP6 PUSH2 0x1516 DUP8 PUSH2 0x150F DUP2 PUSH1 0x2 DUP6 ADD PUSH2 0xF08 JUMP JUMPDEST SUB DUP9 PUSH2 0x251 JUMP JUMPDEST DUP3 MLOAD PUSH2 0x1529 DUP2 PUSH2 0x13FF DUP2 PUSH1 0x3 DUP7 ADD PUSH2 0xF08 JUMP JUMPDEST PUSH1 0x5 PUSH2 0x1537 PUSH1 0x4 DUP5 ADD PUSH2 0xF9E JUMP JUMPDEST SWAP3 ADD SLOAD SWAP4 MLOAD SWAP8 DUP9 SWAP8 PUSH1 0xFF DUP7 PUSH1 0xA8 SHR AND SWAP7 PUSH1 0xFF DUP8 PUSH1 0xA0 SHR AND SWAP7 AND SWAP5 DUP10 PUSH2 0x1414 JUMP JUMPDEST CALLVALUE PUSH2 0x32B JUMPI PUSH1 0x20 CALLDATASIZE PUSH1 0x3 NOT ADD SLT PUSH2 0x32B JUMPI PUSH1 0x4 CALLDATALOAD PUSH1 0x4 SLOAD DUP2 LT ISZERO PUSH2 0x32B JUMPI PUSH1 0x4 PUSH1 0x0 MSTORE PUSH1 0x0 DUP1 MLOAD PUSH1 0x20 PUSH2 0x3254 DUP4 CODECOPY DUP2 MLOAD SWAP2 MSTORE ADD SLOAD PUSH1 0x40 MLOAD PUSH1 0x1 PUSH1 0x1 PUSH1 0xA0 SHL SUB SWAP1 SWAP2 AND DUP2 MSTORE PUSH1 0x20 SWAP1 RETURN JUMPDEST CALLVALUE PUSH2 0x32B JUMPI PUSH1 0x60 CALLDATASIZE PUSH1 0x3 NOT ADD SLT PUSH2 0x32B JUMPI PUSH1 0x1 PUSH1 0x1 PUSH1 0x40 SHL SUB PUSH1 0x4 CALLDATALOAD PUSH1 0x24 CALLDATALOAD DUP3 DUP2 GT PUSH2 0x32B JUMPI PUSH2 0x15D4 SWAP1 CALLDATASIZE SWAP1 PUSH1 0x4 ADD PUSH2 0x2D5 JUMP JUMPDEST SWAP2 PUSH1 0x44 CALLDATALOAD SWAP1 DUP2 GT PUSH2 0x32B JUMPI PUSH2 0x160E PUSH32 0xEC1A365AEEEC255796BF50D7A2A8F24D0D5F5C6ADA0167B6C647428D9164582 SWAP2 CALLDATASIZE SWAP1 PUSH1 0x4 ADD PUSH2 0x2D5 JUMP JUMPDEST PUSH2 0x161C PUSH1 0x6 SLOAD DUP5 GT ISZERO PUSH2 0x20A5 JUMP JUMPDEST PUSH1 0x0 SWAP4 DUP4 DUP6 MSTORE PUSH1 0x5 PUSH1 0x20 MSTORE PUSH2 0x163D PUSH2 0xB43 PUSH2 0xB3D PUSH1 0x4 PUSH1 0x40 DUP10 KECCAK256 ADD DUP5 PUSH2 0x2136 JUMP JUMPDEST DUP4 DUP6 MSTORE PUSH1 0x5 PUSH1 0x20 MSTORE PUSH2 0x1657 PUSH1 0x2 PUSH1 0x40 DUP8 KECCAK256 ADD SLOAD TIMESTAMP LT PUSH2 0x2635 JUMP JUMPDEST DUP4 DUP6 MSTORE PUSH1 0x9 PUSH1 0x20 MSTORE PUSH2 0x1683 PUSH2 0x167E PUSH2 0x8CF PUSH2 0xD69 PUSH2 0x1678 PUSH1 0x40 DUP11 KECCAK256 DUP7 PUSH2 0x2136 JUMP JUMPDEST DUP7 PUSH2 0x2136 JUMP JUMPDEST PUSH2 0x2A96 JUMP JUMPDEST PUSH2 0x1697 DUP5 PUSH1 0x0 MSTORE PUSH1 0x8 PUSH1 0x20 MSTORE PUSH1 0x40 PUSH1 0x0 KECCAK256 SWAP1 JUMP JUMPDEST PUSH2 0x16A1 DUP2 SLOAD PUSH2 0x275F JUMP JUMPDEST SWAP1 SSTORE PUSH2 0x16F5 PUSH2 0x16BA DUP6 PUSH1 0x0 MSTORE PUSH1 0x8 PUSH1 0x20 MSTORE PUSH1 0x40 PUSH1 0x0 KECCAK256 SWAP1 JUMP JUMPDEST SLOAD PUSH2 0x16F0 PUSH2 0x16C6 PUSH2 0x296 JUMP JUMPDEST SWAP2 DUP1 DUP4 MSTORE DUP6 PUSH1 0x20 DUP5 ADD MSTORE DUP9 PUSH1 0x40 DUP5 ADD MSTORE DUP9 PUSH1 0x60 DUP5 ADD MSTORE PUSH2 0x4D3 DUP9 PUSH1 0x0 MSTORE PUSH1 0x7 PUSH1 0x20 MSTORE PUSH1 0x40 PUSH1 0x0 KECCAK256 SWAP1 JUMP JUMPDEST PUSH2 0x2AE2 JUMP JUMPDEST PUSH2 0x1718 PUSH2 0x1285 PUSH2 0x1712 PUSH2 0x1712 DUP8 PUSH1 0x0 MSTORE PUSH1 0x9 PUSH1 0x20 MSTORE PUSH1 0x40 PUSH1 0x0 KECCAK256 SWAP1 JUMP JUMPDEST DUP5 PUSH2 0x2136 JUMP JUMPDEST PUSH2 0x6F2 PUSH1 0x40 MLOAD SWAP3 DUP4 SWAP3 DUP4 PUSH2 0x2B1A JUMP JUMPDEST CALLVALUE PUSH2 0x32B JUMPI PUSH1 0x0 DUP1 PUSH1 0x3 NOT CALLDATASIZE ADD SLT PUSH2 0x9A3 JUMPI PUSH1 0x40 MLOAD DUP1 SWAP2 PUSH1 0x3 SLOAD SWAP1 DUP2 DUP4 MSTORE PUSH1 0x20 DUP1 SWAP4 ADD DUP1 SWAP3 PUSH1 0x3 DUP4 MSTORE PUSH1 0x0 DUP1 MLOAD PUSH1 0x20 PUSH2 0x3234 DUP4 CODECOPY DUP2 MLOAD SWAP2 MSTORE SWAP1 DUP4 JUMPDEST DUP2 DUP2 LT PUSH2 0x17BF JUMPI POP POP POP DUP5 PUSH2 0x1778 SWAP2 SUB DUP6 PUSH2 0x251 JUMP JUMPDEST PUSH1 0x40 MLOAD SWAP4 DUP4 DUP6 SWAP5 DUP6 ADD SWAP2 DUP2 DUP7 MSTORE MLOAD DUP1 SWAP3 MSTORE PUSH1 0x40 DUP6 ADD SWAP4 SWAP3 JUMPDEST DUP3 DUP2 LT PUSH2 0x179F JUMPI POP POP POP POP SUB SWAP1 RETURN JUMPDEST DUP4 MLOAD PUSH1 0x1 PUSH1 0x1 PUSH1 0xA0 SHL SUB AND DUP6 MSTORE DUP7 SWAP6 POP SWAP4 DUP2 ADD SWAP4 SWAP3 DUP2 ADD SWAP3 PUSH1 0x1 ADD PUSH2 0x1790 JUMP JUMPDEST DUP3 SLOAD PUSH1 0x1 PUSH1 0x1 PUSH1 0xA0 SHL SUB AND DUP5 MSTORE SWAP3 DUP7 ADD SWAP3 PUSH1 0x1 SWAP3 DUP4 ADD SWAP3 ADD PUSH2 0x1762 JUMP JUMPDEST CALLVALUE PUSH2 0x32B JUMPI PUSH1 0x0 CALLDATASIZE PUSH1 0x3 NOT ADD SLT PUSH2 0x32B JUMPI PUSH1 0x20 PUSH1 0xFF PUSH1 0xA SLOAD PUSH1 0x8 SHR AND PUSH1 0x40 MLOAD SWAP1 ISZERO ISZERO DUP2 MSTORE RETURN JUMPDEST CALLVALUE PUSH2 0x32B JUMPI PUSH1 0x20 CALLDATASIZE PUSH1 0x3 NOT ADD SLT PUSH2 0x32B JUMPI PUSH2 0x181B PUSH2 0x5CC JUMP JUMPDEST PUSH2 0x184D PUSH1 0x1 DUP1 PUSH1 0xA0 SHL SUB SWAP2 DUP3 DUP2 AND PUSH1 0x0 MSTORE PUSH1 0x2 PUSH1 0x20 MSTORE DUP3 PUSH1 0x5 PUSH1 0x40 PUSH1 0x0 KECCAK256 ADD SLOAD AND ISZERO ISZERO DUP1 PUSH2 0x18B2 JUMPI JUMPDEST PUSH2 0x90E SWAP1 PUSH2 0x2B3F JUMP JUMPDEST SWAP1 PUSH2 0x49E PUSH1 0x5 DUP4 ADD SLOAD SWAP2 PUSH2 0x1860 DUP5 PUSH2 0xF9E JUMP JUMPDEST SWAP3 PUSH2 0x186D PUSH1 0x1 DUP7 ADD PUSH2 0xF9E JUMP JUMPDEST SWAP4 PUSH2 0x187A PUSH1 0x2 DUP8 ADD PUSH2 0xF9E JUMP JUMPDEST SWAP6 PUSH2 0x1893 PUSH1 0x4 PUSH2 0x188C PUSH1 0x3 DUP5 ADD PUSH2 0xF9E JUMP JUMPDEST SWAP3 ADD PUSH2 0xF9E JUMP JUMPDEST SWAP1 PUSH1 0x40 MLOAD SWAP8 DUP9 SWAP8 PUSH1 0xFF DUP7 PUSH1 0xA8 SHR AND SWAP7 PUSH1 0xFF DUP8 PUSH1 0xA0 SHR AND SWAP7 AND SWAP5 DUP10 PUSH2 0x1414 JUMP JUMPDEST POP PUSH1 0x1 PUSH1 0x1 PUSH1 0xA0 SHL SUB DUP2 AND PUSH1 0x0 SWAP1 DUP2 MSTORE PUSH1 0x2 PUSH1 0x20 MSTORE PUSH1 0x40 SWAP1 KECCAK256 PUSH2 0x90E SWAP1 PUSH2 0x18D8 SWAP1 PUSH2 0x25DF JUMP JUMPDEST ISZERO ISZERO SWAP1 POP PUSH2 0x1844 JUMP JUMPDEST CALLVALUE PUSH2 0x32B JUMPI PUSH1 0x0 CALLDATASIZE PUSH1 0x3 NOT ADD SLT PUSH2 0x32B JUMPI PUSH1 0x20 PUSH1 0xFF PUSH1 0xA SLOAD AND PUSH1 0x40 MLOAD SWAP1 ISZERO ISZERO DUP2 MSTORE RETURN JUMPDEST CALLVALUE PUSH2 0x32B JUMPI PUSH2 0x1912 CALLDATASIZE PUSH2 0x330 JUMP JUMPDEST PUSH2 0x1920 PUSH1 0x6 SLOAD DUP4 GT ISZERO PUSH2 0x20A5 JUMP JUMPDEST PUSH1 0x4 PUSH1 0x0 SWAP3 DUP1 PUSH1 0x0 MSTORE PUSH1 0x20 SWAP3 PUSH1 0x5 PUSH1 0x20 MSTORE PUSH1 0x40 SWAP2 PUSH2 0x1952 PUSH1 0x40 PUSH1 0x0 KECCAK256 SWAP3 PUSH1 0x1 SWAP6 DUP5 PUSH2 0x45A PUSH1 0xFF PUSH1 0x1 DUP11 SWAP9 ADD SLOAD AND PUSH2 0x259C JUMP JUMPDEST SWAP3 PUSH2 0x195F PUSH1 0x1 DUP6 ADD PUSH2 0x215C JUMP JUMPDEST SWAP7 PUSH2 0x196A DUP9 MLOAD PUSH2 0x21EC JUMP JUMPDEST SWAP7 PUSH1 0x0 SWAP7 JUMPDEST PUSH2 0x1982 JUMPI JUMPDEST DUP9 DUP9 PUSH2 0x49E PUSH2 0x491 DUP10 PUSH2 0xF9E JUMP JUMPDEST DUP9 DUP1 MLOAD DUP9 LT ISZERO PUSH2 0x19CE JUMPI DUP8 PUSH1 0x2 PUSH2 0x19B9 PUSH2 0x199F DUP10 SWAP11 SWAP12 DUP11 SWAP6 PUSH2 0x221E JUMP JUMPDEST MLOAD DUP9 DUP8 MSTORE PUSH1 0x7 DUP7 MSTORE DUP8 DUP8 KECCAK256 SWAP1 PUSH1 0x0 MSTORE PUSH1 0x20 MSTORE PUSH1 0x40 PUSH1 0x0 KECCAK256 SWAP1 JUMP JUMPDEST ADD SLOAD PUSH2 0x19C5 DUP3 DUP13 PUSH2 0x221E JUMP JUMPDEST MSTORE ADD SWAP7 SWAP6 PUSH2 0x196F JUMP JUMPDEST POP PUSH2 0x1974 JUMP JUMPDEST CALLVALUE PUSH2 0x32B JUMPI PUSH2 0x19E2 CALLDATASIZE PUSH2 0xA97 JUMP JUMPDEST SWAP2 PUSH1 0x2 PUSH1 0x1 SLOAD EQ PUSH2 0x1BAB JUMPI PUSH1 0x2 PUSH1 0x1 SSTORE PUSH2 0x1A00 PUSH1 0x6 SLOAD DUP3 GT ISZERO PUSH2 0x20A5 JUMP JUMPDEST DUP1 PUSH1 0x0 MSTORE PUSH1 0x5 PUSH1 0x20 MSTORE PUSH2 0x1A20 PUSH2 0xB43 PUSH2 0xB3D PUSH1 0x4 PUSH1 0x40 PUSH1 0x0 KECCAK256 ADD DUP6 PUSH2 0x2136 JUMP JUMPDEST PUSH2 0x1AF0 PUSH2 0x1AEB DUP5 PUSH2 0x1AE6 PUSH1 0x1 PUSH2 0x1AE0 PUSH1 0x4 PUSH2 0x1A45 DUP9 PUSH1 0x0 MSTORE PUSH1 0x5 PUSH1 0x20 MSTORE PUSH1 0x40 PUSH1 0x0 KECCAK256 SWAP1 JUMP JUMPDEST PUSH2 0x1A5A PUSH2 0x1A55 DUP6 DUP4 ADD SLOAD PUSH1 0xFF AND SWAP1 JUMP JUMPDEST PUSH2 0x2B82 JUMP JUMPDEST CALLER PUSH1 0x0 SWAP1 DUP2 MSTORE PUSH1 0x2 PUSH1 0x20 MSTORE PUSH1 0x40 SWAP1 KECCAK256 PUSH2 0x1A85 SWAP1 PUSH2 0x1A80 SWAP1 PUSH1 0x5 SWAP1 JUMPDEST ADD SLOAD PUSH1 0xA0 SHR PUSH1 0xFF AND SWAP1 JUMP JUMPDEST PUSH2 0x2BCE JUMP JUMPDEST CALLER PUSH1 0x0 SWAP1 DUP2 MSTORE PUSH1 0x2 PUSH1 0x20 MSTORE PUSH1 0x40 SWAP1 KECCAK256 PUSH2 0x1AB2 SWAP1 PUSH2 0x1AAD SWAP1 PUSH2 0x8CF SWAP1 PUSH1 0x5 ADD SLOAD PUSH1 0xA8 SHR PUSH1 0xFF AND SWAP1 JUMP JUMPDEST PUSH2 0x2C12 JUMP JUMPDEST CALLER PUSH1 0x0 SWAP1 DUP2 MSTORE PUSH1 0x2 PUSH1 0x20 MSTORE PUSH1 0x40 SWAP1 KECCAK256 PUSH1 0x5 ADD SLOAD PUSH2 0x1AD9 SWAP1 PUSH1 0x1 PUSH1 0x1 PUSH1 0xA0 SHL SUB AND CALLER EQ PUSH2 0x2C5E JUMP JUMPDEST ADD DUP9 PUSH2 0x2136 JUMP JUMPDEST ADD PUSH2 0x215C JUMP JUMPDEST PUSH2 0x31FD JUMP JUMPDEST PUSH2 0x2CBA JUMP JUMPDEST PUSH2 0x1B1D PUSH2 0x1B18 PUSH1 0x3 PUSH2 0x1B10 DUP7 PUSH2 0x4D3 DUP7 PUSH1 0x0 MSTORE PUSH1 0x7 PUSH1 0x20 MSTORE PUSH1 0x40 PUSH1 0x0 KECCAK256 SWAP1 JUMP JUMPDEST ADD SLOAD PUSH1 0xFF AND SWAP1 JUMP JUMPDEST PUSH2 0x2CFA JUMP JUMPDEST CALLER PUSH1 0x0 SWAP1 DUP2 MSTORE PUSH1 0x2 PUSH1 0x20 MSTORE PUSH1 0x40 SWAP1 KECCAK256 PUSH2 0x1B46 SWAP1 PUSH1 0x5 ADD DUP1 SLOAD PUSH1 0xFF PUSH1 0xA8 SHL NOT AND PUSH1 0x1 PUSH1 0xA8 SHL OR SWAP1 SSTORE JUMP JUMPDEST PUSH1 0x2 PUSH2 0x1B60 DUP5 PUSH2 0x4D3 DUP5 PUSH1 0x0 MSTORE PUSH1 0x7 PUSH1 0x20 MSTORE PUSH1 0x40 PUSH1 0x0 KECCAK256 SWAP1 JUMP JUMPDEST ADD PUSH2 0x1B6B DUP2 SLOAD PUSH2 0x275F JUMP JUMPDEST SWAP1 SSTORE PUSH32 0xD9F61BAD27B367F9D956D43115CE9B23449B64E56E608EB9569F6B929B632E7E PUSH1 0x40 MLOAD DUP1 PUSH2 0x1B9D CALLER SWAP6 DUP3 PUSH2 0x23F1 JUMP JUMPDEST SUB SWAP1 LOG4 PUSH2 0x1BA9 PUSH1 0x1 DUP1 SSTORE JUMP JUMPDEST STOP JUMPDEST PUSH1 0x40 MLOAD PUSH4 0x3EE5AEB5 PUSH1 0xE0 SHL DUP2 MSTORE PUSH1 0x4 SWAP1 REVERT JUMPDEST CALLVALUE PUSH2 0x32B JUMPI PUSH1 0x20 CALLDATASIZE PUSH1 0x3 NOT ADD SLT PUSH2 0x32B JUMPI PUSH2 0x1BD6 PUSH2 0x5CC JUMP JUMPDEST PUSH2 0x1BDE PUSH2 0x30A3 JUMP JUMPDEST PUSH1 0x1 PUSH1 0x1 PUSH1 0xA0 SHL SUB SWAP1 DUP2 AND DUP1 ISZERO PUSH2 0x1C2C JUMPI PUSH1 0x0 DUP1 SLOAD PUSH1 0x1 PUSH1 0x1 PUSH1 0xA0 SHL SUB NOT DUP2 AND DUP4 OR DUP3 SSTORE SWAP1 SWAP3 AND PUSH32 0x8BE0079C531659141344CD1FD0A4F28419497F9722A3DAAFE3B4186F6B6457E0 DUP4 DUP1 LOG3 DUP1 RETURN JUMPDEST PUSH1 0x40 MLOAD PUSH4 0x1E4FBDF7 PUSH1 0xE0 SHL DUP2 MSTORE PUSH1 0x0 PUSH1 0x4 DUP3 ADD MSTORE PUSH1 0x24 SWAP1 REVERT JUMPDEST CALLVALUE PUSH2 0x32B JUMPI PUSH2 0x1C53 CALLDATASIZE PUSH2 0xA97 JUMP JUMPDEST SWAP1 SWAP2 PUSH2 0x1C5D PUSH2 0x30A3 JUMP JUMPDEST PUSH2 0x1C6B PUSH1 0x6 SLOAD DUP3 GT ISZERO PUSH2 0x20A5 JUMP JUMPDEST PUSH1 0x0 SWAP2 DUP2 DUP4 MSTORE PUSH1 0x5 PUSH1 0x20 MSTORE PUSH2 0x1C8C PUSH2 0xB43 PUSH2 0xB3D PUSH1 0x4 PUSH1 0x40 DUP8 KECCAK256 ADD DUP8 PUSH2 0x2136 JUMP JUMPDEST DUP2 DUP4 MSTORE PUSH1 0x5 PUSH1 0x20 MSTORE PUSH2 0x1CA6 PUSH1 0x2 PUSH1 0x40 DUP6 KECCAK256 ADD SLOAD TIMESTAMP LT PUSH2 0x2635 JUMP JUMPDEST PUSH2 0x1CBE DUP2 PUSH2 0x4D3 DUP5 PUSH1 0x0 MSTORE PUSH1 0x7 PUSH1 0x20 MSTORE PUSH1 0x40 PUSH1 0x0 KECCAK256 SWAP1 JUMP JUMPDEST SWAP4 PUSH2 0x1CD8 PUSH2 0x1CD3 PUSH2 0x8CF PUSH1 0x3 DUP9 ADD SLOAD PUSH1 0xFF AND SWAP1 JUMP JUMPDEST PUSH2 0x2681 JUMP JUMPDEST PUSH2 0x1CE5 PUSH1 0x1 DUP1 SWAP7 ADD PUSH2 0xF9E JUMP JUMPDEST SWAP2 PUSH2 0x1D03 PUSH2 0x556 PUSH2 0xD52 PUSH2 0xD52 DUP8 PUSH1 0x0 MSTORE PUSH1 0x9 PUSH1 0x20 MSTORE PUSH1 0x40 PUSH1 0x0 KECCAK256 SWAP1 JUMP JUMPDEST PUSH2 0x1D23 PUSH2 0x1D1E DUP3 PUSH2 0x4D3 DUP8 PUSH1 0x0 MSTORE PUSH1 0x7 PUSH1 0x20 MSTORE PUSH1 0x40 PUSH1 0x0 KECCAK256 SWAP1 JUMP JUMPDEST PUSH2 0x2D46 JUMP JUMPDEST PUSH1 0x1 PUSH2 0x1D45 PUSH1 0x4 PUSH2 0x1D3E DUP8 PUSH1 0x0 MSTORE PUSH1 0x5 PUSH1 0x20 MSTORE PUSH1 0x40 PUSH1 0x0 KECCAK256 SWAP1 JUMP JUMPDEST ADD DUP5 PUSH2 0x2136 JUMP JUMPDEST ADD SWAP1 DUP6 DUP8 JUMPDEST PUSH2 0x1D84 JUMPI JUMPDEST POP POP POP SWAP1 PUSH32 0xC965973CA1E6509F55FF868BCE7A20C938B1B78836C93DB3D55171313E920B83 SWAP2 PUSH2 0x6F2 PUSH1 0x40 MLOAD SWAP3 DUP4 SWAP3 DUP4 PUSH2 0x2B1A JUMP JUMPDEST DUP3 SLOAD DUP1 DUP3 LT ISZERO PUSH2 0x1E2A JUMPI DUP3 PUSH2 0x1DA6 PUSH2 0x1D9C DUP5 DUP8 PUSH2 0x80D JUMP JUMPDEST SWAP1 SLOAD SWAP1 PUSH1 0x3 SHL SHR SWAP1 JUMP JUMPDEST EQ PUSH2 0x1DB4 JUMPI POP DUP8 ADD DUP8 PUSH2 0x1D4A JUMP JUMPDEST PUSH32 0xC965973CA1E6509F55FF868BCE7A20C938B1B78836C93DB3D55171313E920B83 SWAP7 SWAP8 SWAP9 POP PUSH2 0x1E20 SWAP4 SWAP3 POP SWAP1 PUSH2 0x1E02 PUSH2 0x1DFB PUSH2 0x1D9C PUSH2 0x1DF5 PUSH2 0x1E1B SWAP6 PUSH2 0x2D64 JUMP JUMPDEST DUP7 PUSH2 0x80D JUMP JUMPDEST SWAP2 DUP5 PUSH2 0x80D JUMP JUMPDEST SWAP1 SWAP2 SWAP1 DUP3 SLOAD SWAP1 PUSH1 0x3 SHL SWAP2 DUP3 SHL SWAP2 PUSH1 0x0 NOT SWAP1 SHL NOT AND OR SWAP1 SSTORE JUMP JUMPDEST PUSH2 0x2D89 JUMP JUMPDEST DUP5 SWAP4 SWAP3 CODESIZE DUP1 PUSH2 0x1D4F JUMP JUMPDEST POP PUSH2 0x1D4F JUMP JUMPDEST CALLVALUE PUSH2 0x32B JUMPI PUSH1 0x20 CALLDATASIZE PUSH1 0x3 NOT ADD SLT PUSH2 0x32B JUMPI PUSH1 0x4 CALLDATALOAD PUSH1 0x4 SLOAD DUP2 LT ISZERO PUSH2 0x1E79 JUMPI PUSH1 0x4 PUSH1 0x0 MSTORE PUSH1 0x0 DUP1 MLOAD PUSH1 0x20 PUSH2 0x3254 DUP4 CODECOPY DUP2 MLOAD SWAP2 MSTORE ADD SLOAD PUSH1 0x40 MLOAD PUSH1 0x1 PUSH1 0x1 PUSH1 0xA0 SHL SUB SWAP1 SWAP2 AND DUP2 MSTORE PUSH1 0x20 SWAP1 RETURN JUMPDEST PUSH1 0x40 MLOAD PUSH3 0x461BCD PUSH1 0xE5 SHL DUP2 MSTORE PUSH1 0x20 PUSH1 0x4 DUP3 ADD MSTORE PUSH1 0xD PUSH1 0x24 DUP3 ADD MSTORE PUSH13 0x92DCECC2D8D2C840D2DCC8CAF PUSH1 0x9B SHL PUSH1 0x44 DUP3 ADD MSTORE PUSH1 0x64 SWAP1 REVERT JUMPDEST CALLVALUE PUSH2 0x32B JUMPI PUSH1 0x60 CALLDATASIZE PUSH1 0x3 NOT ADD SLT PUSH2 0x32B JUMPI PUSH1 0x4 CALLDATALOAD PUSH1 0x1 PUSH1 0x1 PUSH1 0x40 SHL SUB DUP2 GT PUSH2 0x32B JUMPI PUSH2 0x1EDE SWAP1 CALLDATASIZE SWAP1 PUSH1 0x4 ADD PUSH2 0x2D5 JUMP JUMPDEST PUSH1 0x24 CALLDATALOAD PUSH1 0x44 CALLDATALOAD PUSH2 0x1EEC PUSH2 0x30A3 JUMP JUMPDEST DUP1 DUP3 LT ISZERO PUSH2 0x1FB2 JUMPI PUSH32 0x52BE7C4E77B4DE76B7607D621492061FE13B58597E72DFB5E51AB8F6187ED141 SWAP2 PUSH2 0xA2E SWAP2 PUSH1 0x6 SWAP2 PUSH2 0x1F2F PUSH2 0x1F2A DUP5 SLOAD PUSH2 0x275F JUMP JUMPDEST PUSH1 0x6 SSTORE JUMP JUMPDEST PUSH2 0x1F4D DUP7 PUSH2 0x1F48 DUP6 SLOAD PUSH1 0x0 MSTORE PUSH1 0x5 PUSH1 0x20 MSTORE PUSH1 0x40 PUSH1 0x0 KECCAK256 SWAP1 JUMP JUMPDEST PUSH2 0x2896 JUMP JUMPDEST PUSH2 0x1F72 PUSH1 0x1 PUSH2 0x1F67 DUP6 SLOAD PUSH1 0x0 MSTORE PUSH1 0x5 PUSH1 0x20 MSTORE PUSH1 0x40 PUSH1 0x0 KECCAK256 SWAP1 JUMP JUMPDEST ADD DUP1 SLOAD PUSH1 0xFF NOT AND SWAP1 SSTORE JUMP JUMPDEST PUSH1 0x2 PUSH2 0x1F89 DUP5 SLOAD PUSH1 0x0 MSTORE PUSH1 0x5 PUSH1 0x20 MSTORE PUSH1 0x40 PUSH1 0x0 KECCAK256 SWAP1 JUMP JUMPDEST ADD SSTORE PUSH1 0x3 PUSH2 0x1FA2 DUP4 SLOAD PUSH1 0x0 MSTORE PUSH1 0x5 PUSH1 0x20 MSTORE PUSH1 0x40 PUSH1 0x0 KECCAK256 SWAP1 JUMP JUMPDEST ADD SSTORE SLOAD SWAP3 PUSH1 0x40 MLOAD SWAP2 DUP3 SWAP2 DUP3 PUSH2 0x23F1 JUMP JUMPDEST PUSH1 0x40 MLOAD PUSH3 0x461BCD PUSH1 0xE5 SHL DUP2 MSTORE PUSH1 0x20 PUSH1 0x4 DUP3 ADD MSTORE PUSH1 0x23 PUSH1 0x24 DUP3 ADD MSTORE PUSH32 0x496E76616C696420656C656374696F6E20737461727420616E6420656E642074 PUSH1 0x44 DUP3 ADD MSTORE PUSH3 0x696D65 PUSH1 0xE8 SHL PUSH1 0x64 DUP3 ADD MSTORE PUSH1 0x84 SWAP1 REVERT JUMPDEST CALLVALUE PUSH2 0x32B JUMPI PUSH1 0xC0 CALLDATASIZE PUSH1 0x3 NOT ADD SLT PUSH2 0x32B JUMPI PUSH1 0x4 PUSH1 0x1 PUSH1 0x1 PUSH1 0x40 SHL SUB DUP2 CALLDATALOAD DUP2 DUP2 GT PUSH2 0x32B JUMPI PUSH2 0x2034 SWAP1 CALLDATASIZE SWAP1 DUP5 ADD PUSH2 0x2D5 JUMP JUMPDEST SWAP1 PUSH1 0x24 CALLDATALOAD DUP2 DUP2 GT PUSH2 0x32B JUMPI PUSH2 0x204C SWAP1 CALLDATASIZE SWAP1 DUP6 ADD PUSH2 0x2D5 JUMP JUMPDEST SWAP1 PUSH1 0x44 CALLDATALOAD DUP2 DUP2 GT PUSH2 0x32B JUMPI PUSH2 0x2064 SWAP1 CALLDATASIZE SWAP1 DUP7 ADD PUSH2 0x2D5 JUMP JUMPDEST PUSH1 0x64 CALLDATALOAD DUP3 DUP2 GT PUSH2 0x32B JUMPI PUSH2 0x207B SWAP1 CALLDATASIZE SWAP1 DUP8 ADD PUSH2 0x2D5 JUMP JUMPDEST SWAP2 PUSH1 0x84 CALLDATALOAD SWAP1 DUP2 GT PUSH2 0x32B JUMPI PUSH2 0x1BA9 SWAP6 PUSH2 0x2096 SWAP2 CALLDATASIZE SWAP2 ADD PUSH2 0x2D5 JUMP JUMPDEST SWAP3 PUSH2 0x209F PUSH2 0x5E2 JUMP JUMPDEST SWAP5 PUSH2 0x2F9F JUMP JUMPDEST ISZERO PUSH2 0x20AC JUMPI JUMP JUMPDEST PUSH1 0x40 MLOAD PUSH3 0x461BCD PUSH1 0xE5 SHL DUP2 MSTORE PUSH1 0x20 PUSH1 0x4 DUP3 ADD MSTORE PUSH1 0x17 PUSH1 0x24 DUP3 ADD MSTORE PUSH32 0x456C656374696F6E20646F6573206E6F74206578697374000000000000000000 PUSH1 0x44 DUP3 ADD MSTORE PUSH1 0x64 SWAP1 REVERT JUMPDEST ISZERO PUSH2 0x20F8 JUMPI JUMP JUMPDEST PUSH1 0x40 MLOAD PUSH3 0x461BCD PUSH1 0xE5 SHL DUP2 MSTORE PUSH1 0x20 PUSH1 0x4 DUP3 ADD MSTORE PUSH1 0x16 PUSH1 0x24 DUP3 ADD MSTORE PUSH22 0x22B632B1BA34B7B71034B99039BA34B6361037B832B7 PUSH1 0x51 SHL PUSH1 0x44 DUP3 ADD MSTORE PUSH1 0x64 SWAP1 REVERT JUMPDEST PUSH1 0x20 SWAP1 PUSH2 0x2150 SWAP3 DUP3 PUSH1 0x40 MLOAD SWAP5 DUP4 DUP7 DUP1 SWAP6 MLOAD SWAP4 DUP5 SWAP3 ADD PUSH2 0x362 JUMP JUMPDEST DUP3 ADD SWAP1 DUP2 MSTORE SUB ADD SWAP1 KECCAK256 SWAP1 JUMP JUMPDEST SWAP1 PUSH1 0x40 MLOAD SWAP2 DUP3 DUP2 SLOAD SWAP2 DUP3 DUP3 MSTORE PUSH1 0x20 SWAP3 PUSH1 0x20 DUP4 ADD SWAP2 PUSH1 0x0 MSTORE PUSH1 0x20 PUSH1 0x0 KECCAK256 SWAP4 PUSH1 0x0 SWAP1 JUMPDEST DUP3 DUP3 LT PUSH2 0x2193 JUMPI POP POP POP PUSH2 0xFB9 SWAP3 POP SUB DUP4 PUSH2 0x251 JUMP JUMPDEST DUP6 SLOAD DUP5 MSTORE PUSH1 0x1 SWAP6 DUP7 ADD SWAP6 DUP9 SWAP6 POP SWAP4 DUP2 ADD SWAP4 SWAP1 SWAP2 ADD SWAP1 PUSH2 0x217D JUMP JUMPDEST PUSH1 0x1 PUSH1 0x1 PUSH1 0x40 SHL SUB DUP2 GT PUSH2 0x272 JUMPI PUSH1 0x5 SHL PUSH1 0x20 ADD SWAP1 JUMP JUMPDEST PUSH1 0x40 MLOAD PUSH1 0x20 DUP2 ADD DUP2 DUP2 LT PUSH1 0x1 PUSH1 0x1 PUSH1 0x40 SHL SUB DUP3 GT OR PUSH2 0x272 JUMPI PUSH1 0x40 MSTORE PUSH1 0x0 DUP2 MSTORE SWAP1 PUSH1 0x0 CALLDATASIZE DUP2 CALLDATACOPY JUMP JUMPDEST SWAP1 PUSH2 0x21F6 DUP3 PUSH2 0x21AD JUMP JUMPDEST PUSH2 0x2203 PUSH1 0x40 MLOAD SWAP2 DUP3 PUSH2 0x251 JUMP JUMPDEST DUP3 DUP2 MSTORE DUP1 SWAP3 PUSH2 0x2214 PUSH1 0x1F NOT SWAP2 PUSH2 0x21AD JUMP JUMPDEST ADD SWAP1 PUSH1 0x20 CALLDATASIZE SWAP2 ADD CALLDATACOPY JUMP JUMPDEST DUP1 MLOAD DUP3 LT ISZERO PUSH2 0x6F8 JUMPI PUSH1 0x20 SWAP2 PUSH1 0x5 SHL ADD ADD SWAP1 JUMP JUMPDEST ISZERO PUSH2 0x2239 JUMPI JUMP JUMPDEST PUSH1 0x40 MLOAD PUSH3 0x461BCD PUSH1 0xE5 SHL DUP2 MSTORE PUSH1 0x20 PUSH1 0x4 DUP3 ADD MSTORE PUSH1 0x21 PUSH1 0x24 DUP3 ADD MSTORE PUSH32 0x456C656374696F6E20656E642074696D6520686173206E6F7420726561636865 PUSH1 0x44 DUP3 ADD MSTORE PUSH1 0x19 PUSH1 0xFA SHL PUSH1 0x64 DUP3 ADD MSTORE PUSH1 0x84 SWAP1 REVERT JUMPDEST ISZERO PUSH2 0x228F JUMPI JUMP JUMPDEST PUSH1 0x64 PUSH1 0x40 MLOAD PUSH3 0x461BCD PUSH1 0xE5 SHL DUP2 MSTORE PUSH1 0x20 PUSH1 0x4 DUP3 ADD MSTORE PUSH1 0x20 PUSH1 0x24 DUP3 ADD MSTORE PUSH32 0x566F746572206973206E6F7420696E207468652070656E64696E67206C697374 PUSH1 0x44 DUP3 ADD MSTORE REVERT JUMPDEST PUSH1 0x3 SLOAD SWAP1 PUSH1 0x1 PUSH1 0x40 SHL DUP3 LT ISZERO PUSH2 0x272 JUMPI PUSH1 0x1 DUP3 ADD DUP1 PUSH1 0x3 SSTORE DUP3 LT ISZERO PUSH2 0x6F8 JUMPI PUSH1 0x3 PUSH1 0x0 MSTORE PUSH1 0x0 DUP1 MLOAD PUSH1 0x20 PUSH2 0x3234 DUP4 CODECOPY DUP2 MLOAD SWAP2 MSTORE SWAP1 SWAP2 ADD DUP1 SLOAD PUSH1 0x1 PUSH1 0x1 PUSH1 0xA0 SHL SUB NOT AND PUSH1 0x1 PUSH1 0x1 PUSH1 0xA0 SHL SUB SWAP1 SWAP3 AND SWAP2 SWAP1 SWAP2 OR SWAP1 SSTORE JUMP JUMPDEST SWAP1 PUSH1 0x20 PUSH2 0x35F SWAP3 DUP2 DUP2 MSTORE ADD SWAP1 PUSH2 0xF08 JUMP JUMPDEST DUP2 DUP2 LT PUSH2 0x2344 JUMPI POP POP JUMP JUMPDEST PUSH1 0x0 DUP2 SSTORE PUSH1 0x1 ADD PUSH2 0x2339 JUMP JUMPDEST PUSH4 0x4E487B71 PUSH1 0xE0 SHL PUSH1 0x0 MSTORE PUSH1 0x11 PUSH1 0x4 MSTORE PUSH1 0x24 PUSH1 0x0 REVERT JUMPDEST PUSH2 0x2370 DUP2 SLOAD PUSH2 0xECE JUMP JUMPDEST SWAP1 DUP2 PUSH2 0x237A JUMPI POP POP JUMP JUMPDEST DUP2 PUSH1 0x1F PUSH1 0x0 SWAP4 GT PUSH1 0x1 EQ PUSH2 0x238C JUMPI POP SSTORE JUMP JUMPDEST SWAP1 DUP1 DUP4 SWAP2 DUP3 MSTORE PUSH2 0x23AB PUSH1 0x1F PUSH1 0x20 DUP5 KECCAK256 SWAP5 ADD PUSH1 0x5 SHR DUP5 ADD PUSH1 0x1 DUP6 ADD PUSH2 0x2339 JUMP JUMPDEST SSTORE SSTORE JUMP JUMPDEST PUSH1 0x5 PUSH1 0x0 SWAP2 PUSH2 0x23BD DUP2 PUSH2 0x2366 JUMP JUMPDEST PUSH2 0x23C9 PUSH1 0x1 DUP3 ADD PUSH2 0x2366 JUMP JUMPDEST PUSH2 0x23D5 PUSH1 0x2 DUP3 ADD PUSH2 0x2366 JUMP JUMPDEST PUSH2 0x23E1 PUSH1 0x3 DUP3 ADD PUSH2 0x2366 JUMP JUMPDEST PUSH2 0x23ED PUSH1 0x4 DUP3 ADD PUSH2 0x2366 JUMP JUMPDEST ADD SSTORE JUMP JUMPDEST SWAP1 PUSH1 0x20 PUSH2 0x35F SWAP3 DUP2 DUP2 MSTORE ADD SWAP1 PUSH2 0x385 JUMP JUMPDEST ISZERO PUSH2 0x2409 JUMPI JUMP JUMPDEST PUSH1 0x40 MLOAD PUSH3 0x461BCD PUSH1 0xE5 SHL DUP2 MSTORE PUSH1 0x20 PUSH1 0x4 DUP3 ADD MSTORE PUSH1 0x37 PUSH1 0x24 DUP3 ADD MSTORE PUSH32 0x43616E6E6F7420726573657420616464726573736573207768696C6520616E20 PUSH1 0x44 DUP3 ADD MSTORE PUSH32 0x656C656374696F6E20697320696E2070726F6772657373000000000000000000 PUSH1 0x64 DUP3 ADD MSTORE PUSH1 0x84 SWAP1 REVERT JUMPDEST DUP1 MLOAD SWAP1 PUSH1 0x1 PUSH1 0x1 PUSH1 0x40 SHL SUB DUP3 GT PUSH2 0x272 JUMPI PUSH1 0x1 PUSH1 0x40 SHL DUP3 GT PUSH2 0x272 JUMPI PUSH1 0x3 SLOAD DUP3 PUSH1 0x3 SSTORE DUP1 DUP4 LT PUSH2 0x24E4 JUMPI JUMPDEST POP PUSH1 0x20 DUP1 SWAP2 ADD SWAP1 PUSH1 0x3 PUSH1 0x0 MSTORE PUSH1 0x0 JUMPDEST DUP4 DUP2 LT PUSH2 0x24BB JUMPI POP POP POP POP JUMP JUMPDEST DUP3 MLOAD PUSH1 0x1 PUSH1 0x1 PUSH1 0xA0 SHL SUB AND PUSH1 0x0 DUP1 MLOAD PUSH1 0x20 PUSH2 0x3234 DUP4 CODECOPY DUP2 MLOAD SWAP2 MSTORE DUP3 ADD SSTORE SWAP2 DUP2 ADD SWAP2 PUSH1 0x1 ADD PUSH2 0x24AE JUMP JUMPDEST PUSH2 0x2502 SWAP1 DUP4 PUSH1 0x0 DUP1 MLOAD PUSH1 0x20 PUSH2 0x3234 DUP4 CODECOPY DUP2 MLOAD SWAP2 MSTORE SWAP2 DUP3 ADD SWAP2 ADD PUSH2 0x2339 JUMP JUMPDEST CODESIZE PUSH2 0x249F JUMP JUMPDEST DUP1 MLOAD SWAP1 PUSH1 0x1 PUSH1 0x1 PUSH1 0x40 SHL SUB DUP3 GT PUSH2 0x272 JUMPI PUSH1 0x1 PUSH1 0x40 SHL DUP3 GT PUSH2 0x272 JUMPI PUSH1 0x4 SLOAD DUP3 PUSH1 0x4 SSTORE DUP1 DUP4 LT PUSH2 0x2578 JUMPI JUMPDEST POP PUSH1 0x20 DUP1 SWAP2 ADD SWAP1 PUSH1 0x4 PUSH1 0x0 MSTORE PUSH1 0x0 JUMPDEST DUP4 DUP2 LT PUSH2 0x254F JUMPI POP POP POP POP JUMP JUMPDEST DUP3 MLOAD PUSH1 0x1 PUSH1 0x1 PUSH1 0xA0 SHL SUB AND PUSH1 0x0 DUP1 MLOAD PUSH1 0x20 PUSH2 0x3254 DUP4 CODECOPY DUP2 MLOAD SWAP2 MSTORE DUP3 ADD SSTORE SWAP2 DUP2 ADD SWAP2 PUSH1 0x1 ADD PUSH2 0x2542 JUMP JUMPDEST PUSH2 0x2596 SWAP1 DUP4 PUSH1 0x0 DUP1 MLOAD PUSH1 0x20 PUSH2 0x3254 DUP4 CODECOPY DUP2 MLOAD SWAP2 MSTORE SWAP2 DUP3 ADD SWAP2 ADD PUSH2 0x2339 JUMP JUMPDEST CODESIZE PUSH2 0x2533 JUMP JUMPDEST ISZERO PUSH2 0x25A3 JUMPI JUMP JUMPDEST PUSH1 0x40 MLOAD PUSH3 0x461BCD PUSH1 0xE5 SHL DUP2 MSTORE PUSH1 0x20 PUSH1 0x4 DUP3 ADD MSTORE PUSH1 0x14 PUSH1 0x24 DUP3 ADD MSTORE PUSH20 0x22B632B1BA34B7B71034B9903737BA1037B832B7 PUSH1 0x61 SHL PUSH1 0x44 DUP3 ADD MSTORE PUSH1 0x64 SWAP1 REVERT JUMPDEST PUSH2 0x35F SWAP1 SLOAD PUSH2 0xECE JUMP JUMPDEST ISZERO PUSH2 0x25F0 JUMPI JUMP JUMPDEST PUSH1 0x40 MLOAD PUSH3 0x461BCD PUSH1 0xE5 SHL DUP2 MSTORE PUSH1 0x20 PUSH1 0x4 DUP3 ADD MSTORE PUSH1 0x17 PUSH1 0x24 DUP3 ADD MSTORE PUSH32 0x506F736974696F6E20646F6573206E6F74206578697374000000000000000000 PUSH1 0x44 DUP3 ADD MSTORE PUSH1 0x64 SWAP1 REVERT JUMPDEST ISZERO PUSH2 0x263C JUMPI JUMP JUMPDEST PUSH1 0x40 MLOAD PUSH3 0x461BCD PUSH1 0xE5 SHL DUP2 MSTORE PUSH1 0x20 PUSH1 0x4 DUP3 ADD MSTORE PUSH1 0x1C PUSH1 0x24 DUP3 ADD MSTORE PUSH32 0x456C656374696F6E2068617320616C7265616479207374617274656400000000 PUSH1 0x44 DUP3 ADD MSTORE PUSH1 0x64 SWAP1 REVERT JUMPDEST ISZERO PUSH2 0x2688 JUMPI JUMP JUMPDEST PUSH1 0x40 MLOAD PUSH3 0x461BCD PUSH1 0xE5 SHL DUP2 MSTORE PUSH1 0x20 PUSH1 0x4 DUP3 ADD MSTORE PUSH1 0x1D PUSH1 0x24 DUP3 ADD MSTORE PUSH32 0x43616E64696461746520697320616C726561647920617070726F766564000000 PUSH1 0x44 DUP3 ADD MSTORE PUSH1 0x64 SWAP1 REVERT JUMPDEST SWAP1 DUP2 SLOAD SWAP2 PUSH1 0x1 PUSH1 0x40 SHL DUP4 LT ISZERO PUSH2 0x272 JUMPI DUP3 PUSH2 0x1E02 SWAP2 PUSH1 0x1 PUSH2 0xFB9 SWAP6 ADD DUP2 SSTORE PUSH2 0x80D JUMP JUMPDEST SWAP1 SWAP2 PUSH2 0x2707 PUSH2 0x35F SWAP4 PUSH1 0x40 DUP5 MSTORE PUSH1 0x40 DUP5 ADD SWAP1 PUSH2 0x385 JUMP JUMPDEST SWAP2 PUSH1 0x20 DUP2 DUP5 SUB SWAP2 ADD MSTORE PUSH2 0xF08 JUMP JUMPDEST SWAP1 PUSH2 0x271F DUP3 PUSH2 0x21AD JUMP JUMPDEST PUSH2 0x272C PUSH1 0x40 MLOAD SWAP2 DUP3 PUSH2 0x251 JUMP JUMPDEST DUP3 DUP2 MSTORE DUP1 SWAP3 PUSH2 0x273D PUSH1 0x1F NOT SWAP2 PUSH2 0x21AD JUMP JUMPDEST ADD SWAP1 PUSH1 0x0 JUMPDEST DUP3 DUP2 LT PUSH2 0x274E JUMPI POP POP POP JUMP JUMPDEST DUP1 PUSH1 0x60 PUSH1 0x20 DUP1 SWAP4 DUP6 ADD ADD MSTORE ADD PUSH2 0x2742 JUMP JUMPDEST PUSH1 0x0 NOT DUP2 EQ PUSH2 0x276E JUMPI PUSH1 0x1 ADD SWAP1 JUMP JUMPDEST PUSH2 0x2350 JUMP JUMPDEST SWAP1 PUSH1 0x40 MLOAD DUP1 SWAP3 PUSH1 0x0 SWAP1 DUP1 SLOAD PUSH2 0x2787 DUP2 PUSH2 0xECE JUMP JUMPDEST SWAP2 PUSH1 0x1 SWAP2 DUP1 DUP4 AND SWAP1 DUP2 ISZERO PUSH2 0x27EB JUMPI POP PUSH1 0x1 EQ PUSH2 0x27AD JUMPI JUMPDEST POP POP POP PUSH1 0x20 SWAP3 DUP2 MSTORE SUB ADD SWAP1 KECCAK256 SWAP1 JUMP JUMPDEST PUSH1 0x0 SWAP1 DUP2 MSTORE PUSH1 0x20 DUP1 DUP3 KECCAK256 SWAP7 SWAP5 POP SWAP2 JUMPDEST DUP4 DUP3 LT PUSH2 0x27D5 JUMPI POP POP POP PUSH1 0x20 SWAP4 POP DUP3 ADD SWAP1 SWAP3 CODESIZE DUP1 PUSH2 0x279E JUMP JUMPDEST DUP7 SLOAD DUP9 DUP4 ADD MSTORE SWAP6 DUP7 ADD SWAP6 DUP8 SWAP6 POP SWAP1 DUP3 ADD SWAP1 PUSH2 0x27BC JUMP JUMPDEST PUSH1 0xFF NOT AND DUP7 MSTORE POP POP POP DUP1 ISZERO ISZERO MUL DUP3 ADD SWAP1 POP PUSH1 0x20 CODESIZE DUP1 PUSH2 0x279E JUMP JUMPDEST ISZERO PUSH2 0x280C JUMPI JUMP JUMPDEST PUSH1 0x40 MLOAD PUSH3 0x461BCD PUSH1 0xE5 SHL DUP2 MSTORE PUSH1 0x20 PUSH1 0x4 DUP3 ADD MSTORE PUSH1 0x1A PUSH1 0x24 DUP3 ADD MSTORE PUSH32 0x456C656374696F6E2068617320616C726561647920656E646564000000000000 PUSH1 0x44 DUP3 ADD MSTORE PUSH1 0x64 SWAP1 REVERT JUMPDEST SWAP2 SWAP1 PUSH1 0x1F DUP2 GT PUSH2 0x2860 JUMPI POP POP POP JUMP JUMPDEST PUSH2 0xFB9 SWAP3 PUSH1 0x0 MSTORE PUSH1 0x20 PUSH1 0x0 KECCAK256 SWAP1 PUSH1 0x20 PUSH1 0x1F DUP5 ADD PUSH1 0x5 SHR DUP4 ADD SWAP4 LT PUSH2 0x288C JUMPI JUMPDEST PUSH1 0x1F ADD PUSH1 0x5 SHR ADD SWAP1 PUSH2 0x2339 JUMP JUMPDEST SWAP1 SWAP2 POP DUP2 SWAP1 PUSH2 0x287F JUMP JUMPDEST SWAP2 SWAP1 SWAP2 DUP3 MLOAD PUSH1 0x1 PUSH1 0x1 PUSH1 0x40 SHL SUB DUP2 GT PUSH2 0x272 JUMPI PUSH2 0x28BD DUP2 PUSH2 0x28B7 DUP5 SLOAD PUSH2 0xECE JUMP JUMPDEST DUP5 PUSH2 0x2851 JUMP JUMPDEST PUSH1 0x20 DUP1 PUSH1 0x1F DUP4 GT PUSH1 0x1 EQ PUSH2 0x2900 JUMPI POP DUP2 SWAP1 PUSH2 0x28F1 SWAP4 SWAP5 SWAP6 PUSH1 0x0 SWAP3 PUSH2 0x28F5 JUMPI JUMPDEST POP POP DUP2 PUSH1 0x1 SHL SWAP2 PUSH1 0x0 NOT SWAP1 PUSH1 0x3 SHL SHR NOT AND OR SWAP1 JUMP JUMPDEST SWAP1 SSTORE JUMP JUMPDEST ADD MLOAD SWAP1 POP CODESIZE DUP1 PUSH2 0x28DC JUMP JUMPDEST SWAP1 PUSH1 0x1F NOT DUP4 AND SWAP6 PUSH2 0x2916 DUP6 PUSH1 0x0 MSTORE PUSH1 0x20 PUSH1 0x0 KECCAK256 SWAP1 JUMP JUMPDEST SWAP3 PUSH1 0x0 SWAP1 JUMPDEST DUP9 DUP3 LT PUSH2 0x2953 JUMPI POP POP DUP4 PUSH1 0x1 SWAP6 SWAP7 SWAP8 LT PUSH2 0x293A JUMPI JUMPDEST POP POP POP DUP2 SHL ADD SWAP1 SSTORE JUMP JUMPDEST ADD MLOAD PUSH1 0x0 NOT PUSH1 0xF8 DUP5 PUSH1 0x3 SHL AND SHR NOT AND SWAP1 SSTORE CODESIZE DUP1 DUP1 PUSH2 0x2930 JUMP JUMPDEST DUP1 PUSH1 0x1 DUP6 SWAP7 DUP3 SWAP5 SWAP7 DUP7 ADD MLOAD DUP2 SSTORE ADD SWAP6 ADD SWAP4 ADD SWAP1 PUSH2 0x291B JUMP JUMPDEST DUP1 SLOAD PUSH1 0x1 PUSH1 0x40 SHL DUP2 LT ISZERO PUSH2 0x272 JUMPI PUSH2 0x2988 SWAP2 PUSH1 0x1 DUP3 ADD DUP2 SSTORE PUSH2 0x80D JUMP JUMPDEST SWAP2 SWAP1 SWAP2 PUSH2 0x2998 JUMPI PUSH2 0xFB9 SWAP2 PUSH2 0x2896 JUMP JUMPDEST PUSH4 0x4E487B71 PUSH1 0xE0 SHL PUSH1 0x0 MSTORE PUSH1 0x0 PUSH1 0x4 MSTORE PUSH1 0x24 PUSH1 0x0 REVERT JUMPDEST SWAP1 PUSH2 0x29BA DUP2 MLOAD DUP4 PUSH2 0x2896 JUMP JUMPDEST PUSH1 0x1 DUP1 SWAP3 ADD PUSH1 0x20 DUP1 SWAP3 ADD MLOAD SWAP2 DUP3 MLOAD SWAP3 PUSH1 0x1 PUSH1 0x1 PUSH1 0x40 SHL SUB DUP5 GT PUSH2 0x272 JUMPI PUSH1 0x1 PUSH1 0x40 SHL DUP5 GT PUSH2 0x272 JUMPI PUSH1 0x20 SWAP1 DUP4 SLOAD DUP6 DUP6 SSTORE DUP1 DUP7 LT PUSH2 0x2A21 JUMPI JUMPDEST POP ADD SWAP2 PUSH1 0x0 MSTORE PUSH1 0x20 PUSH1 0x0 KECCAK256 SWAP1 PUSH1 0x0 JUMPDEST DUP5 DUP2 LT PUSH2 0x2A10 JUMPI POP POP POP POP POP POP JUMP JUMPDEST DUP4 MLOAD DUP4 DUP3 ADD SSTORE SWAP3 DUP2 ADD SWAP3 DUP6 ADD PUSH2 0x2A01 JUMP JUMPDEST PUSH2 0x2A38 SWAP1 DUP6 PUSH1 0x0 MSTORE DUP7 DUP5 PUSH1 0x0 KECCAK256 SWAP2 DUP3 ADD SWAP2 ADD PUSH2 0x2339 JUMP JUMPDEST CODESIZE PUSH2 0x29F2 JUMP JUMPDEST ISZERO PUSH2 0x2A45 JUMPI JUMP JUMPDEST PUSH1 0x40 MLOAD PUSH3 0x461BCD PUSH1 0xE5 SHL DUP2 MSTORE PUSH1 0x20 PUSH1 0x4 DUP3 ADD MSTORE PUSH1 0x23 PUSH1 0x24 DUP3 ADD MSTORE PUSH32 0x456C656374696F6E2073746172742074696D6520686173206E6F742072656163 PUSH1 0x44 DUP3 ADD MSTORE PUSH3 0x1A1959 PUSH1 0xEA SHL PUSH1 0x64 DUP3 ADD MSTORE PUSH1 0x84 SWAP1 REVERT JUMPDEST ISZERO PUSH2 0x2A9D JUMPI JUMP JUMPDEST PUSH1 0x40 MLOAD PUSH3 0x461BCD PUSH1 0xE5 SHL DUP2 MSTORE PUSH1 0x20 PUSH1 0x4 DUP3 ADD MSTORE PUSH1 0x1D PUSH1 0x24 DUP3 ADD MSTORE PUSH32 0x43616E646964617465206E616D6520616C726561647920657869737473000000 PUSH1 0x44 DUP3 ADD MSTORE PUSH1 0x64 SWAP1 REVERT JUMPDEST PUSH1 0x3 PUSH1 0x60 SWAP2 DUP4 MLOAD DUP2 SSTORE PUSH2 0x2AFC PUSH1 0x20 DUP6 ADD MLOAD PUSH1 0x1 DUP4 ADD PUSH2 0x2896 JUMP JUMPDEST PUSH1 0x40 DUP5 ADD MLOAD PUSH1 0x2 DUP3 ADD SSTORE ADD SWAP2 ADD MLOAD ISZERO ISZERO PUSH1 0xFF DUP1 NOT DUP4 SLOAD AND SWAP2 AND OR SWAP1 SSTORE JUMP JUMPDEST SWAP1 SWAP2 PUSH2 0x2B31 PUSH2 0x35F SWAP4 PUSH1 0x40 DUP5 MSTORE PUSH1 0x40 DUP5 ADD SWAP1 PUSH2 0x385 JUMP JUMPDEST SWAP2 PUSH1 0x20 DUP2 DUP5 SUB SWAP2 ADD MSTORE PUSH2 0x385 JUMP JUMPDEST ISZERO PUSH2 0x2B46 JUMPI JUMP JUMPDEST PUSH1 0x40 MLOAD PUSH3 0x461BCD PUSH1 0xE5 SHL DUP2 MSTORE PUSH1 0x20 PUSH1 0x4 DUP3 ADD MSTORE PUSH1 0x14 PUSH1 0x24 DUP3 ADD MSTORE PUSH20 0x159BDD195C88191BD95CC81B9BDD08195E1A5CDD PUSH1 0x62 SHL PUSH1 0x44 DUP3 ADD MSTORE PUSH1 0x64 SWAP1 REVERT JUMPDEST ISZERO PUSH2 0x2B89 JUMPI JUMP JUMPDEST PUSH1 0x40 MLOAD PUSH3 0x461BCD PUSH1 0xE5 SHL DUP2 MSTORE PUSH1 0x20 PUSH1 0x4 DUP3 ADD MSTORE PUSH1 0x1F PUSH1 0x24 DUP3 ADD MSTORE PUSH32 0x456C656374696F6E206973206E6F74206F70656E20666F7220766F74696E6700 PUSH1 0x44 DUP3 ADD MSTORE PUSH1 0x64 SWAP1 REVERT JUMPDEST ISZERO PUSH2 0x2BD5 JUMPI JUMP JUMPDEST PUSH1 0x40 MLOAD PUSH3 0x461BCD PUSH1 0xE5 SHL DUP2 MSTORE PUSH1 0x20 PUSH1 0x4 DUP3 ADD MSTORE PUSH1 0x15 PUSH1 0x24 DUP3 ADD MSTORE PUSH21 0x159BDD195C881A5CC81B9BDD08185C1C1C9BDD9959 PUSH1 0x5A SHL PUSH1 0x44 DUP3 ADD MSTORE PUSH1 0x64 SWAP1 REVERT JUMPDEST ISZERO PUSH2 0x2C19 JUMPI JUMP JUMPDEST PUSH1 0x40 MLOAD PUSH3 0x461BCD PUSH1 0xE5 SHL DUP2 MSTORE PUSH1 0x20 PUSH1 0x4 DUP3 ADD MSTORE PUSH1 0x17 PUSH1 0x24 DUP3 ADD MSTORE PUSH32 0x566F7465722068617320616C726561647920766F746564000000000000000000 PUSH1 0x44 DUP3 ADD MSTORE PUSH1 0x64 SWAP1 REVERT JUMPDEST ISZERO PUSH2 0x2C65 JUMPI JUMP JUMPDEST PUSH1 0x40 MLOAD PUSH3 0x461BCD PUSH1 0xE5 SHL DUP2 MSTORE PUSH1 0x20 PUSH1 0x4 DUP3 ADD MSTORE PUSH1 0x27 PUSH1 0x24 DUP3 ADD MSTORE PUSH32 0x566F7465722773204D6574616D61736B206164647265737320646F6573206E6F PUSH1 0x44 DUP3 ADD MSTORE PUSH7 0xE840DAC2E8C6D PUSH1 0xCB SHL PUSH1 0x64 DUP3 ADD MSTORE PUSH1 0x84 SWAP1 REVERT JUMPDEST ISZERO PUSH2 0x2CC1 JUMPI JUMP JUMPDEST PUSH1 0x40 MLOAD PUSH3 0x461BCD PUSH1 0xE5 SHL DUP2 MSTORE PUSH1 0x20 PUSH1 0x4 DUP3 ADD MSTORE PUSH1 0x11 PUSH1 0x24 DUP3 ADD MSTORE PUSH17 0x496E76616C69642063616E646964617465 PUSH1 0x78 SHL PUSH1 0x44 DUP3 ADD MSTORE PUSH1 0x64 SWAP1 REVERT JUMPDEST ISZERO PUSH2 0x2D01 JUMPI JUMP JUMPDEST PUSH1 0x40 MLOAD PUSH3 0x461BCD PUSH1 0xE5 SHL DUP2 MSTORE PUSH1 0x20 PUSH1 0x4 DUP3 ADD MSTORE PUSH1 0x19 PUSH1 0x24 DUP3 ADD MSTORE PUSH32 0x43616E646964617465206973206E6F7420617070726F76656400000000000000 PUSH1 0x44 DUP3 ADD MSTORE PUSH1 0x64 SWAP1 REVERT JUMPDEST PUSH1 0x3 PUSH1 0x0 SWAP2 DUP3 DUP2 SSTORE PUSH2 0x2D5A PUSH1 0x1 DUP3 ADD PUSH2 0x2366 JUMP JUMPDEST DUP3 PUSH1 0x2 DUP3 ADD SSTORE ADD SSTORE JUMP JUMPDEST PUSH1 0x0 NOT DUP2 ADD SWAP2 SWAP1 DUP3 GT PUSH2 0x276E JUMPI JUMP JUMPDEST PUSH4 0x4E487B71 PUSH1 0xE0 SHL PUSH1 0x0 MSTORE PUSH1 0x31 PUSH1 0x4 MSTORE PUSH1 0x24 PUSH1 0x0 REVERT JUMPDEST DUP1 SLOAD SWAP1 DUP2 ISZERO PUSH2 0x2DB3 JUMPI PUSH1 0x0 NOT SWAP2 DUP3 ADD SWAP2 PUSH2 0x2DA3 DUP4 DUP4 PUSH2 0x80D JUMP JUMPDEST SWAP1 SWAP2 DUP3 SLOAD SWAP2 PUSH1 0x3 SHL SHL NOT AND SWAP1 SSTORE SSTORE JUMP JUMPDEST PUSH2 0x2D73 JUMP JUMPDEST ISZERO PUSH2 0x2DBF JUMPI JUMP JUMPDEST PUSH1 0x40 MLOAD PUSH3 0x461BCD PUSH1 0xE5 SHL DUP2 MSTORE PUSH1 0x20 PUSH1 0x4 DUP3 ADD MSTORE PUSH1 0x35 PUSH1 0x24 DUP3 ADD MSTORE PUSH32 0x43616E6E6F7420726567697374657220766F7465727320616674657220746865 PUSH1 0x44 DUP3 ADD MSTORE PUSH21 0x8195B1958DD1A5BDB881A185CC81CDD185C9D1959 PUSH1 0x5A SHL PUSH1 0x64 DUP3 ADD MSTORE PUSH1 0x84 SWAP1 REVERT JUMPDEST ISZERO PUSH2 0x2E29 JUMPI JUMP JUMPDEST PUSH1 0x40 MLOAD PUSH3 0x461BCD PUSH1 0xE5 SHL DUP2 MSTORE PUSH1 0x20 PUSH1 0x4 DUP3 ADD MSTORE PUSH1 0x28 PUSH1 0x24 DUP3 ADD MSTORE PUSH32 0x566F74657220697320616C7265616479207265676973746572656420616E6420 PUSH1 0x44 DUP3 ADD MSTORE PUSH8 0x185C1C1C9BDD9959 PUSH1 0xC2 SHL PUSH1 0x64 DUP3 ADD MSTORE PUSH1 0x84 SWAP1 REVERT JUMPDEST ISZERO PUSH2 0x2E86 JUMPI JUMP JUMPDEST PUSH1 0x40 MLOAD PUSH3 0x461BCD PUSH1 0xE5 SHL DUP2 MSTORE PUSH1 0x20 PUSH1 0x4 DUP3 ADD MSTORE PUSH1 0x30 PUSH1 0x24 DUP3 ADD MSTORE PUSH32 0x566F74657220697320616C7265616479207265676973746572656420616E6420 PUSH1 0x44 DUP3 ADD MSTORE PUSH16 0x1C195B991A5B99C8185C1C1C9BDD985B PUSH1 0x82 SHL PUSH1 0x64 DUP3 ADD MSTORE PUSH1 0x84 SWAP1 REVERT JUMPDEST SWAP1 PUSH2 0x2F85 PUSH1 0xE0 PUSH1 0x5 PUSH2 0xFB9 SWAP5 PUSH2 0x2EFB DUP6 MLOAD DUP3 PUSH2 0x2896 JUMP JUMPDEST PUSH2 0x2F0C PUSH1 0x20 DUP7 ADD MLOAD PUSH1 0x1 DUP4 ADD PUSH2 0x2896 JUMP JUMPDEST PUSH2 0x2F1D PUSH1 0x40 DUP7 ADD MLOAD PUSH1 0x2 DUP4 ADD PUSH2 0x2896 JUMP JUMPDEST PUSH2 0x2F2E PUSH1 0x60 DUP7 ADD MLOAD PUSH1 0x3 DUP4 ADD PUSH2 0x2896 JUMP JUMPDEST PUSH2 0x2F3F PUSH1 0x80 DUP7 ADD MLOAD PUSH1 0x4 DUP4 ADD PUSH2 0x2896 JUMP JUMPDEST PUSH1 0xA0 DUP6 DUP2 ADD MLOAD SWAP2 SWAP1 SWAP3 ADD DUP1 SLOAD PUSH1 0xC0 DUP8 ADD MLOAD PUSH1 0xFF PUSH1 0xA0 SHL SWAP1 ISZERO ISZERO SWAP1 SWAP5 SHL SWAP4 SWAP1 SWAP4 AND PUSH1 0x1 PUSH1 0x1 PUSH1 0xA0 SHL SUB SWAP1 SWAP3 AND PUSH1 0x1 PUSH1 0x1 PUSH1 0xA8 SHL SUB NOT SWAP1 SWAP4 AND SWAP3 SWAP1 SWAP3 OR OR DUP2 SSTORE SWAP3 ADD MLOAD ISZERO ISZERO SWAP1 JUMP JUMPDEST DUP2 SLOAD PUSH1 0xFF PUSH1 0xA8 SHL NOT AND SWAP1 ISZERO ISZERO PUSH1 0xA8 SHL PUSH1 0xFF PUSH1 0xA8 SHL AND OR SWAP1 SSTORE JUMP JUMPDEST PUSH32 0xFFEB7702BE7DCD8FEE170D954B70AFB9A7C78F7F5CFF232D037E7B9D8243356A SWAP5 PUSH2 0x309E SWAP5 SWAP7 SWAP4 PUSH2 0x307C SWAP4 PUSH2 0x2FE2 PUSH2 0x2FDD PUSH2 0x8CF PUSH1 0xA SLOAD PUSH1 0xFF AND SWAP1 JUMP JUMPDEST PUSH2 0x2DB8 JUMP JUMPDEST PUSH2 0x300E PUSH2 0x3009 PUSH2 0x8CF PUSH1 0x5 PUSH2 0x1A75 DUP11 PUSH1 0x1 DUP1 PUSH1 0xA0 SHL SUB AND PUSH1 0x0 MSTORE PUSH1 0x2 PUSH1 0x20 MSTORE PUSH1 0x40 PUSH1 0x0 KECCAK256 SWAP1 JUMP JUMPDEST PUSH2 0x2E22 JUMP JUMPDEST PUSH2 0x3022 PUSH2 0x301D PUSH2 0x8CF DUP9 PUSH2 0x30CF JUMP JUMPDEST PUSH2 0x2E7F JUMP JUMPDEST PUSH2 0x302A PUSH2 0x2B5 JUMP JUMPDEST SWAP4 DUP5 MSTORE PUSH1 0x20 DUP5 ADD MSTORE PUSH1 0x40 DUP4 ADD MSTORE PUSH1 0x60 DUP3 ADD DUP8 SWAP1 MSTORE PUSH1 0x80 DUP3 ADD MSTORE PUSH1 0x1 PUSH1 0x1 PUSH1 0xA0 SHL SUB DUP4 AND PUSH1 0xA0 DUP3 ADD MSTORE PUSH1 0x0 PUSH1 0xC0 DUP3 ADD DUP2 SWAP1 MSTORE PUSH1 0xE0 DUP3 ADD DUP2 SWAP1 MSTORE PUSH1 0x1 PUSH1 0x1 PUSH1 0xA0 SHL SUB DUP5 AND DUP2 MSTORE PUSH1 0x2 PUSH1 0x20 MSTORE PUSH1 0x40 SWAP1 KECCAK256 PUSH2 0x2EE4 JUMP JUMPDEST PUSH2 0x3085 DUP2 PUSH2 0x22D3 JUMP JUMPDEST PUSH1 0x40 MLOAD PUSH1 0x1 PUSH1 0x1 PUSH1 0xA0 SHL SUB SWAP1 SWAP2 AND SWAP4 SWAP1 SWAP2 DUP3 SWAP2 DUP3 PUSH2 0x23F1 JUMP JUMPDEST SUB SWAP1 LOG2 JUMP JUMPDEST PUSH1 0x0 SLOAD PUSH1 0x1 PUSH1 0x1 PUSH1 0xA0 SHL SUB AND CALLER SUB PUSH2 0x30B7 JUMPI JUMP JUMPDEST PUSH1 0x40 MLOAD PUSH4 0x118CDAA7 PUSH1 0xE0 SHL DUP2 MSTORE CALLER PUSH1 0x4 DUP3 ADD MSTORE PUSH1 0x24 SWAP1 REVERT JUMPDEST PUSH1 0x3 DUP1 SLOAD SWAP2 SWAP1 PUSH1 0x0 DUP1 JUMPDEST DUP5 DUP2 LT PUSH2 0x30EA JUMPI POP POP POP POP POP PUSH1 0x0 SWAP1 JUMP JUMPDEST DUP3 DUP3 MSTORE PUSH1 0x0 DUP1 MLOAD PUSH1 0x20 PUSH2 0x3234 DUP4 CODECOPY DUP2 MLOAD SWAP2 MSTORE DUP2 ADD SLOAD PUSH1 0x1 PUSH1 0x1 PUSH1 0xA0 SHL SUB DUP6 DUP2 AND SWAP2 AND EQ PUSH2 0x3119 JUMPI PUSH1 0x1 ADD PUSH2 0x30D9 JUMP JUMPDEST POP POP POP POP POP PUSH1 0x1 SWAP1 JUMP JUMPDEST PUSH1 0x0 DUP1 JUMPDEST PUSH1 0x3 DUP1 SLOAD DUP1 DUP4 LT ISZERO PUSH2 0xF37 JUMPI DUP2 DUP5 MSTORE PUSH1 0x0 DUP1 MLOAD PUSH1 0x20 PUSH2 0x3234 DUP4 CODECOPY DUP2 MLOAD SWAP2 MSTORE DUP4 ADD SLOAD PUSH1 0x1 PUSH1 0x1 PUSH1 0xA0 SHL SUB SWAP2 SWAP1 DUP3 AND DUP7 DUP4 AND EQ PUSH2 0x3167 JUMPI POP POP POP PUSH1 0x1 ADD PUSH2 0x3127 JUMP JUMPDEST PUSH2 0x31AF SWAP4 SWAP3 SWAP5 SWAP6 POP SWAP1 PUSH2 0x3184 PUSH2 0x317F PUSH2 0x3191 SWAP4 PUSH2 0x2D64 JUMP JUMPDEST PUSH2 0x7C3 JUMP JUMPDEST SWAP1 SLOAD SWAP1 DUP7 SHL SHR AND SWAP2 PUSH2 0x7C3 JUMP JUMPDEST SWAP1 SWAP2 SWAP1 PUSH1 0x1 DUP1 PUSH1 0xA0 SHL SUB DUP1 DUP5 SLOAD SWAP3 PUSH1 0x3 SHL SWAP4 AND DUP4 SHL SWAP3 SHL NOT AND OR SWAP1 SSTORE JUMP JUMPDEST DUP1 SLOAD SWAP2 DUP3 ISZERO PUSH2 0x2DB3 JUMPI PUSH1 0x0 NOT DUP4 ADD SWAP3 DUP1 DUP5 LT ISZERO PUSH2 0x6F8 JUMPI SWAP1 DUP3 SWAP1 MSTORE PUSH32 0xC2575A0E9E593C00F959F8C92F12DB2869C3395A3B0502D05E2516446F71F85A ADD DUP1 SLOAD PUSH1 0x1 PUSH1 0x1 PUSH1 0xA0 SHL SUB NOT AND SWAP1 SSTORE SSTORE JUMP JUMPDEST SWAP1 PUSH1 0x0 JUMPDEST DUP3 MLOAD DUP2 LT ISZERO PUSH2 0x322B JUMPI DUP2 PUSH2 0x3215 DUP3 DUP6 PUSH2 0x221E JUMP JUMPDEST MLOAD EQ PUSH2 0x3223 JUMPI PUSH1 0x1 ADD PUSH2 0x3201 JUMP JUMPDEST POP POP POP PUSH1 0x1 SWAP1 JUMP JUMPDEST POP POP POP PUSH1 0x0 SWAP1 JUMP INVALID 0xC2 JUMPI GAS 0xE SWAP15 MSIZE EXTCODECOPY STOP 0xF9 MSIZE 0xF8 0xC9 0x2F SLT 0xDB 0x28 PUSH10 0xC3395A3B0502D05E2516 PREVRANDAO PUSH16 0x71F85B8A35ACFBC15FF81A39AE7D344F 0xD7 MULMOD CALLCODE DUP15 DUP7 STOP 0xB4 0xAA DUP13 PUSH6 0xC6B64BFE7FE3 PUSH12 0xD19BA2646970667358221220 0xD5 GASPRICE SWAP5 DUP7 0x2D ADDRESS 0xDF SMOD COINBASE DUP7 POP 0xD7 0x4C MSTORE8 DUP3 0xB5 PUSH14 0x929C94D18611028E7FD55A282A0 MULMOD PUSH5 0x736F6C6343 STOP ADDMOD XOR STOP CALLER "},"methodIdentifiers":{"approveCandidate(uint256,string,uint256)":"4f333369","approveVoter(address)":"119d4ddb","approvedVoters(uint256)":"aed93010","candidateCounts(uint256)":"5824bf30","closeElection(uint256)":"09e33d07","createElection(string,uint256,uint256)":"f49a7a17","createPosition(uint256,string)":"760b5b23","electionCount()":"997d2830","electionEnded()":"c94ca9e3","electionStarted()":"d5346da1","elections(uint256)":"5e6fef01","endElection()":"59f78468","extendElectionTime(uint256,uint256)":"4da3fe5a","getApprovedVoters(uint256)":"f452130b","getElection(uint256)":"9d710777","getElectionProgress(uint256,string)":"d6c79eaa","getElectionResult(uint256,string)":"0003a3d1","getPendingVoters()":"c3322d09","getRegisteredCandidates(uint256,string)":"51090d33","getVoter(address)":"d4f50f98","isOwner(address)":"2f54bf6e","openElection(uint256)":"9a1d5956","owner()":"8da5cb5b","pendingVoters(uint256)":"24a9267b","registerCandidate(uint256,string,string)":"bd5b5faf","registerVoter(string,string,string,string,string,address)":"ff9e50fe","rejectCandidate(uint256,string,uint256)":"f309ed15","rejectVoter(address)":"1b04772b","renounceOwnership()":"715018a6","resetRegisteredAddresses()":"3cfe3a37","startElection()":"62d73eb8","transferOwnership(address)":"f2fde38b","vote(uint256,string,uint256)":"f0f45457","voters(address)":"a3ec138d"}}}}}