{"contracts/Voting.sol":{"Voting":{"abi":[{"inputs":[],"stateMutability":"nonpayable","type":"constructor"},{"inputs":[{"internalType":"address","name":"owner","type":"address"}],"name":"OwnableInvalidOwner","type":"error"},{"inputs":[{"internalType":"address","name":"account","type":"address"}],"name":"OwnableUnauthorizedAccount","type":"error"},{"inputs":[],"name":"ReentrancyGuardReentrantCall","type":"error"},{"anonymous":false,"inputs":[{"indexed":true,"internalType":"uint256","name":"electionId","type":"uint256"},{"indexed":false,"internalType":"string","name":"positionName","type":"string"},{"indexed":false,"internalType":"string","name":"candidateName","type":"string"}],"name":"CandidateApproved","type":"event"},{"anonymous":false,"inputs":[{"indexed":true,"internalType":"uint256","name":"electionId","type":"uint256"},{"indexed":false,"internalType":"string","name":"positionName","type":"string"},{"indexed":false,"internalType":"string","name":"candidateName","type":"string"}],"name":"CandidateRegistered","type":"event"},{"anonymous":false,"inputs":[{"indexed":true,"internalType":"uint256","name":"electionId","type":"uint256"},{"indexed":false,"internalType":"string","name":"positionName","type":"string"},{"indexed":false,"internalType":"string","name":"candidateName","type":"string"}],"name":"CandidateRejected","type":"event"},{"anonymous":false,"inputs":[{"indexed":true,"internalType":"uint256","name":"electionId","type":"uint256"}],"name":"ElectionClosed","type":"event"},{"anonymous":false,"inputs":[{"indexed":true,"internalType":"uint256","name":"electionId","type":"uint256"},{"indexed":false,"internalType":"string","name":"name","type":"string"}],"name":"ElectionCreated","type":"event"},{"anonymous":false,"inputs":[],"name":"ElectionEnded","type":"event"},{"anonymous":false,"inputs":[{"indexed":true,"internalType":"uint256","name":"electionId","type":"uint256"}],"name":"ElectionOpened","type":"event"},{"anonymous":false,"inputs":[],"name":"ElectionStarted","type":"event"},{"anonymous":false,"inputs":[{"indexed":true,"internalType":"uint256","name":"electionId","type":"uint256"},{"indexed":false,"internalType":"uint256","name":"newEndTime","type":"uint256"}],"name":"ElectionTimeExtended","type":"event"},{"anonymous":false,"inputs":[{"indexed":true,"internalType":"address","name":"previousOwner","type":"address"},{"indexed":true,"internalType":"address","name":"newOwner","type":"address"}],"name":"OwnershipTransferred","type":"event"},{"anonymous":false,"inputs":[{"indexed":true,"internalType":"uint256","name":"electionId","type":"uint256"},{"indexed":false,"internalType":"string","name":"positionName","type":"string"}],"name":"PositionCreated","type":"event"},{"anonymous":false,"inputs":[],"name":"RegisteredAddressesReset","type":"event"},{"anonymous":false,"inputs":[{"indexed":true,"internalType":"uint256","name":"electionId","type":"uint256"},{"indexed":true,"internalType":"address","name":"voterAddress","type":"address"},{"indexed":false,"internalType":"string","name":"positionName","type":"string"},{"indexed":true,"internalType":"uint256","name":"candidateId","type":"uint256"}],"name":"VoteCast","type":"event"},{"anonymous":false,"inputs":[{"indexed":true,"internalType":"address","name":"voterAddress","type":"address"},{"indexed":false,"internalType":"string","name":"email","type":"string"}],"name":"VoterApproved","type":"event"},{"anonymous":false,"inputs":[{"indexed":true,"internalType":"address","name":"voterAddress","type":"address"},{"indexed":false,"internalType":"string","name":"email","type":"string"}],"name":"VoterRegistered","type":"event"},{"anonymous":false,"inputs":[{"indexed":true,"internalType":"address","name":"voterAddress","type":"address"},{"indexed":false,"internalType":"string","name":"email","type":"string"}],"name":"VoterRejected","type":"event"},{"inputs":[{"internalType":"uint256","name":"_electionId","type":"uint256"},{"internalType":"string","name":"_positionName","type":"string"},{"internalType":"uint256","name":"_candidateId","type":"uint256"}],"name":"approveCandidate","outputs":[],"stateMutability":"nonpayable","type":"function"},{"inputs":[{"internalType":"address","name":"_voterAddress","type":"address"}],"name":"approveVoter","outputs":[],"stateMutability":"nonpayable","type":"function"},{"inputs":[{"internalType":"uint256","name":"","type":"uint256"}],"name":"approvedVoters","outputs":[{"internalType":"address","name":"","type":"address"}],"stateMutability":"view","type":"function"},{"inputs":[{"internalType":"uint256","name":"","type":"uint256"}],"name":"candidateCounts","outputs":[{"internalType":"uint256","name":"","type":"uint256"}],"stateMutability":"view","type":"function"},{"inputs":[{"internalType":"uint256","name":"_electionId","type":"uint256"}],"name":"closeElection","outputs":[],"stateMutability":"nonpayable","type":"function"},{"inputs":[{"internalType":"string","name":"_name","type":"string"},{"internalType":"uint256","name":"_startTime","type":"uint256"},{"internalType":"uint256","name":"_endTime","type":"uint256"}],"name":"createElection","outputs":[],"stateMutability":"nonpayable","type":"function"},{"inputs":[{"internalType":"uint256","name":"_electionId","type":"uint256"},{"internalType":"string","name":"_positionName","type":"string"}],"name":"createPosition","outputs":[],"stateMutability":"nonpayable","type":"function"},{"inputs":[],"name":"electionCount","outputs":[{"internalType":"uint256","name":"","type":"uint256"}],"stateMutability":"view","type":"function"},{"inputs":[],"name":"electionEnded","outputs":[{"internalType":"bool","name":"","type":"bool"}],"stateMutability":"view","type":"function"},{"inputs":[],"name":"electionStarted","outputs":[{"internalType":"bool","name":"","type":"bool"}],"stateMutability":"view","type":"function"},{"inputs":[{"internalType":"uint256","name":"","type":"uint256"}],"name":"elections","outputs":[{"internalType":"string","name":"name","type":"string"},{"internalType":"bool","name":"isOpen","type":"bool"},{"internalType":"uint256","name":"startTime","type":"uint256"},{"internalType":"uint256","name":"endTime","type":"uint256"}],"stateMutability":"view","type":"function"},{"inputs":[],"name":"endElection","outputs":[],"stateMutability":"nonpayable","type":"function"},{"inputs":[{"internalType":"uint256","name":"_electionId","type":"uint256"},{"internalType":"uint256","name":"_newEndTime","type":"uint256"}],"name":"extendElectionTime","outputs":[],"stateMutability":"nonpayable","type":"function"},{"inputs":[{"internalType":"uint256","name":"index","type":"uint256"}],"name":"getApprovedVoters","outputs":[{"internalType":"address","name":"","type":"address"}],"stateMutability":"view","type":"function"},{"inputs":[{"internalType":"uint256","name":"_electionId","type":"uint256"}],"name":"getElection","outputs":[{"internalType":"string","name":"","type":"string"},{"internalType":"bool","name":"","type":"bool"},{"internalType":"uint256","name":"","type":"uint256"},{"internalType":"uint256","name":"","type":"uint256"},{"internalType":"string[]","name":"","type":"string[]"}],"stateMutability":"view","type":"function"},{"inputs":[{"internalType":"uint256","name":"_electionId","type":"uint256"},{"internalType":"string","name":"_positionName","type":"string"}],"name":"getElectionProgress","outputs":[{"internalType":"string","name":"","type":"string"},{"internalType":"uint256[]","name":"","type":"uint256[]"},{"internalType":"uint256[]","name":"","type":"uint256[]"}],"stateMutability":"view","type":"function"},{"inputs":[{"internalType":"uint256","name":"_electionId","type":"uint256"},{"internalType":"string","name":"_positionName","type":"string"}],"name":"getElectionResult","outputs":[{"internalType":"string","name":"","type":"string"},{"internalType":"uint256[]","name":"","type":"uint256[]"},{"internalType":"uint256[]","name":"","type":"uint256[]"}],"stateMutability":"view","type":"function"},{"inputs":[],"name":"getPendingVoters","outputs":[{"internalType":"address[]","name":"","type":"address[]"}],"stateMutability":"view","type":"function"},{"inputs":[{"internalType":"uint256","name":"_electionId","type":"uint256"},{"internalType":"string","name":"_positionName","type":"string"}],"name":"getRegisteredCandidates","outputs":[{"internalType":"uint256[]","name":"","type":"uint256[]"},{"internalType":"string[]","name":"","type":"string[]"},{"internalType":"bool[]","name":"","type":"bool[]"}],"stateMutability":"view","type":"function"},{"inputs":[{"internalType":"address","name":"_voterAddress","type":"address"}],"name":"getVoter","outputs":[{"internalType":"string","name":"","type":"string"},{"internalType":"string","name":"","type":"string"},{"internalType":"string","name":"","type":"string"},{"internalType":"string","name":"","type":"string"},{"internalType":"string","name":"","type":"string"},{"internalType":"address","name":"","type":"address"},{"internalType":"bool","name":"","type":"bool"},{"internalType":"bool","name":"","type":"bool"}],"stateMutability":"view","type":"function"},{"inputs":[{"internalType":"address","name":"_address","type":"address"}],"name":"isOwner","outputs":[{"internalType":"bool","name":"","type":"bool"}],"stateMutability":"view","type":"function"},{"inputs":[{"internalType":"uint256","name":"_electionId","type":"uint256"}],"name":"openElection","outputs":[],"stateMutability":"nonpayable","type":"function"},{"inputs":[],"name":"owner","outputs":[{"internalType":"address","name":"","type":"address"}],"stateMutability":"view","type":"function"},{"inputs":[{"internalType":"uint256","name":"","type":"uint256"}],"name":"pendingVoters","outputs":[{"internalType":"address","name":"","type":"address"}],"stateMutability":"view","type":"function"},{"inputs":[{"internalType":"uint256","name":"_electionId","type":"uint256"},{"internalType":"string","name":"_positionName","type":"string"},{"internalType":"string","name":"_candidateName","type":"string"}],"name":"registerCandidate","outputs":[],"stateMutability":"nonpayable","type":"function"},{"inputs":[{"internalType":"string","name":"_firstName","type":"string"},{"internalType":"string","name":"_lastName","type":"string"},{"internalType":"string","name":"_registrationNumber","type":"string"},{"internalType":"string","name":"_email","type":"string"},{"internalType":"string","name":"_phoneNumber","type":"string"},{"internalType":"address","name":"_metamaskAddress","type":"address"}],"name":"registerVoter","outputs":[],"stateMutability":"nonpayable","type":"function"},{"inputs":[{"internalType":"uint256","name":"_electionId","type":"uint256"},{"internalType":"string","name":"_positionName","type":"string"},{"internalType":"uint256","name":"_candidateId","type":"uint256"}],"name":"rejectCandidate","outputs":[],"stateMutability":"nonpayable","type":"function"},{"inputs":[{"internalType":"address","name":"_voterAddress","type":"address"}],"name":"rejectVoter","outputs":[],"stateMutability":"nonpayable","type":"function"},{"inputs":[],"name":"renounceOwnership","outputs":[],"stateMutability":"nonpayable","type":"function"},{"inputs":[],"name":"startElection","outputs":[],"stateMutability":"nonpayable","type":"function"},{"inputs":[{"internalType":"address","name":"newOwner","type":"address"}],"name":"transferOwnership","outputs":[],"stateMutability":"nonpayable","type":"function"},{"inputs":[{"internalType":"uint256","name":"_electionId","type":"uint256"},{"internalType":"string","name":"_positionName","type":"string"},{"internalType":"uint256","name":"_candidateId","type":"uint256"}],"name":"vote","outputs":[],"stateMutability":"nonpayable","type":"function"},{"inputs":[{"internalType":"address","name":"","type":"address"}],"name":"voters","outputs":[{"internalType":"string","name":"firstName","type":"string"},{"internalType":"string","name":"lastName","type":"string"},{"internalType":"string","name":"registrationNumber","type":"string"},{"internalType":"string","name":"email","type":"string"},{"internalType":"string","name":"phoneNumber","type":"string"},{"internalType":"address","name":"metamaskAddress","type":"address"},{"internalType":"bool","name":"approved","type":"bool"},{"internalType":"bool","name":"voted","type":"bool"}],"stateMutability":"view","type":"function"}],"evm":{"bytecode":{"linkReferences":{},"object":"6080806040523461007e5733156100685760008054336001600160a01b03198216811783556040519290916001600160a01b0316907f8be0079c531659141344cd1fd0a4f28419497f9722a3daafe3b4186f6b6457e09080a360018055612b6190816100848239f35b631e4fbdf760e01b815260006004820152602490fd5b600080fdfe6040608081526004908136101561001557600080fd5b6000803560e01c806203a3d11461203c57806309e33d0714611f29578063119d4ddb14611e495780631b04772b14611d6457806324a9267b14611d235780632f54bf6e14611cec5780634da3fe5a14611c025780634f33336914611aee57806351090d33146119315780635824bf301461190957806359f784681461185a5780635e6fef01146117ec57806362d73eb814611782578063715018a614611728578063760b5b23146115135780638da5cb5b146114eb578063997d2830146114cc5780639a1d5956146113b55780639d710777146112c3578063a3ec138d146111ff578063aed93010146111d6578063bd5b5faf14610fe7578063c3322d0914610f23578063c94ca9e314610efc578063d4f50f9814610dc8578063d5346da114610da4578063d6c79eaa14610cb2578063f0f454571461098c578063f2fde38b14610905578063f309ed15146106b2578063f452130b1461063c578063f49a7a17146105135763ff9e50fe1461018a57600080fd5b346105105760c03660031901126105105767ffffffffffffffff92803584811161050c576101bb903690830161217e565b936024908135818111610508576101d5903690850161217e565b92604435828111610504576101ed903690830161217e565b9260643583811161050057610205903690840161217e565b936084358481116104fc5761021d903690850161217e565b9360a4359460018060a01b0392838716988988036104f85760ff600a5416610497578b9c60ff60058d9e8e8e9f9e60029e9f5260209d8e5220015460a01c1661044457610269896129fd565b6103e9578d51946101008601908111868210176103d7578d96938f93848f97948f948f9a97528652888601918252808601928352606086019384526080860194855260a0860199888b5260c0870199818b5260e0880199828b528252600290522094516102d69086612881565b516102e49060018601612881565b516102f29060028501612881565b516103009060038401612881565b5161030d90828901612881565b60050193511683549260ff60a01b9051151560a01b169160ff60a81b9051151560a81b169269ffffffffffffffffffff60b01b16171717905560035491600160401b8310156103c6575050956103b16103c0926103938960017fffeb7702be7dcd8fee170d954b70afb9a7c78f7f5cff232d037e7b9d8243356a999a9b016003556122d6565b90919060018060a01b038084549260031b9316831b921b1916179055565b51928284938452830190612230565b0390a280f35b634e487b7160e01b88526041905286fd5b634e487b7160e01b8e5260418952878efd5b8d5162461bcd60e51b81528089018b90526030818901527f566f74657220697320616c7265616479207265676973746572656420616e642060448201526f1c195b991a5b99c8185c1c1c9bdd985b60821b6064820152608490fd5b8d5162461bcd60e51b81528089018b90526028818901527f566f74657220697320616c7265616479207265676973746572656420616e6420604482015267185c1c1c9bdd995960c21b6064820152608490fd5b508a5162461bcd60e51b81526020818801526035818701527f43616e6e6f7420726567697374657220766f746572732061667465722074686560448201527408195b1958dd1a5bdb881a185cc81cdd185c9d1959605a1b6064820152608490fd5b8a80fd5b8780fd5b8680fd5b8580fd5b8480fd5b8280fd5b80fd5b50913461050c57606036600319011261050c57803567ffffffffffffffff811161063857610544903690830161217e565b9060243590604435906105556129d1565b818310156105e95750916103c0917f52be7c4e77b4de76b7607d621492061fe13b58597e72dfb5e51ab8f6187ed141936006916105928354612987565b808455885260056020526105a884888a20612881565b82548852600560205260018789200160ff19815416905582548852600287892001558154875260038688200155549351918291602083526020830190612230565b608490602086519162461bcd60e51b8352820152602360248201527f496e76616c696420656c656374696f6e20737461727420616e6420656e642074604482015262696d6560e81b6064820152fd5b8380fd5b508290346105105760203660031901126105105750803590805482101561067f5760208361066984612323565b905491519160018060a01b039160031b1c168152f35b606490602084519162461bcd60e51b8352820152600d60248201526c092dcecc2d8d2c840d2dcc8caf609b1b6044820152fd5b50913461050c57600161076893926106c936612372565b909291946106d56129d1565b6106e3600654871115612555565b85875260206005815261070d61070661070084878c2001886125a1565b54612406565b1515612751565b868852600581526107256002858a200154421061279d565b86885260078152838820838952815283882092600560039261074e60ff600388015416156127e9565b889b8c966107618951809c819301612440565b038a612146565b898b526009815261078461077e888d208a6125a1565b8a6125a1565b60ff198154169055898b5260078152868b20838c5281528a60038882208281556107b0600182016126c5565b8260028201550155898b525260016107cc84878c2001886125a1565b0190899a5b610809575b89897fc965973ca1e6509f55ff868bce7a20c938b1b78836c93db3d55171313e920b838a8a6103c08b51928392836129ac565b8154808c10156108ff578161081e8d8561235a565b905490861b1c14610834575099840199846107d1565b929450509198600019918281019081116108ec579061086661085961087f938661235a565b905490871b1c918561235a565b90919082549060031b91821b91600019901b1916179055565b815480156108d9577fc965973ca1e6509f55ff868bce7a20c938b1b78836c93db3d55171313e920b839798995090806103c09594939201926108c1848461235a565b81939154921b1b1916905555908695943880806107d6565b634e487b7160e01b895260318a52602489fd5b634e487b7160e01b8a5260118b5260248afd5b506107d6565b50913461050c57602036600319011261050c576109206122c0565b906109296129d1565b6001600160a01b0391821692831561097657505082546001600160a01b0319811683178455167f8be0079c531659141344cd1fd0a4f28419497f9722a3daafe3b4186f6b6457e08380a380f35b51631e4fbdf760e01b8152908101849052602490fd5b509034610cae5761099c36612372565b919060029360019480865414610c9e5786978187989697556109c2600654861115612555565b8486526005906109e1610706610700838760209b878d522001886125a1565b858a52818752838a2060ff8a8201541615610c5b57338b5283885260ff83868d20015460a01c1615610c2057338b5283885260ff83868d20015460a81c16610bdd5733808c52848952858c208401546001600160a01b03169003610b8a5788610a62610a698c610a5686610a6e96018b6125a1565b018851928380926125c7565b0382612146565b612af5565b15610b5357858a5260078752838a20888b52875260ff6003858c2001541615610b10575033895281865282892001805460ff60a81b1916600160a81b1790558388526007855281882086895285528188200180547fd9f61bad27b367f9d956d43115ce9b23449b64e56e608eb9569f6b929b632e7e93610b089390929091610af590612987565b9055519182918683523396830190612230565b0390a4805580f35b835162461bcd60e51b8152908101879052601960248201527f43616e646964617465206973206e6f7420617070726f766564000000000000006044820152606490fd5b835162461bcd60e51b81529081018790526011602482015270496e76616c69642063616e64696461746560781b6044820152606490fd5b845162461bcd60e51b8152808301899052602760248201527f566f7465722773204d6574616d61736b206164647265737320646f6573206e6f6044820152660e840dac2e8c6d60cb1b6064820152608490fd5b845162461bcd60e51b8152808301899052601760248201527f566f7465722068617320616c726561647920766f7465640000000000000000006044820152606490fd5b845162461bcd60e51b81528083018990526015602482015274159bdd195c881a5cc81b9bdd08185c1c1c9bdd9959605a1b6044820152606490fd5b845162461bcd60e51b8152808301899052601f60248201527f456c656374696f6e206973206e6f74206f70656e20666f7220766f74696e67006044820152606490fd5b8151633ee5aeb560e01b81528890fd5b5080fd5b509034610cae57610cc2366121da565b929093610cd3600654861115612555565b848252610cff602094600560205284842092600193610cf860ff60018301541661270e565b01906125a1565b91835195610d1b87610d1481600188016125c7565b0388612146565b610d25875161261d565b9582845b610d5a575b86518990610d568a8a610d4c84610d45818e612440565b0385612146565b5193849384612289565b0390f35b8851811015610d9f57908482610d73829695948c61264f565b5184865260078452898620908652835260028986200154610d94828c61264f565b520190919293610d29565b610d2e565b509034610cae5781600319360112610cae5760209060ff600a541690519015158152f35b50829034610510576020366003190112610510576001600160a01b039081610dee6122c0565b1680825260026020528482208360058201541615159081610ee9575b5015610eaf57818591610d5694935260026020522092600584015490855190610e3e82610e378189612440565b0383612146565b865195610e5287610d148160018501612440565b875197610e66896107618160028601612440565b610e93815192610e7d84610d458160038501612440565b610e8c83518096819301612440565b0384612146565b5197889760ff8660a81c169660ff8760a01c16961694896124d6565b845162461bcd60e51b81526020818601526014602482015273159bdd195c88191bd95cc81b9bdd08195e1a5cdd60621b6044820152606490fd5b610ef4915054612406565b151586610e0a565b509034610cae5781600319360112610cae5760209060ff600a5460081c1690519015158152f35b50346105105780600319360112610510579080519182906003549182855260208095018093600384527fc2575a0e9e593c00f959f8c92f12db2869c3395a3b0502d05e2516446f71f85b90845b818110610fca5750505081610f86910382612146565b83519485948186019282875251809352850193925b828110610faa57505050500390f35b83516001600160a01b031685528695509381019392810192600101610f9b565b82546001600160a01b031684529288019260019283019201610f70565b509034610cae576060366003190112610cae5782359067ffffffffffffffff906024358281116105085761101e903690870161217e565b9060443583811161050457611036903690880161217e565b92611045600654861115612555565b848652602090600582526110636107066107008a868b2001876125a1565b8587526005825261107b60028489200154421061279d565b8587526009825260ff611099611093858a20876125a1565b876125a1565b541661119357858752600882528287206110b38154612987565b905585875260088252828720548351916080830190811183821017611180576103c093600386948a946009947f0ec1a365aeeec255796bf50d7a2a8f24d0d5f5c6ada0167b6c647428d91645829b9a995280825261113f8d88868501918d835281860194818652606087019a828c52825260078952828220908252885220935184555160018401612881565b51600282015501925115159260ff199360ff858354169116179055888a5252600161116f611093848b20876125a1565b9182541617905551928392836129ac565b634e487b7160e01b895260418a52602489fd5b825162461bcd60e51b8152808901839052601d60248201527f43616e646964617465206e616d6520616c7265616479206578697374730000006044820152606490fd5b503461051057602036600319011261051057823592548310156105105750610669602092612323565b5082903461051057602036600319011261051057610d56906001600160a01b039084908261122b6122c0565b16815260026020522093805161124581610a628189612440565b610d4582519561125c87610d148160018c01612440565b60058451986112798a6112728160028501612440565b038b612146565b6112a4865193611297856112908160038701612440565b0386612146565b8751958680928501612440565b0154935197889760ff8660a81c169660ff8760a01c16961694896124d6565b5091903461050c576020918260031936011261063857926113219293356112ee600654821115612555565b815260058452818120600160ff6001830154169360028301549160038401549361132860058201918451998a8092612440565b0389612146565b80549061133482612605565b9661134185519889612146565b8288529081528981208a88015b83831061139357506113778a610d568b8b8f8b8b8e92815198899860a08a5260a08a0190612230565b95151590880152860152606085015283820360808501526123a9565b848c819288516113a781610a628189612440565b81520192019201919061134e565b5091903461050c57602036600319011261050c578135916113d46129d1565b6113e2600654841115612555565b828452600560205281842090600182019283549260ff84166114895760020154421061143a57505060ff191660011790557f0589f8b93514c651c0c92b06bdb8118fe508daadf2ffdac1f516191be20fcb858280a280f35b906020608492519162461bcd60e51b8352820152602360248201527f456c656374696f6e2073746172742074696d6520686173206e6f7420726561636044820152621a195960ea1b6064820152fd5b815162461bcd60e51b8152602081850152601860248201527f456c656374696f6e20697320616c7265616479206f70656e00000000000000006044820152606490fd5b509034610cae5781600319360112610cae576020906006549051908152f35b509034610cae5781600319360112610cae57905490516001600160a01b039091168152602090f35b50913461050c57611523366121da565b91909261152e6129d1565b61153c600654851115612555565b8251156116e5578385526020916005835281862060058101918254600160401b90818110156116d2576115779060019560018201815561235a565b6116c0578761158591612881565b8451918683019367ffffffffffffffff94848110868211176116ad5787528a84528651908782018281108782111761169a576115d584600194936115dd938c528d85528c8501988952018c6125a1565b915182612881565b01925191825194851161168757841161167457508590825484845580851061165a575b5001908852848820885b8381106116495789897f9d3f9d97cfa4d97c52f6be76984c7c9ac6dcbfd36f22e4b5ba1a4fbf01d83a7c8a8a6103c08b51928284938452830190612230565b82518282015591860191840161160a565b838b52828b2061166e9181019086016126ae565b38611600565b634e487b7160e01b8a5260419052602489fd5b634e487b7160e01b8b526041825260248bfd5b634e487b7160e01b8d526041845260248dfd5b634e487b7160e01b8c526041835260248cfd5b634e487b7160e01b8a5289835260248afd5b634e487b7160e01b8a526041835260248afd5b906020606492519162461bcd60e51b8352820152601d60248201527f506f736974696f6e206e616d652063616e6e6f7420626520656d7074790000006044820152fd5b50346105105780600319360112610510576117416129d1565b80546001600160a01b03198116825581906001600160a01b03167f8be0079c531659141344cd1fd0a4f28419497f9722a3daafe3b4186f6b6457e08280a380f35b503461051057806003193601126105105761179b6129d1565b6001600a546117ad60ff82161561279d565b6117bd60ff8260081c1615612835565b60ff191617600a557fc475c26aa25ed8e85a7faa790e5f63b5d7ee1025f12821f4c9bfddd36ab4d1128180a180f35b50913461050c57602036600319011261050c5761184692829135815260056020522081519161181f83610e8c8185612440565b60ff6001830154169160036002820154910154918051958695608087526080870190612230565b931515602086015284015260608301520390f35b50913461050c578260031936011261050c576118746129d1565b600a549160ff8316156118c657836101008461189660ff8260081c1615612835565b61ff00191617600a557f66ec723071e4bb646f7b35d31bc2dee8510979bd8c180edd0690d4f5e802f1e48180a180f35b906020606492519162461bcd60e51b8352820152601c60248201527f456c656374696f6e20686173206e6f74207374617274656420796574000000006044820152fd5b50913461050c57602036600319011261050c5760209282913581526008845220549051908152f35b50346105105791611941366121da565b939092611952600654851115612555565b8382526001611988602096600588526119756107066107008887892001846125a1565b86855260058852829584862001906125a1565b019485549461199686612605565b6119a284519182612146565b868152601f1996876119b382612605565b01865b818110611adf5750506119c881612605565b926119d586519485612146565b8184526119e182612605565b8486019901368a37865b828110611a625750505090611a2f8392611a0e610761999a87519a8b80926125c7565b611a2286519960608b5260608b0190612255565b90898203858b01526123a9565b938785039088015251928381520195925b828110611a4d5785870386f35b83511515875295810195928101928401611a40565b9088809b939a9992828a98999a526007895260ff8a8920611a83838861235a565b919054600392831b1c8b528b528b8a208c51611aa581610a6281898601612440565b611aaf858b61264f565b52611aba848a61264f565b50015416611ac8828961264f565b9015159052019091509997989199969594966119eb565b606084820187015285016119b6565b509034610cae57611afe36612372565b611b0a939192936129d1565b611b18600654851115612555565b83855260209060058252611b3661070661070089868a2001876125a1565b84865260058252611b4e60028488200154421061279d565b848652600782528286208187528252828620906003820160018154611b7660ff8216156127e9565b60ff1916179055858752600583526001611b9489868a2001876125a1565b01805490600160401b8210156111805792611be17fe46ef16f45f14b433702c21c325ca11d00b469b9c13d430220e2b5726cdfa25e97969593610866846103c0976001809701815561235a565b611bf48551968688978852870190612230565b928584039086015201612440565b50913461050c578160031936011261050c5780359160243591611c236129d1565b611c31600654851115612555565b83855260056020526003828620611c4e60ff60018301541661270e565b01908154841115611c8a575091602091817f9957539d9b3c3f294da9088900bece7540cdb76274e882913ae25bca90b2061e945551908152a280f35b608490602084519162461bcd60e51b8352820152603660248201527f4e657720656e642074696d65206d7573742062652067726561746572207468616044820152756e207468652063757272656e7420656e642074696d6560501b6064820152fd5b509034610cae576020366003190112610cae5790602091611d0b6122c0565b915490516001600160a01b0392831691909216148152f35b50913461050c57602036600319011261050c5735916003548310156105105750611d4e6020926122d6565b60018060a01b0391549060031b1c169051908152f35b5091903461050c57602036600319011261050c576103c0610d147f376d99d855649bd6e81e7fce16d54ac5f2c7fadae7b2f50b619c182afe401bbb92611e37611dab6122c0565b611db36129d1565b611dc4611dbf826129fd565b612663565b87600560018060a01b038316988983526002602052611ded600387852001875198898092612440565b8983526002602052611e3086842091611e05836126c5565b611e11600184016126c5565b611e1d600284016126c5565b611e29600384016126c5565b82016126c5565b0155612a49565b51918291602083526020830190612230565b509034610cae576020366003190112610cae57611e646122c0565b90611e6d6129d1565b611e79611dbf836129fd565b6001600160a01b0382168084526002602052818420600501805460ff60a01b1916600160a01b1790558454909290600160401b811015611f165791611ef582611ef06103c094610393878b60017f5ae161ff96a81f4fa8ddd8555ab13483a0fe416f296b510e08cbb11f98f9a10e9a019055612323565b612a49565b83855260026020526003818620019051918291602083526020830190612440565b634e487b7160e01b855260418652602485fd5b5091903461050c57602036600319011261050c57813591611f486129d1565b611f56600654841115612555565b828452600560205281842090600182019283549260ff841615611ff957600301544210611fac57505060ff191690557f393c4b8e62f1195313cf17dcf00793c668ddfc35881cd8015559c074f6d61e838280a280f35b906020608492519162461bcd60e51b8352820152602160248201527f456c656374696f6e20656e642074696d6520686173206e6f74207265616368656044820152601960fa1b6064820152fd5b815162461bcd60e51b8152602081850152601a60248201527f456c656374696f6e20697320616c726561647920636c6f7365640000000000006044820152606490fd5b509034610cae5761204c366121da565b92909361205d600654861115612555565b84825260209360056020528383209160019260ff60018201541661210a57612087929101906125a1565b9183519561209c87610d1481600188016125c7565b6120a6875161261d565b9582845b6120c55786518990610d568a8a610d4c84610d45818e612440565b8851811015610d9f579084826120de829695948c61264f565b51848652600784528986209086528352600289862001546120ff828c61264f565b5201909192936120aa565b855162461bcd60e51b8152602081840152601660248201527522b632b1ba34b7b71034b99039ba34b6361037b832b760511b6044820152606490fd5b90601f8019910116810190811067ffffffffffffffff82111761216857604052565b634e487b7160e01b600052604160045260246000fd5b81601f820112156121d55780359067ffffffffffffffff821161216857604051926121b3601f8401601f191660200185612146565b828452602083830101116121d557816000926020809301838601378301015290565b600080fd5b9060406003198301126121d557600435916024359067ffffffffffffffff82116121d55761220a9160040161217e565b90565b60005b8381106122205750506000910152565b8181015183820152602001612210565b906020916122498151809281855285808601910161220d565b601f01601f1916010190565b90815180825260208080930193019160005b828110612275575050505090565b835185529381019392810192600101612267565b916122b2906122a461220a9593606086526060860190612230565b908482036020860152612255565b916040818403910152612255565b600435906001600160a01b03821682036121d557565b60035481101561230d5760036000527fc2575a0e9e593c00f959f8c92f12db2869c3395a3b0502d05e2516446f71f85b0190600090565b634e487b7160e01b600052603260045260246000fd5b60045481101561230d5760046000527f8a35acfbc15ff81a39ae7d344fd709f28e8600b4aa8c65c6b64bfe7fe36bd19b0190600090565b805482101561230d5760005260206000200190600090565b9060606003198301126121d557600435916024359067ffffffffffffffff82116121d5576123a29160040161217e565b9060443590565b90808251908181526020809101926020808460051b8301019501936000915b8483106123d85750505050505090565b90919293949584806123f6600193601f198682030187528a51612230565b98019301930191949392906123c8565b90600182811c92168015612436575b602083101461242057565b634e487b7160e01b600052602260045260246000fd5b91607f1691612415565b80546000939261244f82612406565b918282526020936001916001811690816000146124b75750600114612476575b5050505050565b90939495506000929192528360002092846000945b8386106124a35750505050010190388080808061246f565b80548587018301529401938590820161248b565b60ff19168685015250505090151560051b01019150388080808061246f565b969361251b6125379461250d60e0999c9b98956124ff612529968d610100908181520190612230565b8c810360208e015290612230565b908a820360408c0152612230565b9088820360608a0152612230565b908682036080880152612230565b6001600160a01b0390961660a0850152151560c08401521515910152565b1561255c57565b60405162461bcd60e51b815260206004820152601760248201527f456c656374696f6e20646f6573206e6f742065786973740000000000000000006044820152606490fd5b6020906125bb92826040519483868095519384920161220d565b82019081520301902090565b9081548082526020809201926000526020600020916000905b8282106125ee575050505090565b8354855293840193600193840193909101906125e0565b67ffffffffffffffff81116121685760051b60200190565b9061262782612605565b6126346040519182612146565b8281528092612645601f1991612605565b0190602036910137565b805182101561230d5760209160051b010190565b1561266a57565b606460405162461bcd60e51b815260206004820152602060248201527f566f746572206973206e6f7420696e207468652070656e64696e67206c6973746044820152fd5b8181106126b9575050565b600081556001016126ae565b6126cf8154612406565b90816126d9575050565b81601f600093116001146126eb575055565b90808391825261270a601f60208420940160051c8401600185016126ae565b5555565b1561271557565b60405162461bcd60e51b815260206004820152601460248201527322b632b1ba34b7b71034b9903737ba1037b832b760611b6044820152606490fd5b1561275857565b60405162461bcd60e51b815260206004820152601760248201527f506f736974696f6e20646f6573206e6f742065786973740000000000000000006044820152606490fd5b156127a457565b60405162461bcd60e51b815260206004820152601c60248201527f456c656374696f6e2068617320616c72656164792073746172746564000000006044820152606490fd5b156127f057565b60405162461bcd60e51b815260206004820152601d60248201527f43616e64696461746520697320616c726561647920617070726f7665640000006044820152606490fd5b1561283c57565b60405162461bcd60e51b815260206004820152601a60248201527f456c656374696f6e2068617320616c726561647920656e6465640000000000006044820152606490fd5b919091825167ffffffffffffffff81116121685761289f8254612406565b601f811161294a575b50602080601f83116001146128e55750819293946000926128da575b50508160011b916000199060031b1c1916179055565b0151905038806128c4565b90601f19831695846000526020600020926000905b88821061293257505083600195969710612919575b505050811b019055565b015160001960f88460031b161c1916905538808061290f565b806001859682949686015181550195019301906128fa565b61297790836000526020600020601f840160051c8101916020851061297d575b601f0160051c01906126ae565b386128a8565b909150819061296a565b60001981146129965760010190565b634e487b7160e01b600052601160045260246000fd5b90916129c361220a93604084526040840190612230565b916020818403910152612230565b6000546001600160a01b031633036129e557565b60405163118cdaa760e01b8152336004820152602490fd5b60009060038054925b838110612a165750505050600090565b612a1f816122d6565b905490831b1c6001600160a01b0390811690841614612a4057600101612a06565b50505050600190565b6000905b60039182549283821015612aef57612a64826122d6565b90546001600160a01b039591831b1c851684861614612a895750506001019150612a4d565b909250600019918282019182116129965761039385612aaa612ab7946122d6565b905490871b1c16916122d6565b81548015612ad9570191612aca836122d6565b9091825491841b1b1916905555565b634e487b7160e01b600052603160045260246000fd5b50505050565b9060005b8251811015612b235781612b0d828561264f565b5114612b1b57600101612af9565b505050600190565b50505060009056fea26469706673582212200d5334ee04eb5da1ff4d79846d9da20e8a6a63d9c1e3fa57309ec8bc6ea8b9c364736f6c63430008180033","opcodes":"PUSH1 0x80 DUP1 PUSH1 0x40 MSTORE CALLVALUE PUSH2 0x7E JUMPI CALLER ISZERO PUSH2 0x68 JUMPI PUSH1 0x0 DUP1 SLOAD CALLER PUSH1 0x1 PUSH1 0x1 PUSH1 0xA0 SHL SUB NOT DUP3 AND DUP2 OR DUP4 SSTORE PUSH1 0x40 MLOAD SWAP3 SWAP1 SWAP2 PUSH1 0x1 PUSH1 0x1 PUSH1 0xA0 SHL SUB AND SWAP1 PUSH32 0x8BE0079C531659141344CD1FD0A4F28419497F9722A3DAAFE3B4186F6B6457E0 SWAP1 DUP1 LOG3 PUSH1 0x1 DUP1 SSTORE PUSH2 0x2B61 SWAP1 DUP2 PUSH2 0x84 DUP3 CODECOPY RETURN JUMPDEST PUSH4 0x1E4FBDF7 PUSH1 0xE0 SHL DUP2 MSTORE PUSH1 0x0 PUSH1 0x4 DUP3 ADD MSTORE PUSH1 0x24 SWAP1 REVERT JUMPDEST PUSH1 0x0 DUP1 REVERT INVALID PUSH1 0x40 PUSH1 0x80 DUP2 MSTORE PUSH1 0x4 SWAP1 DUP2 CALLDATASIZE LT ISZERO PUSH2 0x15 JUMPI PUSH1 0x0 DUP1 REVERT JUMPDEST PUSH1 0x0 DUP1 CALLDATALOAD PUSH1 0xE0 SHR DUP1 PUSH3 0x3A3D1 EQ PUSH2 0x203C JUMPI DUP1 PUSH4 0x9E33D07 EQ PUSH2 0x1F29 JUMPI DUP1 PUSH4 0x119D4DDB EQ PUSH2 0x1E49 JUMPI DUP1 PUSH4 0x1B04772B EQ PUSH2 0x1D64 JUMPI DUP1 PUSH4 0x24A9267B EQ PUSH2 0x1D23 JUMPI DUP1 PUSH4 0x2F54BF6E EQ PUSH2 0x1CEC JUMPI DUP1 PUSH4 0x4DA3FE5A EQ PUSH2 0x1C02 JUMPI DUP1 PUSH4 0x4F333369 EQ PUSH2 0x1AEE JUMPI DUP1 PUSH4 0x51090D33 EQ PUSH2 0x1931 JUMPI DUP1 PUSH4 0x5824BF30 EQ PUSH2 0x1909 JUMPI DUP1 PUSH4 0x59F78468 EQ PUSH2 0x185A JUMPI DUP1 PUSH4 0x5E6FEF01 EQ PUSH2 0x17EC JUMPI DUP1 PUSH4 0x62D73EB8 EQ PUSH2 0x1782 JUMPI DUP1 PUSH4 0x715018A6 EQ PUSH2 0x1728 JUMPI DUP1 PUSH4 0x760B5B23 EQ PUSH2 0x1513 JUMPI DUP1 PUSH4 0x8DA5CB5B EQ PUSH2 0x14EB JUMPI DUP1 PUSH4 0x997D2830 EQ PUSH2 0x14CC JUMPI DUP1 PUSH4 0x9A1D5956 EQ PUSH2 0x13B5 JUMPI DUP1 PUSH4 0x9D710777 EQ PUSH2 0x12C3 JUMPI DUP1 PUSH4 0xA3EC138D EQ PUSH2 0x11FF JUMPI DUP1 PUSH4 0xAED93010 EQ PUSH2 0x11D6 JUMPI DUP1 PUSH4 0xBD5B5FAF EQ PUSH2 0xFE7 JUMPI DUP1 PUSH4 0xC3322D09 EQ PUSH2 0xF23 JUMPI DUP1 PUSH4 0xC94CA9E3 EQ PUSH2 0xEFC JUMPI DUP1 PUSH4 0xD4F50F98 EQ PUSH2 0xDC8 JUMPI DUP1 PUSH4 0xD5346DA1 EQ PUSH2 0xDA4 JUMPI DUP1 PUSH4 0xD6C79EAA EQ PUSH2 0xCB2 JUMPI DUP1 PUSH4 0xF0F45457 EQ PUSH2 0x98C JUMPI DUP1 PUSH4 0xF2FDE38B EQ PUSH2 0x905 JUMPI DUP1 PUSH4 0xF309ED15 EQ PUSH2 0x6B2 JUMPI DUP1 PUSH4 0xF452130B EQ PUSH2 0x63C JUMPI DUP1 PUSH4 0xF49A7A17 EQ PUSH2 0x513 JUMPI PUSH4 0xFF9E50FE EQ PUSH2 0x18A JUMPI PUSH1 0x0 DUP1 REVERT JUMPDEST CALLVALUE PUSH2 0x510 JUMPI PUSH1 0xC0 CALLDATASIZE PUSH1 0x3 NOT ADD SLT PUSH2 0x510 JUMPI PUSH8 0xFFFFFFFFFFFFFFFF SWAP3 DUP1 CALLDATALOAD DUP5 DUP2 GT PUSH2 0x50C JUMPI PUSH2 0x1BB SWAP1 CALLDATASIZE SWAP1 DUP4 ADD PUSH2 0x217E JUMP JUMPDEST SWAP4 PUSH1 0x24 SWAP1 DUP2 CALLDATALOAD DUP2 DUP2 GT PUSH2 0x508 JUMPI PUSH2 0x1D5 SWAP1 CALLDATASIZE SWAP1 DUP6 ADD PUSH2 0x217E JUMP JUMPDEST SWAP3 PUSH1 0x44 CALLDATALOAD DUP3 DUP2 GT PUSH2 0x504 JUMPI PUSH2 0x1ED SWAP1 CALLDATASIZE SWAP1 DUP4 ADD PUSH2 0x217E JUMP JUMPDEST SWAP3 PUSH1 0x64 CALLDATALOAD DUP4 DUP2 GT PUSH2 0x500 JUMPI PUSH2 0x205 SWAP1 CALLDATASIZE SWAP1 DUP5 ADD PUSH2 0x217E JUMP JUMPDEST SWAP4 PUSH1 0x84 CALLDATALOAD DUP5 DUP2 GT PUSH2 0x4FC JUMPI PUSH2 0x21D SWAP1 CALLDATASIZE SWAP1 DUP6 ADD PUSH2 0x217E JUMP JUMPDEST SWAP4 PUSH1 0xA4 CALLDATALOAD SWAP5 PUSH1 0x1 DUP1 PUSH1 0xA0 SHL SUB SWAP3 DUP4 DUP8 AND SWAP9 DUP10 DUP9 SUB PUSH2 0x4F8 JUMPI PUSH1 0xFF PUSH1 0xA SLOAD AND PUSH2 0x497 JUMPI DUP12 SWAP13 PUSH1 0xFF PUSH1 0x5 DUP14 SWAP15 DUP15 DUP15 SWAP16 SWAP15 PUSH1 0x2 SWAP15 SWAP16 MSTORE PUSH1 0x20 SWAP14 DUP15 MSTORE KECCAK256 ADD SLOAD PUSH1 0xA0 SHR AND PUSH2 0x444 JUMPI PUSH2 0x269 DUP10 PUSH2 0x29FD JUMP JUMPDEST PUSH2 0x3E9 JUMPI DUP14 MLOAD SWAP5 PUSH2 0x100 DUP7 ADD SWAP1 DUP2 GT DUP7 DUP3 LT OR PUSH2 0x3D7 JUMPI DUP14 SWAP7 SWAP4 DUP16 SWAP4 DUP5 DUP16 SWAP8 SWAP5 DUP16 SWAP5 DUP16 SWAP11 SWAP8 MSTORE DUP7 MSTORE DUP9 DUP7 ADD SWAP2 DUP3 MSTORE DUP1 DUP7 ADD SWAP3 DUP4 MSTORE PUSH1 0x60 DUP7 ADD SWAP4 DUP5 MSTORE PUSH1 0x80 DUP7 ADD SWAP5 DUP6 MSTORE PUSH1 0xA0 DUP7 ADD SWAP10 DUP9 DUP12 MSTORE PUSH1 0xC0 DUP8 ADD SWAP10 DUP2 DUP12 MSTORE PUSH1 0xE0 DUP9 ADD SWAP10 DUP3 DUP12 MSTORE DUP3 MSTORE PUSH1 0x2 SWAP1 MSTORE KECCAK256 SWAP5 MLOAD PUSH2 0x2D6 SWAP1 DUP7 PUSH2 0x2881 JUMP JUMPDEST MLOAD PUSH2 0x2E4 SWAP1 PUSH1 0x1 DUP7 ADD PUSH2 0x2881 JUMP JUMPDEST MLOAD PUSH2 0x2F2 SWAP1 PUSH1 0x2 DUP6 ADD PUSH2 0x2881 JUMP JUMPDEST MLOAD PUSH2 0x300 SWAP1 PUSH1 0x3 DUP5 ADD PUSH2 0x2881 JUMP JUMPDEST MLOAD PUSH2 0x30D SWAP1 DUP3 DUP10 ADD PUSH2 0x2881 JUMP JUMPDEST PUSH1 0x5 ADD SWAP4 MLOAD AND DUP4 SLOAD SWAP3 PUSH1 0xFF PUSH1 0xA0 SHL SWAP1 MLOAD ISZERO ISZERO PUSH1 0xA0 SHL AND SWAP2 PUSH1 0xFF PUSH1 0xA8 SHL SWAP1 MLOAD ISZERO ISZERO PUSH1 0xA8 SHL AND SWAP3 PUSH10 0xFFFFFFFFFFFFFFFFFFFF PUSH1 0xB0 SHL AND OR OR OR SWAP1 SSTORE PUSH1 0x3 SLOAD SWAP2 PUSH1 0x1 PUSH1 0x40 SHL DUP4 LT ISZERO PUSH2 0x3C6 JUMPI POP POP SWAP6 PUSH2 0x3B1 PUSH2 0x3C0 SWAP3 PUSH2 0x393 DUP10 PUSH1 0x1 PUSH32 0xFFEB7702BE7DCD8FEE170D954B70AFB9A7C78F7F5CFF232D037E7B9D8243356A SWAP10 SWAP11 SWAP12 ADD PUSH1 0x3 SSTORE PUSH2 0x22D6 JUMP JUMPDEST SWAP1 SWAP2 SWAP1 PUSH1 0x1 DUP1 PUSH1 0xA0 SHL SUB DUP1 DUP5 SLOAD SWAP3 PUSH1 0x3 SHL SWAP4 AND DUP4 SHL SWAP3 SHL NOT AND OR SWAP1 SSTORE JUMP JUMPDEST MLOAD SWAP3 DUP3 DUP5 SWAP4 DUP5 MSTORE DUP4 ADD SWAP1 PUSH2 0x2230 JUMP JUMPDEST SUB SWAP1 LOG2 DUP1 RETURN JUMPDEST PUSH4 0x4E487B71 PUSH1 0xE0 SHL DUP9 MSTORE PUSH1 0x41 SWAP1 MSTORE DUP7 REVERT JUMPDEST PUSH4 0x4E487B71 PUSH1 0xE0 SHL DUP15 MSTORE PUSH1 0x41 DUP10 MSTORE DUP8 DUP15 REVERT JUMPDEST DUP14 MLOAD PUSH3 0x461BCD PUSH1 0xE5 SHL DUP2 MSTORE DUP1 DUP10 ADD DUP12 SWAP1 MSTORE PUSH1 0x30 DUP2 DUP10 ADD MSTORE PUSH32 0x566F74657220697320616C7265616479207265676973746572656420616E6420 PUSH1 0x44 DUP3 ADD MSTORE PUSH16 0x1C195B991A5B99C8185C1C1C9BDD985B PUSH1 0x82 SHL PUSH1 0x64 DUP3 ADD MSTORE PUSH1 0x84 SWAP1 REVERT JUMPDEST DUP14 MLOAD PUSH3 0x461BCD PUSH1 0xE5 SHL DUP2 MSTORE DUP1 DUP10 ADD DUP12 SWAP1 MSTORE PUSH1 0x28 DUP2 DUP10 ADD MSTORE PUSH32 0x566F74657220697320616C7265616479207265676973746572656420616E6420 PUSH1 0x44 DUP3 ADD MSTORE PUSH8 0x185C1C1C9BDD9959 PUSH1 0xC2 SHL PUSH1 0x64 DUP3 ADD MSTORE PUSH1 0x84 SWAP1 REVERT JUMPDEST POP DUP11 MLOAD PUSH3 0x461BCD PUSH1 0xE5 SHL DUP2 MSTORE PUSH1 0x20 DUP2 DUP9 ADD MSTORE PUSH1 0x35 DUP2 DUP8 ADD MSTORE PUSH32 0x43616E6E6F7420726567697374657220766F7465727320616674657220746865 PUSH1 0x44 DUP3 ADD MSTORE PUSH21 0x8195B1958DD1A5BDB881A185CC81CDD185C9D1959 PUSH1 0x5A SHL PUSH1 0x64 DUP3 ADD MSTORE PUSH1 0x84 SWAP1 REVERT JUMPDEST DUP11 DUP1 REVERT JUMPDEST DUP8 DUP1 REVERT JUMPDEST DUP7 DUP1 REVERT JUMPDEST DUP6 DUP1 REVERT JUMPDEST DUP5 DUP1 REVERT JUMPDEST DUP3 DUP1 REVERT JUMPDEST DUP1 REVERT JUMPDEST POP SWAP2 CALLVALUE PUSH2 0x50C JUMPI PUSH1 0x60 CALLDATASIZE PUSH1 0x3 NOT ADD SLT PUSH2 0x50C JUMPI DUP1 CALLDATALOAD PUSH8 0xFFFFFFFFFFFFFFFF DUP2 GT PUSH2 0x638 JUMPI PUSH2 0x544 SWAP1 CALLDATASIZE SWAP1 DUP4 ADD PUSH2 0x217E JUMP JUMPDEST SWAP1 PUSH1 0x24 CALLDATALOAD SWAP1 PUSH1 0x44 CALLDATALOAD SWAP1 PUSH2 0x555 PUSH2 0x29D1 JUMP JUMPDEST DUP2 DUP4 LT ISZERO PUSH2 0x5E9 JUMPI POP SWAP2 PUSH2 0x3C0 SWAP2 PUSH32 0x52BE7C4E77B4DE76B7607D621492061FE13B58597E72DFB5E51AB8F6187ED141 SWAP4 PUSH1 0x6 SWAP2 PUSH2 0x592 DUP4 SLOAD PUSH2 0x2987 JUMP JUMPDEST DUP1 DUP5 SSTORE DUP9 MSTORE PUSH1 0x5 PUSH1 0x20 MSTORE PUSH2 0x5A8 DUP5 DUP9 DUP11 KECCAK256 PUSH2 0x2881 JUMP JUMPDEST DUP3 SLOAD DUP9 MSTORE PUSH1 0x5 PUSH1 0x20 MSTORE PUSH1 0x1 DUP8 DUP10 KECCAK256 ADD PUSH1 0xFF NOT DUP2 SLOAD AND SWAP1 SSTORE DUP3 SLOAD DUP9 MSTORE PUSH1 0x2 DUP8 DUP10 KECCAK256 ADD SSTORE DUP2 SLOAD DUP8 MSTORE PUSH1 0x3 DUP7 DUP9 KECCAK256 ADD SSTORE SLOAD SWAP4 MLOAD SWAP2 DUP3 SWAP2 PUSH1 0x20 DUP4 MSTORE PUSH1 0x20 DUP4 ADD SWAP1 PUSH2 0x2230 JUMP JUMPDEST PUSH1 0x84 SWAP1 PUSH1 0x20 DUP7 MLOAD SWAP2 PUSH3 0x461BCD PUSH1 0xE5 SHL DUP4 MSTORE DUP3 ADD MSTORE PUSH1 0x23 PUSH1 0x24 DUP3 ADD MSTORE PUSH32 0x496E76616C696420656C656374696F6E20737461727420616E6420656E642074 PUSH1 0x44 DUP3 ADD MSTORE PUSH3 0x696D65 PUSH1 0xE8 SHL PUSH1 0x64 DUP3 ADD MSTORE REVERT JUMPDEST DUP4 DUP1 REVERT JUMPDEST POP DUP3 SWAP1 CALLVALUE PUSH2 0x510 JUMPI PUSH1 0x20 CALLDATASIZE PUSH1 0x3 NOT ADD SLT PUSH2 0x510 JUMPI POP DUP1 CALLDATALOAD SWAP1 DUP1 SLOAD DUP3 LT ISZERO PUSH2 0x67F JUMPI PUSH1 0x20 DUP4 PUSH2 0x669 DUP5 PUSH2 0x2323 JUMP JUMPDEST SWAP1 SLOAD SWAP2 MLOAD SWAP2 PUSH1 0x1 DUP1 PUSH1 0xA0 SHL SUB SWAP2 PUSH1 0x3 SHL SHR AND DUP2 MSTORE RETURN JUMPDEST PUSH1 0x64 SWAP1 PUSH1 0x20 DUP5 MLOAD SWAP2 PUSH3 0x461BCD PUSH1 0xE5 SHL DUP4 MSTORE DUP3 ADD MSTORE PUSH1 0xD PUSH1 0x24 DUP3 ADD MSTORE PUSH13 0x92DCECC2D8D2C840D2DCC8CAF PUSH1 0x9B SHL PUSH1 0x44 DUP3 ADD MSTORE REVERT JUMPDEST POP SWAP2 CALLVALUE PUSH2 0x50C JUMPI PUSH1 0x1 PUSH2 0x768 SWAP4 SWAP3 PUSH2 0x6C9 CALLDATASIZE PUSH2 0x2372 JUMP JUMPDEST SWAP1 SWAP3 SWAP2 SWAP5 PUSH2 0x6D5 PUSH2 0x29D1 JUMP JUMPDEST PUSH2 0x6E3 PUSH1 0x6 SLOAD DUP8 GT ISZERO PUSH2 0x2555 JUMP JUMPDEST DUP6 DUP8 MSTORE PUSH1 0x20 PUSH1 0x5 DUP2 MSTORE PUSH2 0x70D PUSH2 0x706 PUSH2 0x700 DUP5 DUP8 DUP13 KECCAK256 ADD DUP9 PUSH2 0x25A1 JUMP JUMPDEST SLOAD PUSH2 0x2406 JUMP JUMPDEST ISZERO ISZERO PUSH2 0x2751 JUMP JUMPDEST DUP7 DUP9 MSTORE PUSH1 0x5 DUP2 MSTORE PUSH2 0x725 PUSH1 0x2 DUP6 DUP11 KECCAK256 ADD SLOAD TIMESTAMP LT PUSH2 0x279D JUMP JUMPDEST DUP7 DUP9 MSTORE PUSH1 0x7 DUP2 MSTORE DUP4 DUP9 KECCAK256 DUP4 DUP10 MSTORE DUP2 MSTORE DUP4 DUP9 KECCAK256 SWAP3 PUSH1 0x5 PUSH1 0x3 SWAP3 PUSH2 0x74E PUSH1 0xFF PUSH1 0x3 DUP9 ADD SLOAD AND ISZERO PUSH2 0x27E9 JUMP JUMPDEST DUP9 SWAP12 DUP13 SWAP7 PUSH2 0x761 DUP10 MLOAD DUP1 SWAP13 DUP2 SWAP4 ADD PUSH2 0x2440 JUMP JUMPDEST SUB DUP11 PUSH2 0x2146 JUMP JUMPDEST DUP10 DUP12 MSTORE PUSH1 0x9 DUP2 MSTORE PUSH2 0x784 PUSH2 0x77E DUP9 DUP14 KECCAK256 DUP11 PUSH2 0x25A1 JUMP JUMPDEST DUP11 PUSH2 0x25A1 JUMP JUMPDEST PUSH1 0xFF NOT DUP2 SLOAD AND SWAP1 SSTORE DUP10 DUP12 MSTORE PUSH1 0x7 DUP2 MSTORE DUP7 DUP12 KECCAK256 DUP4 DUP13 MSTORE DUP2 MSTORE DUP11 PUSH1 0x3 DUP9 DUP3 KECCAK256 DUP3 DUP2 SSTORE PUSH2 0x7B0 PUSH1 0x1 DUP3 ADD PUSH2 0x26C5 JUMP JUMPDEST DUP3 PUSH1 0x2 DUP3 ADD SSTORE ADD SSTORE DUP10 DUP12 MSTORE MSTORE PUSH1 0x1 PUSH2 0x7CC DUP5 DUP8 DUP13 KECCAK256 ADD DUP9 PUSH2 0x25A1 JUMP JUMPDEST ADD SWAP1 DUP10 SWAP11 JUMPDEST PUSH2 0x809 JUMPI JUMPDEST DUP10 DUP10 PUSH32 0xC965973CA1E6509F55FF868BCE7A20C938B1B78836C93DB3D55171313E920B83 DUP11 DUP11 PUSH2 0x3C0 DUP12 MLOAD SWAP3 DUP4 SWAP3 DUP4 PUSH2 0x29AC JUMP JUMPDEST DUP2 SLOAD DUP1 DUP13 LT ISZERO PUSH2 0x8FF JUMPI DUP2 PUSH2 0x81E DUP14 DUP6 PUSH2 0x235A JUMP JUMPDEST SWAP1 SLOAD SWAP1 DUP7 SHL SHR EQ PUSH2 0x834 JUMPI POP SWAP10 DUP5 ADD SWAP10 DUP5 PUSH2 0x7D1 JUMP JUMPDEST SWAP3 SWAP5 POP POP SWAP2 SWAP9 PUSH1 0x0 NOT SWAP2 DUP3 DUP2 ADD SWAP1 DUP2 GT PUSH2 0x8EC JUMPI SWAP1 PUSH2 0x866 PUSH2 0x859 PUSH2 0x87F SWAP4 DUP7 PUSH2 0x235A JUMP JUMPDEST SWAP1 SLOAD SWAP1 DUP8 SHL SHR SWAP2 DUP6 PUSH2 0x235A JUMP JUMPDEST SWAP1 SWAP2 SWAP1 DUP3 SLOAD SWAP1 PUSH1 0x3 SHL SWAP2 DUP3 SHL SWAP2 PUSH1 0x0 NOT SWAP1 SHL NOT AND OR SWAP1 SSTORE JUMP JUMPDEST DUP2 SLOAD DUP1 ISZERO PUSH2 0x8D9 JUMPI PUSH32 0xC965973CA1E6509F55FF868BCE7A20C938B1B78836C93DB3D55171313E920B83 SWAP8 SWAP9 SWAP10 POP SWAP1 DUP1 PUSH2 0x3C0 SWAP6 SWAP5 SWAP4 SWAP3 ADD SWAP3 PUSH2 0x8C1 DUP5 DUP5 PUSH2 0x235A JUMP JUMPDEST DUP2 SWAP4 SWAP2 SLOAD SWAP3 SHL SHL NOT AND SWAP1 SSTORE SSTORE SWAP1 DUP7 SWAP6 SWAP5 CODESIZE DUP1 DUP1 PUSH2 0x7D6 JUMP JUMPDEST PUSH4 0x4E487B71 PUSH1 0xE0 SHL DUP10 MSTORE PUSH1 0x31 DUP11 MSTORE PUSH1 0x24 DUP10 REVERT JUMPDEST PUSH4 0x4E487B71 PUSH1 0xE0 SHL DUP11 MSTORE PUSH1 0x11 DUP12 MSTORE PUSH1 0x24 DUP11 REVERT JUMPDEST POP PUSH2 0x7D6 JUMP JUMPDEST POP SWAP2 CALLVALUE PUSH2 0x50C JUMPI PUSH1 0x20 CALLDATASIZE PUSH1 0x3 NOT ADD SLT PUSH2 0x50C JUMPI PUSH2 0x920 PUSH2 0x22C0 JUMP JUMPDEST SWAP1 PUSH2 0x929 PUSH2 0x29D1 JUMP JUMPDEST PUSH1 0x1 PUSH1 0x1 PUSH1 0xA0 SHL SUB SWAP2 DUP3 AND SWAP3 DUP4 ISZERO PUSH2 0x976 JUMPI POP POP DUP3 SLOAD PUSH1 0x1 PUSH1 0x1 PUSH1 0xA0 SHL SUB NOT DUP2 AND DUP4 OR DUP5 SSTORE AND PUSH32 0x8BE0079C531659141344CD1FD0A4F28419497F9722A3DAAFE3B4186F6B6457E0 DUP4 DUP1 LOG3 DUP1 RETURN JUMPDEST MLOAD PUSH4 0x1E4FBDF7 PUSH1 0xE0 SHL DUP2 MSTORE SWAP1 DUP2 ADD DUP5 SWAP1 MSTORE PUSH1 0x24 SWAP1 REVERT JUMPDEST POP SWAP1 CALLVALUE PUSH2 0xCAE JUMPI PUSH2 0x99C CALLDATASIZE PUSH2 0x2372 JUMP JUMPDEST SWAP2 SWAP1 PUSH1 0x2 SWAP4 PUSH1 0x1 SWAP5 DUP1 DUP7 SLOAD EQ PUSH2 0xC9E JUMPI DUP7 SWAP8 DUP2 DUP8 SWAP9 SWAP7 SWAP8 SSTORE PUSH2 0x9C2 PUSH1 0x6 SLOAD DUP7 GT ISZERO PUSH2 0x2555 JUMP JUMPDEST DUP5 DUP7 MSTORE PUSH1 0x5 SWAP1 PUSH2 0x9E1 PUSH2 0x706 PUSH2 0x700 DUP4 DUP8 PUSH1 0x20 SWAP12 DUP8 DUP14 MSTORE KECCAK256 ADD DUP9 PUSH2 0x25A1 JUMP JUMPDEST DUP6 DUP11 MSTORE DUP2 DUP8 MSTORE DUP4 DUP11 KECCAK256 PUSH1 0xFF DUP11 DUP3 ADD SLOAD AND ISZERO PUSH2 0xC5B JUMPI CALLER DUP12 MSTORE DUP4 DUP9 MSTORE PUSH1 0xFF DUP4 DUP7 DUP14 KECCAK256 ADD SLOAD PUSH1 0xA0 SHR AND ISZERO PUSH2 0xC20 JUMPI CALLER DUP12 MSTORE DUP4 DUP9 MSTORE PUSH1 0xFF DUP4 DUP7 DUP14 KECCAK256 ADD SLOAD PUSH1 0xA8 SHR AND PUSH2 0xBDD JUMPI CALLER DUP1 DUP13 MSTORE DUP5 DUP10 MSTORE DUP6 DUP13 KECCAK256 DUP5 ADD SLOAD PUSH1 0x1 PUSH1 0x1 PUSH1 0xA0 SHL SUB AND SWAP1 SUB PUSH2 0xB8A JUMPI DUP9 PUSH2 0xA62 PUSH2 0xA69 DUP13 PUSH2 0xA56 DUP7 PUSH2 0xA6E SWAP7 ADD DUP12 PUSH2 0x25A1 JUMP JUMPDEST ADD DUP9 MLOAD SWAP3 DUP4 DUP1 SWAP3 PUSH2 0x25C7 JUMP JUMPDEST SUB DUP3 PUSH2 0x2146 JUMP JUMPDEST PUSH2 0x2AF5 JUMP JUMPDEST ISZERO PUSH2 0xB53 JUMPI DUP6 DUP11 MSTORE PUSH1 0x7 DUP8 MSTORE DUP4 DUP11 KECCAK256 DUP9 DUP12 MSTORE DUP8 MSTORE PUSH1 0xFF PUSH1 0x3 DUP6 DUP13 KECCAK256 ADD SLOAD AND ISZERO PUSH2 0xB10 JUMPI POP CALLER DUP10 MSTORE DUP2 DUP7 MSTORE DUP3 DUP10 KECCAK256 ADD DUP1 SLOAD PUSH1 0xFF PUSH1 0xA8 SHL NOT AND PUSH1 0x1 PUSH1 0xA8 SHL OR SWAP1 SSTORE DUP4 DUP9 MSTORE PUSH1 0x7 DUP6 MSTORE DUP2 DUP9 KECCAK256 DUP7 DUP10 MSTORE DUP6 MSTORE DUP2 DUP9 KECCAK256 ADD DUP1 SLOAD PUSH32 0xD9F61BAD27B367F9D956D43115CE9B23449B64E56E608EB9569F6B929B632E7E SWAP4 PUSH2 0xB08 SWAP4 SWAP1 SWAP3 SWAP1 SWAP2 PUSH2 0xAF5 SWAP1 PUSH2 0x2987 JUMP JUMPDEST SWAP1 SSTORE MLOAD SWAP2 DUP3 SWAP2 DUP7 DUP4 MSTORE CALLER SWAP7 DUP4 ADD SWAP1 PUSH2 0x2230 JUMP JUMPDEST SUB SWAP1 LOG4 DUP1 SSTORE DUP1 RETURN JUMPDEST DUP4 MLOAD PUSH3 0x461BCD PUSH1 0xE5 SHL DUP2 MSTORE SWAP1 DUP2 ADD DUP8 SWAP1 MSTORE PUSH1 0x19 PUSH1 0x24 DUP3 ADD MSTORE PUSH32 0x43616E646964617465206973206E6F7420617070726F76656400000000000000 PUSH1 0x44 DUP3 ADD MSTORE PUSH1 0x64 SWAP1 REVERT JUMPDEST DUP4 MLOAD PUSH3 0x461BCD PUSH1 0xE5 SHL DUP2 MSTORE SWAP1 DUP2 ADD DUP8 SWAP1 MSTORE PUSH1 0x11 PUSH1 0x24 DUP3 ADD MSTORE PUSH17 0x496E76616C69642063616E646964617465 PUSH1 0x78 SHL PUSH1 0x44 DUP3 ADD MSTORE PUSH1 0x64 SWAP1 REVERT JUMPDEST DUP5 MLOAD PUSH3 0x461BCD PUSH1 0xE5 SHL DUP2 MSTORE DUP1 DUP4 ADD DUP10 SWAP1 MSTORE PUSH1 0x27 PUSH1 0x24 DUP3 ADD MSTORE PUSH32 0x566F7465722773204D6574616D61736B206164647265737320646F6573206E6F PUSH1 0x44 DUP3 ADD MSTORE PUSH7 0xE840DAC2E8C6D PUSH1 0xCB SHL PUSH1 0x64 DUP3 ADD MSTORE PUSH1 0x84 SWAP1 REVERT JUMPDEST DUP5 MLOAD PUSH3 0x461BCD PUSH1 0xE5 SHL DUP2 MSTORE DUP1 DUP4 ADD DUP10 SWAP1 MSTORE PUSH1 0x17 PUSH1 0x24 DUP3 ADD MSTORE PUSH32 0x566F7465722068617320616C726561647920766F746564000000000000000000 PUSH1 0x44 DUP3 ADD MSTORE PUSH1 0x64 SWAP1 REVERT JUMPDEST DUP5 MLOAD PUSH3 0x461BCD PUSH1 0xE5 SHL DUP2 MSTORE DUP1 DUP4 ADD DUP10 SWAP1 MSTORE PUSH1 0x15 PUSH1 0x24 DUP3 ADD MSTORE PUSH21 0x159BDD195C881A5CC81B9BDD08185C1C1C9BDD9959 PUSH1 0x5A SHL PUSH1 0x44 DUP3 ADD MSTORE PUSH1 0x64 SWAP1 REVERT JUMPDEST DUP5 MLOAD PUSH3 0x461BCD PUSH1 0xE5 SHL DUP2 MSTORE DUP1 DUP4 ADD DUP10 SWAP1 MSTORE PUSH1 0x1F PUSH1 0x24 DUP3 ADD MSTORE PUSH32 0x456C656374696F6E206973206E6F74206F70656E20666F7220766F74696E6700 PUSH1 0x44 DUP3 ADD MSTORE PUSH1 0x64 SWAP1 REVERT JUMPDEST DUP2 MLOAD PUSH4 0x3EE5AEB5 PUSH1 0xE0 SHL DUP2 MSTORE DUP9 SWAP1 REVERT JUMPDEST POP DUP1 REVERT JUMPDEST POP SWAP1 CALLVALUE PUSH2 0xCAE JUMPI PUSH2 0xCC2 CALLDATASIZE PUSH2 0x21DA JUMP JUMPDEST SWAP3 SWAP1 SWAP4 PUSH2 0xCD3 PUSH1 0x6 SLOAD DUP7 GT ISZERO PUSH2 0x2555 JUMP JUMPDEST DUP5 DUP3 MSTORE PUSH2 0xCFF PUSH1 0x20 SWAP5 PUSH1 0x5 PUSH1 0x20 MSTORE DUP5 DUP5 KECCAK256 SWAP3 PUSH1 0x1 SWAP4 PUSH2 0xCF8 PUSH1 0xFF PUSH1 0x1 DUP4 ADD SLOAD AND PUSH2 0x270E JUMP JUMPDEST ADD SWAP1 PUSH2 0x25A1 JUMP JUMPDEST SWAP2 DUP4 MLOAD SWAP6 PUSH2 0xD1B DUP8 PUSH2 0xD14 DUP2 PUSH1 0x1 DUP9 ADD PUSH2 0x25C7 JUMP JUMPDEST SUB DUP9 PUSH2 0x2146 JUMP JUMPDEST PUSH2 0xD25 DUP8 MLOAD PUSH2 0x261D JUMP JUMPDEST SWAP6 DUP3 DUP5 JUMPDEST PUSH2 0xD5A JUMPI JUMPDEST DUP7 MLOAD DUP10 SWAP1 PUSH2 0xD56 DUP11 DUP11 PUSH2 0xD4C DUP5 PUSH2 0xD45 DUP2 DUP15 PUSH2 0x2440 JUMP JUMPDEST SUB DUP6 PUSH2 0x2146 JUMP JUMPDEST MLOAD SWAP4 DUP5 SWAP4 DUP5 PUSH2 0x2289 JUMP JUMPDEST SUB SWAP1 RETURN JUMPDEST DUP9 MLOAD DUP2 LT ISZERO PUSH2 0xD9F JUMPI SWAP1 DUP5 DUP3 PUSH2 0xD73 DUP3 SWAP7 SWAP6 SWAP5 DUP13 PUSH2 0x264F JUMP JUMPDEST MLOAD DUP5 DUP7 MSTORE PUSH1 0x7 DUP5 MSTORE DUP10 DUP7 KECCAK256 SWAP1 DUP7 MSTORE DUP4 MSTORE PUSH1 0x2 DUP10 DUP7 KECCAK256 ADD SLOAD PUSH2 0xD94 DUP3 DUP13 PUSH2 0x264F JUMP JUMPDEST MSTORE ADD SWAP1 SWAP2 SWAP3 SWAP4 PUSH2 0xD29 JUMP JUMPDEST PUSH2 0xD2E JUMP JUMPDEST POP SWAP1 CALLVALUE PUSH2 0xCAE JUMPI DUP2 PUSH1 0x3 NOT CALLDATASIZE ADD SLT PUSH2 0xCAE JUMPI PUSH1 0x20 SWAP1 PUSH1 0xFF PUSH1 0xA SLOAD AND SWAP1 MLOAD SWAP1 ISZERO ISZERO DUP2 MSTORE RETURN JUMPDEST POP DUP3 SWAP1 CALLVALUE PUSH2 0x510 JUMPI PUSH1 0x20 CALLDATASIZE PUSH1 0x3 NOT ADD SLT PUSH2 0x510 JUMPI PUSH1 0x1 PUSH1 0x1 PUSH1 0xA0 SHL SUB SWAP1 DUP2 PUSH2 0xDEE PUSH2 0x22C0 JUMP JUMPDEST AND DUP1 DUP3 MSTORE PUSH1 0x2 PUSH1 0x20 MSTORE DUP5 DUP3 KECCAK256 DUP4 PUSH1 0x5 DUP3 ADD SLOAD AND ISZERO ISZERO SWAP1 DUP2 PUSH2 0xEE9 JUMPI JUMPDEST POP ISZERO PUSH2 0xEAF JUMPI DUP2 DUP6 SWAP2 PUSH2 0xD56 SWAP5 SWAP4 MSTORE PUSH1 0x2 PUSH1 0x20 MSTORE KECCAK256 SWAP3 PUSH1 0x5 DUP5 ADD SLOAD SWAP1 DUP6 MLOAD SWAP1 PUSH2 0xE3E DUP3 PUSH2 0xE37 DUP2 DUP10 PUSH2 0x2440 JUMP JUMPDEST SUB DUP4 PUSH2 0x2146 JUMP JUMPDEST DUP7 MLOAD SWAP6 PUSH2 0xE52 DUP8 PUSH2 0xD14 DUP2 PUSH1 0x1 DUP6 ADD PUSH2 0x2440 JUMP JUMPDEST DUP8 MLOAD SWAP8 PUSH2 0xE66 DUP10 PUSH2 0x761 DUP2 PUSH1 0x2 DUP7 ADD PUSH2 0x2440 JUMP JUMPDEST PUSH2 0xE93 DUP2 MLOAD SWAP3 PUSH2 0xE7D DUP5 PUSH2 0xD45 DUP2 PUSH1 0x3 DUP6 ADD PUSH2 0x2440 JUMP JUMPDEST PUSH2 0xE8C DUP4 MLOAD DUP1 SWAP7 DUP2 SWAP4 ADD PUSH2 0x2440 JUMP JUMPDEST SUB DUP5 PUSH2 0x2146 JUMP JUMPDEST MLOAD SWAP8 DUP9 SWAP8 PUSH1 0xFF DUP7 PUSH1 0xA8 SHR AND SWAP7 PUSH1 0xFF DUP8 PUSH1 0xA0 SHR AND SWAP7 AND SWAP5 DUP10 PUSH2 0x24D6 JUMP JUMPDEST DUP5 MLOAD PUSH3 0x461BCD PUSH1 0xE5 SHL DUP2 MSTORE PUSH1 0x20 DUP2 DUP7 ADD MSTORE PUSH1 0x14 PUSH1 0x24 DUP3 ADD MSTORE PUSH20 0x159BDD195C88191BD95CC81B9BDD08195E1A5CDD PUSH1 0x62 SHL PUSH1 0x44 DUP3 ADD MSTORE PUSH1 0x64 SWAP1 REVERT JUMPDEST PUSH2 0xEF4 SWAP2 POP SLOAD PUSH2 0x2406 JUMP JUMPDEST ISZERO ISZERO DUP7 PUSH2 0xE0A JUMP JUMPDEST POP SWAP1 CALLVALUE PUSH2 0xCAE JUMPI DUP2 PUSH1 0x3 NOT CALLDATASIZE ADD SLT PUSH2 0xCAE JUMPI PUSH1 0x20 SWAP1 PUSH1 0xFF PUSH1 0xA SLOAD PUSH1 0x8 SHR AND SWAP1 MLOAD SWAP1 ISZERO ISZERO DUP2 MSTORE RETURN JUMPDEST POP CALLVALUE PUSH2 0x510 JUMPI DUP1 PUSH1 0x3 NOT CALLDATASIZE ADD SLT PUSH2 0x510 JUMPI SWAP1 DUP1 MLOAD SWAP2 DUP3 SWAP1 PUSH1 0x3 SLOAD SWAP2 DUP3 DUP6 MSTORE PUSH1 0x20 DUP1 SWAP6 ADD DUP1 SWAP4 PUSH1 0x3 DUP5 MSTORE PUSH32 0xC2575A0E9E593C00F959F8C92F12DB2869C3395A3B0502D05E2516446F71F85B SWAP1 DUP5 JUMPDEST DUP2 DUP2 LT PUSH2 0xFCA JUMPI POP POP POP DUP2 PUSH2 0xF86 SWAP2 SUB DUP3 PUSH2 0x2146 JUMP JUMPDEST DUP4 MLOAD SWAP5 DUP6 SWAP5 DUP2 DUP7 ADD SWAP3 DUP3 DUP8 MSTORE MLOAD DUP1 SWAP4 MSTORE DUP6 ADD SWAP4 SWAP3 JUMPDEST DUP3 DUP2 LT PUSH2 0xFAA JUMPI POP POP POP POP SUB SWAP1 RETURN JUMPDEST DUP4 MLOAD PUSH1 0x1 PUSH1 0x1 PUSH1 0xA0 SHL SUB AND DUP6 MSTORE DUP7 SWAP6 POP SWAP4 DUP2 ADD SWAP4 SWAP3 DUP2 ADD SWAP3 PUSH1 0x1 ADD PUSH2 0xF9B JUMP JUMPDEST DUP3 SLOAD PUSH1 0x1 PUSH1 0x1 PUSH1 0xA0 SHL SUB AND DUP5 MSTORE SWAP3 DUP9 ADD SWAP3 PUSH1 0x1 SWAP3 DUP4 ADD SWAP3 ADD PUSH2 0xF70 JUMP JUMPDEST POP SWAP1 CALLVALUE PUSH2 0xCAE JUMPI PUSH1 0x60 CALLDATASIZE PUSH1 0x3 NOT ADD SLT PUSH2 0xCAE JUMPI DUP3 CALLDATALOAD SWAP1 PUSH8 0xFFFFFFFFFFFFFFFF SWAP1 PUSH1 0x24 CALLDATALOAD DUP3 DUP2 GT PUSH2 0x508 JUMPI PUSH2 0x101E SWAP1 CALLDATASIZE SWAP1 DUP8 ADD PUSH2 0x217E JUMP JUMPDEST SWAP1 PUSH1 0x44 CALLDATALOAD DUP4 DUP2 GT PUSH2 0x504 JUMPI PUSH2 0x1036 SWAP1 CALLDATASIZE SWAP1 DUP9 ADD PUSH2 0x217E JUMP JUMPDEST SWAP3 PUSH2 0x1045 PUSH1 0x6 SLOAD DUP7 GT ISZERO PUSH2 0x2555 JUMP JUMPDEST DUP5 DUP7 MSTORE PUSH1 0x20 SWAP1 PUSH1 0x5 DUP3 MSTORE PUSH2 0x1063 PUSH2 0x706 PUSH2 0x700 DUP11 DUP7 DUP12 KECCAK256 ADD DUP8 PUSH2 0x25A1 JUMP JUMPDEST DUP6 DUP8 MSTORE PUSH1 0x5 DUP3 MSTORE PUSH2 0x107B PUSH1 0x2 DUP5 DUP10 KECCAK256 ADD SLOAD TIMESTAMP LT PUSH2 0x279D JUMP JUMPDEST DUP6 DUP8 MSTORE PUSH1 0x9 DUP3 MSTORE PUSH1 0xFF PUSH2 0x1099 PUSH2 0x1093 DUP6 DUP11 KECCAK256 DUP8 PUSH2 0x25A1 JUMP JUMPDEST DUP8 PUSH2 0x25A1 JUMP JUMPDEST SLOAD AND PUSH2 0x1193 JUMPI DUP6 DUP8 MSTORE PUSH1 0x8 DUP3 MSTORE DUP3 DUP8 KECCAK256 PUSH2 0x10B3 DUP2 SLOAD PUSH2 0x2987 JUMP JUMPDEST SWAP1 SSTORE DUP6 DUP8 MSTORE PUSH1 0x8 DUP3 MSTORE DUP3 DUP8 KECCAK256 SLOAD DUP4 MLOAD SWAP2 PUSH1 0x80 DUP4 ADD SWAP1 DUP2 GT DUP4 DUP3 LT OR PUSH2 0x1180 JUMPI PUSH2 0x3C0 SWAP4 PUSH1 0x3 DUP7 SWAP5 DUP11 SWAP5 PUSH1 0x9 SWAP5 PUSH32 0xEC1A365AEEEC255796BF50D7A2A8F24D0D5F5C6ADA0167B6C647428D9164582 SWAP12 SWAP11 SWAP10 MSTORE DUP1 DUP3 MSTORE PUSH2 0x113F DUP14 DUP9 DUP7 DUP6 ADD SWAP2 DUP14 DUP4 MSTORE DUP2 DUP7 ADD SWAP5 DUP2 DUP7 MSTORE PUSH1 0x60 DUP8 ADD SWAP11 DUP3 DUP13 MSTORE DUP3 MSTORE PUSH1 0x7 DUP10 MSTORE DUP3 DUP3 KECCAK256 SWAP1 DUP3 MSTORE DUP9 MSTORE KECCAK256 SWAP4 MLOAD DUP5 SSTORE MLOAD PUSH1 0x1 DUP5 ADD PUSH2 0x2881 JUMP JUMPDEST MLOAD PUSH1 0x2 DUP3 ADD SSTORE ADD SWAP3 MLOAD ISZERO ISZERO SWAP3 PUSH1 0xFF NOT SWAP4 PUSH1 0xFF DUP6 DUP4 SLOAD AND SWAP2 AND OR SWAP1 SSTORE DUP9 DUP11 MSTORE MSTORE PUSH1 0x1 PUSH2 0x116F PUSH2 0x1093 DUP5 DUP12 KECCAK256 DUP8 PUSH2 0x25A1 JUMP JUMPDEST SWAP2 DUP3 SLOAD AND OR SWAP1 SSTORE MLOAD SWAP3 DUP4 SWAP3 DUP4 PUSH2 0x29AC JUMP JUMPDEST PUSH4 0x4E487B71 PUSH1 0xE0 SHL DUP10 MSTORE PUSH1 0x41 DUP11 MSTORE PUSH1 0x24 DUP10 REVERT JUMPDEST DUP3 MLOAD PUSH3 0x461BCD PUSH1 0xE5 SHL DUP2 MSTORE DUP1 DUP10 ADD DUP4 SWAP1 MSTORE PUSH1 0x1D PUSH1 0x24 DUP3 ADD MSTORE PUSH32 0x43616E646964617465206E616D6520616C726561647920657869737473000000 PUSH1 0x44 DUP3 ADD MSTORE PUSH1 0x64 SWAP1 REVERT JUMPDEST POP CALLVALUE PUSH2 0x510 JUMPI PUSH1 0x20 CALLDATASIZE PUSH1 0x3 NOT ADD SLT PUSH2 0x510 JUMPI DUP3 CALLDATALOAD SWAP3 SLOAD DUP4 LT ISZERO PUSH2 0x510 JUMPI POP PUSH2 0x669 PUSH1 0x20 SWAP3 PUSH2 0x2323 JUMP JUMPDEST POP DUP3 SWAP1 CALLVALUE PUSH2 0x510 JUMPI PUSH1 0x20 CALLDATASIZE PUSH1 0x3 NOT ADD SLT PUSH2 0x510 JUMPI PUSH2 0xD56 SWAP1 PUSH1 0x1 PUSH1 0x1 PUSH1 0xA0 SHL SUB SWAP1 DUP5 SWAP1 DUP3 PUSH2 0x122B PUSH2 0x22C0 JUMP JUMPDEST AND DUP2 MSTORE PUSH1 0x2 PUSH1 0x20 MSTORE KECCAK256 SWAP4 DUP1 MLOAD PUSH2 0x1245 DUP2 PUSH2 0xA62 DUP2 DUP10 PUSH2 0x2440 JUMP JUMPDEST PUSH2 0xD45 DUP3 MLOAD SWAP6 PUSH2 0x125C DUP8 PUSH2 0xD14 DUP2 PUSH1 0x1 DUP13 ADD PUSH2 0x2440 JUMP JUMPDEST PUSH1 0x5 DUP5 MLOAD SWAP9 PUSH2 0x1279 DUP11 PUSH2 0x1272 DUP2 PUSH1 0x2 DUP6 ADD PUSH2 0x2440 JUMP JUMPDEST SUB DUP12 PUSH2 0x2146 JUMP JUMPDEST PUSH2 0x12A4 DUP7 MLOAD SWAP4 PUSH2 0x1297 DUP6 PUSH2 0x1290 DUP2 PUSH1 0x3 DUP8 ADD PUSH2 0x2440 JUMP JUMPDEST SUB DUP7 PUSH2 0x2146 JUMP JUMPDEST DUP8 MLOAD SWAP6 DUP7 DUP1 SWAP3 DUP6 ADD PUSH2 0x2440 JUMP JUMPDEST ADD SLOAD SWAP4 MLOAD SWAP8 DUP9 SWAP8 PUSH1 0xFF DUP7 PUSH1 0xA8 SHR AND SWAP7 PUSH1 0xFF DUP8 PUSH1 0xA0 SHR AND SWAP7 AND SWAP5 DUP10 PUSH2 0x24D6 JUMP JUMPDEST POP SWAP2 SWAP1 CALLVALUE PUSH2 0x50C JUMPI PUSH1 0x20 SWAP2 DUP3 PUSH1 0x3 NOT CALLDATASIZE ADD SLT PUSH2 0x638 JUMPI SWAP3 PUSH2 0x1321 SWAP3 SWAP4 CALLDATALOAD PUSH2 0x12EE PUSH1 0x6 SLOAD DUP3 GT ISZERO PUSH2 0x2555 JUMP JUMPDEST DUP2 MSTORE PUSH1 0x5 DUP5 MSTORE DUP2 DUP2 KECCAK256 PUSH1 0x1 PUSH1 0xFF PUSH1 0x1 DUP4 ADD SLOAD AND SWAP4 PUSH1 0x2 DUP4 ADD SLOAD SWAP2 PUSH1 0x3 DUP5 ADD SLOAD SWAP4 PUSH2 0x1328 PUSH1 0x5 DUP3 ADD SWAP2 DUP5 MLOAD SWAP10 DUP11 DUP1 SWAP3 PUSH2 0x2440 JUMP JUMPDEST SUB DUP10 PUSH2 0x2146 JUMP JUMPDEST DUP1 SLOAD SWAP1 PUSH2 0x1334 DUP3 PUSH2 0x2605 JUMP JUMPDEST SWAP7 PUSH2 0x1341 DUP6 MLOAD SWAP9 DUP10 PUSH2 0x2146 JUMP JUMPDEST DUP3 DUP9 MSTORE SWAP1 DUP2 MSTORE DUP10 DUP2 KECCAK256 DUP11 DUP9 ADD JUMPDEST DUP4 DUP4 LT PUSH2 0x1393 JUMPI POP PUSH2 0x1377 DUP11 PUSH2 0xD56 DUP12 DUP12 DUP16 DUP12 DUP12 DUP15 SWAP3 DUP2 MLOAD SWAP9 DUP10 SWAP9 PUSH1 0xA0 DUP11 MSTORE PUSH1 0xA0 DUP11 ADD SWAP1 PUSH2 0x2230 JUMP JUMPDEST SWAP6 ISZERO ISZERO SWAP1 DUP9 ADD MSTORE DUP7 ADD MSTORE PUSH1 0x60 DUP6 ADD MSTORE DUP4 DUP3 SUB PUSH1 0x80 DUP6 ADD MSTORE PUSH2 0x23A9 JUMP JUMPDEST DUP5 DUP13 DUP2 SWAP3 DUP9 MLOAD PUSH2 0x13A7 DUP2 PUSH2 0xA62 DUP2 DUP10 PUSH2 0x2440 JUMP JUMPDEST DUP2 MSTORE ADD SWAP3 ADD SWAP3 ADD SWAP2 SWAP1 PUSH2 0x134E JUMP JUMPDEST POP SWAP2 SWAP1 CALLVALUE PUSH2 0x50C JUMPI PUSH1 0x20 CALLDATASIZE PUSH1 0x3 NOT ADD SLT PUSH2 0x50C JUMPI DUP2 CALLDATALOAD SWAP2 PUSH2 0x13D4 PUSH2 0x29D1 JUMP JUMPDEST PUSH2 0x13E2 PUSH1 0x6 SLOAD DUP5 GT ISZERO PUSH2 0x2555 JUMP JUMPDEST DUP3 DUP5 MSTORE PUSH1 0x5 PUSH1 0x20 MSTORE DUP2 DUP5 KECCAK256 SWAP1 PUSH1 0x1 DUP3 ADD SWAP3 DUP4 SLOAD SWAP3 PUSH1 0xFF DUP5 AND PUSH2 0x1489 JUMPI PUSH1 0x2 ADD SLOAD TIMESTAMP LT PUSH2 0x143A JUMPI POP POP PUSH1 0xFF NOT AND PUSH1 0x1 OR SWAP1 SSTORE PUSH32 0x589F8B93514C651C0C92B06BDB8118FE508DAADF2FFDAC1F516191BE20FCB85 DUP3 DUP1 LOG2 DUP1 RETURN JUMPDEST SWAP1 PUSH1 0x20 PUSH1 0x84 SWAP3 MLOAD SWAP2 PUSH3 0x461BCD PUSH1 0xE5 SHL DUP4 MSTORE DUP3 ADD MSTORE PUSH1 0x23 PUSH1 0x24 DUP3 ADD MSTORE PUSH32 0x456C656374696F6E2073746172742074696D6520686173206E6F742072656163 PUSH1 0x44 DUP3 ADD MSTORE PUSH3 0x1A1959 PUSH1 0xEA SHL PUSH1 0x64 DUP3 ADD MSTORE REVERT JUMPDEST DUP2 MLOAD PUSH3 0x461BCD PUSH1 0xE5 SHL DUP2 MSTORE PUSH1 0x20 DUP2 DUP6 ADD MSTORE PUSH1 0x18 PUSH1 0x24 DUP3 ADD MSTORE PUSH32 0x456C656374696F6E20697320616C7265616479206F70656E0000000000000000 PUSH1 0x44 DUP3 ADD MSTORE PUSH1 0x64 SWAP1 REVERT JUMPDEST POP SWAP1 CALLVALUE PUSH2 0xCAE JUMPI DUP2 PUSH1 0x3 NOT CALLDATASIZE ADD SLT PUSH2 0xCAE JUMPI PUSH1 0x20 SWAP1 PUSH1 0x6 SLOAD SWAP1 MLOAD SWAP1 DUP2 MSTORE RETURN JUMPDEST POP SWAP1 CALLVALUE PUSH2 0xCAE JUMPI DUP2 PUSH1 0x3 NOT CALLDATASIZE ADD SLT PUSH2 0xCAE JUMPI SWAP1 SLOAD SWAP1 MLOAD PUSH1 0x1 PUSH1 0x1 PUSH1 0xA0 SHL SUB SWAP1 SWAP2 AND DUP2 MSTORE PUSH1 0x20 SWAP1 RETURN JUMPDEST POP SWAP2 CALLVALUE PUSH2 0x50C JUMPI PUSH2 0x1523 CALLDATASIZE PUSH2 0x21DA JUMP JUMPDEST SWAP2 SWAP1 SWAP3 PUSH2 0x152E PUSH2 0x29D1 JUMP JUMPDEST PUSH2 0x153C PUSH1 0x6 SLOAD DUP6 GT ISZERO PUSH2 0x2555 JUMP JUMPDEST DUP3 MLOAD ISZERO PUSH2 0x16E5 JUMPI DUP4 DUP6 MSTORE PUSH1 0x20 SWAP2 PUSH1 0x5 DUP4 MSTORE DUP2 DUP7 KECCAK256 PUSH1 0x5 DUP2 ADD SWAP2 DUP3 SLOAD PUSH1 0x1 PUSH1 0x40 SHL SWAP1 DUP2 DUP2 LT ISZERO PUSH2 0x16D2 JUMPI PUSH2 0x1577 SWAP1 PUSH1 0x1 SWAP6 PUSH1 0x1 DUP3 ADD DUP2 SSTORE PUSH2 0x235A JUMP JUMPDEST PUSH2 0x16C0 JUMPI DUP8 PUSH2 0x1585 SWAP2 PUSH2 0x2881 JUMP JUMPDEST DUP5 MLOAD SWAP2 DUP7 DUP4 ADD SWAP4 PUSH8 0xFFFFFFFFFFFFFFFF SWAP5 DUP5 DUP2 LT DUP7 DUP3 GT OR PUSH2 0x16AD JUMPI DUP8 MSTORE DUP11 DUP5 MSTORE DUP7 MLOAD SWAP1 DUP8 DUP3 ADD DUP3 DUP2 LT DUP8 DUP3 GT OR PUSH2 0x169A JUMPI PUSH2 0x15D5 DUP5 PUSH1 0x1 SWAP5 SWAP4 PUSH2 0x15DD SWAP4 DUP13 MSTORE DUP14 DUP6 MSTORE DUP13 DUP6 ADD SWAP9 DUP10 MSTORE ADD DUP13 PUSH2 0x25A1 JUMP JUMPDEST SWAP2 MLOAD DUP3 PUSH2 0x2881 JUMP JUMPDEST ADD SWAP3 MLOAD SWAP2 DUP3 MLOAD SWAP5 DUP6 GT PUSH2 0x1687 JUMPI DUP5 GT PUSH2 0x1674 JUMPI POP DUP6 SWAP1 DUP3 SLOAD DUP5 DUP5 SSTORE DUP1 DUP6 LT PUSH2 0x165A JUMPI JUMPDEST POP ADD SWAP1 DUP9 MSTORE DUP5 DUP9 KECCAK256 DUP9 JUMPDEST DUP4 DUP2 LT PUSH2 0x1649 JUMPI DUP10 DUP10 PUSH32 0x9D3F9D97CFA4D97C52F6BE76984C7C9AC6DCBFD36F22E4B5BA1A4FBF01D83A7C DUP11 DUP11 PUSH2 0x3C0 DUP12 MLOAD SWAP3 DUP3 DUP5 SWAP4 DUP5 MSTORE DUP4 ADD SWAP1 PUSH2 0x2230 JUMP JUMPDEST DUP3 MLOAD DUP3 DUP3 ADD SSTORE SWAP2 DUP7 ADD SWAP2 DUP5 ADD PUSH2 0x160A JUMP JUMPDEST DUP4 DUP12 MSTORE DUP3 DUP12 KECCAK256 PUSH2 0x166E SWAP2 DUP2 ADD SWAP1 DUP7 ADD PUSH2 0x26AE JUMP JUMPDEST CODESIZE PUSH2 0x1600 JUMP JUMPDEST PUSH4 0x4E487B71 PUSH1 0xE0 SHL DUP11 MSTORE PUSH1 0x41 SWAP1 MSTORE PUSH1 0x24 DUP10 REVERT JUMPDEST PUSH4 0x4E487B71 PUSH1 0xE0 SHL DUP12 MSTORE PUSH1 0x41 DUP3 MSTORE PUSH1 0x24 DUP12 REVERT JUMPDEST PUSH4 0x4E487B71 PUSH1 0xE0 SHL DUP14 MSTORE PUSH1 0x41 DUP5 MSTORE PUSH1 0x24 DUP14 REVERT JUMPDEST PUSH4 0x4E487B71 PUSH1 0xE0 SHL DUP13 MSTORE PUSH1 0x41 DUP4 MSTORE PUSH1 0x24 DUP13 REVERT JUMPDEST PUSH4 0x4E487B71 PUSH1 0xE0 SHL DUP11 MSTORE DUP10 DUP4 MSTORE PUSH1 0x24 DUP11 REVERT JUMPDEST PUSH4 0x4E487B71 PUSH1 0xE0 SHL DUP11 MSTORE PUSH1 0x41 DUP4 MSTORE PUSH1 0x24 DUP11 REVERT JUMPDEST SWAP1 PUSH1 0x20 PUSH1 0x64 SWAP3 MLOAD SWAP2 PUSH3 0x461BCD PUSH1 0xE5 SHL DUP4 MSTORE DUP3 ADD MSTORE PUSH1 0x1D PUSH1 0x24 DUP3 ADD MSTORE PUSH32 0x506F736974696F6E206E616D652063616E6E6F7420626520656D707479000000 PUSH1 0x44 DUP3 ADD MSTORE REVERT JUMPDEST POP CALLVALUE PUSH2 0x510 JUMPI DUP1 PUSH1 0x3 NOT CALLDATASIZE ADD SLT PUSH2 0x510 JUMPI PUSH2 0x1741 PUSH2 0x29D1 JUMP JUMPDEST DUP1 SLOAD PUSH1 0x1 PUSH1 0x1 PUSH1 0xA0 SHL SUB NOT DUP2 AND DUP3 SSTORE DUP2 SWAP1 PUSH1 0x1 PUSH1 0x1 PUSH1 0xA0 SHL SUB AND PUSH32 0x8BE0079C531659141344CD1FD0A4F28419497F9722A3DAAFE3B4186F6B6457E0 DUP3 DUP1 LOG3 DUP1 RETURN JUMPDEST POP CALLVALUE PUSH2 0x510 JUMPI DUP1 PUSH1 0x3 NOT CALLDATASIZE ADD SLT PUSH2 0x510 JUMPI PUSH2 0x179B PUSH2 0x29D1 JUMP JUMPDEST PUSH1 0x1 PUSH1 0xA SLOAD PUSH2 0x17AD PUSH1 0xFF DUP3 AND ISZERO PUSH2 0x279D JUMP JUMPDEST PUSH2 0x17BD PUSH1 0xFF DUP3 PUSH1 0x8 SHR AND ISZERO PUSH2 0x2835 JUMP JUMPDEST PUSH1 0xFF NOT AND OR PUSH1 0xA SSTORE PUSH32 0xC475C26AA25ED8E85A7FAA790E5F63B5D7EE1025F12821F4C9BFDDD36AB4D112 DUP2 DUP1 LOG1 DUP1 RETURN JUMPDEST POP SWAP2 CALLVALUE PUSH2 0x50C JUMPI PUSH1 0x20 CALLDATASIZE PUSH1 0x3 NOT ADD SLT PUSH2 0x50C JUMPI PUSH2 0x1846 SWAP3 DUP3 SWAP2 CALLDATALOAD DUP2 MSTORE PUSH1 0x5 PUSH1 0x20 MSTORE KECCAK256 DUP2 MLOAD SWAP2 PUSH2 0x181F DUP4 PUSH2 0xE8C DUP2 DUP6 PUSH2 0x2440 JUMP JUMPDEST PUSH1 0xFF PUSH1 0x1 DUP4 ADD SLOAD AND SWAP2 PUSH1 0x3 PUSH1 0x2 DUP3 ADD SLOAD SWAP2 ADD SLOAD SWAP2 DUP1 MLOAD SWAP6 DUP7 SWAP6 PUSH1 0x80 DUP8 MSTORE PUSH1 0x80 DUP8 ADD SWAP1 PUSH2 0x2230 JUMP JUMPDEST SWAP4 ISZERO ISZERO PUSH1 0x20 DUP7 ADD MSTORE DUP5 ADD MSTORE PUSH1 0x60 DUP4 ADD MSTORE SUB SWAP1 RETURN JUMPDEST POP SWAP2 CALLVALUE PUSH2 0x50C JUMPI DUP3 PUSH1 0x3 NOT CALLDATASIZE ADD SLT PUSH2 0x50C JUMPI PUSH2 0x1874 PUSH2 0x29D1 JUMP JUMPDEST PUSH1 0xA SLOAD SWAP2 PUSH1 0xFF DUP4 AND ISZERO PUSH2 0x18C6 JUMPI DUP4 PUSH2 0x100 DUP5 PUSH2 0x1896 PUSH1 0xFF DUP3 PUSH1 0x8 SHR AND ISZERO PUSH2 0x2835 JUMP JUMPDEST PUSH2 0xFF00 NOT AND OR PUSH1 0xA SSTORE PUSH32 0x66EC723071E4BB646F7B35D31BC2DEE8510979BD8C180EDD0690D4F5E802F1E4 DUP2 DUP1 LOG1 DUP1 RETURN JUMPDEST SWAP1 PUSH1 0x20 PUSH1 0x64 SWAP3 MLOAD SWAP2 PUSH3 0x461BCD PUSH1 0xE5 SHL DUP4 MSTORE DUP3 ADD MSTORE PUSH1 0x1C PUSH1 0x24 DUP3 ADD MSTORE PUSH32 0x456C656374696F6E20686173206E6F7420737461727465642079657400000000 PUSH1 0x44 DUP3 ADD MSTORE REVERT JUMPDEST POP SWAP2 CALLVALUE PUSH2 0x50C JUMPI PUSH1 0x20 CALLDATASIZE PUSH1 0x3 NOT ADD SLT PUSH2 0x50C JUMPI PUSH1 0x20 SWAP3 DUP3 SWAP2 CALLDATALOAD DUP2 MSTORE PUSH1 0x8 DUP5 MSTORE KECCAK256 SLOAD SWAP1 MLOAD SWAP1 DUP2 MSTORE RETURN JUMPDEST POP CALLVALUE PUSH2 0x510 JUMPI SWAP2 PUSH2 0x1941 CALLDATASIZE PUSH2 0x21DA JUMP JUMPDEST SWAP4 SWAP1 SWAP3 PUSH2 0x1952 PUSH1 0x6 SLOAD DUP6 GT ISZERO PUSH2 0x2555 JUMP JUMPDEST DUP4 DUP3 MSTORE PUSH1 0x1 PUSH2 0x1988 PUSH1 0x20 SWAP7 PUSH1 0x5 DUP9 MSTORE PUSH2 0x1975 PUSH2 0x706 PUSH2 0x700 DUP9 DUP8 DUP10 KECCAK256 ADD DUP5 PUSH2 0x25A1 JUMP JUMPDEST DUP7 DUP6 MSTORE PUSH1 0x5 DUP9 MSTORE DUP3 SWAP6 DUP5 DUP7 KECCAK256 ADD SWAP1 PUSH2 0x25A1 JUMP JUMPDEST ADD SWAP5 DUP6 SLOAD SWAP5 PUSH2 0x1996 DUP7 PUSH2 0x2605 JUMP JUMPDEST PUSH2 0x19A2 DUP5 MLOAD SWAP2 DUP3 PUSH2 0x2146 JUMP JUMPDEST DUP7 DUP2 MSTORE PUSH1 0x1F NOT SWAP7 DUP8 PUSH2 0x19B3 DUP3 PUSH2 0x2605 JUMP JUMPDEST ADD DUP7 JUMPDEST DUP2 DUP2 LT PUSH2 0x1ADF JUMPI POP POP PUSH2 0x19C8 DUP2 PUSH2 0x2605 JUMP JUMPDEST SWAP3 PUSH2 0x19D5 DUP7 MLOAD SWAP5 DUP6 PUSH2 0x2146 JUMP JUMPDEST DUP2 DUP5 MSTORE PUSH2 0x19E1 DUP3 PUSH2 0x2605 JUMP JUMPDEST DUP5 DUP7 ADD SWAP10 ADD CALLDATASIZE DUP11 CALLDATACOPY DUP7 JUMPDEST DUP3 DUP2 LT PUSH2 0x1A62 JUMPI POP POP POP SWAP1 PUSH2 0x1A2F DUP4 SWAP3 PUSH2 0x1A0E PUSH2 0x761 SWAP10 SWAP11 DUP8 MLOAD SWAP11 DUP12 DUP1 SWAP3 PUSH2 0x25C7 JUMP JUMPDEST PUSH2 0x1A22 DUP7 MLOAD SWAP10 PUSH1 0x60 DUP12 MSTORE PUSH1 0x60 DUP12 ADD SWAP1 PUSH2 0x2255 JUMP JUMPDEST SWAP1 DUP10 DUP3 SUB DUP6 DUP12 ADD MSTORE PUSH2 0x23A9 JUMP JUMPDEST SWAP4 DUP8 DUP6 SUB SWAP1 DUP9 ADD MSTORE MLOAD SWAP3 DUP4 DUP2 MSTORE ADD SWAP6 SWAP3 JUMPDEST DUP3 DUP2 LT PUSH2 0x1A4D JUMPI DUP6 DUP8 SUB DUP7 RETURN JUMPDEST DUP4 MLOAD ISZERO ISZERO DUP8 MSTORE SWAP6 DUP2 ADD SWAP6 SWAP3 DUP2 ADD SWAP3 DUP5 ADD PUSH2 0x1A40 JUMP JUMPDEST SWAP1 DUP9 DUP1 SWAP12 SWAP4 SWAP11 SWAP10 SWAP3 DUP3 DUP11 SWAP9 SWAP10 SWAP11 MSTORE PUSH1 0x7 DUP10 MSTORE PUSH1 0xFF DUP11 DUP10 KECCAK256 PUSH2 0x1A83 DUP4 DUP9 PUSH2 0x235A JUMP JUMPDEST SWAP2 SWAP1 SLOAD PUSH1 0x3 SWAP3 DUP4 SHL SHR DUP12 MSTORE DUP12 MSTORE DUP12 DUP11 KECCAK256 DUP13 MLOAD PUSH2 0x1AA5 DUP2 PUSH2 0xA62 DUP2 DUP10 DUP7 ADD PUSH2 0x2440 JUMP JUMPDEST PUSH2 0x1AAF DUP6 DUP12 PUSH2 0x264F JUMP JUMPDEST MSTORE PUSH2 0x1ABA DUP5 DUP11 PUSH2 0x264F JUMP JUMPDEST POP ADD SLOAD AND PUSH2 0x1AC8 DUP3 DUP10 PUSH2 0x264F JUMP JUMPDEST SWAP1 ISZERO ISZERO SWAP1 MSTORE ADD SWAP1 SWAP2 POP SWAP10 SWAP8 SWAP9 SWAP2 SWAP10 SWAP7 SWAP6 SWAP5 SWAP7 PUSH2 0x19EB JUMP JUMPDEST PUSH1 0x60 DUP5 DUP3 ADD DUP8 ADD MSTORE DUP6 ADD PUSH2 0x19B6 JUMP JUMPDEST POP SWAP1 CALLVALUE PUSH2 0xCAE JUMPI PUSH2 0x1AFE CALLDATASIZE PUSH2 0x2372 JUMP JUMPDEST PUSH2 0x1B0A SWAP4 SWAP2 SWAP3 SWAP4 PUSH2 0x29D1 JUMP JUMPDEST PUSH2 0x1B18 PUSH1 0x6 SLOAD DUP6 GT ISZERO PUSH2 0x2555 JUMP JUMPDEST DUP4 DUP6 MSTORE PUSH1 0x20 SWAP1 PUSH1 0x5 DUP3 MSTORE PUSH2 0x1B36 PUSH2 0x706 PUSH2 0x700 DUP10 DUP7 DUP11 KECCAK256 ADD DUP8 PUSH2 0x25A1 JUMP JUMPDEST DUP5 DUP7 MSTORE PUSH1 0x5 DUP3 MSTORE PUSH2 0x1B4E PUSH1 0x2 DUP5 DUP9 KECCAK256 ADD SLOAD TIMESTAMP LT PUSH2 0x279D JUMP JUMPDEST DUP5 DUP7 MSTORE PUSH1 0x7 DUP3 MSTORE DUP3 DUP7 KECCAK256 DUP2 DUP8 MSTORE DUP3 MSTORE DUP3 DUP7 KECCAK256 SWAP1 PUSH1 0x3 DUP3 ADD PUSH1 0x1 DUP2 SLOAD PUSH2 0x1B76 PUSH1 0xFF DUP3 AND ISZERO PUSH2 0x27E9 JUMP JUMPDEST PUSH1 0xFF NOT AND OR SWAP1 SSTORE DUP6 DUP8 MSTORE PUSH1 0x5 DUP4 MSTORE PUSH1 0x1 PUSH2 0x1B94 DUP10 DUP7 DUP11 KECCAK256 ADD DUP8 PUSH2 0x25A1 JUMP JUMPDEST ADD DUP1 SLOAD SWAP1 PUSH1 0x1 PUSH1 0x40 SHL DUP3 LT ISZERO PUSH2 0x1180 JUMPI SWAP3 PUSH2 0x1BE1 PUSH32 0xE46EF16F45F14B433702C21C325CA11D00B469B9C13D430220E2B5726CDFA25E SWAP8 SWAP7 SWAP6 SWAP4 PUSH2 0x866 DUP5 PUSH2 0x3C0 SWAP8 PUSH1 0x1 DUP1 SWAP8 ADD DUP2 SSTORE PUSH2 0x235A JUMP JUMPDEST PUSH2 0x1BF4 DUP6 MLOAD SWAP7 DUP7 DUP9 SWAP8 DUP9 MSTORE DUP8 ADD SWAP1 PUSH2 0x2230 JUMP JUMPDEST SWAP3 DUP6 DUP5 SUB SWAP1 DUP7 ADD MSTORE ADD PUSH2 0x2440 JUMP JUMPDEST POP SWAP2 CALLVALUE PUSH2 0x50C JUMPI DUP2 PUSH1 0x3 NOT CALLDATASIZE ADD SLT PUSH2 0x50C JUMPI DUP1 CALLDATALOAD SWAP2 PUSH1 0x24 CALLDATALOAD SWAP2 PUSH2 0x1C23 PUSH2 0x29D1 JUMP JUMPDEST PUSH2 0x1C31 PUSH1 0x6 SLOAD DUP6 GT ISZERO PUSH2 0x2555 JUMP JUMPDEST DUP4 DUP6 MSTORE PUSH1 0x5 PUSH1 0x20 MSTORE PUSH1 0x3 DUP3 DUP7 KECCAK256 PUSH2 0x1C4E PUSH1 0xFF PUSH1 0x1 DUP4 ADD SLOAD AND PUSH2 0x270E JUMP JUMPDEST ADD SWAP1 DUP2 SLOAD DUP5 GT ISZERO PUSH2 0x1C8A JUMPI POP SWAP2 PUSH1 0x20 SWAP2 DUP2 PUSH32 0x9957539D9B3C3F294DA9088900BECE7540CDB76274E882913AE25BCA90B2061E SWAP5 SSTORE MLOAD SWAP1 DUP2 MSTORE LOG2 DUP1 RETURN JUMPDEST PUSH1 0x84 SWAP1 PUSH1 0x20 DUP5 MLOAD SWAP2 PUSH3 0x461BCD PUSH1 0xE5 SHL DUP4 MSTORE DUP3 ADD MSTORE PUSH1 0x36 PUSH1 0x24 DUP3 ADD MSTORE PUSH32 0x4E657720656E642074696D65206D757374206265206772656174657220746861 PUSH1 0x44 DUP3 ADD MSTORE PUSH22 0x6E207468652063757272656E7420656E642074696D65 PUSH1 0x50 SHL PUSH1 0x64 DUP3 ADD MSTORE REVERT JUMPDEST POP SWAP1 CALLVALUE PUSH2 0xCAE JUMPI PUSH1 0x20 CALLDATASIZE PUSH1 0x3 NOT ADD SLT PUSH2 0xCAE JUMPI SWAP1 PUSH1 0x20 SWAP2 PUSH2 0x1D0B PUSH2 0x22C0 JUMP JUMPDEST SWAP2 SLOAD SWAP1 MLOAD PUSH1 0x1 PUSH1 0x1 PUSH1 0xA0 SHL SUB SWAP3 DUP4 AND SWAP2 SWAP1 SWAP3 AND EQ DUP2 MSTORE RETURN JUMPDEST POP SWAP2 CALLVALUE PUSH2 0x50C JUMPI PUSH1 0x20 CALLDATASIZE PUSH1 0x3 NOT ADD SLT PUSH2 0x50C JUMPI CALLDATALOAD SWAP2 PUSH1 0x3 SLOAD DUP4 LT ISZERO PUSH2 0x510 JUMPI POP PUSH2 0x1D4E PUSH1 0x20 SWAP3 PUSH2 0x22D6 JUMP JUMPDEST PUSH1 0x1 DUP1 PUSH1 0xA0 SHL SUB SWAP2 SLOAD SWAP1 PUSH1 0x3 SHL SHR AND SWAP1 MLOAD SWAP1 DUP2 MSTORE RETURN JUMPDEST POP SWAP2 SWAP1 CALLVALUE PUSH2 0x50C JUMPI PUSH1 0x20 CALLDATASIZE PUSH1 0x3 NOT ADD SLT PUSH2 0x50C JUMPI PUSH2 0x3C0 PUSH2 0xD14 PUSH32 0x376D99D855649BD6E81E7FCE16D54AC5F2C7FADAE7B2F50B619C182AFE401BBB SWAP3 PUSH2 0x1E37 PUSH2 0x1DAB PUSH2 0x22C0 JUMP JUMPDEST PUSH2 0x1DB3 PUSH2 0x29D1 JUMP JUMPDEST PUSH2 0x1DC4 PUSH2 0x1DBF DUP3 PUSH2 0x29FD JUMP JUMPDEST PUSH2 0x2663 JUMP JUMPDEST DUP8 PUSH1 0x5 PUSH1 0x1 DUP1 PUSH1 0xA0 SHL SUB DUP4 AND SWAP9 DUP10 DUP4 MSTORE PUSH1 0x2 PUSH1 0x20 MSTORE PUSH2 0x1DED PUSH1 0x3 DUP8 DUP6 KECCAK256 ADD DUP8 MLOAD SWAP9 DUP10 DUP1 SWAP3 PUSH2 0x2440 JUMP JUMPDEST DUP10 DUP4 MSTORE PUSH1 0x2 PUSH1 0x20 MSTORE PUSH2 0x1E30 DUP7 DUP5 KECCAK256 SWAP2 PUSH2 0x1E05 DUP4 PUSH2 0x26C5 JUMP JUMPDEST PUSH2 0x1E11 PUSH1 0x1 DUP5 ADD PUSH2 0x26C5 JUMP JUMPDEST PUSH2 0x1E1D PUSH1 0x2 DUP5 ADD PUSH2 0x26C5 JUMP JUMPDEST PUSH2 0x1E29 PUSH1 0x3 DUP5 ADD PUSH2 0x26C5 JUMP JUMPDEST DUP3 ADD PUSH2 0x26C5 JUMP JUMPDEST ADD SSTORE PUSH2 0x2A49 JUMP JUMPDEST MLOAD SWAP2 DUP3 SWAP2 PUSH1 0x20 DUP4 MSTORE PUSH1 0x20 DUP4 ADD SWAP1 PUSH2 0x2230 JUMP JUMPDEST POP SWAP1 CALLVALUE PUSH2 0xCAE JUMPI PUSH1 0x20 CALLDATASIZE PUSH1 0x3 NOT ADD SLT PUSH2 0xCAE JUMPI PUSH2 0x1E64 PUSH2 0x22C0 JUMP JUMPDEST SWAP1 PUSH2 0x1E6D PUSH2 0x29D1 JUMP JUMPDEST PUSH2 0x1E79 PUSH2 0x1DBF DUP4 PUSH2 0x29FD JUMP JUMPDEST PUSH1 0x1 PUSH1 0x1 PUSH1 0xA0 SHL SUB DUP3 AND DUP1 DUP5 MSTORE PUSH1 0x2 PUSH1 0x20 MSTORE DUP2 DUP5 KECCAK256 PUSH1 0x5 ADD DUP1 SLOAD PUSH1 0xFF PUSH1 0xA0 SHL NOT AND PUSH1 0x1 PUSH1 0xA0 SHL OR SWAP1 SSTORE DUP5 SLOAD SWAP1 SWAP3 SWAP1 PUSH1 0x1 PUSH1 0x40 SHL DUP2 LT ISZERO PUSH2 0x1F16 JUMPI SWAP2 PUSH2 0x1EF5 DUP3 PUSH2 0x1EF0 PUSH2 0x3C0 SWAP5 PUSH2 0x393 DUP8 DUP12 PUSH1 0x1 PUSH32 0x5AE161FF96A81F4FA8DDD8555AB13483A0FE416F296B510E08CBB11F98F9A10E SWAP11 ADD SWAP1 SSTORE PUSH2 0x2323 JUMP JUMPDEST PUSH2 0x2A49 JUMP JUMPDEST DUP4 DUP6 MSTORE PUSH1 0x2 PUSH1 0x20 MSTORE PUSH1 0x3 DUP2 DUP7 KECCAK256 ADD SWAP1 MLOAD SWAP2 DUP3 SWAP2 PUSH1 0x20 DUP4 MSTORE PUSH1 0x20 DUP4 ADD SWAP1 PUSH2 0x2440 JUMP JUMPDEST PUSH4 0x4E487B71 PUSH1 0xE0 SHL DUP6 MSTORE PUSH1 0x41 DUP7 MSTORE PUSH1 0x24 DUP6 REVERT JUMPDEST POP SWAP2 SWAP1 CALLVALUE PUSH2 0x50C JUMPI PUSH1 0x20 CALLDATASIZE PUSH1 0x3 NOT ADD SLT PUSH2 0x50C JUMPI DUP2 CALLDATALOAD SWAP2 PUSH2 0x1F48 PUSH2 0x29D1 JUMP JUMPDEST PUSH2 0x1F56 PUSH1 0x6 SLOAD DUP5 GT ISZERO PUSH2 0x2555 JUMP JUMPDEST DUP3 DUP5 MSTORE PUSH1 0x5 PUSH1 0x20 MSTORE DUP2 DUP5 KECCAK256 SWAP1 PUSH1 0x1 DUP3 ADD SWAP3 DUP4 SLOAD SWAP3 PUSH1 0xFF DUP5 AND ISZERO PUSH2 0x1FF9 JUMPI PUSH1 0x3 ADD SLOAD TIMESTAMP LT PUSH2 0x1FAC JUMPI POP POP PUSH1 0xFF NOT AND SWAP1 SSTORE PUSH32 0x393C4B8E62F1195313CF17DCF00793C668DDFC35881CD8015559C074F6D61E83 DUP3 DUP1 LOG2 DUP1 RETURN JUMPDEST SWAP1 PUSH1 0x20 PUSH1 0x84 SWAP3 MLOAD SWAP2 PUSH3 0x461BCD PUSH1 0xE5 SHL DUP4 MSTORE DUP3 ADD MSTORE PUSH1 0x21 PUSH1 0x24 DUP3 ADD MSTORE PUSH32 0x456C656374696F6E20656E642074696D6520686173206E6F7420726561636865 PUSH1 0x44 DUP3 ADD MSTORE PUSH1 0x19 PUSH1 0xFA SHL PUSH1 0x64 DUP3 ADD MSTORE REVERT JUMPDEST DUP2 MLOAD PUSH3 0x461BCD PUSH1 0xE5 SHL DUP2 MSTORE PUSH1 0x20 DUP2 DUP6 ADD MSTORE PUSH1 0x1A PUSH1 0x24 DUP3 ADD MSTORE PUSH32 0x456C656374696F6E20697320616C726561647920636C6F736564000000000000 PUSH1 0x44 DUP3 ADD MSTORE PUSH1 0x64 SWAP1 REVERT JUMPDEST POP SWAP1 CALLVALUE PUSH2 0xCAE JUMPI PUSH2 0x204C CALLDATASIZE PUSH2 0x21DA JUMP JUMPDEST SWAP3 SWAP1 SWAP4 PUSH2 0x205D PUSH1 0x6 SLOAD DUP7 GT ISZERO PUSH2 0x2555 JUMP JUMPDEST DUP5 DUP3 MSTORE PUSH1 0x20 SWAP4 PUSH1 0x5 PUSH1 0x20 MSTORE DUP4 DUP4 KECCAK256 SWAP2 PUSH1 0x1 SWAP3 PUSH1 0xFF PUSH1 0x1 DUP3 ADD SLOAD AND PUSH2 0x210A JUMPI PUSH2 0x2087 SWAP3 SWAP2 ADD SWAP1 PUSH2 0x25A1 JUMP JUMPDEST SWAP2 DUP4 MLOAD SWAP6 PUSH2 0x209C DUP8 PUSH2 0xD14 DUP2 PUSH1 0x1 DUP9 ADD PUSH2 0x25C7 JUMP JUMPDEST PUSH2 0x20A6 DUP8 MLOAD PUSH2 0x261D JUMP JUMPDEST SWAP6 DUP3 DUP5 JUMPDEST PUSH2 0x20C5 JUMPI DUP7 MLOAD DUP10 SWAP1 PUSH2 0xD56 DUP11 DUP11 PUSH2 0xD4C DUP5 PUSH2 0xD45 DUP2 DUP15 PUSH2 0x2440 JUMP JUMPDEST DUP9 MLOAD DUP2 LT ISZERO PUSH2 0xD9F JUMPI SWAP1 DUP5 DUP3 PUSH2 0x20DE DUP3 SWAP7 SWAP6 SWAP5 DUP13 PUSH2 0x264F JUMP JUMPDEST MLOAD DUP5 DUP7 MSTORE PUSH1 0x7 DUP5 MSTORE DUP10 DUP7 KECCAK256 SWAP1 DUP7 MSTORE DUP4 MSTORE PUSH1 0x2 DUP10 DUP7 KECCAK256 ADD SLOAD PUSH2 0x20FF DUP3 DUP13 PUSH2 0x264F JUMP JUMPDEST MSTORE ADD SWAP1 SWAP2 SWAP3 SWAP4 PUSH2 0x20AA JUMP JUMPDEST DUP6 MLOAD PUSH3 0x461BCD PUSH1 0xE5 SHL DUP2 MSTORE PUSH1 0x20 DUP2 DUP5 ADD MSTORE PUSH1 0x16 PUSH1 0x24 DUP3 ADD MSTORE PUSH22 0x22B632B1BA34B7B71034B99039BA34B6361037B832B7 PUSH1 0x51 SHL PUSH1 0x44 DUP3 ADD MSTORE PUSH1 0x64 SWAP1 REVERT JUMPDEST SWAP1 PUSH1 0x1F DUP1 NOT SWAP2 ADD AND DUP2 ADD SWAP1 DUP2 LT PUSH8 0xFFFFFFFFFFFFFFFF DUP3 GT OR PUSH2 0x2168 JUMPI PUSH1 0x40 MSTORE JUMP JUMPDEST PUSH4 0x4E487B71 PUSH1 0xE0 SHL PUSH1 0x0 MSTORE PUSH1 0x41 PUSH1 0x4 MSTORE PUSH1 0x24 PUSH1 0x0 REVERT JUMPDEST DUP2 PUSH1 0x1F DUP3 ADD SLT ISZERO PUSH2 0x21D5 JUMPI DUP1 CALLDATALOAD SWAP1 PUSH8 0xFFFFFFFFFFFFFFFF DUP3 GT PUSH2 0x2168 JUMPI PUSH1 0x40 MLOAD SWAP3 PUSH2 0x21B3 PUSH1 0x1F DUP5 ADD PUSH1 0x1F NOT AND PUSH1 0x20 ADD DUP6 PUSH2 0x2146 JUMP JUMPDEST DUP3 DUP5 MSTORE PUSH1 0x20 DUP4 DUP4 ADD ADD GT PUSH2 0x21D5 JUMPI DUP2 PUSH1 0x0 SWAP3 PUSH1 0x20 DUP1 SWAP4 ADD DUP4 DUP7 ADD CALLDATACOPY DUP4 ADD ADD MSTORE SWAP1 JUMP JUMPDEST PUSH1 0x0 DUP1 REVERT JUMPDEST SWAP1 PUSH1 0x40 PUSH1 0x3 NOT DUP4 ADD SLT PUSH2 0x21D5 JUMPI PUSH1 0x4 CALLDATALOAD SWAP2 PUSH1 0x24 CALLDATALOAD SWAP1 PUSH8 0xFFFFFFFFFFFFFFFF DUP3 GT PUSH2 0x21D5 JUMPI PUSH2 0x220A SWAP2 PUSH1 0x4 ADD PUSH2 0x217E JUMP JUMPDEST SWAP1 JUMP JUMPDEST PUSH1 0x0 JUMPDEST DUP4 DUP2 LT PUSH2 0x2220 JUMPI POP POP PUSH1 0x0 SWAP2 ADD MSTORE JUMP JUMPDEST DUP2 DUP2 ADD MLOAD DUP4 DUP3 ADD MSTORE PUSH1 0x20 ADD PUSH2 0x2210 JUMP JUMPDEST SWAP1 PUSH1 0x20 SWAP2 PUSH2 0x2249 DUP2 MLOAD DUP1 SWAP3 DUP2 DUP6 MSTORE DUP6 DUP1 DUP7 ADD SWAP2 ADD PUSH2 0x220D JUMP JUMPDEST PUSH1 0x1F ADD PUSH1 0x1F NOT AND ADD ADD SWAP1 JUMP JUMPDEST SWAP1 DUP2 MLOAD DUP1 DUP3 MSTORE PUSH1 0x20 DUP1 DUP1 SWAP4 ADD SWAP4 ADD SWAP2 PUSH1 0x0 JUMPDEST DUP3 DUP2 LT PUSH2 0x2275 JUMPI POP POP POP POP SWAP1 JUMP JUMPDEST DUP4 MLOAD DUP6 MSTORE SWAP4 DUP2 ADD SWAP4 SWAP3 DUP2 ADD SWAP3 PUSH1 0x1 ADD PUSH2 0x2267 JUMP JUMPDEST SWAP2 PUSH2 0x22B2 SWAP1 PUSH2 0x22A4 PUSH2 0x220A SWAP6 SWAP4 PUSH1 0x60 DUP7 MSTORE PUSH1 0x60 DUP7 ADD SWAP1 PUSH2 0x2230 JUMP JUMPDEST SWAP1 DUP5 DUP3 SUB PUSH1 0x20 DUP7 ADD MSTORE PUSH2 0x2255 JUMP JUMPDEST SWAP2 PUSH1 0x40 DUP2 DUP5 SUB SWAP2 ADD MSTORE PUSH2 0x2255 JUMP JUMPDEST PUSH1 0x4 CALLDATALOAD SWAP1 PUSH1 0x1 PUSH1 0x1 PUSH1 0xA0 SHL SUB DUP3 AND DUP3 SUB PUSH2 0x21D5 JUMPI JUMP JUMPDEST PUSH1 0x3 SLOAD DUP2 LT ISZERO PUSH2 0x230D JUMPI PUSH1 0x3 PUSH1 0x0 MSTORE PUSH32 0xC2575A0E9E593C00F959F8C92F12DB2869C3395A3B0502D05E2516446F71F85B ADD SWAP1 PUSH1 0x0 SWAP1 JUMP JUMPDEST PUSH4 0x4E487B71 PUSH1 0xE0 SHL PUSH1 0x0 MSTORE PUSH1 0x32 PUSH1 0x4 MSTORE PUSH1 0x24 PUSH1 0x0 REVERT JUMPDEST PUSH1 0x4 SLOAD DUP2 LT ISZERO PUSH2 0x230D JUMPI PUSH1 0x4 PUSH1 0x0 MSTORE PUSH32 0x8A35ACFBC15FF81A39AE7D344FD709F28E8600B4AA8C65C6B64BFE7FE36BD19B ADD SWAP1 PUSH1 0x0 SWAP1 JUMP JUMPDEST DUP1 SLOAD DUP3 LT ISZERO PUSH2 0x230D JUMPI PUSH1 0x0 MSTORE PUSH1 0x20 PUSH1 0x0 KECCAK256 ADD SWAP1 PUSH1 0x0 SWAP1 JUMP JUMPDEST SWAP1 PUSH1 0x60 PUSH1 0x3 NOT DUP4 ADD SLT PUSH2 0x21D5 JUMPI PUSH1 0x4 CALLDATALOAD SWAP2 PUSH1 0x24 CALLDATALOAD SWAP1 PUSH8 0xFFFFFFFFFFFFFFFF DUP3 GT PUSH2 0x21D5 JUMPI PUSH2 0x23A2 SWAP2 PUSH1 0x4 ADD PUSH2 0x217E JUMP JUMPDEST SWAP1 PUSH1 0x44 CALLDATALOAD SWAP1 JUMP JUMPDEST SWAP1 DUP1 DUP3 MLOAD SWAP1 DUP2 DUP2 MSTORE PUSH1 0x20 DUP1 SWAP2 ADD SWAP3 PUSH1 0x20 DUP1 DUP5 PUSH1 0x5 SHL DUP4 ADD ADD SWAP6 ADD SWAP4 PUSH1 0x0 SWAP2 JUMPDEST DUP5 DUP4 LT PUSH2 0x23D8 JUMPI POP POP POP POP POP POP SWAP1 JUMP JUMPDEST SWAP1 SWAP2 SWAP3 SWAP4 SWAP5 SWAP6 DUP5 DUP1 PUSH2 0x23F6 PUSH1 0x1 SWAP4 PUSH1 0x1F NOT DUP7 DUP3 SUB ADD DUP8 MSTORE DUP11 MLOAD PUSH2 0x2230 JUMP JUMPDEST SWAP9 ADD SWAP4 ADD SWAP4 ADD SWAP2 SWAP5 SWAP4 SWAP3 SWAP1 PUSH2 0x23C8 JUMP JUMPDEST SWAP1 PUSH1 0x1 DUP3 DUP2 SHR SWAP3 AND DUP1 ISZERO PUSH2 0x2436 JUMPI JUMPDEST PUSH1 0x20 DUP4 LT EQ PUSH2 0x2420 JUMPI JUMP JUMPDEST PUSH4 0x4E487B71 PUSH1 0xE0 SHL PUSH1 0x0 MSTORE PUSH1 0x22 PUSH1 0x4 MSTORE PUSH1 0x24 PUSH1 0x0 REVERT JUMPDEST SWAP2 PUSH1 0x7F AND SWAP2 PUSH2 0x2415 JUMP JUMPDEST DUP1 SLOAD PUSH1 0x0 SWAP4 SWAP3 PUSH2 0x244F DUP3 PUSH2 0x2406 JUMP JUMPDEST SWAP2 DUP3 DUP3 MSTORE PUSH1 0x20 SWAP4 PUSH1 0x1 SWAP2 PUSH1 0x1 DUP2 AND SWAP1 DUP2 PUSH1 0x0 EQ PUSH2 0x24B7 JUMPI POP PUSH1 0x1 EQ PUSH2 0x2476 JUMPI JUMPDEST POP POP POP POP POP JUMP JUMPDEST SWAP1 SWAP4 SWAP5 SWAP6 POP PUSH1 0x0 SWAP3 SWAP2 SWAP3 MSTORE DUP4 PUSH1 0x0 KECCAK256 SWAP3 DUP5 PUSH1 0x0 SWAP5 JUMPDEST DUP4 DUP7 LT PUSH2 0x24A3 JUMPI POP POP POP POP ADD ADD SWAP1 CODESIZE DUP1 DUP1 DUP1 DUP1 PUSH2 0x246F JUMP JUMPDEST DUP1 SLOAD DUP6 DUP8 ADD DUP4 ADD MSTORE SWAP5 ADD SWAP4 DUP6 SWAP1 DUP3 ADD PUSH2 0x248B JUMP JUMPDEST PUSH1 0xFF NOT AND DUP7 DUP6 ADD MSTORE POP POP POP SWAP1 ISZERO ISZERO PUSH1 0x5 SHL ADD ADD SWAP2 POP CODESIZE DUP1 DUP1 DUP1 DUP1 PUSH2 0x246F JUMP JUMPDEST SWAP7 SWAP4 PUSH2 0x251B PUSH2 0x2537 SWAP5 PUSH2 0x250D PUSH1 0xE0 SWAP10 SWAP13 SWAP12 SWAP9 SWAP6 PUSH2 0x24FF PUSH2 0x2529 SWAP7 DUP14 PUSH2 0x100 SWAP1 DUP2 DUP2 MSTORE ADD SWAP1 PUSH2 0x2230 JUMP JUMPDEST DUP13 DUP2 SUB PUSH1 0x20 DUP15 ADD MSTORE SWAP1 PUSH2 0x2230 JUMP JUMPDEST SWAP1 DUP11 DUP3 SUB PUSH1 0x40 DUP13 ADD MSTORE PUSH2 0x2230 JUMP JUMPDEST SWAP1 DUP9 DUP3 SUB PUSH1 0x60 DUP11 ADD MSTORE PUSH2 0x2230 JUMP JUMPDEST SWAP1 DUP7 DUP3 SUB PUSH1 0x80 DUP9 ADD MSTORE PUSH2 0x2230 JUMP JUMPDEST PUSH1 0x1 PUSH1 0x1 PUSH1 0xA0 SHL SUB SWAP1 SWAP7 AND PUSH1 0xA0 DUP6 ADD MSTORE ISZERO ISZERO PUSH1 0xC0 DUP5 ADD MSTORE ISZERO ISZERO SWAP2 ADD MSTORE JUMP JUMPDEST ISZERO PUSH2 0x255C JUMPI JUMP JUMPDEST PUSH1 0x40 MLOAD PUSH3 0x461BCD PUSH1 0xE5 SHL DUP2 MSTORE PUSH1 0x20 PUSH1 0x4 DUP3 ADD MSTORE PUSH1 0x17 PUSH1 0x24 DUP3 ADD MSTORE PUSH32 0x456C656374696F6E20646F6573206E6F74206578697374000000000000000000 PUSH1 0x44 DUP3 ADD MSTORE PUSH1 0x64 SWAP1 REVERT JUMPDEST PUSH1 0x20 SWAP1 PUSH2 0x25BB SWAP3 DUP3 PUSH1 0x40 MLOAD SWAP5 DUP4 DUP7 DUP1 SWAP6 MLOAD SWAP4 DUP5 SWAP3 ADD PUSH2 0x220D JUMP JUMPDEST DUP3 ADD SWAP1 DUP2 MSTORE SUB ADD SWAP1 KECCAK256 SWAP1 JUMP JUMPDEST SWAP1 DUP2 SLOAD DUP1 DUP3 MSTORE PUSH1 0x20 DUP1 SWAP3 ADD SWAP3 PUSH1 0x0 MSTORE PUSH1 0x20 PUSH1 0x0 KECCAK256 SWAP2 PUSH1 0x0 SWAP1 JUMPDEST DUP3 DUP3 LT PUSH2 0x25EE JUMPI POP POP POP POP SWAP1 JUMP JUMPDEST DUP4 SLOAD DUP6 MSTORE SWAP4 DUP5 ADD SWAP4 PUSH1 0x1 SWAP4 DUP5 ADD SWAP4 SWAP1 SWAP2 ADD SWAP1 PUSH2 0x25E0 JUMP JUMPDEST PUSH8 0xFFFFFFFFFFFFFFFF DUP2 GT PUSH2 0x2168 JUMPI PUSH1 0x5 SHL PUSH1 0x20 ADD SWAP1 JUMP JUMPDEST SWAP1 PUSH2 0x2627 DUP3 PUSH2 0x2605 JUMP JUMPDEST PUSH2 0x2634 PUSH1 0x40 MLOAD SWAP2 DUP3 PUSH2 0x2146 JUMP JUMPDEST DUP3 DUP2 MSTORE DUP1 SWAP3 PUSH2 0x2645 PUSH1 0x1F NOT SWAP2 PUSH2 0x2605 JUMP JUMPDEST ADD SWAP1 PUSH1 0x20 CALLDATASIZE SWAP2 ADD CALLDATACOPY JUMP JUMPDEST DUP1 MLOAD DUP3 LT ISZERO PUSH2 0x230D JUMPI PUSH1 0x20 SWAP2 PUSH1 0x5 SHL ADD ADD SWAP1 JUMP JUMPDEST ISZERO PUSH2 0x266A JUMPI JUMP JUMPDEST PUSH1 0x64 PUSH1 0x40 MLOAD PUSH3 0x461BCD PUSH1 0xE5 SHL DUP2 MSTORE PUSH1 0x20 PUSH1 0x4 DUP3 ADD MSTORE PUSH1 0x20 PUSH1 0x24 DUP3 ADD MSTORE PUSH32 0x566F746572206973206E6F7420696E207468652070656E64696E67206C697374 PUSH1 0x44 DUP3 ADD MSTORE REVERT JUMPDEST DUP2 DUP2 LT PUSH2 0x26B9 JUMPI POP POP JUMP JUMPDEST PUSH1 0x0 DUP2 SSTORE PUSH1 0x1 ADD PUSH2 0x26AE JUMP JUMPDEST PUSH2 0x26CF DUP2 SLOAD PUSH2 0x2406 JUMP JUMPDEST SWAP1 DUP2 PUSH2 0x26D9 JUMPI POP POP JUMP JUMPDEST DUP2 PUSH1 0x1F PUSH1 0x0 SWAP4 GT PUSH1 0x1 EQ PUSH2 0x26EB JUMPI POP SSTORE JUMP JUMPDEST SWAP1 DUP1 DUP4 SWAP2 DUP3 MSTORE PUSH2 0x270A PUSH1 0x1F PUSH1 0x20 DUP5 KECCAK256 SWAP5 ADD PUSH1 0x5 SHR DUP5 ADD PUSH1 0x1 DUP6 ADD PUSH2 0x26AE JUMP JUMPDEST SSTORE SSTORE JUMP JUMPDEST ISZERO PUSH2 0x2715 JUMPI JUMP JUMPDEST PUSH1 0x40 MLOAD PUSH3 0x461BCD PUSH1 0xE5 SHL DUP2 MSTORE PUSH1 0x20 PUSH1 0x4 DUP3 ADD MSTORE PUSH1 0x14 PUSH1 0x24 DUP3 ADD MSTORE PUSH20 0x22B632B1BA34B7B71034B9903737BA1037B832B7 PUSH1 0x61 SHL PUSH1 0x44 DUP3 ADD MSTORE PUSH1 0x64 SWAP1 REVERT JUMPDEST ISZERO PUSH2 0x2758 JUMPI JUMP JUMPDEST PUSH1 0x40 MLOAD PUSH3 0x461BCD PUSH1 0xE5 SHL DUP2 MSTORE PUSH1 0x20 PUSH1 0x4 DUP3 ADD MSTORE PUSH1 0x17 PUSH1 0x24 DUP3 ADD MSTORE PUSH32 0x506F736974696F6E20646F6573206E6F74206578697374000000000000000000 PUSH1 0x44 DUP3 ADD MSTORE PUSH1 0x64 SWAP1 REVERT JUMPDEST ISZERO PUSH2 0x27A4 JUMPI JUMP JUMPDEST PUSH1 0x40 MLOAD PUSH3 0x461BCD PUSH1 0xE5 SHL DUP2 MSTORE PUSH1 0x20 PUSH1 0x4 DUP3 ADD MSTORE PUSH1 0x1C PUSH1 0x24 DUP3 ADD MSTORE PUSH32 0x456C656374696F6E2068617320616C7265616479207374617274656400000000 PUSH1 0x44 DUP3 ADD MSTORE PUSH1 0x64 SWAP1 REVERT JUMPDEST ISZERO PUSH2 0x27F0 JUMPI JUMP JUMPDEST PUSH1 0x40 MLOAD PUSH3 0x461BCD PUSH1 0xE5 SHL DUP2 MSTORE PUSH1 0x20 PUSH1 0x4 DUP3 ADD MSTORE PUSH1 0x1D PUSH1 0x24 DUP3 ADD MSTORE PUSH32 0x43616E64696461746520697320616C726561647920617070726F766564000000 PUSH1 0x44 DUP3 ADD MSTORE PUSH1 0x64 SWAP1 REVERT JUMPDEST ISZERO PUSH2 0x283C JUMPI JUMP JUMPDEST PUSH1 0x40 MLOAD PUSH3 0x461BCD PUSH1 0xE5 SHL DUP2 MSTORE PUSH1 0x20 PUSH1 0x4 DUP3 ADD MSTORE PUSH1 0x1A PUSH1 0x24 DUP3 ADD MSTORE PUSH32 0x456C656374696F6E2068617320616C726561647920656E646564000000000000 PUSH1 0x44 DUP3 ADD MSTORE PUSH1 0x64 SWAP1 REVERT JUMPDEST SWAP2 SWAP1 SWAP2 DUP3 MLOAD PUSH8 0xFFFFFFFFFFFFFFFF DUP2 GT PUSH2 0x2168 JUMPI PUSH2 0x289F DUP3 SLOAD PUSH2 0x2406 JUMP JUMPDEST PUSH1 0x1F DUP2 GT PUSH2 0x294A JUMPI JUMPDEST POP PUSH1 0x20 DUP1 PUSH1 0x1F DUP4 GT PUSH1 0x1 EQ PUSH2 0x28E5 JUMPI POP DUP2 SWAP3 SWAP4 SWAP5 PUSH1 0x0 SWAP3 PUSH2 0x28DA JUMPI JUMPDEST POP POP DUP2 PUSH1 0x1 SHL SWAP2 PUSH1 0x0 NOT SWAP1 PUSH1 0x3 SHL SHR NOT AND OR SWAP1 SSTORE JUMP JUMPDEST ADD MLOAD SWAP1 POP CODESIZE DUP1 PUSH2 0x28C4 JUMP JUMPDEST SWAP1 PUSH1 0x1F NOT DUP4 AND SWAP6 DUP5 PUSH1 0x0 MSTORE PUSH1 0x20 PUSH1 0x0 KECCAK256 SWAP3 PUSH1 0x0 SWAP1 JUMPDEST DUP9 DUP3 LT PUSH2 0x2932 JUMPI POP POP DUP4 PUSH1 0x1 SWAP6 SWAP7 SWAP8 LT PUSH2 0x2919 JUMPI JUMPDEST POP POP POP DUP2 SHL ADD SWAP1 SSTORE JUMP JUMPDEST ADD MLOAD PUSH1 0x0 NOT PUSH1 0xF8 DUP5 PUSH1 0x3 SHL AND SHR NOT AND SWAP1 SSTORE CODESIZE DUP1 DUP1 PUSH2 0x290F JUMP JUMPDEST DUP1 PUSH1 0x1 DUP6 SWAP7 DUP3 SWAP5 SWAP7 DUP7 ADD MLOAD DUP2 SSTORE ADD SWAP6 ADD SWAP4 ADD SWAP1 PUSH2 0x28FA JUMP JUMPDEST PUSH2 0x2977 SWAP1 DUP4 PUSH1 0x0 MSTORE PUSH1 0x20 PUSH1 0x0 KECCAK256 PUSH1 0x1F DUP5 ADD PUSH1 0x5 SHR DUP2 ADD SWAP2 PUSH1 0x20 DUP6 LT PUSH2 0x297D JUMPI JUMPDEST PUSH1 0x1F ADD PUSH1 0x5 SHR ADD SWAP1 PUSH2 0x26AE JUMP JUMPDEST CODESIZE PUSH2 0x28A8 JUMP JUMPDEST SWAP1 SWAP2 POP DUP2 SWAP1 PUSH2 0x296A JUMP JUMPDEST PUSH1 0x0 NOT DUP2 EQ PUSH2 0x2996 JUMPI PUSH1 0x1 ADD SWAP1 JUMP JUMPDEST PUSH4 0x4E487B71 PUSH1 0xE0 SHL PUSH1 0x0 MSTORE PUSH1 0x11 PUSH1 0x4 MSTORE PUSH1 0x24 PUSH1 0x0 REVERT JUMPDEST SWAP1 SWAP2 PUSH2 0x29C3 PUSH2 0x220A SWAP4 PUSH1 0x40 DUP5 MSTORE PUSH1 0x40 DUP5 ADD SWAP1 PUSH2 0x2230 JUMP JUMPDEST SWAP2 PUSH1 0x20 DUP2 DUP5 SUB SWAP2 ADD MSTORE PUSH2 0x2230 JUMP JUMPDEST PUSH1 0x0 SLOAD PUSH1 0x1 PUSH1 0x1 PUSH1 0xA0 SHL SUB AND CALLER SUB PUSH2 0x29E5 JUMPI JUMP JUMPDEST PUSH1 0x40 MLOAD PUSH4 0x118CDAA7 PUSH1 0xE0 SHL DUP2 MSTORE CALLER PUSH1 0x4 DUP3 ADD MSTORE PUSH1 0x24 SWAP1 REVERT JUMPDEST PUSH1 0x0 SWAP1 PUSH1 0x3 DUP1 SLOAD SWAP3 JUMPDEST DUP4 DUP2 LT PUSH2 0x2A16 JUMPI POP POP POP POP PUSH1 0x0 SWAP1 JUMP JUMPDEST PUSH2 0x2A1F DUP2 PUSH2 0x22D6 JUMP JUMPDEST SWAP1 SLOAD SWAP1 DUP4 SHL SHR PUSH1 0x1 PUSH1 0x1 PUSH1 0xA0 SHL SUB SWAP1 DUP2 AND SWAP1 DUP5 AND EQ PUSH2 0x2A40 JUMPI PUSH1 0x1 ADD PUSH2 0x2A06 JUMP JUMPDEST POP POP POP POP PUSH1 0x1 SWAP1 JUMP JUMPDEST PUSH1 0x0 SWAP1 JUMPDEST PUSH1 0x3 SWAP2 DUP3 SLOAD SWAP3 DUP4 DUP3 LT ISZERO PUSH2 0x2AEF JUMPI PUSH2 0x2A64 DUP3 PUSH2 0x22D6 JUMP JUMPDEST SWAP1 SLOAD PUSH1 0x1 PUSH1 0x1 PUSH1 0xA0 SHL SUB SWAP6 SWAP2 DUP4 SHL SHR DUP6 AND DUP5 DUP7 AND EQ PUSH2 0x2A89 JUMPI POP POP PUSH1 0x1 ADD SWAP2 POP PUSH2 0x2A4D JUMP JUMPDEST SWAP1 SWAP3 POP PUSH1 0x0 NOT SWAP2 DUP3 DUP3 ADD SWAP2 DUP3 GT PUSH2 0x2996 JUMPI PUSH2 0x393 DUP6 PUSH2 0x2AAA PUSH2 0x2AB7 SWAP5 PUSH2 0x22D6 JUMP JUMPDEST SWAP1 SLOAD SWAP1 DUP8 SHL SHR AND SWAP2 PUSH2 0x22D6 JUMP JUMPDEST DUP2 SLOAD DUP1 ISZERO PUSH2 0x2AD9 JUMPI ADD SWAP2 PUSH2 0x2ACA DUP4 PUSH2 0x22D6 JUMP JUMPDEST SWAP1 SWAP2 DUP3 SLOAD SWAP2 DUP5 SHL SHL NOT AND SWAP1 SSTORE SSTORE JUMP JUMPDEST PUSH4 0x4E487B71 PUSH1 0xE0 SHL PUSH1 0x0 MSTORE PUSH1 0x31 PUSH1 0x4 MSTORE PUSH1 0x24 PUSH1 0x0 REVERT JUMPDEST POP POP POP POP JUMP JUMPDEST SWAP1 PUSH1 0x0 JUMPDEST DUP3 MLOAD DUP2 LT ISZERO PUSH2 0x2B23 JUMPI DUP2 PUSH2 0x2B0D DUP3 DUP6 PUSH2 0x264F JUMP JUMPDEST MLOAD EQ PUSH2 0x2B1B JUMPI PUSH1 0x1 ADD PUSH2 0x2AF9 JUMP JUMPDEST POP POP POP PUSH1 0x1 SWAP1 JUMP JUMPDEST POP POP POP PUSH1 0x0 SWAP1 JUMP INVALID LOG2 PUSH5 0x6970667358 0x22 SLT KECCAK256 0xD MSTORE8 CALLVALUE 0xEE DIV 0xEB TSTORE LOG1 SELFDESTRUCT 0x4D PUSH26 0x846D9DA20E8A6A63D9C1E3FA57309EC8BC6EA8B9C364736F6C63 NUMBER STOP ADDMOD XOR STOP CALLER "},"methodIdentifiers":{"approveCandidate(uint256,string,uint256)":"4f333369","approveVoter(address)":"119d4ddb","approvedVoters(uint256)":"aed93010","candidateCounts(uint256)":"5824bf30","closeElection(uint256)":"09e33d07","createElection(string,uint256,uint256)":"f49a7a17","createPosition(uint256,string)":"760b5b23","electionCount()":"997d2830","electionEnded()":"c94ca9e3","electionStarted()":"d5346da1","elections(uint256)":"5e6fef01","endElection()":"59f78468","extendElectionTime(uint256,uint256)":"4da3fe5a","getApprovedVoters(uint256)":"f452130b","getElection(uint256)":"9d710777","getElectionProgress(uint256,string)":"d6c79eaa","getElectionResult(uint256,string)":"0003a3d1","getPendingVoters()":"c3322d09","getRegisteredCandidates(uint256,string)":"51090d33","getVoter(address)":"d4f50f98","isOwner(address)":"2f54bf6e","openElection(uint256)":"9a1d5956","owner()":"8da5cb5b","pendingVoters(uint256)":"24a9267b","registerCandidate(uint256,string,string)":"bd5b5faf","registerVoter(string,string,string,string,string,address)":"ff9e50fe","rejectCandidate(uint256,string,uint256)":"f309ed15","rejectVoter(address)":"1b04772b","renounceOwnership()":"715018a6","startElection()":"62d73eb8","transferOwnership(address)":"f2fde38b","vote(uint256,string,uint256)":"f0f45457","voters(address)":"a3ec138d"}}}}}