{"contracts/Voting.sol":{"Voting":{"abi":[{"inputs":[],"stateMutability":"nonpayable","type":"constructor"},{"inputs":[{"internalType":"address","name":"owner","type":"address"}],"name":"OwnableInvalidOwner","type":"error"},{"inputs":[{"internalType":"address","name":"account","type":"address"}],"name":"OwnableUnauthorizedAccount","type":"error"},{"inputs":[],"name":"ReentrancyGuardReentrantCall","type":"error"},{"anonymous":false,"inputs":[{"indexed":true,"internalType":"uint256","name":"electionId","type":"uint256"},{"indexed":false,"internalType":"string","name":"positionName","type":"string"},{"indexed":false,"internalType":"string[]","name":"candidateNames","type":"string[]"}],"name":"CandidatesAdded","type":"event"},{"anonymous":false,"inputs":[{"indexed":true,"internalType":"uint256","name":"electionId","type":"uint256"}],"name":"ElectionClosed","type":"event"},{"anonymous":false,"inputs":[{"indexed":true,"internalType":"uint256","name":"electionId","type":"uint256"},{"indexed":false,"internalType":"string","name":"name","type":"string"}],"name":"ElectionCreated","type":"event"},{"anonymous":false,"inputs":[],"name":"ElectionEnded","type":"event"},{"anonymous":false,"inputs":[{"indexed":true,"internalType":"uint256","name":"electionId","type":"uint256"}],"name":"ElectionOpened","type":"event"},{"anonymous":false,"inputs":[],"name":"ElectionStarted","type":"event"},{"anonymous":false,"inputs":[{"indexed":true,"internalType":"address","name":"previousOwner","type":"address"},{"indexed":true,"internalType":"address","name":"newOwner","type":"address"}],"name":"OwnershipTransferred","type":"event"},{"anonymous":false,"inputs":[{"indexed":true,"internalType":"uint256","name":"electionId","type":"uint256"},{"indexed":false,"internalType":"string","name":"positionName","type":"string"}],"name":"PositionCreated","type":"event"},{"anonymous":false,"inputs":[],"name":"RegisteredAddressesReset","type":"event"},{"anonymous":false,"inputs":[{"indexed":true,"internalType":"uint256","name":"electionId","type":"uint256"},{"indexed":true,"internalType":"address","name":"voterAddress","type":"address"},{"indexed":false,"internalType":"string","name":"positionName","type":"string"},{"indexed":true,"internalType":"uint256","name":"candidateId","type":"uint256"}],"name":"VoteCast","type":"event"},{"anonymous":false,"inputs":[{"indexed":true,"internalType":"address","name":"voterAddress","type":"address"},{"indexed":false,"internalType":"string","name":"email","type":"string"}],"name":"VoterApproved","type":"event"},{"anonymous":false,"inputs":[{"indexed":true,"internalType":"address","name":"voterAddress","type":"address"},{"indexed":false,"internalType":"string","name":"email","type":"string"}],"name":"VoterRegistered","type":"event"},{"anonymous":false,"inputs":[{"indexed":true,"internalType":"address","name":"voterAddress","type":"address"},{"indexed":false,"internalType":"string","name":"email","type":"string"}],"name":"VoterRejected","type":"event"},{"inputs":[{"internalType":"uint256","name":"_electionId","type":"uint256"},{"internalType":"string","name":"_positionName","type":"string"},{"internalType":"string[]","name":"_candidateNames","type":"string[]"}],"name":"addCandidates","outputs":[],"stateMutability":"nonpayable","type":"function"},{"inputs":[{"internalType":"address","name":"_voterAddress","type":"address"}],"name":"approveVoter","outputs":[],"stateMutability":"nonpayable","type":"function"},{"inputs":[{"internalType":"uint256","name":"","type":"uint256"}],"name":"approvedVoters","outputs":[{"internalType":"address","name":"","type":"address"}],"stateMutability":"view","type":"function"},{"inputs":[{"internalType":"uint256","name":"","type":"uint256"}],"name":"candidateCounts","outputs":[{"internalType":"uint256","name":"","type":"uint256"}],"stateMutability":"view","type":"function"},{"inputs":[{"internalType":"uint256","name":"_electionId","type":"uint256"}],"name":"closeElection","outputs":[],"stateMutability":"nonpayable","type":"function"},{"inputs":[{"internalType":"string","name":"_name","type":"string"},{"internalType":"uint256","name":"_startTime","type":"uint256"},{"internalType":"uint256","name":"_endTime","type":"uint256"}],"name":"createElection","outputs":[],"stateMutability":"nonpayable","type":"function"},{"inputs":[{"internalType":"uint256","name":"_electionId","type":"uint256"},{"internalType":"string","name":"_positionName","type":"string"}],"name":"createPosition","outputs":[],"stateMutability":"nonpayable","type":"function"},{"inputs":[],"name":"electionCount","outputs":[{"internalType":"uint256","name":"","type":"uint256"}],"stateMutability":"view","type":"function"},{"inputs":[],"name":"electionEnded","outputs":[{"internalType":"bool","name":"","type":"bool"}],"stateMutability":"view","type":"function"},{"inputs":[],"name":"electionStarted","outputs":[{"internalType":"bool","name":"","type":"bool"}],"stateMutability":"view","type":"function"},{"inputs":[{"internalType":"uint256","name":"","type":"uint256"}],"name":"elections","outputs":[{"internalType":"string","name":"name","type":"string"},{"internalType":"bool","name":"isOpen","type":"bool"},{"internalType":"uint256","name":"startTime","type":"uint256"},{"internalType":"uint256","name":"endTime","type":"uint256"}],"stateMutability":"view","type":"function"},{"inputs":[],"name":"endElection","outputs":[],"stateMutability":"nonpayable","type":"function"},{"inputs":[{"internalType":"uint256","name":"index","type":"uint256"}],"name":"getApprovedVoters","outputs":[{"internalType":"address","name":"","type":"address"}],"stateMutability":"view","type":"function"},{"inputs":[{"internalType":"uint256","name":"_electionId","type":"uint256"}],"name":"getElection","outputs":[{"internalType":"string","name":"","type":"string"},{"internalType":"bool","name":"","type":"bool"},{"internalType":"uint256","name":"","type":"uint256"},{"internalType":"uint256","name":"","type":"uint256"},{"internalType":"string[]","name":"","type":"string[]"}],"stateMutability":"view","type":"function"},{"inputs":[{"internalType":"uint256","name":"_electionId","type":"uint256"},{"internalType":"string","name":"_positionName","type":"string"}],"name":"getElectionProgress","outputs":[{"internalType":"string","name":"","type":"string"},{"internalType":"uint256[]","name":"","type":"uint256[]"},{"internalType":"uint256[]","name":"","type":"uint256[]"}],"stateMutability":"view","type":"function"},{"inputs":[{"internalType":"uint256","name":"_electionId","type":"uint256"},{"internalType":"string","name":"_positionName","type":"string"}],"name":"getElectionResult","outputs":[{"internalType":"string","name":"","type":"string"},{"internalType":"uint256[]","name":"","type":"uint256[]"},{"internalType":"uint256[]","name":"","type":"uint256[]"}],"stateMutability":"view","type":"function"},{"inputs":[],"name":"getPendingVoters","outputs":[{"internalType":"address[]","name":"","type":"address[]"}],"stateMutability":"view","type":"function"},{"inputs":[{"internalType":"address","name":"_voterAddress","type":"address"}],"name":"getVoter","outputs":[{"internalType":"string","name":"","type":"string"},{"internalType":"string","name":"","type":"string"},{"internalType":"string","name":"","type":"string"},{"internalType":"string","name":"","type":"string"},{"internalType":"string","name":"","type":"string"},{"internalType":"address","name":"","type":"address"},{"internalType":"bool","name":"","type":"bool"},{"internalType":"bool","name":"","type":"bool"}],"stateMutability":"view","type":"function"},{"inputs":[{"internalType":"address","name":"_address","type":"address"}],"name":"isOwner","outputs":[{"internalType":"bool","name":"","type":"bool"}],"stateMutability":"view","type":"function"},{"inputs":[{"internalType":"uint256","name":"_electionId","type":"uint256"}],"name":"openElection","outputs":[],"stateMutability":"nonpayable","type":"function"},{"inputs":[],"name":"owner","outputs":[{"internalType":"address","name":"","type":"address"}],"stateMutability":"view","type":"function"},{"inputs":[{"internalType":"uint256","name":"","type":"uint256"}],"name":"pendingVoters","outputs":[{"internalType":"address","name":"","type":"address"}],"stateMutability":"view","type":"function"},{"inputs":[{"internalType":"string","name":"_firstName","type":"string"},{"internalType":"string","name":"_lastName","type":"string"},{"internalType":"string","name":"_registrationNumber","type":"string"},{"internalType":"string","name":"_email","type":"string"},{"internalType":"string","name":"_phoneNumber","type":"string"},{"internalType":"address","name":"_metamaskAddress","type":"address"}],"name":"registerVoter","outputs":[],"stateMutability":"nonpayable","type":"function"},{"inputs":[{"internalType":"address","name":"_voterAddress","type":"address"}],"name":"rejectVoter","outputs":[],"stateMutability":"nonpayable","type":"function"},{"inputs":[],"name":"renounceOwnership","outputs":[],"stateMutability":"nonpayable","type":"function"},{"inputs":[],"name":"resetRegisteredAddresses","outputs":[],"stateMutability":"nonpayable","type":"function"},{"inputs":[],"name":"startElection","outputs":[],"stateMutability":"nonpayable","type":"function"},{"inputs":[{"internalType":"address","name":"newOwner","type":"address"}],"name":"transferOwnership","outputs":[],"stateMutability":"nonpayable","type":"function"},{"inputs":[{"internalType":"uint256","name":"_electionId","type":"uint256"},{"internalType":"string","name":"_positionName","type":"string"},{"internalType":"uint256","name":"_candidateId","type":"uint256"}],"name":"vote","outputs":[],"stateMutability":"nonpayable","type":"function"},{"inputs":[{"internalType":"address","name":"","type":"address"}],"name":"voters","outputs":[{"internalType":"string","name":"firstName","type":"string"},{"internalType":"string","name":"lastName","type":"string"},{"internalType":"string","name":"registrationNumber","type":"string"},{"internalType":"string","name":"email","type":"string"},{"internalType":"string","name":"phoneNumber","type":"string"},{"internalType":"address","name":"metamaskAddress","type":"address"},{"internalType":"bool","name":"approved","type":"bool"},{"internalType":"bool","name":"voted","type":"bool"}],"stateMutability":"view","type":"function"}],"evm":{"bytecode":{"linkReferences":{},"object":"60806040523480156200001157600080fd5b5033600073ffffffffffffffffffffffffffffffffffffffff168173ffffffffffffffffffffffffffffffffffffffff1603620000885760006040517f1e4fbdf70000000000000000000000000000000000000000000000000000000081526004016200007f9190620001b0565b60405180910390fd5b6200009981620000a760201b60201c565b5060018081905550620001cd565b60008060009054906101000a900473ffffffffffffffffffffffffffffffffffffffff169050816000806101000a81548173ffffffffffffffffffffffffffffffffffffffff021916908373ffffffffffffffffffffffffffffffffffffffff1602179055508173ffffffffffffffffffffffffffffffffffffffff168173ffffffffffffffffffffffffffffffffffffffff167f8be0079c531659141344cd1fd0a4f28419497f9722a3daafe3b4186f6b6457e060405160405180910390a35050565b600073ffffffffffffffffffffffffffffffffffffffff82169050919050565b600062000198826200016b565b9050919050565b620001aa816200018b565b82525050565b6000602082019050620001c760008301846200019f565b92915050565b61575580620001dd6000396000f3fe608060405234801561001057600080fd5b50600436106101d95760003560e01c8063997d283011610104578063d4f50f98116100a2578063f2fde38b11610071578063f2fde38b14610559578063f452130b14610575578063f49a7a17146105a5578063ff9e50fe146105c1576101d9565b8063d4f50f98146104b6578063d5346da1146104ed578063d6c79eaa1461050b578063f0f454571461053d576101d9565b8063a3ec138d116100de578063a3ec138d14610413578063aed930101461044a578063c3322d091461047a578063c94ca9e314610498576101d9565b8063997d2830146103a55780639a1d5956146103c35780639d710777146103df576101d9565b80635824bf301161017c578063715018a61161014b578063715018a614610345578063760b5b231461034f5780637da3b49a1461036b5780638da5cb5b14610387576101d9565b80635824bf30146102ce57806359f78468146102fe5780635e6fef011461030857806362d73eb81461033b576101d9565b80631b04772b116101b85780631b04772b1461024857806324a9267b146102645780632f54bf6e146102945780633cfe3a37146102c4576101d9565b806203a3d1146101de57806309e33d0714610210578063119d4ddb1461022c575b600080fd5b6101f860048036038101906101f39190613b63565b6105dd565b60405161020793929190613cfc565b60405180910390f35b61022a60048036038101906102259190613d48565b61087f565b005b61024660048036038101906102419190613dd3565b6109cb565b005b610262600480360381019061025d9190613dd3565b610b74565b005b61027e60048036038101906102799190613d48565b610dcf565b60405161028b9190613e0f565b60405180910390f35b6102ae60048036038101906102a99190613dd3565b610e0e565b6040516102bb9190613e45565b60405180910390f35b6102cc610e4d565b005b6102e860048036038101906102e39190613d48565b611219565b6040516102f59190613e6f565b60405180910390f35b610306611231565b005b610322600480360381019061031d9190613d48565b611321565b6040516103329493929190613e8a565b60405180910390f35b6103436113e6565b005b61034d6114d7565b005b61036960048036038101906103649190613b63565b6114eb565b005b61038560048036038101906103809190613fbc565b6116bd565b005b61038f611aee565b60405161039c9190613e0f565b60405180910390f35b6103ad611b17565b6040516103ba9190613e6f565b60405180910390f35b6103dd60048036038101906103d89190613d48565b611b1d565b005b6103f960048036038101906103f49190613d48565b611c6a565b60405161040a959493929190614153565b60405180910390f35b61042d60048036038101906104289190613dd3565b611e68565b6040516104419897969594939291906141b4565b60405180910390f35b610464600480360381019061045f9190613d48565b612192565b6040516104719190613e0f565b60405180910390f35b6104826121d1565b60405161048f9190614313565b60405180910390f35b6104a061225f565b6040516104ad9190613e45565b60405180910390f35b6104d060048036038101906104cb9190613dd3565b612272565b6040516104e49897969594939291906141b4565b60405180910390f35b6104f5612722565b6040516105029190613e45565b60405180910390f35b61052560048036038101906105209190613b63565b612735565b60405161053493929190613cfc565b60405180910390f35b61055760048036038101906105529190614335565b6129d6565b005b610573600480360381019061056e9190613dd3565b612ec0565b005b61058f600480360381019061058a9190613d48565b612f46565b60405161059c9190613e0f565b60405180910390f35b6105bf60048036038101906105ba91906143a4565b612fd5565b005b6105db60048036038101906105d69190614413565b613107565b005b606080606084600654811115610628576040517f08c379a000000000000000000000000000000000000000000000000000000000815260040161061f90614578565b60405180910390fd5b60006005600088815260200190815260200160002090508060010160009054906101000a900460ff1615610691576040517f08c379a0000000000000000000000000000000000000000000000000000000008152600401610688906145e4565b60405180910390fd5b600081600401876040516106a59190614640565b9081526020016040518091039020905060008160010180548060200260200160405190810160405280929190818152602001828054801561070557602002820191906000526020600020905b8154815260200190600101908083116106f1575b505050505090506000815167ffffffffffffffff81111561072957610728613a38565b5b6040519080825280602002602001820160405280156107575781602001602082028036833780820191505090505b50905060005b82518110156107da57600083828151811061077b5761077a614657565b5b60200260200101519050600760008d81526020019081526020016000206000828152602001908152602001600020600201548383815181106107c0576107bf614657565b5b60200260200101818152505050808060010191505061075d565b508260000182828280546107ed906146b5565b80601f0160208091040260200160405190810160405280929190818152602001828054610819906146b5565b80156108665780601f1061083b57610100808354040283529160200191610866565b820191906000526020600020905b81548152906001019060200180831161084957829003601f168201915b5050505050925097509750975050505050509250925092565b610887613476565b806006548111156108cd576040517f08c379a00000000000000000000000000000000000000000000000000000000081526004016108c490614578565b60405180910390fd5b60006005600084815260200190815260200160002090508060010160009054906101000a900460ff16610935576040517f08c379a000000000000000000000000000000000000000000000000000000000815260040161092c90614732565b60405180910390fd5b428160030154111561097c576040517f08c379a0000000000000000000000000000000000000000000000000000000008152600401610973906147c4565b60405180910390fd5b60008160010160006101000a81548160ff021916908315150217905550827f393c4b8e62f1195313cf17dcf00793c668ddfc35881cd8015559c074f6d61e8360405160405180910390a2505050565b6109d3613476565b6109dc816134fd565b610a1b576040517f08c379a0000000000000000000000000000000000000000000000000000000008152600401610a1290614830565b60405180910390fd5b6001600260008373ffffffffffffffffffffffffffffffffffffffff1673ffffffffffffffffffffffffffffffffffffffff16815260200190815260200160002060050160146101000a81548160ff0219169083151502179055506004819080600181540180825580915050600190039060005260206000200160009091909190916101000a81548173ffffffffffffffffffffffffffffffffffffffff021916908373ffffffffffffffffffffffffffffffffffffffff160217905550610ae2816135a5565b8073ffffffffffffffffffffffffffffffffffffffff167f5ae161ff96a81f4fa8ddd8555ab13483a0fe416f296b510e08cbb11f98f9a10e600260008473ffffffffffffffffffffffffffffffffffffffff1673ffffffffffffffffffffffffffffffffffffffff168152602001908152602001600020600301604051610b6991906148e9565b60405180910390a250565b610b7c613476565b610b85816134fd565b610bc4576040517f08c379a0000000000000000000000000000000000000000000000000000000008152600401610bbb90614830565b60405180910390fd5b6000600260008373ffffffffffffffffffffffffffffffffffffffff1673ffffffffffffffffffffffffffffffffffffffff1681526020019081526020016000206003018054610c13906146b5565b80601f0160208091040260200160405190810160405280929190818152602001828054610c3f906146b5565b8015610c8c5780601f10610c6157610100808354040283529160200191610c8c565b820191906000526020600020905b815481529060010190602001808311610c6f57829003601f168201915b50505050509050600260008373ffffffffffffffffffffffffffffffffffffffff1673ffffffffffffffffffffffffffffffffffffffff16815260200190815260200160002060008082016000610ce3919061389f565b600182016000610cf3919061389f565b600282016000610d03919061389f565b600382016000610d13919061389f565b600482016000610d23919061389f565b6005820160006101000a81549073ffffffffffffffffffffffffffffffffffffffff02191690556005820160146101000a81549060ff02191690556005820160156101000a81549060ff02191690555050610d7d826135a5565b8173ffffffffffffffffffffffffffffffffffffffff167f376d99d855649bd6e81e7fce16d54ac5f2c7fadae7b2f50b619c182afe401bbb82604051610dc3919061490b565b60405180910390a25050565b60038181548110610ddf57600080fd5b906000526020600020016000915054906101000a900473ffffffffffffffffffffffffffffffffffffffff1681565b60008173ffffffffffffffffffffffffffffffffffffffff16610e2f611aee565b73ffffffffffffffffffffffffffffffffffffffff16149050919050565b610e55613476565b600a60009054906101000a900460ff1615610ea5576040517f08c379a0000000000000000000000000000000000000000000000000000000008152600401610e9c9061499f565b60405180910390fd5b60005b600380549050811015610fe757600060038281548110610ecb57610eca614657565b5b9060005260206000200160009054906101000a900473ffffffffffffffffffffffffffffffffffffffff169050600260008273ffffffffffffffffffffffffffffffffffffffff1673ffffffffffffffffffffffffffffffffffffffff16815260200190815260200160002060008082016000610f48919061389f565b600182016000610f58919061389f565b600282016000610f68919061389f565b600382016000610f78919061389f565b600482016000610f88919061389f565b6005820160006101000a81549073ffffffffffffffffffffffffffffffffffffffff02191690556005820160146101000a81549060ff02191690556005820160156101000a81549060ff02191690555050508080600101915050610ea8565b5060005b60048054905081101561112a5760006004828154811061100e5761100d614657565b5b9060005260206000200160009054906101000a900473ffffffffffffffffffffffffffffffffffffffff169050600260008273ffffffffffffffffffffffffffffffffffffffff1673ffffffffffffffffffffffffffffffffffffffff1681526020019081526020016000206000808201600061108b919061389f565b60018201600061109b919061389f565b6002820160006110ab919061389f565b6003820160006110bb919061389f565b6004820160006110cb919061389f565b6005820160006101000a81549073ffffffffffffffffffffffffffffffffffffffff02191690556005820160146101000a81549060ff02191690556005820160156101000a81549060ff02191690555050508080600101915050610feb565b50600067ffffffffffffffff81111561114657611145613a38565b5b6040519080825280602002602001820160405280156111745781602001602082028036833780820191505090505b506003908051906020019061118a9291906138df565b50600067ffffffffffffffff8111156111a6576111a5613a38565b5b6040519080825280602002602001820160405280156111d45781602001602082028036833780820191505090505b50600490805190602001906111ea9291906138df565b507f351a0247e8bb60a07bea1959df8f0e260dee3b0ccbbef1517ca1367b986664eb60405160405180910390a1565b60086020528060005260406000206000915090505481565b611239613476565b600a60009054906101000a900460ff16611288576040517f08c379a000000000000000000000000000000000000000000000000000000000815260040161127f90614a0b565b60405180910390fd5b600a60019054906101000a900460ff16156112d8576040517f08c379a00000000000000000000000000000000000000000000000000000000081526004016112cf90614a77565b60405180910390fd5b6001600a60016101000a81548160ff0219169083151502179055507f66ec723071e4bb646f7b35d31bc2dee8510979bd8c180edd0690d4f5e802f1e460405160405180910390a1565b6005602052806000526040600020600091509050806000018054611344906146b5565b80601f0160208091040260200160405190810160405280929190818152602001828054611370906146b5565b80156113bd5780601f10611392576101008083540402835291602001916113bd565b820191906000526020600020905b8154815290600101906020018083116113a057829003601f168201915b5050505050908060010160009054906101000a900460ff16908060020154908060030154905084565b6113ee613476565b600a60009054906101000a900460ff161561143e576040517f08c379a000000000000000000000000000000000000000000000000000000000815260040161143590614ae3565b60405180910390fd5b600a60019054906101000a900460ff161561148e576040517f08c379a000000000000000000000000000000000000000000000000000000000815260040161148590614a77565b60405180910390fd5b6001600a60006101000a81548160ff0219169083151502179055507fc475c26aa25ed8e85a7faa790e5f63b5d7ee1025f12821f4c9bfddd36ab4d11260405160405180910390a1565b6114df613476565b6114e9600061372f565b565b6114f3613476565b81600654811115611539576040517f08c379a000000000000000000000000000000000000000000000000000000000815260040161153090614578565b60405180910390fd5b600082511161157d576040517f08c379a000000000000000000000000000000000000000000000000000000000815260040161157490614b4f565b60405180910390fd5b600060056000858152602001908152602001600020905080600501839080600181540180825580915050600190039060005260206000200160009091909190915090816115ca9190614d06565b506040518060400160405280848152602001600067ffffffffffffffff8111156115f7576115f6613a38565b5b6040519080825280602002602001820160405280156116255781602001602082028036833780820191505090505b50815250816004018460405161163b9190614640565b9081526020016040518091039020600082015181600001908161165e9190614d06565b50602082015181600101908051906020019061167b929190613969565b50905050837f9d3f9d97cfa4d97c52f6be76984c7c9ac6dcbfd36f22e4b5ba1a4fbf01d83a7c846040516116af919061490b565b60405180910390a250505050565b6116c5613476565b8260065481111561170b576040517f08c379a000000000000000000000000000000000000000000000000000000000815260040161170290614578565b60405180910390fd5b83836000600560008481526020019081526020016000209050600081600401836040516117389190614640565b90815260200160405180910390206000018054611754906146b5565b905003611796576040517f08c379a000000000000000000000000000000000000000000000000000000000815260040161178d90614e24565b60405180910390fd5b866000600560008381526020019081526020016000209050428160020154116117f4576040517f08c379a00000000000000000000000000000000000000000000000000000000081526004016117eb90614ae3565b60405180910390fd5b600287511015611839576040517f08c379a000000000000000000000000000000000000000000000000000000000815260040161183090614eb6565b60405180910390fd5b60005b8751811015611aa857600960008b8152602001908152602001600020896040516118669190614640565b908152602001604051809103902088828151811061188757611886614657565b5b602002602001015160405161189c9190614640565b908152602001604051809103902060009054906101000a900460ff16156118f8576040517f08c379a00000000000000000000000000000000000000000000000000000000081526004016118ef90614f22565b60405180910390fd5b600860008b8152602001908152602001600020600081548092919061191c90614f71565b91905055506000600860008c815260200190815260200160002054905060405180606001604052808281526020018a848151811061195d5761195c614657565b5b602002602001015181526020016000815250600760008d815260200190815260200160002060008381526020019081526020016000206000820151816000015560208201518160010190816119b29190614d06565b5060408201518160020155905050600560008c81526020019081526020016000206004018a6040516119e49190614640565b90815260200160405180910390206001018190806001815401808255809150506001900390600052602060002001600090919091909150556001600960008d81526020019081526020016000208b604051611a3f9190614640565b90815260200160405180910390208a8481518110611a6057611a5f614657565b5b6020026020010151604051611a759190614640565b908152602001604051809103902060006101000a81548160ff02191690831515021790555050808060010191505061183c565b50887f37655da66d6d9319fe8f7980d2e7f646378474d166e604a33882bb0bb17059538989604051611adb929190614fb9565b60405180910390a2505050505050505050565b60008060009054906101000a900473ffffffffffffffffffffffffffffffffffffffff16905090565b60065481565b611b25613476565b80600654811115611b6b576040517f08c379a0000000000000000000000000000000000000000000000000000000008152600401611b6290614578565b60405180910390fd5b60006005600084815260200190815260200160002090508060010160009054906101000a900460ff1615611bd4576040517f08c379a0000000000000000000000000000000000000000000000000000000008152600401611bcb9061503c565b60405180910390fd5b4281600201541115611c1b576040517f08c379a0000000000000000000000000000000000000000000000000000000008152600401611c12906150ce565b60405180910390fd5b60018160010160006101000a81548160ff021916908315150217905550827f0589f8b93514c651c0c92b06bdb8118fe508daadf2ffdac1f516191be20fcb8560405160405180910390a2505050565b60606000806000606085600654811115611cb9576040517f08c379a0000000000000000000000000000000000000000000000000000000008152600401611cb090614578565b60405180910390fd5b6000600560008981526020019081526020016000209050806000018160010160009054906101000a900460ff168260020154836003015484600501848054611d00906146b5565b80601f0160208091040260200160405190810160405280929190818152602001828054611d2c906146b5565b8015611d795780601f10611d4e57610100808354040283529160200191611d79565b820191906000526020600020905b815481529060010190602001808311611d5c57829003601f168201915b5050505050945080805480602002602001604051908101604052809291908181526020016000905b82821015611e4d578382906000526020600020018054611dc0906146b5565b80601f0160208091040260200160405190810160405280929190818152602001828054611dec906146b5565b8015611e395780601f10611e0e57610100808354040283529160200191611e39565b820191906000526020600020905b815481529060010190602001808311611e1c57829003601f168201915b505050505081526020019060010190611da1565b50505050905096509650965096509650505091939590929450565b6002602052806000526040600020600091509050806000018054611e8b906146b5565b80601f0160208091040260200160405190810160405280929190818152602001828054611eb7906146b5565b8015611f045780601f10611ed957610100808354040283529160200191611f04565b820191906000526020600020905b815481529060010190602001808311611ee757829003601f168201915b505050505090806001018054611f19906146b5565b80601f0160208091040260200160405190810160405280929190818152602001828054611f45906146b5565b8015611f925780601f10611f6757610100808354040283529160200191611f92565b820191906000526020600020905b815481529060010190602001808311611f7557829003601f168201915b505050505090806002018054611fa7906146b5565b80601f0160208091040260200160405190810160405280929190818152602001828054611fd3906146b5565b80156120205780601f10611ff557610100808354040283529160200191612020565b820191906000526020600020905b81548152906001019060200180831161200357829003601f168201915b505050505090806003018054612035906146b5565b80601f0160208091040260200160405190810160405280929190818152602001828054612061906146b5565b80156120ae5780601f10612083576101008083540402835291602001916120ae565b820191906000526020600020905b81548152906001019060200180831161209157829003601f168201915b5050505050908060040180546120c3906146b5565b80601f01602080910402602001604051908101604052809291908181526020018280546120ef906146b5565b801561213c5780601f106121115761010080835404028352916020019161213c565b820191906000526020600020905b81548152906001019060200180831161211f57829003601f168201915b5050505050908060050160009054906101000a900473ffffffffffffffffffffffffffffffffffffffff16908060050160149054906101000a900460ff16908060050160159054906101000a900460ff16905088565b600481815481106121a257600080fd5b906000526020600020016000915054906101000a900473ffffffffffffffffffffffffffffffffffffffff1681565b6060600380548060200260200160405190810160405280929190818152602001828054801561225557602002820191906000526020600020905b8160009054906101000a900473ffffffffffffffffffffffffffffffffffffffff1673ffffffffffffffffffffffffffffffffffffffff168152602001906001019080831161220b575b5050505050905090565b600a60019054906101000a900460ff1681565b606080606080606060008060008073ffffffffffffffffffffffffffffffffffffffff16600260008b73ffffffffffffffffffffffffffffffffffffffff1673ffffffffffffffffffffffffffffffffffffffff16815260200190815260200160002060050160009054906101000a900473ffffffffffffffffffffffffffffffffffffffff1673ffffffffffffffffffffffffffffffffffffffff161415801561236b57506000600260008b73ffffffffffffffffffffffffffffffffffffffff1673ffffffffffffffffffffffffffffffffffffffff1681526020019081526020016000206000018054612367906146b5565b9050115b6123aa576040517f08c379a00000000000000000000000000000000000000000000000000000000081526004016123a19061513a565b60405180910390fd5b6000600260008b73ffffffffffffffffffffffffffffffffffffffff1673ffffffffffffffffffffffffffffffffffffffff168152602001908152602001600020905080600001816001018260020183600301846004018560050160009054906101000a900473ffffffffffffffffffffffffffffffffffffffff168660050160149054906101000a900460ff168760050160159054906101000a900460ff16878054612456906146b5565b80601f0160208091040260200160405190810160405280929190818152602001828054612482906146b5565b80156124cf5780601f106124a4576101008083540402835291602001916124cf565b820191906000526020600020905b8154815290600101906020018083116124b257829003601f168201915b505050505097508680546124e2906146b5565b80601f016020809104026020016040519081016040528092919081815260200182805461250e906146b5565b801561255b5780601f106125305761010080835404028352916020019161255b565b820191906000526020600020905b81548152906001019060200180831161253e57829003601f168201915b5050505050965085805461256e906146b5565b80601f016020809104026020016040519081016040528092919081815260200182805461259a906146b5565b80156125e75780601f106125bc576101008083540402835291602001916125e7565b820191906000526020600020905b8154815290600101906020018083116125ca57829003601f168201915b505050505095508480546125fa906146b5565b80601f0160208091040260200160405190810160405280929190818152602001828054612626906146b5565b80156126735780601f1061264857610100808354040283529160200191612673565b820191906000526020600020905b81548152906001019060200180831161265657829003601f168201915b50505050509450838054612686906146b5565b80601f01602080910402602001604051908101604052809291908181526020018280546126b2906146b5565b80156126ff5780601f106126d4576101008083540402835291602001916126ff565b820191906000526020600020905b8154815290600101906020018083116126e257829003601f168201915b505050505093509850985098509850985098509850985050919395975091939597565b600a60009054906101000a900460ff1681565b606080606084600654811115612780576040517f08c379a000000000000000000000000000000000000000000000000000000000815260040161277790614578565b60405180910390fd5b60006005600088815260200190815260200160002090508060010160009054906101000a900460ff166127e8576040517f08c379a00000000000000000000000000000000000000000000000000000000081526004016127df906151a6565b60405180910390fd5b600081600401876040516127fc9190614640565b9081526020016040518091039020905060008160010180548060200260200160405190810160405280929190818152602001828054801561285c57602002820191906000526020600020905b815481526020019060010190808311612848575b505050505090506000815167ffffffffffffffff8111156128805761287f613a38565b5b6040519080825280602002602001820160405280156128ae5781602001602082028036833780820191505090505b50905060005b82518110156129315760008382815181106128d2576128d1614657565b5b60200260200101519050600760008d815260200190815260200160002060008281526020019081526020016000206002015483838151811061291757612916614657565b5b6020026020010181815250505080806001019150506128b4565b50826000018282828054612944906146b5565b80601f0160208091040260200160405190810160405280929190818152602001828054612970906146b5565b80156129bd5780601f10612992576101008083540402835291602001916129bd565b820191906000526020600020905b8154815290600101906020018083116129a057829003601f168201915b5050505050925097509750975050505050509250925092565b6129de6137f3565b82600654811115612a24576040517f08c379a0000000000000000000000000000000000000000000000000000000008152600401612a1b90614578565b60405180910390fd5b8383600060056000848152602001908152602001600020905060008160040183604051612a519190614640565b90815260200160405180910390206000018054612a6d906146b5565b905003612aaf576040517f08c379a0000000000000000000000000000000000000000000000000000000008152600401612aa690614e24565b60405180910390fd5b60006005600089815260200190815260200160002090508060010160009054906101000a900460ff16612b17576040517f08c379a0000000000000000000000000000000000000000000000000000000008152600401612b0e90615212565b60405180910390fd5b600260003373ffffffffffffffffffffffffffffffffffffffff1673ffffffffffffffffffffffffffffffffffffffff16815260200190815260200160002060050160149054906101000a900460ff16612ba6576040517f08c379a0000000000000000000000000000000000000000000000000000000008152600401612b9d9061527e565b60405180910390fd5b600260003373ffffffffffffffffffffffffffffffffffffffff1673ffffffffffffffffffffffffffffffffffffffff16815260200190815260200160002060050160159054906101000a900460ff1615612c36576040517f08c379a0000000000000000000000000000000000000000000000000000000008152600401612c2d906152ea565b60405180910390fd5b600260003373ffffffffffffffffffffffffffffffffffffffff1673ffffffffffffffffffffffffffffffffffffffff16815260200190815260200160002060050160009054906101000a900473ffffffffffffffffffffffffffffffffffffffff1673ffffffffffffffffffffffffffffffffffffffff163373ffffffffffffffffffffffffffffffffffffffff1614612d06576040517f08c379a0000000000000000000000000000000000000000000000000000000008152600401612cfd9061537c565b60405180910390fd5b60008160040188604051612d1a9190614640565b90815260200160405180910390209050612d8681600101805480602002602001604051908101604052809291908181526020018280548015612d7b57602002820191906000526020600020905b815481526020019060010190808311612d67575b505050505088613839565b612dc5576040517f08c379a0000000000000000000000000000000000000000000000000000000008152600401612dbc906153e8565b60405180910390fd5b6001600260003373ffffffffffffffffffffffffffffffffffffffff1673ffffffffffffffffffffffffffffffffffffffff16815260200190815260200160002060050160156101000a81548160ff021916908315150217905550600760008a815260200190815260200160002060008881526020019081526020016000206002016000815480929190612e5890614f71565b9190505550863373ffffffffffffffffffffffffffffffffffffffff168a7fd9f61bad27b367f9d956d43115ce9b23449b64e56e608eb9569f6b929b632e7e8b604051612ea5919061490b565b60405180910390a4505050505050612ebb61388e565b505050565b612ec8613476565b600073ffffffffffffffffffffffffffffffffffffffff168173ffffffffffffffffffffffffffffffffffffffff1603612f3a5760006040517f1e4fbdf7000000000000000000000000000000000000000000000000000000008152600401612f319190613e0f565b60405180910390fd5b612f438161372f565b50565b60006004805490508210612f8f576040517f08c379a0000000000000000000000000000000000000000000000000000000008152600401612f8690615454565b60405180910390fd5b60048281548110612fa357612fa2614657565b5b9060005260206000200160009054906101000a900473ffffffffffffffffffffffffffffffffffffffff169050919050565b612fdd613476565b80821061301f576040517f08c379a0000000000000000000000000000000000000000000000000000000008152600401613016906154e6565b60405180910390fd5b6006600081548092919061303290614f71565b919050555082600560006006548152602001908152602001600020600001908161305c9190614d06565b50600060056000600654815260200190815260200160002060010160006101000a81548160ff021916908315150217905550816005600060065481526020019081526020016000206002018190555080600560006006548152602001908152602001600020600301819055506006547f52be7c4e77b4de76b7607d621492061fe13b58597e72dfb5e51ab8f6187ed141846040516130fa919061490b565b60405180910390a2505050565b600a60009054906101000a900460ff1615613157576040517f08c379a000000000000000000000000000000000000000000000000000000000815260040161314e90615578565b60405180910390fd5b600260008273ffffffffffffffffffffffffffffffffffffffff1673ffffffffffffffffffffffffffffffffffffffff16815260200190815260200160002060050160149054906101000a900460ff16156131e7576040517f08c379a00000000000000000000000000000000000000000000000000000000081526004016131de9061560a565b60405180910390fd5b6131f0816134fd565b15613230576040517f08c379a00000000000000000000000000000000000000000000000000000000081526004016132279061569c565b60405180910390fd5b6040518061010001604052808781526020018681526020018581526020018481526020018381526020018273ffffffffffffffffffffffffffffffffffffffff16815260200160001515815260200160001515815250600260008373ffffffffffffffffffffffffffffffffffffffff1673ffffffffffffffffffffffffffffffffffffffff16815260200190815260200160002060008201518160000190816132da9190614d06565b5060208201518160010190816132f09190614d06565b5060408201518160020190816133069190614d06565b50606082015181600301908161331c9190614d06565b5060808201518160040190816133329190614d06565b5060a08201518160050160006101000a81548173ffffffffffffffffffffffffffffffffffffffff021916908373ffffffffffffffffffffffffffffffffffffffff16021790555060c08201518160050160146101000a81548160ff02191690831515021790555060e08201518160050160156101000a81548160ff0219169083151502179055509050506003819080600181540180825580915050600190039060005260206000200160009091909190916101000a81548173ffffffffffffffffffffffffffffffffffffffff021916908373ffffffffffffffffffffffffffffffffffffffff1602179055508073ffffffffffffffffffffffffffffffffffffffff167fffeb7702be7dcd8fee170d954b70afb9a7c78f7f5cff232d037e7b9d8243356a84604051613466919061490b565b60405180910390a2505050505050565b61347e613897565b73ffffffffffffffffffffffffffffffffffffffff1661349c611aee565b73ffffffffffffffffffffffffffffffffffffffff16146134fb576134bf613897565b6040517f118cdaa70000000000000000000000000000000000000000000000000000000081526004016134f29190613e0f565b60405180910390fd5b565b600080600090505b60038054905081101561359a578273ffffffffffffffffffffffffffffffffffffffff166003828154811061353d5761353c614657565b5b9060005260206000200160009054906101000a900473ffffffffffffffffffffffffffffffffffffffff1673ffffffffffffffffffffffffffffffffffffffff160361358d5760019150506135a0565b8080600101915050613505565b50600090505b919050565b60005b60038054905081101561372b578173ffffffffffffffffffffffffffffffffffffffff16600382815481106135e0576135df614657565b5b9060005260206000200160009054906101000a900473ffffffffffffffffffffffffffffffffffffffff1673ffffffffffffffffffffffffffffffffffffffff160361371e576003600160038054905061363a91906156bc565b8154811061364b5761364a614657565b5b9060005260206000200160009054906101000a900473ffffffffffffffffffffffffffffffffffffffff166003828154811061368a57613689614657565b5b9060005260206000200160006101000a81548173ffffffffffffffffffffffffffffffffffffffff021916908373ffffffffffffffffffffffffffffffffffffffff16021790555060038054806136e4576136e36156f0565b5b6001900381819060005260206000200160006101000a81549073ffffffffffffffffffffffffffffffffffffffff0219169055905561372b565b80806001019150506135a8565b5050565b60008060009054906101000a900473ffffffffffffffffffffffffffffffffffffffff169050816000806101000a81548173ffffffffffffffffffffffffffffffffffffffff021916908373ffffffffffffffffffffffffffffffffffffffff1602179055508173ffffffffffffffffffffffffffffffffffffffff168173ffffffffffffffffffffffffffffffffffffffff167f8be0079c531659141344cd1fd0a4f28419497f9722a3daafe3b4186f6b6457e060405160405180910390a35050565b60026001540361382f576040517f3ee5aeb500000000000000000000000000000000000000000000000000000000815260040160405180910390fd5b6002600181905550565b600080600090505b8351811015613882578284828151811061385e5761385d614657565b5b602002602001015103613875576001915050613888565b8080600101915050613841565b50600090505b92915050565b60018081905550565b600033905090565b5080546138ab906146b5565b6000825580601f106138bd57506138dc565b601f0160209004906000526020600020908101906138db91906139b6565b5b50565b828054828255906000526020600020908101928215613958579160200282015b828111156139575782518260006101000a81548173ffffffffffffffffffffffffffffffffffffffff021916908373ffffffffffffffffffffffffffffffffffffffff160217905550916020019190600101906138ff565b5b50905061396591906139b6565b5090565b8280548282559060005260206000209081019282156139a5579160200282015b828111156139a4578251825591602001919060010190613989565b5b5090506139b291906139b6565b5090565b5b808211156139cf5760008160009055506001016139b7565b5090565b6000604051905090565b600080fd5b600080fd5b6000819050919050565b6139fa816139e7565b8114613a0557600080fd5b50565b600081359050613a17816139f1565b92915050565b600080fd5b600080fd5b6000601f19601f8301169050919050565b7f4e487b7100000000000000000000000000000000000000000000000000000000600052604160045260246000fd5b613a7082613a27565b810181811067ffffffffffffffff82111715613a8f57613a8e613a38565b5b80604052505050565b6000613aa26139d3565b9050613aae8282613a67565b919050565b600067ffffffffffffffff821115613ace57613acd613a38565b5b613ad782613a27565b9050602081019050919050565b82818337600083830152505050565b6000613b06613b0184613ab3565b613a98565b905082815260208101848484011115613b2257613b21613a22565b5b613b2d848285613ae4565b509392505050565b600082601f830112613b4a57613b49613a1d565b5b8135613b5a848260208601613af3565b91505092915050565b60008060408385031215613b7a57613b796139dd565b5b6000613b8885828601613a08565b925050602083013567ffffffffffffffff811115613ba957613ba86139e2565b5b613bb585828601613b35565b9150509250929050565b600081519050919050565b600082825260208201905092915050565b60005b83811015613bf9578082015181840152602081019050613bde565b60008484015250505050565b6000613c1082613bbf565b613c1a8185613bca565b9350613c2a818560208601613bdb565b613c3381613a27565b840191505092915050565b600081519050919050565b600082825260208201905092915050565b6000819050602082019050919050565b613c73816139e7565b82525050565b6000613c858383613c6a565b60208301905092915050565b6000602082019050919050565b6000613ca982613c3e565b613cb38185613c49565b9350613cbe83613c5a565b8060005b83811015613cef578151613cd68882613c79565b9750613ce183613c91565b925050600181019050613cc2565b5085935050505092915050565b60006060820190508181036000830152613d168186613c05565b90508181036020830152613d2a8185613c9e565b90508181036040830152613d3e8184613c9e565b9050949350505050565b600060208284031215613d5e57613d5d6139dd565b5b6000613d6c84828501613a08565b91505092915050565b600073ffffffffffffffffffffffffffffffffffffffff82169050919050565b6000613da082613d75565b9050919050565b613db081613d95565b8114613dbb57600080fd5b50565b600081359050613dcd81613da7565b92915050565b600060208284031215613de957613de86139dd565b5b6000613df784828501613dbe565b91505092915050565b613e0981613d95565b82525050565b6000602082019050613e246000830184613e00565b92915050565b60008115159050919050565b613e3f81613e2a565b82525050565b6000602082019050613e5a6000830184613e36565b92915050565b613e69816139e7565b82525050565b6000602082019050613e846000830184613e60565b92915050565b60006080820190508181036000830152613ea48187613c05565b9050613eb36020830186613e36565b613ec06040830185613e60565b613ecd6060830184613e60565b95945050505050565b600067ffffffffffffffff821115613ef157613ef0613a38565b5b602082029050602081019050919050565b600080fd5b6000613f1a613f1584613ed6565b613a98565b90508083825260208201905060208402830185811115613f3d57613f3c613f02565b5b835b81811015613f8457803567ffffffffffffffff811115613f6257613f61613a1d565b5b808601613f6f8982613b35565b85526020850194505050602081019050613f3f565b5050509392505050565b600082601f830112613fa357613fa2613a1d565b5b8135613fb3848260208601613f07565b91505092915050565b600080600060608486031215613fd557613fd46139dd565b5b6000613fe386828701613a08565b935050602084013567ffffffffffffffff811115614004576140036139e2565b5b61401086828701613b35565b925050604084013567ffffffffffffffff811115614031576140306139e2565b5b61403d86828701613f8e565b9150509250925092565b600081519050919050565b600082825260208201905092915050565b6000819050602082019050919050565b600082825260208201905092915050565b600061408f82613bbf565b6140998185614073565b93506140a9818560208601613bdb565b6140b281613a27565b840191505092915050565b60006140c98383614084565b905092915050565b6000602082019050919050565b60006140e982614047565b6140f38185614052565b93508360208202850161410585614063565b8060005b85811015614141578484038952815161412285826140bd565b945061412d836140d1565b925060208a01995050600181019050614109565b50829750879550505050505092915050565b600060a082019050818103600083015261416d8188613c05565b905061417c6020830187613e36565b6141896040830186613e60565b6141966060830185613e60565b81810360808301526141a881846140de565b90509695505050505050565b60006101008201905081810360008301526141cf818b613c05565b905081810360208301526141e3818a613c05565b905081810360408301526141f78189613c05565b9050818103606083015261420b8188613c05565b9050818103608083015261421f8187613c05565b905061422e60a0830186613e00565b61423b60c0830185613e36565b61424860e0830184613e36565b9998505050505050505050565b600081519050919050565b600082825260208201905092915050565b6000819050602082019050919050565b61428a81613d95565b82525050565b600061429c8383614281565b60208301905092915050565b6000602082019050919050565b60006142c082614255565b6142ca8185614260565b93506142d583614271565b8060005b838110156143065781516142ed8882614290565b97506142f8836142a8565b9250506001810190506142d9565b5085935050505092915050565b6000602082019050818103600083015261432d81846142b5565b905092915050565b60008060006060848603121561434e5761434d6139dd565b5b600061435c86828701613a08565b935050602084013567ffffffffffffffff81111561437d5761437c6139e2565b5b61438986828701613b35565b925050604061439a86828701613a08565b9150509250925092565b6000806000606084860312156143bd576143bc6139dd565b5b600084013567ffffffffffffffff8111156143db576143da6139e2565b5b6143e786828701613b35565b93505060206143f886828701613a08565b925050604061440986828701613a08565b9150509250925092565b60008060008060008060c087890312156144305761442f6139dd565b5b600087013567ffffffffffffffff81111561444e5761444d6139e2565b5b61445a89828a01613b35565b965050602087013567ffffffffffffffff81111561447b5761447a6139e2565b5b61448789828a01613b35565b955050604087013567ffffffffffffffff8111156144a8576144a76139e2565b5b6144b489828a01613b35565b945050606087013567ffffffffffffffff8111156144d5576144d46139e2565b5b6144e189828a01613b35565b935050608087013567ffffffffffffffff811115614502576145016139e2565b5b61450e89828a01613b35565b92505060a061451f89828a01613dbe565b9150509295509295509295565b7f456c656374696f6e20646f6573206e6f74206578697374000000000000000000600082015250565b6000614562601783613bca565b915061456d8261452c565b602082019050919050565b6000602082019050818103600083015261459181614555565b9050919050565b7f456c656374696f6e206973207374696c6c206f70656e00000000000000000000600082015250565b60006145ce601683613bca565b91506145d982614598565b602082019050919050565b600060208201905081810360008301526145fd816145c1565b9050919050565b600081905092915050565b600061461a82613bbf565b6146248185614604565b9350614634818560208601613bdb565b80840191505092915050565b600061464c828461460f565b915081905092915050565b7f4e487b7100000000000000000000000000000000000000000000000000000000600052603260045260246000fd5b7f4e487b7100000000000000000000000000000000000000000000000000000000600052602260045260246000fd5b600060028204905060018216806146cd57607f821691505b6020821081036146e0576146df614686565b5b50919050565b7f456c656374696f6e20697320616c726561647920636c6f736564000000000000600082015250565b600061471c601a83613bca565b9150614727826146e6565b602082019050919050565b6000602082019050818103600083015261474b8161470f565b9050919050565b7f456c656374696f6e20656e642074696d6520686173206e6f742072656163686560008201527f6400000000000000000000000000000000000000000000000000000000000000602082015250565b60006147ae602183613bca565b91506147b982614752565b604082019050919050565b600060208201905081810360008301526147dd816147a1565b9050919050565b7f566f746572206973206e6f7420696e207468652070656e64696e67206c697374600082015250565b600061481a602083613bca565b9150614825826147e4565b602082019050919050565b600060208201905081810360008301526148498161480d565b9050919050565b60008190508160005260206000209050919050565b60008154614872816146b5565b61487c8186613bca565b9450600182166000811461489757600181146148ad576148e0565b60ff1983168652811515602002860193506148e0565b6148b685614850565b60005b838110156148d8578154818901526001820191506020810190506148b9565b808801955050505b50505092915050565b600060208201905081810360008301526149038184614865565b905092915050565b600060208201905081810360008301526149258184613c05565b905092915050565b7f43616e6e6f7420726573657420616464726573736573207768696c6520616e2060008201527f656c656374696f6e20697320696e2070726f6772657373000000000000000000602082015250565b6000614989603783613bca565b91506149948261492d565b604082019050919050565b600060208201905081810360008301526149b88161497c565b9050919050565b7f456c656374696f6e20686173206e6f7420737461727465642079657400000000600082015250565b60006149f5601c83613bca565b9150614a00826149bf565b602082019050919050565b60006020820190508181036000830152614a24816149e8565b9050919050565b7f456c656374696f6e2068617320616c726561647920656e646564000000000000600082015250565b6000614a61601a83613bca565b9150614a6c82614a2b565b602082019050919050565b60006020820190508181036000830152614a9081614a54565b9050919050565b7f456c656374696f6e2068617320616c7265616479207374617274656400000000600082015250565b6000614acd601c83613bca565b9150614ad882614a97565b602082019050919050565b60006020820190508181036000830152614afc81614ac0565b9050919050565b7f506f736974696f6e206e616d652063616e6e6f7420626520656d707479000000600082015250565b6000614b39601d83613bca565b9150614b4482614b03565b602082019050919050565b60006020820190508181036000830152614b6881614b2c565b9050919050565b60006020601f8301049050919050565b600082821b905092915050565b600060088302614bbc7fffffffffffffffffffffffffffffffffffffffffffffffffffffffffffffffff82614b7f565b614bc68683614b7f565b95508019841693508086168417925050509392505050565b6000819050919050565b6000614c03614bfe614bf9846139e7565b614bde565b6139e7565b9050919050565b6000819050919050565b614c1d83614be8565b614c31614c2982614c0a565b848454614b8c565b825550505050565b600090565b614c46614c39565b614c51818484614c14565b505050565b5b81811015614c7557614c6a600082614c3e565b600181019050614c57565b5050565b601f821115614cba57614c8b81614850565b614c9484614b6f565b81016020851015614ca3578190505b614cb7614caf85614b6f565b830182614c56565b50505b505050565b600082821c905092915050565b6000614cdd60001984600802614cbf565b1980831691505092915050565b6000614cf68383614ccc565b9150826002028217905092915050565b614d0f82613bbf565b67ffffffffffffffff811115614d2857614d27613a38565b5b614d3282546146b5565b614d3d828285614c79565b600060209050601f831160018114614d705760008415614d5e578287015190505b614d688582614cea565b865550614dd0565b601f198416614d7e86614850565b60005b82811015614da657848901518255600182019150602085019450602081019050614d81565b86831015614dc35784890151614dbf601f891682614ccc565b8355505b6001600288020188555050505b505050505050565b7f506f736974696f6e20646f6573206e6f74206578697374000000000000000000600082015250565b6000614e0e601783613bca565b9150614e1982614dd8565b602082019050919050565b60006020820190508181036000830152614e3d81614e01565b9050919050565b7f4174206c656173742074776f2063616e6469646174657320617265207265717560008201527f6972656420666f72206120706f736974696f6e00000000000000000000000000602082015250565b6000614ea0603383613bca565b9150614eab82614e44565b604082019050919050565b60006020820190508181036000830152614ecf81614e93565b9050919050565b7f43616e646964617465206e616d6520616c726561647920657869737473000000600082015250565b6000614f0c601d83613bca565b9150614f1782614ed6565b602082019050919050565b60006020820190508181036000830152614f3b81614eff565b9050919050565b7f4e487b7100000000000000000000000000000000000000000000000000000000600052601160045260246000fd5b6000614f7c826139e7565b91507fffffffffffffffffffffffffffffffffffffffffffffffffffffffffffffffff8203614fae57614fad614f42565b5b600182019050919050565b60006040820190508181036000830152614fd38185613c05565b90508181036020830152614fe781846140de565b90509392505050565b7f456c656374696f6e20697320616c7265616479206f70656e0000000000000000600082015250565b6000615026601883613bca565b915061503182614ff0565b602082019050919050565b6000602082019050818103600083015261505581615019565b9050919050565b7f456c656374696f6e2073746172742074696d6520686173206e6f74207265616360008201527f6865640000000000000000000000000000000000000000000000000000000000602082015250565b60006150b8602383613bca565b91506150c38261505c565b604082019050919050565b600060208201905081810360008301526150e7816150ab565b9050919050565b7f566f74657220646f6573206e6f74206578697374000000000000000000000000600082015250565b6000615124601483613bca565b915061512f826150ee565b602082019050919050565b6000602082019050818103600083015261515381615117565b9050919050565b7f456c656374696f6e206973206e6f74206f70656e000000000000000000000000600082015250565b6000615190601483613bca565b915061519b8261515a565b602082019050919050565b600060208201905081810360008301526151bf81615183565b9050919050565b7f456c656374696f6e206973206e6f74206f70656e20666f7220766f74696e6700600082015250565b60006151fc601f83613bca565b9150615207826151c6565b602082019050919050565b6000602082019050818103600083015261522b816151ef565b9050919050565b7f566f746572206973206e6f7420617070726f7665640000000000000000000000600082015250565b6000615268601583613bca565b915061527382615232565b602082019050919050565b600060208201905081810360008301526152978161525b565b9050919050565b7f566f7465722068617320616c726561647920766f746564000000000000000000600082015250565b60006152d4601783613bca565b91506152df8261529e565b602082019050919050565b60006020820190508181036000830152615303816152c7565b9050919050565b7f566f7465722773204d6574616d61736b206164647265737320646f6573206e6f60008201527f74206d6174636800000000000000000000000000000000000000000000000000602082015250565b6000615366602783613bca565b91506153718261530a565b604082019050919050565b6000602082019050818103600083015261539581615359565b9050919050565b7f496e76616c69642063616e646964617465000000000000000000000000000000600082015250565b60006153d2601183613bca565b91506153dd8261539c565b602082019050919050565b60006020820190508181036000830152615401816153c5565b9050919050565b7f496e76616c696420696e64657800000000000000000000000000000000000000600082015250565b600061543e600d83613bca565b915061544982615408565b602082019050919050565b6000602082019050818103600083015261546d81615431565b9050919050565b7f496e76616c696420656c656374696f6e20737461727420616e6420656e64207460008201527f696d650000000000000000000000000000000000000000000000000000000000602082015250565b60006154d0602383613bca565b91506154db82615474565b604082019050919050565b600060208201905081810360008301526154ff816154c3565b9050919050565b7f43616e6e6f7420726567697374657220766f746572732061667465722074686560008201527f20656c656374696f6e2068617320737461727465640000000000000000000000602082015250565b6000615562603583613bca565b915061556d82615506565b604082019050919050565b6000602082019050818103600083015261559181615555565b9050919050565b7f566f74657220697320616c7265616479207265676973746572656420616e642060008201527f617070726f766564000000000000000000000000000000000000000000000000602082015250565b60006155f4602883613bca565b91506155ff82615598565b604082019050919050565b60006020820190508181036000830152615623816155e7565b9050919050565b7f566f74657220697320616c7265616479207265676973746572656420616e642060008201527f70656e64696e6720617070726f76616c00000000000000000000000000000000602082015250565b6000615686603083613bca565b91506156918261562a565b604082019050919050565b600060208201905081810360008301526156b581615679565b9050919050565b60006156c7826139e7565b91506156d2836139e7565b92508282039050818111156156ea576156e9614f42565b5b92915050565b7f4e487b7100000000000000000000000000000000000000000000000000000000600052603160045260246000fdfea26469706673582212209e4c1a771fd3f35236d4c9d51c759a64b2213e1494909fe2c20c267199a9b3f064736f6c63430008180033","opcodes":"PUSH1 0x80 PUSH1 0x40 MSTORE CALLVALUE DUP1 ISZERO PUSH3 0x11 JUMPI PUSH1 0x0 DUP1 REVERT JUMPDEST POP CALLER PUSH1 0x0 PUSH20 0xFFFFFFFFFFFFFFFFFFFFFFFFFFFFFFFFFFFFFFFF AND DUP2 PUSH20 0xFFFFFFFFFFFFFFFFFFFFFFFFFFFFFFFFFFFFFFFF AND SUB PUSH3 0x88 JUMPI PUSH1 0x0 PUSH1 0x40 MLOAD PUSH32 0x1E4FBDF700000000000000000000000000000000000000000000000000000000 DUP2 MSTORE PUSH1 0x4 ADD PUSH3 0x7F SWAP2 SWAP1 PUSH3 0x1B0 JUMP JUMPDEST PUSH1 0x40 MLOAD DUP1 SWAP2 SUB SWAP1 REVERT JUMPDEST PUSH3 0x99 DUP2 PUSH3 0xA7 PUSH1 0x20 SHL PUSH1 0x20 SHR JUMP JUMPDEST POP PUSH1 0x1 DUP1 DUP2 SWAP1 SSTORE POP PUSH3 0x1CD JUMP JUMPDEST PUSH1 0x0 DUP1 PUSH1 0x0 SWAP1 SLOAD SWAP1 PUSH2 0x100 EXP SWAP1 DIV PUSH20 0xFFFFFFFFFFFFFFFFFFFFFFFFFFFFFFFFFFFFFFFF AND SWAP1 POP DUP2 PUSH1 0x0 DUP1 PUSH2 0x100 EXP DUP2 SLOAD DUP2 PUSH20 0xFFFFFFFFFFFFFFFFFFFFFFFFFFFFFFFFFFFFFFFF MUL NOT AND SWAP1 DUP4 PUSH20 0xFFFFFFFFFFFFFFFFFFFFFFFFFFFFFFFFFFFFFFFF AND MUL OR SWAP1 SSTORE POP DUP2 PUSH20 0xFFFFFFFFFFFFFFFFFFFFFFFFFFFFFFFFFFFFFFFF AND DUP2 PUSH20 0xFFFFFFFFFFFFFFFFFFFFFFFFFFFFFFFFFFFFFFFF AND PUSH32 0x8BE0079C531659141344CD1FD0A4F28419497F9722A3DAAFE3B4186F6B6457E0 PUSH1 0x40 MLOAD PUSH1 0x40 MLOAD DUP1 SWAP2 SUB SWAP1 LOG3 POP POP JUMP JUMPDEST PUSH1 0x0 PUSH20 0xFFFFFFFFFFFFFFFFFFFFFFFFFFFFFFFFFFFFFFFF DUP3 AND SWAP1 POP SWAP2 SWAP1 POP JUMP JUMPDEST PUSH1 0x0 PUSH3 0x198 DUP3 PUSH3 0x16B JUMP JUMPDEST SWAP1 POP SWAP2 SWAP1 POP JUMP JUMPDEST PUSH3 0x1AA DUP2 PUSH3 0x18B JUMP JUMPDEST DUP3 MSTORE POP POP JUMP JUMPDEST PUSH1 0x0 PUSH1 0x20 DUP3 ADD SWAP1 POP PUSH3 0x1C7 PUSH1 0x0 DUP4 ADD DUP5 PUSH3 0x19F JUMP JUMPDEST SWAP3 SWAP2 POP POP JUMP JUMPDEST PUSH2 0x5755 DUP1 PUSH3 0x1DD PUSH1 0x0 CODECOPY PUSH1 0x0 RETURN INVALID PUSH1 0x80 PUSH1 0x40 MSTORE CALLVALUE DUP1 ISZERO PUSH2 0x10 JUMPI PUSH1 0x0 DUP1 REVERT JUMPDEST POP PUSH1 0x4 CALLDATASIZE LT PUSH2 0x1D9 JUMPI PUSH1 0x0 CALLDATALOAD PUSH1 0xE0 SHR DUP1 PUSH4 0x997D2830 GT PUSH2 0x104 JUMPI DUP1 PUSH4 0xD4F50F98 GT PUSH2 0xA2 JUMPI DUP1 PUSH4 0xF2FDE38B GT PUSH2 0x71 JUMPI DUP1 PUSH4 0xF2FDE38B EQ PUSH2 0x559 JUMPI DUP1 PUSH4 0xF452130B EQ PUSH2 0x575 JUMPI DUP1 PUSH4 0xF49A7A17 EQ PUSH2 0x5A5 JUMPI DUP1 PUSH4 0xFF9E50FE EQ PUSH2 0x5C1 JUMPI PUSH2 0x1D9 JUMP JUMPDEST DUP1 PUSH4 0xD4F50F98 EQ PUSH2 0x4B6 JUMPI DUP1 PUSH4 0xD5346DA1 EQ PUSH2 0x4ED JUMPI DUP1 PUSH4 0xD6C79EAA EQ PUSH2 0x50B JUMPI DUP1 PUSH4 0xF0F45457 EQ PUSH2 0x53D JUMPI PUSH2 0x1D9 JUMP JUMPDEST DUP1 PUSH4 0xA3EC138D GT PUSH2 0xDE JUMPI DUP1 PUSH4 0xA3EC138D EQ PUSH2 0x413 JUMPI DUP1 PUSH4 0xAED93010 EQ PUSH2 0x44A JUMPI DUP1 PUSH4 0xC3322D09 EQ PUSH2 0x47A JUMPI DUP1 PUSH4 0xC94CA9E3 EQ PUSH2 0x498 JUMPI PUSH2 0x1D9 JUMP JUMPDEST DUP1 PUSH4 0x997D2830 EQ PUSH2 0x3A5 JUMPI DUP1 PUSH4 0x9A1D5956 EQ PUSH2 0x3C3 JUMPI DUP1 PUSH4 0x9D710777 EQ PUSH2 0x3DF JUMPI PUSH2 0x1D9 JUMP JUMPDEST DUP1 PUSH4 0x5824BF30 GT PUSH2 0x17C JUMPI DUP1 PUSH4 0x715018A6 GT PUSH2 0x14B JUMPI DUP1 PUSH4 0x715018A6 EQ PUSH2 0x345 JUMPI DUP1 PUSH4 0x760B5B23 EQ PUSH2 0x34F JUMPI DUP1 PUSH4 0x7DA3B49A EQ PUSH2 0x36B JUMPI DUP1 PUSH4 0x8DA5CB5B EQ PUSH2 0x387 JUMPI PUSH2 0x1D9 JUMP JUMPDEST DUP1 PUSH4 0x5824BF30 EQ PUSH2 0x2CE JUMPI DUP1 PUSH4 0x59F78468 EQ PUSH2 0x2FE JUMPI DUP1 PUSH4 0x5E6FEF01 EQ PUSH2 0x308 JUMPI DUP1 PUSH4 0x62D73EB8 EQ PUSH2 0x33B JUMPI PUSH2 0x1D9 JUMP JUMPDEST DUP1 PUSH4 0x1B04772B GT PUSH2 0x1B8 JUMPI DUP1 PUSH4 0x1B04772B EQ PUSH2 0x248 JUMPI DUP1 PUSH4 0x24A9267B EQ PUSH2 0x264 JUMPI DUP1 PUSH4 0x2F54BF6E EQ PUSH2 0x294 JUMPI DUP1 PUSH4 0x3CFE3A37 EQ PUSH2 0x2C4 JUMPI PUSH2 0x1D9 JUMP JUMPDEST DUP1 PUSH3 0x3A3D1 EQ PUSH2 0x1DE JUMPI DUP1 PUSH4 0x9E33D07 EQ PUSH2 0x210 JUMPI DUP1 PUSH4 0x119D4DDB EQ PUSH2 0x22C JUMPI JUMPDEST PUSH1 0x0 DUP1 REVERT JUMPDEST PUSH2 0x1F8 PUSH1 0x4 DUP1 CALLDATASIZE SUB DUP2 ADD SWAP1 PUSH2 0x1F3 SWAP2 SWAP1 PUSH2 0x3B63 JUMP JUMPDEST PUSH2 0x5DD JUMP JUMPDEST PUSH1 0x40 MLOAD PUSH2 0x207 SWAP4 SWAP3 SWAP2 SWAP1 PUSH2 0x3CFC JUMP JUMPDEST PUSH1 0x40 MLOAD DUP1 SWAP2 SUB SWAP1 RETURN JUMPDEST PUSH2 0x22A PUSH1 0x4 DUP1 CALLDATASIZE SUB DUP2 ADD SWAP1 PUSH2 0x225 SWAP2 SWAP1 PUSH2 0x3D48 JUMP JUMPDEST PUSH2 0x87F JUMP JUMPDEST STOP JUMPDEST PUSH2 0x246 PUSH1 0x4 DUP1 CALLDATASIZE SUB DUP2 ADD SWAP1 PUSH2 0x241 SWAP2 SWAP1 PUSH2 0x3DD3 JUMP JUMPDEST PUSH2 0x9CB JUMP JUMPDEST STOP JUMPDEST PUSH2 0x262 PUSH1 0x4 DUP1 CALLDATASIZE SUB DUP2 ADD SWAP1 PUSH2 0x25D SWAP2 SWAP1 PUSH2 0x3DD3 JUMP JUMPDEST PUSH2 0xB74 JUMP JUMPDEST STOP JUMPDEST PUSH2 0x27E PUSH1 0x4 DUP1 CALLDATASIZE SUB DUP2 ADD SWAP1 PUSH2 0x279 SWAP2 SWAP1 PUSH2 0x3D48 JUMP JUMPDEST PUSH2 0xDCF JUMP JUMPDEST PUSH1 0x40 MLOAD PUSH2 0x28B SWAP2 SWAP1 PUSH2 0x3E0F JUMP JUMPDEST PUSH1 0x40 MLOAD DUP1 SWAP2 SUB SWAP1 RETURN JUMPDEST PUSH2 0x2AE PUSH1 0x4 DUP1 CALLDATASIZE SUB DUP2 ADD SWAP1 PUSH2 0x2A9 SWAP2 SWAP1 PUSH2 0x3DD3 JUMP JUMPDEST PUSH2 0xE0E JUMP JUMPDEST PUSH1 0x40 MLOAD PUSH2 0x2BB SWAP2 SWAP1 PUSH2 0x3E45 JUMP JUMPDEST PUSH1 0x40 MLOAD DUP1 SWAP2 SUB SWAP1 RETURN JUMPDEST PUSH2 0x2CC PUSH2 0xE4D JUMP JUMPDEST STOP JUMPDEST PUSH2 0x2E8 PUSH1 0x4 DUP1 CALLDATASIZE SUB DUP2 ADD SWAP1 PUSH2 0x2E3 SWAP2 SWAP1 PUSH2 0x3D48 JUMP JUMPDEST PUSH2 0x1219 JUMP JUMPDEST PUSH1 0x40 MLOAD PUSH2 0x2F5 SWAP2 SWAP1 PUSH2 0x3E6F JUMP JUMPDEST PUSH1 0x40 MLOAD DUP1 SWAP2 SUB SWAP1 RETURN JUMPDEST PUSH2 0x306 PUSH2 0x1231 JUMP JUMPDEST STOP JUMPDEST PUSH2 0x322 PUSH1 0x4 DUP1 CALLDATASIZE SUB DUP2 ADD SWAP1 PUSH2 0x31D SWAP2 SWAP1 PUSH2 0x3D48 JUMP JUMPDEST PUSH2 0x1321 JUMP JUMPDEST PUSH1 0x40 MLOAD PUSH2 0x332 SWAP5 SWAP4 SWAP3 SWAP2 SWAP1 PUSH2 0x3E8A JUMP JUMPDEST PUSH1 0x40 MLOAD DUP1 SWAP2 SUB SWAP1 RETURN JUMPDEST PUSH2 0x343 PUSH2 0x13E6 JUMP JUMPDEST STOP JUMPDEST PUSH2 0x34D PUSH2 0x14D7 JUMP JUMPDEST STOP JUMPDEST PUSH2 0x369 PUSH1 0x4 DUP1 CALLDATASIZE SUB DUP2 ADD SWAP1 PUSH2 0x364 SWAP2 SWAP1 PUSH2 0x3B63 JUMP JUMPDEST PUSH2 0x14EB JUMP JUMPDEST STOP JUMPDEST PUSH2 0x385 PUSH1 0x4 DUP1 CALLDATASIZE SUB DUP2 ADD SWAP1 PUSH2 0x380 SWAP2 SWAP1 PUSH2 0x3FBC JUMP JUMPDEST PUSH2 0x16BD JUMP JUMPDEST STOP JUMPDEST PUSH2 0x38F PUSH2 0x1AEE JUMP JUMPDEST PUSH1 0x40 MLOAD PUSH2 0x39C SWAP2 SWAP1 PUSH2 0x3E0F JUMP JUMPDEST PUSH1 0x40 MLOAD DUP1 SWAP2 SUB SWAP1 RETURN JUMPDEST PUSH2 0x3AD PUSH2 0x1B17 JUMP JUMPDEST PUSH1 0x40 MLOAD PUSH2 0x3BA SWAP2 SWAP1 PUSH2 0x3E6F JUMP JUMPDEST PUSH1 0x40 MLOAD DUP1 SWAP2 SUB SWAP1 RETURN JUMPDEST PUSH2 0x3DD PUSH1 0x4 DUP1 CALLDATASIZE SUB DUP2 ADD SWAP1 PUSH2 0x3D8 SWAP2 SWAP1 PUSH2 0x3D48 JUMP JUMPDEST PUSH2 0x1B1D JUMP JUMPDEST STOP JUMPDEST PUSH2 0x3F9 PUSH1 0x4 DUP1 CALLDATASIZE SUB DUP2 ADD SWAP1 PUSH2 0x3F4 SWAP2 SWAP1 PUSH2 0x3D48 JUMP JUMPDEST PUSH2 0x1C6A JUMP JUMPDEST PUSH1 0x40 MLOAD PUSH2 0x40A SWAP6 SWAP5 SWAP4 SWAP3 SWAP2 SWAP1 PUSH2 0x4153 JUMP JUMPDEST PUSH1 0x40 MLOAD DUP1 SWAP2 SUB SWAP1 RETURN JUMPDEST PUSH2 0x42D PUSH1 0x4 DUP1 CALLDATASIZE SUB DUP2 ADD SWAP1 PUSH2 0x428 SWAP2 SWAP1 PUSH2 0x3DD3 JUMP JUMPDEST PUSH2 0x1E68 JUMP JUMPDEST PUSH1 0x40 MLOAD PUSH2 0x441 SWAP9 SWAP8 SWAP7 SWAP6 SWAP5 SWAP4 SWAP3 SWAP2 SWAP1 PUSH2 0x41B4 JUMP JUMPDEST PUSH1 0x40 MLOAD DUP1 SWAP2 SUB SWAP1 RETURN JUMPDEST PUSH2 0x464 PUSH1 0x4 DUP1 CALLDATASIZE SUB DUP2 ADD SWAP1 PUSH2 0x45F SWAP2 SWAP1 PUSH2 0x3D48 JUMP JUMPDEST PUSH2 0x2192 JUMP JUMPDEST PUSH1 0x40 MLOAD PUSH2 0x471 SWAP2 SWAP1 PUSH2 0x3E0F JUMP JUMPDEST PUSH1 0x40 MLOAD DUP1 SWAP2 SUB SWAP1 RETURN JUMPDEST PUSH2 0x482 PUSH2 0x21D1 JUMP JUMPDEST PUSH1 0x40 MLOAD PUSH2 0x48F SWAP2 SWAP1 PUSH2 0x4313 JUMP JUMPDEST PUSH1 0x40 MLOAD DUP1 SWAP2 SUB SWAP1 RETURN JUMPDEST PUSH2 0x4A0 PUSH2 0x225F JUMP JUMPDEST PUSH1 0x40 MLOAD PUSH2 0x4AD SWAP2 SWAP1 PUSH2 0x3E45 JUMP JUMPDEST PUSH1 0x40 MLOAD DUP1 SWAP2 SUB SWAP1 RETURN JUMPDEST PUSH2 0x4D0 PUSH1 0x4 DUP1 CALLDATASIZE SUB DUP2 ADD SWAP1 PUSH2 0x4CB SWAP2 SWAP1 PUSH2 0x3DD3 JUMP JUMPDEST PUSH2 0x2272 JUMP JUMPDEST PUSH1 0x40 MLOAD PUSH2 0x4E4 SWAP9 SWAP8 SWAP7 SWAP6 SWAP5 SWAP4 SWAP3 SWAP2 SWAP1 PUSH2 0x41B4 JUMP JUMPDEST PUSH1 0x40 MLOAD DUP1 SWAP2 SUB SWAP1 RETURN JUMPDEST PUSH2 0x4F5 PUSH2 0x2722 JUMP JUMPDEST PUSH1 0x40 MLOAD PUSH2 0x502 SWAP2 SWAP1 PUSH2 0x3E45 JUMP JUMPDEST PUSH1 0x40 MLOAD DUP1 SWAP2 SUB SWAP1 RETURN JUMPDEST PUSH2 0x525 PUSH1 0x4 DUP1 CALLDATASIZE SUB DUP2 ADD SWAP1 PUSH2 0x520 SWAP2 SWAP1 PUSH2 0x3B63 JUMP JUMPDEST PUSH2 0x2735 JUMP JUMPDEST PUSH1 0x40 MLOAD PUSH2 0x534 SWAP4 SWAP3 SWAP2 SWAP1 PUSH2 0x3CFC JUMP JUMPDEST PUSH1 0x40 MLOAD DUP1 SWAP2 SUB SWAP1 RETURN JUMPDEST PUSH2 0x557 PUSH1 0x4 DUP1 CALLDATASIZE SUB DUP2 ADD SWAP1 PUSH2 0x552 SWAP2 SWAP1 PUSH2 0x4335 JUMP JUMPDEST PUSH2 0x29D6 JUMP JUMPDEST STOP JUMPDEST PUSH2 0x573 PUSH1 0x4 DUP1 CALLDATASIZE SUB DUP2 ADD SWAP1 PUSH2 0x56E SWAP2 SWAP1 PUSH2 0x3DD3 JUMP JUMPDEST PUSH2 0x2EC0 JUMP JUMPDEST STOP JUMPDEST PUSH2 0x58F PUSH1 0x4 DUP1 CALLDATASIZE SUB DUP2 ADD SWAP1 PUSH2 0x58A SWAP2 SWAP1 PUSH2 0x3D48 JUMP JUMPDEST PUSH2 0x2F46 JUMP JUMPDEST PUSH1 0x40 MLOAD PUSH2 0x59C SWAP2 SWAP1 PUSH2 0x3E0F JUMP JUMPDEST PUSH1 0x40 MLOAD DUP1 SWAP2 SUB SWAP1 RETURN JUMPDEST PUSH2 0x5BF PUSH1 0x4 DUP1 CALLDATASIZE SUB DUP2 ADD SWAP1 PUSH2 0x5BA SWAP2 SWAP1 PUSH2 0x43A4 JUMP JUMPDEST PUSH2 0x2FD5 JUMP JUMPDEST STOP JUMPDEST PUSH2 0x5DB PUSH1 0x4 DUP1 CALLDATASIZE SUB DUP2 ADD SWAP1 PUSH2 0x5D6 SWAP2 SWAP1 PUSH2 0x4413 JUMP JUMPDEST PUSH2 0x3107 JUMP JUMPDEST STOP JUMPDEST PUSH1 0x60 DUP1 PUSH1 0x60 DUP5 PUSH1 0x6 SLOAD DUP2 GT ISZERO PUSH2 0x628 JUMPI PUSH1 0x40 MLOAD PUSH32 0x8C379A000000000000000000000000000000000000000000000000000000000 DUP2 MSTORE PUSH1 0x4 ADD PUSH2 0x61F SWAP1 PUSH2 0x4578 JUMP JUMPDEST PUSH1 0x40 MLOAD DUP1 SWAP2 SUB SWAP1 REVERT JUMPDEST PUSH1 0x0 PUSH1 0x5 PUSH1 0x0 DUP9 DUP2 MSTORE PUSH1 0x20 ADD SWAP1 DUP2 MSTORE PUSH1 0x20 ADD PUSH1 0x0 KECCAK256 SWAP1 POP DUP1 PUSH1 0x1 ADD PUSH1 0x0 SWAP1 SLOAD SWAP1 PUSH2 0x100 EXP SWAP1 DIV PUSH1 0xFF AND ISZERO PUSH2 0x691 JUMPI PUSH1 0x40 MLOAD PUSH32 0x8C379A000000000000000000000000000000000000000000000000000000000 DUP2 MSTORE PUSH1 0x4 ADD PUSH2 0x688 SWAP1 PUSH2 0x45E4 JUMP JUMPDEST PUSH1 0x40 MLOAD DUP1 SWAP2 SUB SWAP1 REVERT JUMPDEST PUSH1 0x0 DUP2 PUSH1 0x4 ADD DUP8 PUSH1 0x40 MLOAD PUSH2 0x6A5 SWAP2 SWAP1 PUSH2 0x4640 JUMP JUMPDEST SWAP1 DUP2 MSTORE PUSH1 0x20 ADD PUSH1 0x40 MLOAD DUP1 SWAP2 SUB SWAP1 KECCAK256 SWAP1 POP PUSH1 0x0 DUP2 PUSH1 0x1 ADD DUP1 SLOAD DUP1 PUSH1 0x20 MUL PUSH1 0x20 ADD PUSH1 0x40 MLOAD SWAP1 DUP2 ADD PUSH1 0x40 MSTORE DUP1 SWAP3 SWAP2 SWAP1 DUP2 DUP2 MSTORE PUSH1 0x20 ADD DUP3 DUP1 SLOAD DUP1 ISZERO PUSH2 0x705 JUMPI PUSH1 0x20 MUL DUP3 ADD SWAP2 SWAP1 PUSH1 0x0 MSTORE PUSH1 0x20 PUSH1 0x0 KECCAK256 SWAP1 JUMPDEST DUP2 SLOAD DUP2 MSTORE PUSH1 0x20 ADD SWAP1 PUSH1 0x1 ADD SWAP1 DUP1 DUP4 GT PUSH2 0x6F1 JUMPI JUMPDEST POP POP POP POP POP SWAP1 POP PUSH1 0x0 DUP2 MLOAD PUSH8 0xFFFFFFFFFFFFFFFF DUP2 GT ISZERO PUSH2 0x729 JUMPI PUSH2 0x728 PUSH2 0x3A38 JUMP JUMPDEST JUMPDEST PUSH1 0x40 MLOAD SWAP1 DUP1 DUP3 MSTORE DUP1 PUSH1 0x20 MUL PUSH1 0x20 ADD DUP3 ADD PUSH1 0x40 MSTORE DUP1 ISZERO PUSH2 0x757 JUMPI DUP2 PUSH1 0x20 ADD PUSH1 0x20 DUP3 MUL DUP1 CALLDATASIZE DUP4 CALLDATACOPY DUP1 DUP3 ADD SWAP2 POP POP SWAP1 POP JUMPDEST POP SWAP1 POP PUSH1 0x0 JUMPDEST DUP3 MLOAD DUP2 LT ISZERO PUSH2 0x7DA JUMPI PUSH1 0x0 DUP4 DUP3 DUP2 MLOAD DUP2 LT PUSH2 0x77B JUMPI PUSH2 0x77A PUSH2 0x4657 JUMP JUMPDEST JUMPDEST PUSH1 0x20 MUL PUSH1 0x20 ADD ADD MLOAD SWAP1 POP PUSH1 0x7 PUSH1 0x0 DUP14 DUP2 MSTORE PUSH1 0x20 ADD SWAP1 DUP2 MSTORE PUSH1 0x20 ADD PUSH1 0x0 KECCAK256 PUSH1 0x0 DUP3 DUP2 MSTORE PUSH1 0x20 ADD SWAP1 DUP2 MSTORE PUSH1 0x20 ADD PUSH1 0x0 KECCAK256 PUSH1 0x2 ADD SLOAD DUP4 DUP4 DUP2 MLOAD DUP2 LT PUSH2 0x7C0 JUMPI PUSH2 0x7BF PUSH2 0x4657 JUMP JUMPDEST JUMPDEST PUSH1 0x20 MUL PUSH1 0x20 ADD ADD DUP2 DUP2 MSTORE POP POP POP DUP1 DUP1 PUSH1 0x1 ADD SWAP2 POP POP PUSH2 0x75D JUMP JUMPDEST POP DUP3 PUSH1 0x0 ADD DUP3 DUP3 DUP3 DUP1 SLOAD PUSH2 0x7ED SWAP1 PUSH2 0x46B5 JUMP JUMPDEST DUP1 PUSH1 0x1F ADD PUSH1 0x20 DUP1 SWAP2 DIV MUL PUSH1 0x20 ADD PUSH1 0x40 MLOAD SWAP1 DUP2 ADD PUSH1 0x40 MSTORE DUP1 SWAP3 SWAP2 SWAP1 DUP2 DUP2 MSTORE PUSH1 0x20 ADD DUP3 DUP1 SLOAD PUSH2 0x819 SWAP1 PUSH2 0x46B5 JUMP JUMPDEST DUP1 ISZERO PUSH2 0x866 JUMPI DUP1 PUSH1 0x1F LT PUSH2 0x83B JUMPI PUSH2 0x100 DUP1 DUP4 SLOAD DIV MUL DUP4 MSTORE SWAP2 PUSH1 0x20 ADD SWAP2 PUSH2 0x866 JUMP JUMPDEST DUP3 ADD SWAP2 SWAP1 PUSH1 0x0 MSTORE PUSH1 0x20 PUSH1 0x0 KECCAK256 SWAP1 JUMPDEST DUP2 SLOAD DUP2 MSTORE SWAP1 PUSH1 0x1 ADD SWAP1 PUSH1 0x20 ADD DUP1 DUP4 GT PUSH2 0x849 JUMPI DUP3 SWAP1 SUB PUSH1 0x1F AND DUP3 ADD SWAP2 JUMPDEST POP POP POP POP POP SWAP3 POP SWAP8 POP SWAP8 POP SWAP8 POP POP POP POP POP POP SWAP3 POP SWAP3 POP SWAP3 JUMP JUMPDEST PUSH2 0x887 PUSH2 0x3476 JUMP JUMPDEST DUP1 PUSH1 0x6 SLOAD DUP2 GT ISZERO PUSH2 0x8CD JUMPI PUSH1 0x40 MLOAD PUSH32 0x8C379A000000000000000000000000000000000000000000000000000000000 DUP2 MSTORE PUSH1 0x4 ADD PUSH2 0x8C4 SWAP1 PUSH2 0x4578 JUMP JUMPDEST PUSH1 0x40 MLOAD DUP1 SWAP2 SUB SWAP1 REVERT JUMPDEST PUSH1 0x0 PUSH1 0x5 PUSH1 0x0 DUP5 DUP2 MSTORE PUSH1 0x20 ADD SWAP1 DUP2 MSTORE PUSH1 0x20 ADD PUSH1 0x0 KECCAK256 SWAP1 POP DUP1 PUSH1 0x1 ADD PUSH1 0x0 SWAP1 SLOAD SWAP1 PUSH2 0x100 EXP SWAP1 DIV PUSH1 0xFF AND PUSH2 0x935 JUMPI PUSH1 0x40 MLOAD PUSH32 0x8C379A000000000000000000000000000000000000000000000000000000000 DUP2 MSTORE PUSH1 0x4 ADD PUSH2 0x92C SWAP1 PUSH2 0x4732 JUMP JUMPDEST PUSH1 0x40 MLOAD DUP1 SWAP2 SUB SWAP1 REVERT JUMPDEST TIMESTAMP DUP2 PUSH1 0x3 ADD SLOAD GT ISZERO PUSH2 0x97C JUMPI PUSH1 0x40 MLOAD PUSH32 0x8C379A000000000000000000000000000000000000000000000000000000000 DUP2 MSTORE PUSH1 0x4 ADD PUSH2 0x973 SWAP1 PUSH2 0x47C4 JUMP JUMPDEST PUSH1 0x40 MLOAD DUP1 SWAP2 SUB SWAP1 REVERT JUMPDEST PUSH1 0x0 DUP2 PUSH1 0x1 ADD PUSH1 0x0 PUSH2 0x100 EXP DUP2 SLOAD DUP2 PUSH1 0xFF MUL NOT AND SWAP1 DUP4 ISZERO ISZERO MUL OR SWAP1 SSTORE POP DUP3 PUSH32 0x393C4B8E62F1195313CF17DCF00793C668DDFC35881CD8015559C074F6D61E83 PUSH1 0x40 MLOAD PUSH1 0x40 MLOAD DUP1 SWAP2 SUB SWAP1 LOG2 POP POP POP JUMP JUMPDEST PUSH2 0x9D3 PUSH2 0x3476 JUMP JUMPDEST PUSH2 0x9DC DUP2 PUSH2 0x34FD JUMP JUMPDEST PUSH2 0xA1B JUMPI PUSH1 0x40 MLOAD PUSH32 0x8C379A000000000000000000000000000000000000000000000000000000000 DUP2 MSTORE PUSH1 0x4 ADD PUSH2 0xA12 SWAP1 PUSH2 0x4830 JUMP JUMPDEST PUSH1 0x40 MLOAD DUP1 SWAP2 SUB SWAP1 REVERT JUMPDEST PUSH1 0x1 PUSH1 0x2 PUSH1 0x0 DUP4 PUSH20 0xFFFFFFFFFFFFFFFFFFFFFFFFFFFFFFFFFFFFFFFF AND PUSH20 0xFFFFFFFFFFFFFFFFFFFFFFFFFFFFFFFFFFFFFFFF AND DUP2 MSTORE PUSH1 0x20 ADD SWAP1 DUP2 MSTORE PUSH1 0x20 ADD PUSH1 0x0 KECCAK256 PUSH1 0x5 ADD PUSH1 0x14 PUSH2 0x100 EXP DUP2 SLOAD DUP2 PUSH1 0xFF MUL NOT AND SWAP1 DUP4 ISZERO ISZERO MUL OR SWAP1 SSTORE POP PUSH1 0x4 DUP2 SWAP1 DUP1 PUSH1 0x1 DUP2 SLOAD ADD DUP1 DUP3 SSTORE DUP1 SWAP2 POP POP PUSH1 0x1 SWAP1 SUB SWAP1 PUSH1 0x0 MSTORE PUSH1 0x20 PUSH1 0x0 KECCAK256 ADD PUSH1 0x0 SWAP1 SWAP2 SWAP1 SWAP2 SWAP1 SWAP2 PUSH2 0x100 EXP DUP2 SLOAD DUP2 PUSH20 0xFFFFFFFFFFFFFFFFFFFFFFFFFFFFFFFFFFFFFFFF MUL NOT AND SWAP1 DUP4 PUSH20 0xFFFFFFFFFFFFFFFFFFFFFFFFFFFFFFFFFFFFFFFF AND MUL OR SWAP1 SSTORE POP PUSH2 0xAE2 DUP2 PUSH2 0x35A5 JUMP JUMPDEST DUP1 PUSH20 0xFFFFFFFFFFFFFFFFFFFFFFFFFFFFFFFFFFFFFFFF AND PUSH32 0x5AE161FF96A81F4FA8DDD8555AB13483A0FE416F296B510E08CBB11F98F9A10E PUSH1 0x2 PUSH1 0x0 DUP5 PUSH20 0xFFFFFFFFFFFFFFFFFFFFFFFFFFFFFFFFFFFFFFFF AND PUSH20 0xFFFFFFFFFFFFFFFFFFFFFFFFFFFFFFFFFFFFFFFF AND DUP2 MSTORE PUSH1 0x20 ADD SWAP1 DUP2 MSTORE PUSH1 0x20 ADD PUSH1 0x0 KECCAK256 PUSH1 0x3 ADD PUSH1 0x40 MLOAD PUSH2 0xB69 SWAP2 SWAP1 PUSH2 0x48E9 JUMP JUMPDEST PUSH1 0x40 MLOAD DUP1 SWAP2 SUB SWAP1 LOG2 POP JUMP JUMPDEST PUSH2 0xB7C PUSH2 0x3476 JUMP JUMPDEST PUSH2 0xB85 DUP2 PUSH2 0x34FD JUMP JUMPDEST PUSH2 0xBC4 JUMPI PUSH1 0x40 MLOAD PUSH32 0x8C379A000000000000000000000000000000000000000000000000000000000 DUP2 MSTORE PUSH1 0x4 ADD PUSH2 0xBBB SWAP1 PUSH2 0x4830 JUMP JUMPDEST PUSH1 0x40 MLOAD DUP1 SWAP2 SUB SWAP1 REVERT JUMPDEST PUSH1 0x0 PUSH1 0x2 PUSH1 0x0 DUP4 PUSH20 0xFFFFFFFFFFFFFFFFFFFFFFFFFFFFFFFFFFFFFFFF AND PUSH20 0xFFFFFFFFFFFFFFFFFFFFFFFFFFFFFFFFFFFFFFFF AND DUP2 MSTORE PUSH1 0x20 ADD SWAP1 DUP2 MSTORE PUSH1 0x20 ADD PUSH1 0x0 KECCAK256 PUSH1 0x3 ADD DUP1 SLOAD PUSH2 0xC13 SWAP1 PUSH2 0x46B5 JUMP JUMPDEST DUP1 PUSH1 0x1F ADD PUSH1 0x20 DUP1 SWAP2 DIV MUL PUSH1 0x20 ADD PUSH1 0x40 MLOAD SWAP1 DUP2 ADD PUSH1 0x40 MSTORE DUP1 SWAP3 SWAP2 SWAP1 DUP2 DUP2 MSTORE PUSH1 0x20 ADD DUP3 DUP1 SLOAD PUSH2 0xC3F SWAP1 PUSH2 0x46B5 JUMP JUMPDEST DUP1 ISZERO PUSH2 0xC8C JUMPI DUP1 PUSH1 0x1F LT PUSH2 0xC61 JUMPI PUSH2 0x100 DUP1 DUP4 SLOAD DIV MUL DUP4 MSTORE SWAP2 PUSH1 0x20 ADD SWAP2 PUSH2 0xC8C JUMP JUMPDEST DUP3 ADD SWAP2 SWAP1 PUSH1 0x0 MSTORE PUSH1 0x20 PUSH1 0x0 KECCAK256 SWAP1 JUMPDEST DUP2 SLOAD DUP2 MSTORE SWAP1 PUSH1 0x1 ADD SWAP1 PUSH1 0x20 ADD DUP1 DUP4 GT PUSH2 0xC6F JUMPI DUP3 SWAP1 SUB PUSH1 0x1F AND DUP3 ADD SWAP2 JUMPDEST POP POP POP POP POP SWAP1 POP PUSH1 0x2 PUSH1 0x0 DUP4 PUSH20 0xFFFFFFFFFFFFFFFFFFFFFFFFFFFFFFFFFFFFFFFF AND PUSH20 0xFFFFFFFFFFFFFFFFFFFFFFFFFFFFFFFFFFFFFFFF AND DUP2 MSTORE PUSH1 0x20 ADD SWAP1 DUP2 MSTORE PUSH1 0x20 ADD PUSH1 0x0 KECCAK256 PUSH1 0x0 DUP1 DUP3 ADD PUSH1 0x0 PUSH2 0xCE3 SWAP2 SWAP1 PUSH2 0x389F JUMP JUMPDEST PUSH1 0x1 DUP3 ADD PUSH1 0x0 PUSH2 0xCF3 SWAP2 SWAP1 PUSH2 0x389F JUMP JUMPDEST PUSH1 0x2 DUP3 ADD PUSH1 0x0 PUSH2 0xD03 SWAP2 SWAP1 PUSH2 0x389F JUMP JUMPDEST PUSH1 0x3 DUP3 ADD PUSH1 0x0 PUSH2 0xD13 SWAP2 SWAP1 PUSH2 0x389F JUMP JUMPDEST PUSH1 0x4 DUP3 ADD PUSH1 0x0 PUSH2 0xD23 SWAP2 SWAP1 PUSH2 0x389F JUMP JUMPDEST PUSH1 0x5 DUP3 ADD PUSH1 0x0 PUSH2 0x100 EXP DUP2 SLOAD SWAP1 PUSH20 0xFFFFFFFFFFFFFFFFFFFFFFFFFFFFFFFFFFFFFFFF MUL NOT AND SWAP1 SSTORE PUSH1 0x5 DUP3 ADD PUSH1 0x14 PUSH2 0x100 EXP DUP2 SLOAD SWAP1 PUSH1 0xFF MUL NOT AND SWAP1 SSTORE PUSH1 0x5 DUP3 ADD PUSH1 0x15 PUSH2 0x100 EXP DUP2 SLOAD SWAP1 PUSH1 0xFF MUL NOT AND SWAP1 SSTORE POP POP PUSH2 0xD7D DUP3 PUSH2 0x35A5 JUMP JUMPDEST DUP2 PUSH20 0xFFFFFFFFFFFFFFFFFFFFFFFFFFFFFFFFFFFFFFFF AND PUSH32 0x376D99D855649BD6E81E7FCE16D54AC5F2C7FADAE7B2F50B619C182AFE401BBB DUP3 PUSH1 0x40 MLOAD PUSH2 0xDC3 SWAP2 SWAP1 PUSH2 0x490B JUMP JUMPDEST PUSH1 0x40 MLOAD DUP1 SWAP2 SUB SWAP1 LOG2 POP POP JUMP JUMPDEST PUSH1 0x3 DUP2 DUP2 SLOAD DUP2 LT PUSH2 0xDDF JUMPI PUSH1 0x0 DUP1 REVERT JUMPDEST SWAP1 PUSH1 0x0 MSTORE PUSH1 0x20 PUSH1 0x0 KECCAK256 ADD PUSH1 0x0 SWAP2 POP SLOAD SWAP1 PUSH2 0x100 EXP SWAP1 DIV PUSH20 0xFFFFFFFFFFFFFFFFFFFFFFFFFFFFFFFFFFFFFFFF AND DUP2 JUMP JUMPDEST PUSH1 0x0 DUP2 PUSH20 0xFFFFFFFFFFFFFFFFFFFFFFFFFFFFFFFFFFFFFFFF AND PUSH2 0xE2F PUSH2 0x1AEE JUMP JUMPDEST PUSH20 0xFFFFFFFFFFFFFFFFFFFFFFFFFFFFFFFFFFFFFFFF AND EQ SWAP1 POP SWAP2 SWAP1 POP JUMP JUMPDEST PUSH2 0xE55 PUSH2 0x3476 JUMP JUMPDEST PUSH1 0xA PUSH1 0x0 SWAP1 SLOAD SWAP1 PUSH2 0x100 EXP SWAP1 DIV PUSH1 0xFF AND ISZERO PUSH2 0xEA5 JUMPI PUSH1 0x40 MLOAD PUSH32 0x8C379A000000000000000000000000000000000000000000000000000000000 DUP2 MSTORE PUSH1 0x4 ADD PUSH2 0xE9C SWAP1 PUSH2 0x499F JUMP JUMPDEST PUSH1 0x40 MLOAD DUP1 SWAP2 SUB SWAP1 REVERT JUMPDEST PUSH1 0x0 JUMPDEST PUSH1 0x3 DUP1 SLOAD SWAP1 POP DUP2 LT ISZERO PUSH2 0xFE7 JUMPI PUSH1 0x0 PUSH1 0x3 DUP3 DUP2 SLOAD DUP2 LT PUSH2 0xECB JUMPI PUSH2 0xECA PUSH2 0x4657 JUMP JUMPDEST JUMPDEST SWAP1 PUSH1 0x0 MSTORE PUSH1 0x20 PUSH1 0x0 KECCAK256 ADD PUSH1 0x0 SWAP1 SLOAD SWAP1 PUSH2 0x100 EXP SWAP1 DIV PUSH20 0xFFFFFFFFFFFFFFFFFFFFFFFFFFFFFFFFFFFFFFFF AND SWAP1 POP PUSH1 0x2 PUSH1 0x0 DUP3 PUSH20 0xFFFFFFFFFFFFFFFFFFFFFFFFFFFFFFFFFFFFFFFF AND PUSH20 0xFFFFFFFFFFFFFFFFFFFFFFFFFFFFFFFFFFFFFFFF AND DUP2 MSTORE PUSH1 0x20 ADD SWAP1 DUP2 MSTORE PUSH1 0x20 ADD PUSH1 0x0 KECCAK256 PUSH1 0x0 DUP1 DUP3 ADD PUSH1 0x0 PUSH2 0xF48 SWAP2 SWAP1 PUSH2 0x389F JUMP JUMPDEST PUSH1 0x1 DUP3 ADD PUSH1 0x0 PUSH2 0xF58 SWAP2 SWAP1 PUSH2 0x389F JUMP JUMPDEST PUSH1 0x2 DUP3 ADD PUSH1 0x0 PUSH2 0xF68 SWAP2 SWAP1 PUSH2 0x389F JUMP JUMPDEST PUSH1 0x3 DUP3 ADD PUSH1 0x0 PUSH2 0xF78 SWAP2 SWAP1 PUSH2 0x389F JUMP JUMPDEST PUSH1 0x4 DUP3 ADD PUSH1 0x0 PUSH2 0xF88 SWAP2 SWAP1 PUSH2 0x389F JUMP JUMPDEST PUSH1 0x5 DUP3 ADD PUSH1 0x0 PUSH2 0x100 EXP DUP2 SLOAD SWAP1 PUSH20 0xFFFFFFFFFFFFFFFFFFFFFFFFFFFFFFFFFFFFFFFF MUL NOT AND SWAP1 SSTORE PUSH1 0x5 DUP3 ADD PUSH1 0x14 PUSH2 0x100 EXP DUP2 SLOAD SWAP1 PUSH1 0xFF MUL NOT AND SWAP1 SSTORE PUSH1 0x5 DUP3 ADD PUSH1 0x15 PUSH2 0x100 EXP DUP2 SLOAD SWAP1 PUSH1 0xFF MUL NOT AND SWAP1 SSTORE POP POP POP DUP1 DUP1 PUSH1 0x1 ADD SWAP2 POP POP PUSH2 0xEA8 JUMP JUMPDEST POP PUSH1 0x0 JUMPDEST PUSH1 0x4 DUP1 SLOAD SWAP1 POP DUP2 LT ISZERO PUSH2 0x112A JUMPI PUSH1 0x0 PUSH1 0x4 DUP3 DUP2 SLOAD DUP2 LT PUSH2 0x100E JUMPI PUSH2 0x100D PUSH2 0x4657 JUMP JUMPDEST JUMPDEST SWAP1 PUSH1 0x0 MSTORE PUSH1 0x20 PUSH1 0x0 KECCAK256 ADD PUSH1 0x0 SWAP1 SLOAD SWAP1 PUSH2 0x100 EXP SWAP1 DIV PUSH20 0xFFFFFFFFFFFFFFFFFFFFFFFFFFFFFFFFFFFFFFFF AND SWAP1 POP PUSH1 0x2 PUSH1 0x0 DUP3 PUSH20 0xFFFFFFFFFFFFFFFFFFFFFFFFFFFFFFFFFFFFFFFF AND PUSH20 0xFFFFFFFFFFFFFFFFFFFFFFFFFFFFFFFFFFFFFFFF AND DUP2 MSTORE PUSH1 0x20 ADD SWAP1 DUP2 MSTORE PUSH1 0x20 ADD PUSH1 0x0 KECCAK256 PUSH1 0x0 DUP1 DUP3 ADD PUSH1 0x0 PUSH2 0x108B SWAP2 SWAP1 PUSH2 0x389F JUMP JUMPDEST PUSH1 0x1 DUP3 ADD PUSH1 0x0 PUSH2 0x109B SWAP2 SWAP1 PUSH2 0x389F JUMP JUMPDEST PUSH1 0x2 DUP3 ADD PUSH1 0x0 PUSH2 0x10AB SWAP2 SWAP1 PUSH2 0x389F JUMP JUMPDEST PUSH1 0x3 DUP3 ADD PUSH1 0x0 PUSH2 0x10BB SWAP2 SWAP1 PUSH2 0x389F JUMP JUMPDEST PUSH1 0x4 DUP3 ADD PUSH1 0x0 PUSH2 0x10CB SWAP2 SWAP1 PUSH2 0x389F JUMP JUMPDEST PUSH1 0x5 DUP3 ADD PUSH1 0x0 PUSH2 0x100 EXP DUP2 SLOAD SWAP1 PUSH20 0xFFFFFFFFFFFFFFFFFFFFFFFFFFFFFFFFFFFFFFFF MUL NOT AND SWAP1 SSTORE PUSH1 0x5 DUP3 ADD PUSH1 0x14 PUSH2 0x100 EXP DUP2 SLOAD SWAP1 PUSH1 0xFF MUL NOT AND SWAP1 SSTORE PUSH1 0x5 DUP3 ADD PUSH1 0x15 PUSH2 0x100 EXP DUP2 SLOAD SWAP1 PUSH1 0xFF MUL NOT AND SWAP1 SSTORE POP POP POP DUP1 DUP1 PUSH1 0x1 ADD SWAP2 POP POP PUSH2 0xFEB JUMP JUMPDEST POP PUSH1 0x0 PUSH8 0xFFFFFFFFFFFFFFFF DUP2 GT ISZERO PUSH2 0x1146 JUMPI PUSH2 0x1145 PUSH2 0x3A38 JUMP JUMPDEST JUMPDEST PUSH1 0x40 MLOAD SWAP1 DUP1 DUP3 MSTORE DUP1 PUSH1 0x20 MUL PUSH1 0x20 ADD DUP3 ADD PUSH1 0x40 MSTORE DUP1 ISZERO PUSH2 0x1174 JUMPI DUP2 PUSH1 0x20 ADD PUSH1 0x20 DUP3 MUL DUP1 CALLDATASIZE DUP4 CALLDATACOPY DUP1 DUP3 ADD SWAP2 POP POP SWAP1 POP JUMPDEST POP PUSH1 0x3 SWAP1 DUP1 MLOAD SWAP1 PUSH1 0x20 ADD SWAP1 PUSH2 0x118A SWAP3 SWAP2 SWAP1 PUSH2 0x38DF JUMP JUMPDEST POP PUSH1 0x0 PUSH8 0xFFFFFFFFFFFFFFFF DUP2 GT ISZERO PUSH2 0x11A6 JUMPI PUSH2 0x11A5 PUSH2 0x3A38 JUMP JUMPDEST JUMPDEST PUSH1 0x40 MLOAD SWAP1 DUP1 DUP3 MSTORE DUP1 PUSH1 0x20 MUL PUSH1 0x20 ADD DUP3 ADD PUSH1 0x40 MSTORE DUP1 ISZERO PUSH2 0x11D4 JUMPI DUP2 PUSH1 0x20 ADD PUSH1 0x20 DUP3 MUL DUP1 CALLDATASIZE DUP4 CALLDATACOPY DUP1 DUP3 ADD SWAP2 POP POP SWAP1 POP JUMPDEST POP PUSH1 0x4 SWAP1 DUP1 MLOAD SWAP1 PUSH1 0x20 ADD SWAP1 PUSH2 0x11EA SWAP3 SWAP2 SWAP1 PUSH2 0x38DF JUMP JUMPDEST POP PUSH32 0x351A0247E8BB60A07BEA1959DF8F0E260DEE3B0CCBBEF1517CA1367B986664EB PUSH1 0x40 MLOAD PUSH1 0x40 MLOAD DUP1 SWAP2 SUB SWAP1 LOG1 JUMP JUMPDEST PUSH1 0x8 PUSH1 0x20 MSTORE DUP1 PUSH1 0x0 MSTORE PUSH1 0x40 PUSH1 0x0 KECCAK256 PUSH1 0x0 SWAP2 POP SWAP1 POP SLOAD DUP2 JUMP JUMPDEST PUSH2 0x1239 PUSH2 0x3476 JUMP JUMPDEST PUSH1 0xA PUSH1 0x0 SWAP1 SLOAD SWAP1 PUSH2 0x100 EXP SWAP1 DIV PUSH1 0xFF AND PUSH2 0x1288 JUMPI PUSH1 0x40 MLOAD PUSH32 0x8C379A000000000000000000000000000000000000000000000000000000000 DUP2 MSTORE PUSH1 0x4 ADD PUSH2 0x127F SWAP1 PUSH2 0x4A0B JUMP JUMPDEST PUSH1 0x40 MLOAD DUP1 SWAP2 SUB SWAP1 REVERT JUMPDEST PUSH1 0xA PUSH1 0x1 SWAP1 SLOAD SWAP1 PUSH2 0x100 EXP SWAP1 DIV PUSH1 0xFF AND ISZERO PUSH2 0x12D8 JUMPI PUSH1 0x40 MLOAD PUSH32 0x8C379A000000000000000000000000000000000000000000000000000000000 DUP2 MSTORE PUSH1 0x4 ADD PUSH2 0x12CF SWAP1 PUSH2 0x4A77 JUMP JUMPDEST PUSH1 0x40 MLOAD DUP1 SWAP2 SUB SWAP1 REVERT JUMPDEST PUSH1 0x1 PUSH1 0xA PUSH1 0x1 PUSH2 0x100 EXP DUP2 SLOAD DUP2 PUSH1 0xFF MUL NOT AND SWAP1 DUP4 ISZERO ISZERO MUL OR SWAP1 SSTORE POP PUSH32 0x66EC723071E4BB646F7B35D31BC2DEE8510979BD8C180EDD0690D4F5E802F1E4 PUSH1 0x40 MLOAD PUSH1 0x40 MLOAD DUP1 SWAP2 SUB SWAP1 LOG1 JUMP JUMPDEST PUSH1 0x5 PUSH1 0x20 MSTORE DUP1 PUSH1 0x0 MSTORE PUSH1 0x40 PUSH1 0x0 KECCAK256 PUSH1 0x0 SWAP2 POP SWAP1 POP DUP1 PUSH1 0x0 ADD DUP1 SLOAD PUSH2 0x1344 SWAP1 PUSH2 0x46B5 JUMP JUMPDEST DUP1 PUSH1 0x1F ADD PUSH1 0x20 DUP1 SWAP2 DIV MUL PUSH1 0x20 ADD PUSH1 0x40 MLOAD SWAP1 DUP2 ADD PUSH1 0x40 MSTORE DUP1 SWAP3 SWAP2 SWAP1 DUP2 DUP2 MSTORE PUSH1 0x20 ADD DUP3 DUP1 SLOAD PUSH2 0x1370 SWAP1 PUSH2 0x46B5 JUMP JUMPDEST DUP1 ISZERO PUSH2 0x13BD JUMPI DUP1 PUSH1 0x1F LT PUSH2 0x1392 JUMPI PUSH2 0x100 DUP1 DUP4 SLOAD DIV MUL DUP4 MSTORE SWAP2 PUSH1 0x20 ADD SWAP2 PUSH2 0x13BD JUMP JUMPDEST DUP3 ADD SWAP2 SWAP1 PUSH1 0x0 MSTORE PUSH1 0x20 PUSH1 0x0 KECCAK256 SWAP1 JUMPDEST DUP2 SLOAD DUP2 MSTORE SWAP1 PUSH1 0x1 ADD SWAP1 PUSH1 0x20 ADD DUP1 DUP4 GT PUSH2 0x13A0 JUMPI DUP3 SWAP1 SUB PUSH1 0x1F AND DUP3 ADD SWAP2 JUMPDEST POP POP POP POP POP SWAP1 DUP1 PUSH1 0x1 ADD PUSH1 0x0 SWAP1 SLOAD SWAP1 PUSH2 0x100 EXP SWAP1 DIV PUSH1 0xFF AND SWAP1 DUP1 PUSH1 0x2 ADD SLOAD SWAP1 DUP1 PUSH1 0x3 ADD SLOAD SWAP1 POP DUP5 JUMP JUMPDEST PUSH2 0x13EE PUSH2 0x3476 JUMP JUMPDEST PUSH1 0xA PUSH1 0x0 SWAP1 SLOAD SWAP1 PUSH2 0x100 EXP SWAP1 DIV PUSH1 0xFF AND ISZERO PUSH2 0x143E JUMPI PUSH1 0x40 MLOAD PUSH32 0x8C379A000000000000000000000000000000000000000000000000000000000 DUP2 MSTORE PUSH1 0x4 ADD PUSH2 0x1435 SWAP1 PUSH2 0x4AE3 JUMP JUMPDEST PUSH1 0x40 MLOAD DUP1 SWAP2 SUB SWAP1 REVERT JUMPDEST PUSH1 0xA PUSH1 0x1 SWAP1 SLOAD SWAP1 PUSH2 0x100 EXP SWAP1 DIV PUSH1 0xFF AND ISZERO PUSH2 0x148E JUMPI PUSH1 0x40 MLOAD PUSH32 0x8C379A000000000000000000000000000000000000000000000000000000000 DUP2 MSTORE PUSH1 0x4 ADD PUSH2 0x1485 SWAP1 PUSH2 0x4A77 JUMP JUMPDEST PUSH1 0x40 MLOAD DUP1 SWAP2 SUB SWAP1 REVERT JUMPDEST PUSH1 0x1 PUSH1 0xA PUSH1 0x0 PUSH2 0x100 EXP DUP2 SLOAD DUP2 PUSH1 0xFF MUL NOT AND SWAP1 DUP4 ISZERO ISZERO MUL OR SWAP1 SSTORE POP PUSH32 0xC475C26AA25ED8E85A7FAA790E5F63B5D7EE1025F12821F4C9BFDDD36AB4D112 PUSH1 0x40 MLOAD PUSH1 0x40 MLOAD DUP1 SWAP2 SUB SWAP1 LOG1 JUMP JUMPDEST PUSH2 0x14DF PUSH2 0x3476 JUMP JUMPDEST PUSH2 0x14E9 PUSH1 0x0 PUSH2 0x372F JUMP JUMPDEST JUMP JUMPDEST PUSH2 0x14F3 PUSH2 0x3476 JUMP JUMPDEST DUP2 PUSH1 0x6 SLOAD DUP2 GT ISZERO PUSH2 0x1539 JUMPI PUSH1 0x40 MLOAD PUSH32 0x8C379A000000000000000000000000000000000000000000000000000000000 DUP2 MSTORE PUSH1 0x4 ADD PUSH2 0x1530 SWAP1 PUSH2 0x4578 JUMP JUMPDEST PUSH1 0x40 MLOAD DUP1 SWAP2 SUB SWAP1 REVERT JUMPDEST PUSH1 0x0 DUP3 MLOAD GT PUSH2 0x157D JUMPI PUSH1 0x40 MLOAD PUSH32 0x8C379A000000000000000000000000000000000000000000000000000000000 DUP2 MSTORE PUSH1 0x4 ADD PUSH2 0x1574 SWAP1 PUSH2 0x4B4F JUMP JUMPDEST PUSH1 0x40 MLOAD DUP1 SWAP2 SUB SWAP1 REVERT JUMPDEST PUSH1 0x0 PUSH1 0x5 PUSH1 0x0 DUP6 DUP2 MSTORE PUSH1 0x20 ADD SWAP1 DUP2 MSTORE PUSH1 0x20 ADD PUSH1 0x0 KECCAK256 SWAP1 POP DUP1 PUSH1 0x5 ADD DUP4 SWAP1 DUP1 PUSH1 0x1 DUP2 SLOAD ADD DUP1 DUP3 SSTORE DUP1 SWAP2 POP POP PUSH1 0x1 SWAP1 SUB SWAP1 PUSH1 0x0 MSTORE PUSH1 0x20 PUSH1 0x0 KECCAK256 ADD PUSH1 0x0 SWAP1 SWAP2 SWAP1 SWAP2 SWAP1 SWAP2 POP SWAP1 DUP2 PUSH2 0x15CA SWAP2 SWAP1 PUSH2 0x4D06 JUMP JUMPDEST POP PUSH1 0x40 MLOAD DUP1 PUSH1 0x40 ADD PUSH1 0x40 MSTORE DUP1 DUP5 DUP2 MSTORE PUSH1 0x20 ADD PUSH1 0x0 PUSH8 0xFFFFFFFFFFFFFFFF DUP2 GT ISZERO PUSH2 0x15F7 JUMPI PUSH2 0x15F6 PUSH2 0x3A38 JUMP JUMPDEST JUMPDEST PUSH1 0x40 MLOAD SWAP1 DUP1 DUP3 MSTORE DUP1 PUSH1 0x20 MUL PUSH1 0x20 ADD DUP3 ADD PUSH1 0x40 MSTORE DUP1 ISZERO PUSH2 0x1625 JUMPI DUP2 PUSH1 0x20 ADD PUSH1 0x20 DUP3 MUL DUP1 CALLDATASIZE DUP4 CALLDATACOPY DUP1 DUP3 ADD SWAP2 POP POP SWAP1 POP JUMPDEST POP DUP2 MSTORE POP DUP2 PUSH1 0x4 ADD DUP5 PUSH1 0x40 MLOAD PUSH2 0x163B SWAP2 SWAP1 PUSH2 0x4640 JUMP JUMPDEST SWAP1 DUP2 MSTORE PUSH1 0x20 ADD PUSH1 0x40 MLOAD DUP1 SWAP2 SUB SWAP1 KECCAK256 PUSH1 0x0 DUP3 ADD MLOAD DUP2 PUSH1 0x0 ADD SWAP1 DUP2 PUSH2 0x165E SWAP2 SWAP1 PUSH2 0x4D06 JUMP JUMPDEST POP PUSH1 0x20 DUP3 ADD MLOAD DUP2 PUSH1 0x1 ADD SWAP1 DUP1 MLOAD SWAP1 PUSH1 0x20 ADD SWAP1 PUSH2 0x167B SWAP3 SWAP2 SWAP1 PUSH2 0x3969 JUMP JUMPDEST POP SWAP1 POP POP DUP4 PUSH32 0x9D3F9D97CFA4D97C52F6BE76984C7C9AC6DCBFD36F22E4B5BA1A4FBF01D83A7C DUP5 PUSH1 0x40 MLOAD PUSH2 0x16AF SWAP2 SWAP1 PUSH2 0x490B JUMP JUMPDEST PUSH1 0x40 MLOAD DUP1 SWAP2 SUB SWAP1 LOG2 POP POP POP POP JUMP JUMPDEST PUSH2 0x16C5 PUSH2 0x3476 JUMP JUMPDEST DUP3 PUSH1 0x6 SLOAD DUP2 GT ISZERO PUSH2 0x170B JUMPI PUSH1 0x40 MLOAD PUSH32 0x8C379A000000000000000000000000000000000000000000000000000000000 DUP2 MSTORE PUSH1 0x4 ADD PUSH2 0x1702 SWAP1 PUSH2 0x4578 JUMP JUMPDEST PUSH1 0x40 MLOAD DUP1 SWAP2 SUB SWAP1 REVERT JUMPDEST DUP4 DUP4 PUSH1 0x0 PUSH1 0x5 PUSH1 0x0 DUP5 DUP2 MSTORE PUSH1 0x20 ADD SWAP1 DUP2 MSTORE PUSH1 0x20 ADD PUSH1 0x0 KECCAK256 SWAP1 POP PUSH1 0x0 DUP2 PUSH1 0x4 ADD DUP4 PUSH1 0x40 MLOAD PUSH2 0x1738 SWAP2 SWAP1 PUSH2 0x4640 JUMP JUMPDEST SWAP1 DUP2 MSTORE PUSH1 0x20 ADD PUSH1 0x40 MLOAD DUP1 SWAP2 SUB SWAP1 KECCAK256 PUSH1 0x0 ADD DUP1 SLOAD PUSH2 0x1754 SWAP1 PUSH2 0x46B5 JUMP JUMPDEST SWAP1 POP SUB PUSH2 0x1796 JUMPI PUSH1 0x40 MLOAD PUSH32 0x8C379A000000000000000000000000000000000000000000000000000000000 DUP2 MSTORE PUSH1 0x4 ADD PUSH2 0x178D SWAP1 PUSH2 0x4E24 JUMP JUMPDEST PUSH1 0x40 MLOAD DUP1 SWAP2 SUB SWAP1 REVERT JUMPDEST DUP7 PUSH1 0x0 PUSH1 0x5 PUSH1 0x0 DUP4 DUP2 MSTORE PUSH1 0x20 ADD SWAP1 DUP2 MSTORE PUSH1 0x20 ADD PUSH1 0x0 KECCAK256 SWAP1 POP TIMESTAMP DUP2 PUSH1 0x2 ADD SLOAD GT PUSH2 0x17F4 JUMPI PUSH1 0x40 MLOAD PUSH32 0x8C379A000000000000000000000000000000000000000000000000000000000 DUP2 MSTORE PUSH1 0x4 ADD PUSH2 0x17EB SWAP1 PUSH2 0x4AE3 JUMP JUMPDEST PUSH1 0x40 MLOAD DUP1 SWAP2 SUB SWAP1 REVERT JUMPDEST PUSH1 0x2 DUP8 MLOAD LT ISZERO PUSH2 0x1839 JUMPI PUSH1 0x40 MLOAD PUSH32 0x8C379A000000000000000000000000000000000000000000000000000000000 DUP2 MSTORE PUSH1 0x4 ADD PUSH2 0x1830 SWAP1 PUSH2 0x4EB6 JUMP JUMPDEST PUSH1 0x40 MLOAD DUP1 SWAP2 SUB SWAP1 REVERT JUMPDEST PUSH1 0x0 JUMPDEST DUP8 MLOAD DUP2 LT ISZERO PUSH2 0x1AA8 JUMPI PUSH1 0x9 PUSH1 0x0 DUP12 DUP2 MSTORE PUSH1 0x20 ADD SWAP1 DUP2 MSTORE PUSH1 0x20 ADD PUSH1 0x0 KECCAK256 DUP10 PUSH1 0x40 MLOAD PUSH2 0x1866 SWAP2 SWAP1 PUSH2 0x4640 JUMP JUMPDEST SWAP1 DUP2 MSTORE PUSH1 0x20 ADD PUSH1 0x40 MLOAD DUP1 SWAP2 SUB SWAP1 KECCAK256 DUP9 DUP3 DUP2 MLOAD DUP2 LT PUSH2 0x1887 JUMPI PUSH2 0x1886 PUSH2 0x4657 JUMP JUMPDEST JUMPDEST PUSH1 0x20 MUL PUSH1 0x20 ADD ADD MLOAD PUSH1 0x40 MLOAD PUSH2 0x189C SWAP2 SWAP1 PUSH2 0x4640 JUMP JUMPDEST SWAP1 DUP2 MSTORE PUSH1 0x20 ADD PUSH1 0x40 MLOAD DUP1 SWAP2 SUB SWAP1 KECCAK256 PUSH1 0x0 SWAP1 SLOAD SWAP1 PUSH2 0x100 EXP SWAP1 DIV PUSH1 0xFF AND ISZERO PUSH2 0x18F8 JUMPI PUSH1 0x40 MLOAD PUSH32 0x8C379A000000000000000000000000000000000000000000000000000000000 DUP2 MSTORE PUSH1 0x4 ADD PUSH2 0x18EF SWAP1 PUSH2 0x4F22 JUMP JUMPDEST PUSH1 0x40 MLOAD DUP1 SWAP2 SUB SWAP1 REVERT JUMPDEST PUSH1 0x8 PUSH1 0x0 DUP12 DUP2 MSTORE PUSH1 0x20 ADD SWAP1 DUP2 MSTORE PUSH1 0x20 ADD PUSH1 0x0 KECCAK256 PUSH1 0x0 DUP2 SLOAD DUP1 SWAP3 SWAP2 SWAP1 PUSH2 0x191C SWAP1 PUSH2 0x4F71 JUMP JUMPDEST SWAP2 SWAP1 POP SSTORE POP PUSH1 0x0 PUSH1 0x8 PUSH1 0x0 DUP13 DUP2 MSTORE PUSH1 0x20 ADD SWAP1 DUP2 MSTORE PUSH1 0x20 ADD PUSH1 0x0 KECCAK256 SLOAD SWAP1 POP PUSH1 0x40 MLOAD DUP1 PUSH1 0x60 ADD PUSH1 0x40 MSTORE DUP1 DUP3 DUP2 MSTORE PUSH1 0x20 ADD DUP11 DUP5 DUP2 MLOAD DUP2 LT PUSH2 0x195D JUMPI PUSH2 0x195C PUSH2 0x4657 JUMP JUMPDEST JUMPDEST PUSH1 0x20 MUL PUSH1 0x20 ADD ADD MLOAD DUP2 MSTORE PUSH1 0x20 ADD PUSH1 0x0 DUP2 MSTORE POP PUSH1 0x7 PUSH1 0x0 DUP14 DUP2 MSTORE PUSH1 0x20 ADD SWAP1 DUP2 MSTORE PUSH1 0x20 ADD PUSH1 0x0 KECCAK256 PUSH1 0x0 DUP4 DUP2 MSTORE PUSH1 0x20 ADD SWAP1 DUP2 MSTORE PUSH1 0x20 ADD PUSH1 0x0 KECCAK256 PUSH1 0x0 DUP3 ADD MLOAD DUP2 PUSH1 0x0 ADD SSTORE PUSH1 0x20 DUP3 ADD MLOAD DUP2 PUSH1 0x1 ADD SWAP1 DUP2 PUSH2 0x19B2 SWAP2 SWAP1 PUSH2 0x4D06 JUMP JUMPDEST POP PUSH1 0x40 DUP3 ADD MLOAD DUP2 PUSH1 0x2 ADD SSTORE SWAP1 POP POP PUSH1 0x5 PUSH1 0x0 DUP13 DUP2 MSTORE PUSH1 0x20 ADD SWAP1 DUP2 MSTORE PUSH1 0x20 ADD PUSH1 0x0 KECCAK256 PUSH1 0x4 ADD DUP11 PUSH1 0x40 MLOAD PUSH2 0x19E4 SWAP2 SWAP1 PUSH2 0x4640 JUMP JUMPDEST SWAP1 DUP2 MSTORE PUSH1 0x20 ADD PUSH1 0x40 MLOAD DUP1 SWAP2 SUB SWAP1 KECCAK256 PUSH1 0x1 ADD DUP2 SWAP1 DUP1 PUSH1 0x1 DUP2 SLOAD ADD DUP1 DUP3 SSTORE DUP1 SWAP2 POP POP PUSH1 0x1 SWAP1 SUB SWAP1 PUSH1 0x0 MSTORE PUSH1 0x20 PUSH1 0x0 KECCAK256 ADD PUSH1 0x0 SWAP1 SWAP2 SWAP1 SWAP2 SWAP1 SWAP2 POP SSTORE PUSH1 0x1 PUSH1 0x9 PUSH1 0x0 DUP14 DUP2 MSTORE PUSH1 0x20 ADD SWAP1 DUP2 MSTORE PUSH1 0x20 ADD PUSH1 0x0 KECCAK256 DUP12 PUSH1 0x40 MLOAD PUSH2 0x1A3F SWAP2 SWAP1 PUSH2 0x4640 JUMP JUMPDEST SWAP1 DUP2 MSTORE PUSH1 0x20 ADD PUSH1 0x40 MLOAD DUP1 SWAP2 SUB SWAP1 KECCAK256 DUP11 DUP5 DUP2 MLOAD DUP2 LT PUSH2 0x1A60 JUMPI PUSH2 0x1A5F PUSH2 0x4657 JUMP JUMPDEST JUMPDEST PUSH1 0x20 MUL PUSH1 0x20 ADD ADD MLOAD PUSH1 0x40 MLOAD PUSH2 0x1A75 SWAP2 SWAP1 PUSH2 0x4640 JUMP JUMPDEST SWAP1 DUP2 MSTORE PUSH1 0x20 ADD PUSH1 0x40 MLOAD DUP1 SWAP2 SUB SWAP1 KECCAK256 PUSH1 0x0 PUSH2 0x100 EXP DUP2 SLOAD DUP2 PUSH1 0xFF MUL NOT AND SWAP1 DUP4 ISZERO ISZERO MUL OR SWAP1 SSTORE POP POP DUP1 DUP1 PUSH1 0x1 ADD SWAP2 POP POP PUSH2 0x183C JUMP JUMPDEST POP DUP9 PUSH32 0x37655DA66D6D9319FE8F7980D2E7F646378474D166E604A33882BB0BB1705953 DUP10 DUP10 PUSH1 0x40 MLOAD PUSH2 0x1ADB SWAP3 SWAP2 SWAP1 PUSH2 0x4FB9 JUMP JUMPDEST PUSH1 0x40 MLOAD DUP1 SWAP2 SUB SWAP1 LOG2 POP POP POP POP POP POP POP POP POP JUMP JUMPDEST PUSH1 0x0 DUP1 PUSH1 0x0 SWAP1 SLOAD SWAP1 PUSH2 0x100 EXP SWAP1 DIV PUSH20 0xFFFFFFFFFFFFFFFFFFFFFFFFFFFFFFFFFFFFFFFF AND SWAP1 POP SWAP1 JUMP JUMPDEST PUSH1 0x6 SLOAD DUP2 JUMP JUMPDEST PUSH2 0x1B25 PUSH2 0x3476 JUMP JUMPDEST DUP1 PUSH1 0x6 SLOAD DUP2 GT ISZERO PUSH2 0x1B6B JUMPI PUSH1 0x40 MLOAD PUSH32 0x8C379A000000000000000000000000000000000000000000000000000000000 DUP2 MSTORE PUSH1 0x4 ADD PUSH2 0x1B62 SWAP1 PUSH2 0x4578 JUMP JUMPDEST PUSH1 0x40 MLOAD DUP1 SWAP2 SUB SWAP1 REVERT JUMPDEST PUSH1 0x0 PUSH1 0x5 PUSH1 0x0 DUP5 DUP2 MSTORE PUSH1 0x20 ADD SWAP1 DUP2 MSTORE PUSH1 0x20 ADD PUSH1 0x0 KECCAK256 SWAP1 POP DUP1 PUSH1 0x1 ADD PUSH1 0x0 SWAP1 SLOAD SWAP1 PUSH2 0x100 EXP SWAP1 DIV PUSH1 0xFF AND ISZERO PUSH2 0x1BD4 JUMPI PUSH1 0x40 MLOAD PUSH32 0x8C379A000000000000000000000000000000000000000000000000000000000 DUP2 MSTORE PUSH1 0x4 ADD PUSH2 0x1BCB SWAP1 PUSH2 0x503C JUMP JUMPDEST PUSH1 0x40 MLOAD DUP1 SWAP2 SUB SWAP1 REVERT JUMPDEST TIMESTAMP DUP2 PUSH1 0x2 ADD SLOAD GT ISZERO PUSH2 0x1C1B JUMPI PUSH1 0x40 MLOAD PUSH32 0x8C379A000000000000000000000000000000000000000000000000000000000 DUP2 MSTORE PUSH1 0x4 ADD PUSH2 0x1C12 SWAP1 PUSH2 0x50CE JUMP JUMPDEST PUSH1 0x40 MLOAD DUP1 SWAP2 SUB SWAP1 REVERT JUMPDEST PUSH1 0x1 DUP2 PUSH1 0x1 ADD PUSH1 0x0 PUSH2 0x100 EXP DUP2 SLOAD DUP2 PUSH1 0xFF MUL NOT AND SWAP1 DUP4 ISZERO ISZERO MUL OR SWAP1 SSTORE POP DUP3 PUSH32 0x589F8B93514C651C0C92B06BDB8118FE508DAADF2FFDAC1F516191BE20FCB85 PUSH1 0x40 MLOAD PUSH1 0x40 MLOAD DUP1 SWAP2 SUB SWAP1 LOG2 POP POP POP JUMP JUMPDEST PUSH1 0x60 PUSH1 0x0 DUP1 PUSH1 0x0 PUSH1 0x60 DUP6 PUSH1 0x6 SLOAD DUP2 GT ISZERO PUSH2 0x1CB9 JUMPI PUSH1 0x40 MLOAD PUSH32 0x8C379A000000000000000000000000000000000000000000000000000000000 DUP2 MSTORE PUSH1 0x4 ADD PUSH2 0x1CB0 SWAP1 PUSH2 0x4578 JUMP JUMPDEST PUSH1 0x40 MLOAD DUP1 SWAP2 SUB SWAP1 REVERT JUMPDEST PUSH1 0x0 PUSH1 0x5 PUSH1 0x0 DUP10 DUP2 MSTORE PUSH1 0x20 ADD SWAP1 DUP2 MSTORE PUSH1 0x20 ADD PUSH1 0x0 KECCAK256 SWAP1 POP DUP1 PUSH1 0x0 ADD DUP2 PUSH1 0x1 ADD PUSH1 0x0 SWAP1 SLOAD SWAP1 PUSH2 0x100 EXP SWAP1 DIV PUSH1 0xFF AND DUP3 PUSH1 0x2 ADD SLOAD DUP4 PUSH1 0x3 ADD SLOAD DUP5 PUSH1 0x5 ADD DUP5 DUP1 SLOAD PUSH2 0x1D00 SWAP1 PUSH2 0x46B5 JUMP JUMPDEST DUP1 PUSH1 0x1F ADD PUSH1 0x20 DUP1 SWAP2 DIV MUL PUSH1 0x20 ADD PUSH1 0x40 MLOAD SWAP1 DUP2 ADD PUSH1 0x40 MSTORE DUP1 SWAP3 SWAP2 SWAP1 DUP2 DUP2 MSTORE PUSH1 0x20 ADD DUP3 DUP1 SLOAD PUSH2 0x1D2C SWAP1 PUSH2 0x46B5 JUMP JUMPDEST DUP1 ISZERO PUSH2 0x1D79 JUMPI DUP1 PUSH1 0x1F LT PUSH2 0x1D4E JUMPI PUSH2 0x100 DUP1 DUP4 SLOAD DIV MUL DUP4 MSTORE SWAP2 PUSH1 0x20 ADD SWAP2 PUSH2 0x1D79 JUMP JUMPDEST DUP3 ADD SWAP2 SWAP1 PUSH1 0x0 MSTORE PUSH1 0x20 PUSH1 0x0 KECCAK256 SWAP1 JUMPDEST DUP2 SLOAD DUP2 MSTORE SWAP1 PUSH1 0x1 ADD SWAP1 PUSH1 0x20 ADD DUP1 DUP4 GT PUSH2 0x1D5C JUMPI DUP3 SWAP1 SUB PUSH1 0x1F AND DUP3 ADD SWAP2 JUMPDEST POP POP POP POP POP SWAP5 POP DUP1 DUP1 SLOAD DUP1 PUSH1 0x20 MUL PUSH1 0x20 ADD PUSH1 0x40 MLOAD SWAP1 DUP2 ADD PUSH1 0x40 MSTORE DUP1 SWAP3 SWAP2 SWAP1 DUP2 DUP2 MSTORE PUSH1 0x20 ADD PUSH1 0x0 SWAP1 JUMPDEST DUP3 DUP3 LT ISZERO PUSH2 0x1E4D JUMPI DUP4 DUP3 SWAP1 PUSH1 0x0 MSTORE PUSH1 0x20 PUSH1 0x0 KECCAK256 ADD DUP1 SLOAD PUSH2 0x1DC0 SWAP1 PUSH2 0x46B5 JUMP JUMPDEST DUP1 PUSH1 0x1F ADD PUSH1 0x20 DUP1 SWAP2 DIV MUL PUSH1 0x20 ADD PUSH1 0x40 MLOAD SWAP1 DUP2 ADD PUSH1 0x40 MSTORE DUP1 SWAP3 SWAP2 SWAP1 DUP2 DUP2 MSTORE PUSH1 0x20 ADD DUP3 DUP1 SLOAD PUSH2 0x1DEC SWAP1 PUSH2 0x46B5 JUMP JUMPDEST DUP1 ISZERO PUSH2 0x1E39 JUMPI DUP1 PUSH1 0x1F LT PUSH2 0x1E0E JUMPI PUSH2 0x100 DUP1 DUP4 SLOAD DIV MUL DUP4 MSTORE SWAP2 PUSH1 0x20 ADD SWAP2 PUSH2 0x1E39 JUMP JUMPDEST DUP3 ADD SWAP2 SWAP1 PUSH1 0x0 MSTORE PUSH1 0x20 PUSH1 0x0 KECCAK256 SWAP1 JUMPDEST DUP2 SLOAD DUP2 MSTORE SWAP1 PUSH1 0x1 ADD SWAP1 PUSH1 0x20 ADD DUP1 DUP4 GT PUSH2 0x1E1C JUMPI DUP3 SWAP1 SUB PUSH1 0x1F AND DUP3 ADD SWAP2 JUMPDEST POP POP POP POP POP DUP2 MSTORE PUSH1 0x20 ADD SWAP1 PUSH1 0x1 ADD SWAP1 PUSH2 0x1DA1 JUMP JUMPDEST POP POP POP POP SWAP1 POP SWAP7 POP SWAP7 POP SWAP7 POP SWAP7 POP SWAP7 POP POP POP SWAP2 SWAP4 SWAP6 SWAP1 SWAP3 SWAP5 POP JUMP JUMPDEST PUSH1 0x2 PUSH1 0x20 MSTORE DUP1 PUSH1 0x0 MSTORE PUSH1 0x40 PUSH1 0x0 KECCAK256 PUSH1 0x0 SWAP2 POP SWAP1 POP DUP1 PUSH1 0x0 ADD DUP1 SLOAD PUSH2 0x1E8B SWAP1 PUSH2 0x46B5 JUMP JUMPDEST DUP1 PUSH1 0x1F ADD PUSH1 0x20 DUP1 SWAP2 DIV MUL PUSH1 0x20 ADD PUSH1 0x40 MLOAD SWAP1 DUP2 ADD PUSH1 0x40 MSTORE DUP1 SWAP3 SWAP2 SWAP1 DUP2 DUP2 MSTORE PUSH1 0x20 ADD DUP3 DUP1 SLOAD PUSH2 0x1EB7 SWAP1 PUSH2 0x46B5 JUMP JUMPDEST DUP1 ISZERO PUSH2 0x1F04 JUMPI DUP1 PUSH1 0x1F LT PUSH2 0x1ED9 JUMPI PUSH2 0x100 DUP1 DUP4 SLOAD DIV MUL DUP4 MSTORE SWAP2 PUSH1 0x20 ADD SWAP2 PUSH2 0x1F04 JUMP JUMPDEST DUP3 ADD SWAP2 SWAP1 PUSH1 0x0 MSTORE PUSH1 0x20 PUSH1 0x0 KECCAK256 SWAP1 JUMPDEST DUP2 SLOAD DUP2 MSTORE SWAP1 PUSH1 0x1 ADD SWAP1 PUSH1 0x20 ADD DUP1 DUP4 GT PUSH2 0x1EE7 JUMPI DUP3 SWAP1 SUB PUSH1 0x1F AND DUP3 ADD SWAP2 JUMPDEST POP POP POP POP POP SWAP1 DUP1 PUSH1 0x1 ADD DUP1 SLOAD PUSH2 0x1F19 SWAP1 PUSH2 0x46B5 JUMP JUMPDEST DUP1 PUSH1 0x1F ADD PUSH1 0x20 DUP1 SWAP2 DIV MUL PUSH1 0x20 ADD PUSH1 0x40 MLOAD SWAP1 DUP2 ADD PUSH1 0x40 MSTORE DUP1 SWAP3 SWAP2 SWAP1 DUP2 DUP2 MSTORE PUSH1 0x20 ADD DUP3 DUP1 SLOAD PUSH2 0x1F45 SWAP1 PUSH2 0x46B5 JUMP JUMPDEST DUP1 ISZERO PUSH2 0x1F92 JUMPI DUP1 PUSH1 0x1F LT PUSH2 0x1F67 JUMPI PUSH2 0x100 DUP1 DUP4 SLOAD DIV MUL DUP4 MSTORE SWAP2 PUSH1 0x20 ADD SWAP2 PUSH2 0x1F92 JUMP JUMPDEST DUP3 ADD SWAP2 SWAP1 PUSH1 0x0 MSTORE PUSH1 0x20 PUSH1 0x0 KECCAK256 SWAP1 JUMPDEST DUP2 SLOAD DUP2 MSTORE SWAP1 PUSH1 0x1 ADD SWAP1 PUSH1 0x20 ADD DUP1 DUP4 GT PUSH2 0x1F75 JUMPI DUP3 SWAP1 SUB PUSH1 0x1F AND DUP3 ADD SWAP2 JUMPDEST POP POP POP POP POP SWAP1 DUP1 PUSH1 0x2 ADD DUP1 SLOAD PUSH2 0x1FA7 SWAP1 PUSH2 0x46B5 JUMP JUMPDEST DUP1 PUSH1 0x1F ADD PUSH1 0x20 DUP1 SWAP2 DIV MUL PUSH1 0x20 ADD PUSH1 0x40 MLOAD SWAP1 DUP2 ADD PUSH1 0x40 MSTORE DUP1 SWAP3 SWAP2 SWAP1 DUP2 DUP2 MSTORE PUSH1 0x20 ADD DUP3 DUP1 SLOAD PUSH2 0x1FD3 SWAP1 PUSH2 0x46B5 JUMP JUMPDEST DUP1 ISZERO PUSH2 0x2020 JUMPI DUP1 PUSH1 0x1F LT PUSH2 0x1FF5 JUMPI PUSH2 0x100 DUP1 DUP4 SLOAD DIV MUL DUP4 MSTORE SWAP2 PUSH1 0x20 ADD SWAP2 PUSH2 0x2020 JUMP JUMPDEST DUP3 ADD SWAP2 SWAP1 PUSH1 0x0 MSTORE PUSH1 0x20 PUSH1 0x0 KECCAK256 SWAP1 JUMPDEST DUP2 SLOAD DUP2 MSTORE SWAP1 PUSH1 0x1 ADD SWAP1 PUSH1 0x20 ADD DUP1 DUP4 GT PUSH2 0x2003 JUMPI DUP3 SWAP1 SUB PUSH1 0x1F AND DUP3 ADD SWAP2 JUMPDEST POP POP POP POP POP SWAP1 DUP1 PUSH1 0x3 ADD DUP1 SLOAD PUSH2 0x2035 SWAP1 PUSH2 0x46B5 JUMP JUMPDEST DUP1 PUSH1 0x1F ADD PUSH1 0x20 DUP1 SWAP2 DIV MUL PUSH1 0x20 ADD PUSH1 0x40 MLOAD SWAP1 DUP2 ADD PUSH1 0x40 MSTORE DUP1 SWAP3 SWAP2 SWAP1 DUP2 DUP2 MSTORE PUSH1 0x20 ADD DUP3 DUP1 SLOAD PUSH2 0x2061 SWAP1 PUSH2 0x46B5 JUMP JUMPDEST DUP1 ISZERO PUSH2 0x20AE JUMPI DUP1 PUSH1 0x1F LT PUSH2 0x2083 JUMPI PUSH2 0x100 DUP1 DUP4 SLOAD DIV MUL DUP4 MSTORE SWAP2 PUSH1 0x20 ADD SWAP2 PUSH2 0x20AE JUMP JUMPDEST DUP3 ADD SWAP2 SWAP1 PUSH1 0x0 MSTORE PUSH1 0x20 PUSH1 0x0 KECCAK256 SWAP1 JUMPDEST DUP2 SLOAD DUP2 MSTORE SWAP1 PUSH1 0x1 ADD SWAP1 PUSH1 0x20 ADD DUP1 DUP4 GT PUSH2 0x2091 JUMPI DUP3 SWAP1 SUB PUSH1 0x1F AND DUP3 ADD SWAP2 JUMPDEST POP POP POP POP POP SWAP1 DUP1 PUSH1 0x4 ADD DUP1 SLOAD PUSH2 0x20C3 SWAP1 PUSH2 0x46B5 JUMP JUMPDEST DUP1 PUSH1 0x1F ADD PUSH1 0x20 DUP1 SWAP2 DIV MUL PUSH1 0x20 ADD PUSH1 0x40 MLOAD SWAP1 DUP2 ADD PUSH1 0x40 MSTORE DUP1 SWAP3 SWAP2 SWAP1 DUP2 DUP2 MSTORE PUSH1 0x20 ADD DUP3 DUP1 SLOAD PUSH2 0x20EF SWAP1 PUSH2 0x46B5 JUMP JUMPDEST DUP1 ISZERO PUSH2 0x213C JUMPI DUP1 PUSH1 0x1F LT PUSH2 0x2111 JUMPI PUSH2 0x100 DUP1 DUP4 SLOAD DIV MUL DUP4 MSTORE SWAP2 PUSH1 0x20 ADD SWAP2 PUSH2 0x213C JUMP JUMPDEST DUP3 ADD SWAP2 SWAP1 PUSH1 0x0 MSTORE PUSH1 0x20 PUSH1 0x0 KECCAK256 SWAP1 JUMPDEST DUP2 SLOAD DUP2 MSTORE SWAP1 PUSH1 0x1 ADD SWAP1 PUSH1 0x20 ADD DUP1 DUP4 GT PUSH2 0x211F JUMPI DUP3 SWAP1 SUB PUSH1 0x1F AND DUP3 ADD SWAP2 JUMPDEST POP POP POP POP POP SWAP1 DUP1 PUSH1 0x5 ADD PUSH1 0x0 SWAP1 SLOAD SWAP1 PUSH2 0x100 EXP SWAP1 DIV PUSH20 0xFFFFFFFFFFFFFFFFFFFFFFFFFFFFFFFFFFFFFFFF AND SWAP1 DUP1 PUSH1 0x5 ADD PUSH1 0x14 SWAP1 SLOAD SWAP1 PUSH2 0x100 EXP SWAP1 DIV PUSH1 0xFF AND SWAP1 DUP1 PUSH1 0x5 ADD PUSH1 0x15 SWAP1 SLOAD SWAP1 PUSH2 0x100 EXP SWAP1 DIV PUSH1 0xFF AND SWAP1 POP DUP9 JUMP JUMPDEST PUSH1 0x4 DUP2 DUP2 SLOAD DUP2 LT PUSH2 0x21A2 JUMPI PUSH1 0x0 DUP1 REVERT JUMPDEST SWAP1 PUSH1 0x0 MSTORE PUSH1 0x20 PUSH1 0x0 KECCAK256 ADD PUSH1 0x0 SWAP2 POP SLOAD SWAP1 PUSH2 0x100 EXP SWAP1 DIV PUSH20 0xFFFFFFFFFFFFFFFFFFFFFFFFFFFFFFFFFFFFFFFF AND DUP2 JUMP JUMPDEST PUSH1 0x60 PUSH1 0x3 DUP1 SLOAD DUP1 PUSH1 0x20 MUL PUSH1 0x20 ADD PUSH1 0x40 MLOAD SWAP1 DUP2 ADD PUSH1 0x40 MSTORE DUP1 SWAP3 SWAP2 SWAP1 DUP2 DUP2 MSTORE PUSH1 0x20 ADD DUP3 DUP1 SLOAD DUP1 ISZERO PUSH2 0x2255 JUMPI PUSH1 0x20 MUL DUP3 ADD SWAP2 SWAP1 PUSH1 0x0 MSTORE PUSH1 0x20 PUSH1 0x0 KECCAK256 SWAP1 JUMPDEST DUP2 PUSH1 0x0 SWAP1 SLOAD SWAP1 PUSH2 0x100 EXP SWAP1 DIV PUSH20 0xFFFFFFFFFFFFFFFFFFFFFFFFFFFFFFFFFFFFFFFF AND PUSH20 0xFFFFFFFFFFFFFFFFFFFFFFFFFFFFFFFFFFFFFFFF AND DUP2 MSTORE PUSH1 0x20 ADD SWAP1 PUSH1 0x1 ADD SWAP1 DUP1 DUP4 GT PUSH2 0x220B JUMPI JUMPDEST POP POP POP POP POP SWAP1 POP SWAP1 JUMP JUMPDEST PUSH1 0xA PUSH1 0x1 SWAP1 SLOAD SWAP1 PUSH2 0x100 EXP SWAP1 DIV PUSH1 0xFF AND DUP2 JUMP JUMPDEST PUSH1 0x60 DUP1 PUSH1 0x60 DUP1 PUSH1 0x60 PUSH1 0x0 DUP1 PUSH1 0x0 DUP1 PUSH20 0xFFFFFFFFFFFFFFFFFFFFFFFFFFFFFFFFFFFFFFFF AND PUSH1 0x2 PUSH1 0x0 DUP12 PUSH20 0xFFFFFFFFFFFFFFFFFFFFFFFFFFFFFFFFFFFFFFFF AND PUSH20 0xFFFFFFFFFFFFFFFFFFFFFFFFFFFFFFFFFFFFFFFF AND DUP2 MSTORE PUSH1 0x20 ADD SWAP1 DUP2 MSTORE PUSH1 0x20 ADD PUSH1 0x0 KECCAK256 PUSH1 0x5 ADD PUSH1 0x0 SWAP1 SLOAD SWAP1 PUSH2 0x100 EXP SWAP1 DIV PUSH20 0xFFFFFFFFFFFFFFFFFFFFFFFFFFFFFFFFFFFFFFFF AND PUSH20 0xFFFFFFFFFFFFFFFFFFFFFFFFFFFFFFFFFFFFFFFF AND EQ ISZERO DUP1 ISZERO PUSH2 0x236B JUMPI POP PUSH1 0x0 PUSH1 0x2 PUSH1 0x0 DUP12 PUSH20 0xFFFFFFFFFFFFFFFFFFFFFFFFFFFFFFFFFFFFFFFF AND PUSH20 0xFFFFFFFFFFFFFFFFFFFFFFFFFFFFFFFFFFFFFFFF AND DUP2 MSTORE PUSH1 0x20 ADD SWAP1 DUP2 MSTORE PUSH1 0x20 ADD PUSH1 0x0 KECCAK256 PUSH1 0x0 ADD DUP1 SLOAD PUSH2 0x2367 SWAP1 PUSH2 0x46B5 JUMP JUMPDEST SWAP1 POP GT JUMPDEST PUSH2 0x23AA JUMPI PUSH1 0x40 MLOAD PUSH32 0x8C379A000000000000000000000000000000000000000000000000000000000 DUP2 MSTORE PUSH1 0x4 ADD PUSH2 0x23A1 SWAP1 PUSH2 0x513A JUMP JUMPDEST PUSH1 0x40 MLOAD DUP1 SWAP2 SUB SWAP1 REVERT JUMPDEST PUSH1 0x0 PUSH1 0x2 PUSH1 0x0 DUP12 PUSH20 0xFFFFFFFFFFFFFFFFFFFFFFFFFFFFFFFFFFFFFFFF AND PUSH20 0xFFFFFFFFFFFFFFFFFFFFFFFFFFFFFFFFFFFFFFFF AND DUP2 MSTORE PUSH1 0x20 ADD SWAP1 DUP2 MSTORE PUSH1 0x20 ADD PUSH1 0x0 KECCAK256 SWAP1 POP DUP1 PUSH1 0x0 ADD DUP2 PUSH1 0x1 ADD DUP3 PUSH1 0x2 ADD DUP4 PUSH1 0x3 ADD DUP5 PUSH1 0x4 ADD DUP6 PUSH1 0x5 ADD PUSH1 0x0 SWAP1 SLOAD SWAP1 PUSH2 0x100 EXP SWAP1 DIV PUSH20 0xFFFFFFFFFFFFFFFFFFFFFFFFFFFFFFFFFFFFFFFF AND DUP7 PUSH1 0x5 ADD PUSH1 0x14 SWAP1 SLOAD SWAP1 PUSH2 0x100 EXP SWAP1 DIV PUSH1 0xFF AND DUP8 PUSH1 0x5 ADD PUSH1 0x15 SWAP1 SLOAD SWAP1 PUSH2 0x100 EXP SWAP1 DIV PUSH1 0xFF AND DUP8 DUP1 SLOAD PUSH2 0x2456 SWAP1 PUSH2 0x46B5 JUMP JUMPDEST DUP1 PUSH1 0x1F ADD PUSH1 0x20 DUP1 SWAP2 DIV MUL PUSH1 0x20 ADD PUSH1 0x40 MLOAD SWAP1 DUP2 ADD PUSH1 0x40 MSTORE DUP1 SWAP3 SWAP2 SWAP1 DUP2 DUP2 MSTORE PUSH1 0x20 ADD DUP3 DUP1 SLOAD PUSH2 0x2482 SWAP1 PUSH2 0x46B5 JUMP JUMPDEST DUP1 ISZERO PUSH2 0x24CF JUMPI DUP1 PUSH1 0x1F LT PUSH2 0x24A4 JUMPI PUSH2 0x100 DUP1 DUP4 SLOAD DIV MUL DUP4 MSTORE SWAP2 PUSH1 0x20 ADD SWAP2 PUSH2 0x24CF JUMP JUMPDEST DUP3 ADD SWAP2 SWAP1 PUSH1 0x0 MSTORE PUSH1 0x20 PUSH1 0x0 KECCAK256 SWAP1 JUMPDEST DUP2 SLOAD DUP2 MSTORE SWAP1 PUSH1 0x1 ADD SWAP1 PUSH1 0x20 ADD DUP1 DUP4 GT PUSH2 0x24B2 JUMPI DUP3 SWAP1 SUB PUSH1 0x1F AND DUP3 ADD SWAP2 JUMPDEST POP POP POP POP POP SWAP8 POP DUP7 DUP1 SLOAD PUSH2 0x24E2 SWAP1 PUSH2 0x46B5 JUMP JUMPDEST DUP1 PUSH1 0x1F ADD PUSH1 0x20 DUP1 SWAP2 DIV MUL PUSH1 0x20 ADD PUSH1 0x40 MLOAD SWAP1 DUP2 ADD PUSH1 0x40 MSTORE DUP1 SWAP3 SWAP2 SWAP1 DUP2 DUP2 MSTORE PUSH1 0x20 ADD DUP3 DUP1 SLOAD PUSH2 0x250E SWAP1 PUSH2 0x46B5 JUMP JUMPDEST DUP1 ISZERO PUSH2 0x255B JUMPI DUP1 PUSH1 0x1F LT PUSH2 0x2530 JUMPI PUSH2 0x100 DUP1 DUP4 SLOAD DIV MUL DUP4 MSTORE SWAP2 PUSH1 0x20 ADD SWAP2 PUSH2 0x255B JUMP JUMPDEST DUP3 ADD SWAP2 SWAP1 PUSH1 0x0 MSTORE PUSH1 0x20 PUSH1 0x0 KECCAK256 SWAP1 JUMPDEST DUP2 SLOAD DUP2 MSTORE SWAP1 PUSH1 0x1 ADD SWAP1 PUSH1 0x20 ADD DUP1 DUP4 GT PUSH2 0x253E JUMPI DUP3 SWAP1 SUB PUSH1 0x1F AND DUP3 ADD SWAP2 JUMPDEST POP POP POP POP POP SWAP7 POP DUP6 DUP1 SLOAD PUSH2 0x256E SWAP1 PUSH2 0x46B5 JUMP JUMPDEST DUP1 PUSH1 0x1F ADD PUSH1 0x20 DUP1 SWAP2 DIV MUL PUSH1 0x20 ADD PUSH1 0x40 MLOAD SWAP1 DUP2 ADD PUSH1 0x40 MSTORE DUP1 SWAP3 SWAP2 SWAP1 DUP2 DUP2 MSTORE PUSH1 0x20 ADD DUP3 DUP1 SLOAD PUSH2 0x259A SWAP1 PUSH2 0x46B5 JUMP JUMPDEST DUP1 ISZERO PUSH2 0x25E7 JUMPI DUP1 PUSH1 0x1F LT PUSH2 0x25BC JUMPI PUSH2 0x100 DUP1 DUP4 SLOAD DIV MUL DUP4 MSTORE SWAP2 PUSH1 0x20 ADD SWAP2 PUSH2 0x25E7 JUMP JUMPDEST DUP3 ADD SWAP2 SWAP1 PUSH1 0x0 MSTORE PUSH1 0x20 PUSH1 0x0 KECCAK256 SWAP1 JUMPDEST DUP2 SLOAD DUP2 MSTORE SWAP1 PUSH1 0x1 ADD SWAP1 PUSH1 0x20 ADD DUP1 DUP4 GT PUSH2 0x25CA JUMPI DUP3 SWAP1 SUB PUSH1 0x1F AND DUP3 ADD SWAP2 JUMPDEST POP POP POP POP POP SWAP6 POP DUP5 DUP1 SLOAD PUSH2 0x25FA SWAP1 PUSH2 0x46B5 JUMP JUMPDEST DUP1 PUSH1 0x1F ADD PUSH1 0x20 DUP1 SWAP2 DIV MUL PUSH1 0x20 ADD PUSH1 0x40 MLOAD SWAP1 DUP2 ADD PUSH1 0x40 MSTORE DUP1 SWAP3 SWAP2 SWAP1 DUP2 DUP2 MSTORE PUSH1 0x20 ADD DUP3 DUP1 SLOAD PUSH2 0x2626 SWAP1 PUSH2 0x46B5 JUMP JUMPDEST DUP1 ISZERO PUSH2 0x2673 JUMPI DUP1 PUSH1 0x1F LT PUSH2 0x2648 JUMPI PUSH2 0x100 DUP1 DUP4 SLOAD DIV MUL DUP4 MSTORE SWAP2 PUSH1 0x20 ADD SWAP2 PUSH2 0x2673 JUMP JUMPDEST DUP3 ADD SWAP2 SWAP1 PUSH1 0x0 MSTORE PUSH1 0x20 PUSH1 0x0 KECCAK256 SWAP1 JUMPDEST DUP2 SLOAD DUP2 MSTORE SWAP1 PUSH1 0x1 ADD SWAP1 PUSH1 0x20 ADD DUP1 DUP4 GT PUSH2 0x2656 JUMPI DUP3 SWAP1 SUB PUSH1 0x1F AND DUP3 ADD SWAP2 JUMPDEST POP POP POP POP POP SWAP5 POP DUP4 DUP1 SLOAD PUSH2 0x2686 SWAP1 PUSH2 0x46B5 JUMP JUMPDEST DUP1 PUSH1 0x1F ADD PUSH1 0x20 DUP1 SWAP2 DIV MUL PUSH1 0x20 ADD PUSH1 0x40 MLOAD SWAP1 DUP2 ADD PUSH1 0x40 MSTORE DUP1 SWAP3 SWAP2 SWAP1 DUP2 DUP2 MSTORE PUSH1 0x20 ADD DUP3 DUP1 SLOAD PUSH2 0x26B2 SWAP1 PUSH2 0x46B5 JUMP JUMPDEST DUP1 ISZERO PUSH2 0x26FF JUMPI DUP1 PUSH1 0x1F LT PUSH2 0x26D4 JUMPI PUSH2 0x100 DUP1 DUP4 SLOAD DIV MUL DUP4 MSTORE SWAP2 PUSH1 0x20 ADD SWAP2 PUSH2 0x26FF JUMP JUMPDEST DUP3 ADD SWAP2 SWAP1 PUSH1 0x0 MSTORE PUSH1 0x20 PUSH1 0x0 KECCAK256 SWAP1 JUMPDEST DUP2 SLOAD DUP2 MSTORE SWAP1 PUSH1 0x1 ADD SWAP1 PUSH1 0x20 ADD DUP1 DUP4 GT PUSH2 0x26E2 JUMPI DUP3 SWAP1 SUB PUSH1 0x1F AND DUP3 ADD SWAP2 JUMPDEST POP POP POP POP POP SWAP4 POP SWAP9 POP SWAP9 POP SWAP9 POP SWAP9 POP SWAP9 POP SWAP9 POP SWAP9 POP SWAP9 POP POP SWAP2 SWAP4 SWAP6 SWAP8 POP SWAP2 SWAP4 SWAP6 SWAP8 JUMP JUMPDEST PUSH1 0xA PUSH1 0x0 SWAP1 SLOAD SWAP1 PUSH2 0x100 EXP SWAP1 DIV PUSH1 0xFF AND DUP2 JUMP JUMPDEST PUSH1 0x60 DUP1 PUSH1 0x60 DUP5 PUSH1 0x6 SLOAD DUP2 GT ISZERO PUSH2 0x2780 JUMPI PUSH1 0x40 MLOAD PUSH32 0x8C379A000000000000000000000000000000000000000000000000000000000 DUP2 MSTORE PUSH1 0x4 ADD PUSH2 0x2777 SWAP1 PUSH2 0x4578 JUMP JUMPDEST PUSH1 0x40 MLOAD DUP1 SWAP2 SUB SWAP1 REVERT JUMPDEST PUSH1 0x0 PUSH1 0x5 PUSH1 0x0 DUP9 DUP2 MSTORE PUSH1 0x20 ADD SWAP1 DUP2 MSTORE PUSH1 0x20 ADD PUSH1 0x0 KECCAK256 SWAP1 POP DUP1 PUSH1 0x1 ADD PUSH1 0x0 SWAP1 SLOAD SWAP1 PUSH2 0x100 EXP SWAP1 DIV PUSH1 0xFF AND PUSH2 0x27E8 JUMPI PUSH1 0x40 MLOAD PUSH32 0x8C379A000000000000000000000000000000000000000000000000000000000 DUP2 MSTORE PUSH1 0x4 ADD PUSH2 0x27DF SWAP1 PUSH2 0x51A6 JUMP JUMPDEST PUSH1 0x40 MLOAD DUP1 SWAP2 SUB SWAP1 REVERT JUMPDEST PUSH1 0x0 DUP2 PUSH1 0x4 ADD DUP8 PUSH1 0x40 MLOAD PUSH2 0x27FC SWAP2 SWAP1 PUSH2 0x4640 JUMP JUMPDEST SWAP1 DUP2 MSTORE PUSH1 0x20 ADD PUSH1 0x40 MLOAD DUP1 SWAP2 SUB SWAP1 KECCAK256 SWAP1 POP PUSH1 0x0 DUP2 PUSH1 0x1 ADD DUP1 SLOAD DUP1 PUSH1 0x20 MUL PUSH1 0x20 ADD PUSH1 0x40 MLOAD SWAP1 DUP2 ADD PUSH1 0x40 MSTORE DUP1 SWAP3 SWAP2 SWAP1 DUP2 DUP2 MSTORE PUSH1 0x20 ADD DUP3 DUP1 SLOAD DUP1 ISZERO PUSH2 0x285C JUMPI PUSH1 0x20 MUL DUP3 ADD SWAP2 SWAP1 PUSH1 0x0 MSTORE PUSH1 0x20 PUSH1 0x0 KECCAK256 SWAP1 JUMPDEST DUP2 SLOAD DUP2 MSTORE PUSH1 0x20 ADD SWAP1 PUSH1 0x1 ADD SWAP1 DUP1 DUP4 GT PUSH2 0x2848 JUMPI JUMPDEST POP POP POP POP POP SWAP1 POP PUSH1 0x0 DUP2 MLOAD PUSH8 0xFFFFFFFFFFFFFFFF DUP2 GT ISZERO PUSH2 0x2880 JUMPI PUSH2 0x287F PUSH2 0x3A38 JUMP JUMPDEST JUMPDEST PUSH1 0x40 MLOAD SWAP1 DUP1 DUP3 MSTORE DUP1 PUSH1 0x20 MUL PUSH1 0x20 ADD DUP3 ADD PUSH1 0x40 MSTORE DUP1 ISZERO PUSH2 0x28AE JUMPI DUP2 PUSH1 0x20 ADD PUSH1 0x20 DUP3 MUL DUP1 CALLDATASIZE DUP4 CALLDATACOPY DUP1 DUP3 ADD SWAP2 POP POP SWAP1 POP JUMPDEST POP SWAP1 POP PUSH1 0x0 JUMPDEST DUP3 MLOAD DUP2 LT ISZERO PUSH2 0x2931 JUMPI PUSH1 0x0 DUP4 DUP3 DUP2 MLOAD DUP2 LT PUSH2 0x28D2 JUMPI PUSH2 0x28D1 PUSH2 0x4657 JUMP JUMPDEST JUMPDEST PUSH1 0x20 MUL PUSH1 0x20 ADD ADD MLOAD SWAP1 POP PUSH1 0x7 PUSH1 0x0 DUP14 DUP2 MSTORE PUSH1 0x20 ADD SWAP1 DUP2 MSTORE PUSH1 0x20 ADD PUSH1 0x0 KECCAK256 PUSH1 0x0 DUP3 DUP2 MSTORE PUSH1 0x20 ADD SWAP1 DUP2 MSTORE PUSH1 0x20 ADD PUSH1 0x0 KECCAK256 PUSH1 0x2 ADD SLOAD DUP4 DUP4 DUP2 MLOAD DUP2 LT PUSH2 0x2917 JUMPI PUSH2 0x2916 PUSH2 0x4657 JUMP JUMPDEST JUMPDEST PUSH1 0x20 MUL PUSH1 0x20 ADD ADD DUP2 DUP2 MSTORE POP POP POP DUP1 DUP1 PUSH1 0x1 ADD SWAP2 POP POP PUSH2 0x28B4 JUMP JUMPDEST POP DUP3 PUSH1 0x0 ADD DUP3 DUP3 DUP3 DUP1 SLOAD PUSH2 0x2944 SWAP1 PUSH2 0x46B5 JUMP JUMPDEST DUP1 PUSH1 0x1F ADD PUSH1 0x20 DUP1 SWAP2 DIV MUL PUSH1 0x20 ADD PUSH1 0x40 MLOAD SWAP1 DUP2 ADD PUSH1 0x40 MSTORE DUP1 SWAP3 SWAP2 SWAP1 DUP2 DUP2 MSTORE PUSH1 0x20 ADD DUP3 DUP1 SLOAD PUSH2 0x2970 SWAP1 PUSH2 0x46B5 JUMP JUMPDEST DUP1 ISZERO PUSH2 0x29BD JUMPI DUP1 PUSH1 0x1F LT PUSH2 0x2992 JUMPI PUSH2 0x100 DUP1 DUP4 SLOAD DIV MUL DUP4 MSTORE SWAP2 PUSH1 0x20 ADD SWAP2 PUSH2 0x29BD JUMP JUMPDEST DUP3 ADD SWAP2 SWAP1 PUSH1 0x0 MSTORE PUSH1 0x20 PUSH1 0x0 KECCAK256 SWAP1 JUMPDEST DUP2 SLOAD DUP2 MSTORE SWAP1 PUSH1 0x1 ADD SWAP1 PUSH1 0x20 ADD DUP1 DUP4 GT PUSH2 0x29A0 JUMPI DUP3 SWAP1 SUB PUSH1 0x1F AND DUP3 ADD SWAP2 JUMPDEST POP POP POP POP POP SWAP3 POP SWAP8 POP SWAP8 POP SWAP8 POP POP POP POP POP POP SWAP3 POP SWAP3 POP SWAP3 JUMP JUMPDEST PUSH2 0x29DE PUSH2 0x37F3 JUMP JUMPDEST DUP3 PUSH1 0x6 SLOAD DUP2 GT ISZERO PUSH2 0x2A24 JUMPI PUSH1 0x40 MLOAD PUSH32 0x8C379A000000000000000000000000000000000000000000000000000000000 DUP2 MSTORE PUSH1 0x4 ADD PUSH2 0x2A1B SWAP1 PUSH2 0x4578 JUMP JUMPDEST PUSH1 0x40 MLOAD DUP1 SWAP2 SUB SWAP1 REVERT JUMPDEST DUP4 DUP4 PUSH1 0x0 PUSH1 0x5 PUSH1 0x0 DUP5 DUP2 MSTORE PUSH1 0x20 ADD SWAP1 DUP2 MSTORE PUSH1 0x20 ADD PUSH1 0x0 KECCAK256 SWAP1 POP PUSH1 0x0 DUP2 PUSH1 0x4 ADD DUP4 PUSH1 0x40 MLOAD PUSH2 0x2A51 SWAP2 SWAP1 PUSH2 0x4640 JUMP JUMPDEST SWAP1 DUP2 MSTORE PUSH1 0x20 ADD PUSH1 0x40 MLOAD DUP1 SWAP2 SUB SWAP1 KECCAK256 PUSH1 0x0 ADD DUP1 SLOAD PUSH2 0x2A6D SWAP1 PUSH2 0x46B5 JUMP JUMPDEST SWAP1 POP SUB PUSH2 0x2AAF JUMPI PUSH1 0x40 MLOAD PUSH32 0x8C379A000000000000000000000000000000000000000000000000000000000 DUP2 MSTORE PUSH1 0x4 ADD PUSH2 0x2AA6 SWAP1 PUSH2 0x4E24 JUMP JUMPDEST PUSH1 0x40 MLOAD DUP1 SWAP2 SUB SWAP1 REVERT JUMPDEST PUSH1 0x0 PUSH1 0x5 PUSH1 0x0 DUP10 DUP2 MSTORE PUSH1 0x20 ADD SWAP1 DUP2 MSTORE PUSH1 0x20 ADD PUSH1 0x0 KECCAK256 SWAP1 POP DUP1 PUSH1 0x1 ADD PUSH1 0x0 SWAP1 SLOAD SWAP1 PUSH2 0x100 EXP SWAP1 DIV PUSH1 0xFF AND PUSH2 0x2B17 JUMPI PUSH1 0x40 MLOAD PUSH32 0x8C379A000000000000000000000000000000000000000000000000000000000 DUP2 MSTORE PUSH1 0x4 ADD PUSH2 0x2B0E SWAP1 PUSH2 0x5212 JUMP JUMPDEST PUSH1 0x40 MLOAD DUP1 SWAP2 SUB SWAP1 REVERT JUMPDEST PUSH1 0x2 PUSH1 0x0 CALLER PUSH20 0xFFFFFFFFFFFFFFFFFFFFFFFFFFFFFFFFFFFFFFFF AND PUSH20 0xFFFFFFFFFFFFFFFFFFFFFFFFFFFFFFFFFFFFFFFF AND DUP2 MSTORE PUSH1 0x20 ADD SWAP1 DUP2 MSTORE PUSH1 0x20 ADD PUSH1 0x0 KECCAK256 PUSH1 0x5 ADD PUSH1 0x14 SWAP1 SLOAD SWAP1 PUSH2 0x100 EXP SWAP1 DIV PUSH1 0xFF AND PUSH2 0x2BA6 JUMPI PUSH1 0x40 MLOAD PUSH32 0x8C379A000000000000000000000000000000000000000000000000000000000 DUP2 MSTORE PUSH1 0x4 ADD PUSH2 0x2B9D SWAP1 PUSH2 0x527E JUMP JUMPDEST PUSH1 0x40 MLOAD DUP1 SWAP2 SUB SWAP1 REVERT JUMPDEST PUSH1 0x2 PUSH1 0x0 CALLER PUSH20 0xFFFFFFFFFFFFFFFFFFFFFFFFFFFFFFFFFFFFFFFF AND PUSH20 0xFFFFFFFFFFFFFFFFFFFFFFFFFFFFFFFFFFFFFFFF AND DUP2 MSTORE PUSH1 0x20 ADD SWAP1 DUP2 MSTORE PUSH1 0x20 ADD PUSH1 0x0 KECCAK256 PUSH1 0x5 ADD PUSH1 0x15 SWAP1 SLOAD SWAP1 PUSH2 0x100 EXP SWAP1 DIV PUSH1 0xFF AND ISZERO PUSH2 0x2C36 JUMPI PUSH1 0x40 MLOAD PUSH32 0x8C379A000000000000000000000000000000000000000000000000000000000 DUP2 MSTORE PUSH1 0x4 ADD PUSH2 0x2C2D SWAP1 PUSH2 0x52EA JUMP JUMPDEST PUSH1 0x40 MLOAD DUP1 SWAP2 SUB SWAP1 REVERT JUMPDEST PUSH1 0x2 PUSH1 0x0 CALLER PUSH20 0xFFFFFFFFFFFFFFFFFFFFFFFFFFFFFFFFFFFFFFFF AND PUSH20 0xFFFFFFFFFFFFFFFFFFFFFFFFFFFFFFFFFFFFFFFF AND DUP2 MSTORE PUSH1 0x20 ADD SWAP1 DUP2 MSTORE PUSH1 0x20 ADD PUSH1 0x0 KECCAK256 PUSH1 0x5 ADD PUSH1 0x0 SWAP1 SLOAD SWAP1 PUSH2 0x100 EXP SWAP1 DIV PUSH20 0xFFFFFFFFFFFFFFFFFFFFFFFFFFFFFFFFFFFFFFFF AND PUSH20 0xFFFFFFFFFFFFFFFFFFFFFFFFFFFFFFFFFFFFFFFF AND CALLER PUSH20 0xFFFFFFFFFFFFFFFFFFFFFFFFFFFFFFFFFFFFFFFF AND EQ PUSH2 0x2D06 JUMPI PUSH1 0x40 MLOAD PUSH32 0x8C379A000000000000000000000000000000000000000000000000000000000 DUP2 MSTORE PUSH1 0x4 ADD PUSH2 0x2CFD SWAP1 PUSH2 0x537C JUMP JUMPDEST PUSH1 0x40 MLOAD DUP1 SWAP2 SUB SWAP1 REVERT JUMPDEST PUSH1 0x0 DUP2 PUSH1 0x4 ADD DUP9 PUSH1 0x40 MLOAD PUSH2 0x2D1A SWAP2 SWAP1 PUSH2 0x4640 JUMP JUMPDEST SWAP1 DUP2 MSTORE PUSH1 0x20 ADD PUSH1 0x40 MLOAD DUP1 SWAP2 SUB SWAP1 KECCAK256 SWAP1 POP PUSH2 0x2D86 DUP2 PUSH1 0x1 ADD DUP1 SLOAD DUP1 PUSH1 0x20 MUL PUSH1 0x20 ADD PUSH1 0x40 MLOAD SWAP1 DUP2 ADD PUSH1 0x40 MSTORE DUP1 SWAP3 SWAP2 SWAP1 DUP2 DUP2 MSTORE PUSH1 0x20 ADD DUP3 DUP1 SLOAD DUP1 ISZERO PUSH2 0x2D7B JUMPI PUSH1 0x20 MUL DUP3 ADD SWAP2 SWAP1 PUSH1 0x0 MSTORE PUSH1 0x20 PUSH1 0x0 KECCAK256 SWAP1 JUMPDEST DUP2 SLOAD DUP2 MSTORE PUSH1 0x20 ADD SWAP1 PUSH1 0x1 ADD SWAP1 DUP1 DUP4 GT PUSH2 0x2D67 JUMPI JUMPDEST POP POP POP POP POP DUP9 PUSH2 0x3839 JUMP JUMPDEST PUSH2 0x2DC5 JUMPI PUSH1 0x40 MLOAD PUSH32 0x8C379A000000000000000000000000000000000000000000000000000000000 DUP2 MSTORE PUSH1 0x4 ADD PUSH2 0x2DBC SWAP1 PUSH2 0x53E8 JUMP JUMPDEST PUSH1 0x40 MLOAD DUP1 SWAP2 SUB SWAP1 REVERT JUMPDEST PUSH1 0x1 PUSH1 0x2 PUSH1 0x0 CALLER PUSH20 0xFFFFFFFFFFFFFFFFFFFFFFFFFFFFFFFFFFFFFFFF AND PUSH20 0xFFFFFFFFFFFFFFFFFFFFFFFFFFFFFFFFFFFFFFFF AND DUP2 MSTORE PUSH1 0x20 ADD SWAP1 DUP2 MSTORE PUSH1 0x20 ADD PUSH1 0x0 KECCAK256 PUSH1 0x5 ADD PUSH1 0x15 PUSH2 0x100 EXP DUP2 SLOAD DUP2 PUSH1 0xFF MUL NOT AND SWAP1 DUP4 ISZERO ISZERO MUL OR SWAP1 SSTORE POP PUSH1 0x7 PUSH1 0x0 DUP11 DUP2 MSTORE PUSH1 0x20 ADD SWAP1 DUP2 MSTORE PUSH1 0x20 ADD PUSH1 0x0 KECCAK256 PUSH1 0x0 DUP9 DUP2 MSTORE PUSH1 0x20 ADD SWAP1 DUP2 MSTORE PUSH1 0x20 ADD PUSH1 0x0 KECCAK256 PUSH1 0x2 ADD PUSH1 0x0 DUP2 SLOAD DUP1 SWAP3 SWAP2 SWAP1 PUSH2 0x2E58 SWAP1 PUSH2 0x4F71 JUMP JUMPDEST SWAP2 SWAP1 POP SSTORE POP DUP7 CALLER PUSH20 0xFFFFFFFFFFFFFFFFFFFFFFFFFFFFFFFFFFFFFFFF AND DUP11 PUSH32 0xD9F61BAD27B367F9D956D43115CE9B23449B64E56E608EB9569F6B929B632E7E DUP12 PUSH1 0x40 MLOAD PUSH2 0x2EA5 SWAP2 SWAP1 PUSH2 0x490B JUMP JUMPDEST PUSH1 0x40 MLOAD DUP1 SWAP2 SUB SWAP1 LOG4 POP POP POP POP POP POP PUSH2 0x2EBB PUSH2 0x388E JUMP JUMPDEST POP POP POP JUMP JUMPDEST PUSH2 0x2EC8 PUSH2 0x3476 JUMP JUMPDEST PUSH1 0x0 PUSH20 0xFFFFFFFFFFFFFFFFFFFFFFFFFFFFFFFFFFFFFFFF AND DUP2 PUSH20 0xFFFFFFFFFFFFFFFFFFFFFFFFFFFFFFFFFFFFFFFF AND SUB PUSH2 0x2F3A JUMPI PUSH1 0x0 PUSH1 0x40 MLOAD PUSH32 0x1E4FBDF700000000000000000000000000000000000000000000000000000000 DUP2 MSTORE PUSH1 0x4 ADD PUSH2 0x2F31 SWAP2 SWAP1 PUSH2 0x3E0F JUMP JUMPDEST PUSH1 0x40 MLOAD DUP1 SWAP2 SUB SWAP1 REVERT JUMPDEST PUSH2 0x2F43 DUP2 PUSH2 0x372F JUMP JUMPDEST POP JUMP JUMPDEST PUSH1 0x0 PUSH1 0x4 DUP1 SLOAD SWAP1 POP DUP3 LT PUSH2 0x2F8F JUMPI PUSH1 0x40 MLOAD PUSH32 0x8C379A000000000000000000000000000000000000000000000000000000000 DUP2 MSTORE PUSH1 0x4 ADD PUSH2 0x2F86 SWAP1 PUSH2 0x5454 JUMP JUMPDEST PUSH1 0x40 MLOAD DUP1 SWAP2 SUB SWAP1 REVERT JUMPDEST PUSH1 0x4 DUP3 DUP2 SLOAD DUP2 LT PUSH2 0x2FA3 JUMPI PUSH2 0x2FA2 PUSH2 0x4657 JUMP JUMPDEST JUMPDEST SWAP1 PUSH1 0x0 MSTORE PUSH1 0x20 PUSH1 0x0 KECCAK256 ADD PUSH1 0x0 SWAP1 SLOAD SWAP1 PUSH2 0x100 EXP SWAP1 DIV PUSH20 0xFFFFFFFFFFFFFFFFFFFFFFFFFFFFFFFFFFFFFFFF AND SWAP1 POP SWAP2 SWAP1 POP JUMP JUMPDEST PUSH2 0x2FDD PUSH2 0x3476 JUMP JUMPDEST DUP1 DUP3 LT PUSH2 0x301F JUMPI PUSH1 0x40 MLOAD PUSH32 0x8C379A000000000000000000000000000000000000000000000000000000000 DUP2 MSTORE PUSH1 0x4 ADD PUSH2 0x3016 SWAP1 PUSH2 0x54E6 JUMP JUMPDEST PUSH1 0x40 MLOAD DUP1 SWAP2 SUB SWAP1 REVERT JUMPDEST PUSH1 0x6 PUSH1 0x0 DUP2 SLOAD DUP1 SWAP3 SWAP2 SWAP1 PUSH2 0x3032 SWAP1 PUSH2 0x4F71 JUMP JUMPDEST SWAP2 SWAP1 POP SSTORE POP DUP3 PUSH1 0x5 PUSH1 0x0 PUSH1 0x6 SLOAD DUP2 MSTORE PUSH1 0x20 ADD SWAP1 DUP2 MSTORE PUSH1 0x20 ADD PUSH1 0x0 KECCAK256 PUSH1 0x0 ADD SWAP1 DUP2 PUSH2 0x305C SWAP2 SWAP1 PUSH2 0x4D06 JUMP JUMPDEST POP PUSH1 0x0 PUSH1 0x5 PUSH1 0x0 PUSH1 0x6 SLOAD DUP2 MSTORE PUSH1 0x20 ADD SWAP1 DUP2 MSTORE PUSH1 0x20 ADD PUSH1 0x0 KECCAK256 PUSH1 0x1 ADD PUSH1 0x0 PUSH2 0x100 EXP DUP2 SLOAD DUP2 PUSH1 0xFF MUL NOT AND SWAP1 DUP4 ISZERO ISZERO MUL OR SWAP1 SSTORE POP DUP2 PUSH1 0x5 PUSH1 0x0 PUSH1 0x6 SLOAD DUP2 MSTORE PUSH1 0x20 ADD SWAP1 DUP2 MSTORE PUSH1 0x20 ADD PUSH1 0x0 KECCAK256 PUSH1 0x2 ADD DUP2 SWAP1 SSTORE POP DUP1 PUSH1 0x5 PUSH1 0x0 PUSH1 0x6 SLOAD DUP2 MSTORE PUSH1 0x20 ADD SWAP1 DUP2 MSTORE PUSH1 0x20 ADD PUSH1 0x0 KECCAK256 PUSH1 0x3 ADD DUP2 SWAP1 SSTORE POP PUSH1 0x6 SLOAD PUSH32 0x52BE7C4E77B4DE76B7607D621492061FE13B58597E72DFB5E51AB8F6187ED141 DUP5 PUSH1 0x40 MLOAD PUSH2 0x30FA SWAP2 SWAP1 PUSH2 0x490B JUMP JUMPDEST PUSH1 0x40 MLOAD DUP1 SWAP2 SUB SWAP1 LOG2 POP POP POP JUMP JUMPDEST PUSH1 0xA PUSH1 0x0 SWAP1 SLOAD SWAP1 PUSH2 0x100 EXP SWAP1 DIV PUSH1 0xFF AND ISZERO PUSH2 0x3157 JUMPI PUSH1 0x40 MLOAD PUSH32 0x8C379A000000000000000000000000000000000000000000000000000000000 DUP2 MSTORE PUSH1 0x4 ADD PUSH2 0x314E SWAP1 PUSH2 0x5578 JUMP JUMPDEST PUSH1 0x40 MLOAD DUP1 SWAP2 SUB SWAP1 REVERT JUMPDEST PUSH1 0x2 PUSH1 0x0 DUP3 PUSH20 0xFFFFFFFFFFFFFFFFFFFFFFFFFFFFFFFFFFFFFFFF AND PUSH20 0xFFFFFFFFFFFFFFFFFFFFFFFFFFFFFFFFFFFFFFFF AND DUP2 MSTORE PUSH1 0x20 ADD SWAP1 DUP2 MSTORE PUSH1 0x20 ADD PUSH1 0x0 KECCAK256 PUSH1 0x5 ADD PUSH1 0x14 SWAP1 SLOAD SWAP1 PUSH2 0x100 EXP SWAP1 DIV PUSH1 0xFF AND ISZERO PUSH2 0x31E7 JUMPI PUSH1 0x40 MLOAD PUSH32 0x8C379A000000000000000000000000000000000000000000000000000000000 DUP2 MSTORE PUSH1 0x4 ADD PUSH2 0x31DE SWAP1 PUSH2 0x560A JUMP JUMPDEST PUSH1 0x40 MLOAD DUP1 SWAP2 SUB SWAP1 REVERT JUMPDEST PUSH2 0x31F0 DUP2 PUSH2 0x34FD JUMP JUMPDEST ISZERO PUSH2 0x3230 JUMPI PUSH1 0x40 MLOAD PUSH32 0x8C379A000000000000000000000000000000000000000000000000000000000 DUP2 MSTORE PUSH1 0x4 ADD PUSH2 0x3227 SWAP1 PUSH2 0x569C JUMP JUMPDEST PUSH1 0x40 MLOAD DUP1 SWAP2 SUB SWAP1 REVERT JUMPDEST PUSH1 0x40 MLOAD DUP1 PUSH2 0x100 ADD PUSH1 0x40 MSTORE DUP1 DUP8 DUP2 MSTORE PUSH1 0x20 ADD DUP7 DUP2 MSTORE PUSH1 0x20 ADD DUP6 DUP2 MSTORE PUSH1 0x20 ADD DUP5 DUP2 MSTORE PUSH1 0x20 ADD DUP4 DUP2 MSTORE PUSH1 0x20 ADD DUP3 PUSH20 0xFFFFFFFFFFFFFFFFFFFFFFFFFFFFFFFFFFFFFFFF AND DUP2 MSTORE PUSH1 0x20 ADD PUSH1 0x0 ISZERO ISZERO DUP2 MSTORE PUSH1 0x20 ADD PUSH1 0x0 ISZERO ISZERO DUP2 MSTORE POP PUSH1 0x2 PUSH1 0x0 DUP4 PUSH20 0xFFFFFFFFFFFFFFFFFFFFFFFFFFFFFFFFFFFFFFFF AND PUSH20 0xFFFFFFFFFFFFFFFFFFFFFFFFFFFFFFFFFFFFFFFF AND DUP2 MSTORE PUSH1 0x20 ADD SWAP1 DUP2 MSTORE PUSH1 0x20 ADD PUSH1 0x0 KECCAK256 PUSH1 0x0 DUP3 ADD MLOAD DUP2 PUSH1 0x0 ADD SWAP1 DUP2 PUSH2 0x32DA SWAP2 SWAP1 PUSH2 0x4D06 JUMP JUMPDEST POP PUSH1 0x20 DUP3 ADD MLOAD DUP2 PUSH1 0x1 ADD SWAP1 DUP2 PUSH2 0x32F0 SWAP2 SWAP1 PUSH2 0x4D06 JUMP JUMPDEST POP PUSH1 0x40 DUP3 ADD MLOAD DUP2 PUSH1 0x2 ADD SWAP1 DUP2 PUSH2 0x3306 SWAP2 SWAP1 PUSH2 0x4D06 JUMP JUMPDEST POP PUSH1 0x60 DUP3 ADD MLOAD DUP2 PUSH1 0x3 ADD SWAP1 DUP2 PUSH2 0x331C SWAP2 SWAP1 PUSH2 0x4D06 JUMP JUMPDEST POP PUSH1 0x80 DUP3 ADD MLOAD DUP2 PUSH1 0x4 ADD SWAP1 DUP2 PUSH2 0x3332 SWAP2 SWAP1 PUSH2 0x4D06 JUMP JUMPDEST POP PUSH1 0xA0 DUP3 ADD MLOAD DUP2 PUSH1 0x5 ADD PUSH1 0x0 PUSH2 0x100 EXP DUP2 SLOAD DUP2 PUSH20 0xFFFFFFFFFFFFFFFFFFFFFFFFFFFFFFFFFFFFFFFF MUL NOT AND SWAP1 DUP4 PUSH20 0xFFFFFFFFFFFFFFFFFFFFFFFFFFFFFFFFFFFFFFFF AND MUL OR SWAP1 SSTORE POP PUSH1 0xC0 DUP3 ADD MLOAD DUP2 PUSH1 0x5 ADD PUSH1 0x14 PUSH2 0x100 EXP DUP2 SLOAD DUP2 PUSH1 0xFF MUL NOT AND SWAP1 DUP4 ISZERO ISZERO MUL OR SWAP1 SSTORE POP PUSH1 0xE0 DUP3 ADD MLOAD DUP2 PUSH1 0x5 ADD PUSH1 0x15 PUSH2 0x100 EXP DUP2 SLOAD DUP2 PUSH1 0xFF MUL NOT AND SWAP1 DUP4 ISZERO ISZERO MUL OR SWAP1 SSTORE POP SWAP1 POP POP PUSH1 0x3 DUP2 SWAP1 DUP1 PUSH1 0x1 DUP2 SLOAD ADD DUP1 DUP3 SSTORE DUP1 SWAP2 POP POP PUSH1 0x1 SWAP1 SUB SWAP1 PUSH1 0x0 MSTORE PUSH1 0x20 PUSH1 0x0 KECCAK256 ADD PUSH1 0x0 SWAP1 SWAP2 SWAP1 SWAP2 SWAP1 SWAP2 PUSH2 0x100 EXP DUP2 SLOAD DUP2 PUSH20 0xFFFFFFFFFFFFFFFFFFFFFFFFFFFFFFFFFFFFFFFF MUL NOT AND SWAP1 DUP4 PUSH20 0xFFFFFFFFFFFFFFFFFFFFFFFFFFFFFFFFFFFFFFFF AND MUL OR SWAP1 SSTORE POP DUP1 PUSH20 0xFFFFFFFFFFFFFFFFFFFFFFFFFFFFFFFFFFFFFFFF AND PUSH32 0xFFEB7702BE7DCD8FEE170D954B70AFB9A7C78F7F5CFF232D037E7B9D8243356A DUP5 PUSH1 0x40 MLOAD PUSH2 0x3466 SWAP2 SWAP1 PUSH2 0x490B JUMP JUMPDEST PUSH1 0x40 MLOAD DUP1 SWAP2 SUB SWAP1 LOG2 POP POP POP POP POP POP JUMP JUMPDEST PUSH2 0x347E PUSH2 0x3897 JUMP JUMPDEST PUSH20 0xFFFFFFFFFFFFFFFFFFFFFFFFFFFFFFFFFFFFFFFF AND PUSH2 0x349C PUSH2 0x1AEE JUMP JUMPDEST PUSH20 0xFFFFFFFFFFFFFFFFFFFFFFFFFFFFFFFFFFFFFFFF AND EQ PUSH2 0x34FB JUMPI PUSH2 0x34BF PUSH2 0x3897 JUMP JUMPDEST PUSH1 0x40 MLOAD PUSH32 0x118CDAA700000000000000000000000000000000000000000000000000000000 DUP2 MSTORE PUSH1 0x4 ADD PUSH2 0x34F2 SWAP2 SWAP1 PUSH2 0x3E0F JUMP JUMPDEST PUSH1 0x40 MLOAD DUP1 SWAP2 SUB SWAP1 REVERT JUMPDEST JUMP JUMPDEST PUSH1 0x0 DUP1 PUSH1 0x0 SWAP1 POP JUMPDEST PUSH1 0x3 DUP1 SLOAD SWAP1 POP DUP2 LT ISZERO PUSH2 0x359A JUMPI DUP3 PUSH20 0xFFFFFFFFFFFFFFFFFFFFFFFFFFFFFFFFFFFFFFFF AND PUSH1 0x3 DUP3 DUP2 SLOAD DUP2 LT PUSH2 0x353D JUMPI PUSH2 0x353C PUSH2 0x4657 JUMP JUMPDEST JUMPDEST SWAP1 PUSH1 0x0 MSTORE PUSH1 0x20 PUSH1 0x0 KECCAK256 ADD PUSH1 0x0 SWAP1 SLOAD SWAP1 PUSH2 0x100 EXP SWAP1 DIV PUSH20 0xFFFFFFFFFFFFFFFFFFFFFFFFFFFFFFFFFFFFFFFF AND PUSH20 0xFFFFFFFFFFFFFFFFFFFFFFFFFFFFFFFFFFFFFFFF AND SUB PUSH2 0x358D JUMPI PUSH1 0x1 SWAP2 POP POP PUSH2 0x35A0 JUMP JUMPDEST DUP1 DUP1 PUSH1 0x1 ADD SWAP2 POP POP PUSH2 0x3505 JUMP JUMPDEST POP PUSH1 0x0 SWAP1 POP JUMPDEST SWAP2 SWAP1 POP JUMP JUMPDEST PUSH1 0x0 JUMPDEST PUSH1 0x3 DUP1 SLOAD SWAP1 POP DUP2 LT ISZERO PUSH2 0x372B JUMPI DUP2 PUSH20 0xFFFFFFFFFFFFFFFFFFFFFFFFFFFFFFFFFFFFFFFF AND PUSH1 0x3 DUP3 DUP2 SLOAD DUP2 LT PUSH2 0x35E0 JUMPI PUSH2 0x35DF PUSH2 0x4657 JUMP JUMPDEST JUMPDEST SWAP1 PUSH1 0x0 MSTORE PUSH1 0x20 PUSH1 0x0 KECCAK256 ADD PUSH1 0x0 SWAP1 SLOAD SWAP1 PUSH2 0x100 EXP SWAP1 DIV PUSH20 0xFFFFFFFFFFFFFFFFFFFFFFFFFFFFFFFFFFFFFFFF AND PUSH20 0xFFFFFFFFFFFFFFFFFFFFFFFFFFFFFFFFFFFFFFFF AND SUB PUSH2 0x371E JUMPI PUSH1 0x3 PUSH1 0x1 PUSH1 0x3 DUP1 SLOAD SWAP1 POP PUSH2 0x363A SWAP2 SWAP1 PUSH2 0x56BC JUMP JUMPDEST DUP2 SLOAD DUP2 LT PUSH2 0x364B JUMPI PUSH2 0x364A PUSH2 0x4657 JUMP JUMPDEST JUMPDEST SWAP1 PUSH1 0x0 MSTORE PUSH1 0x20 PUSH1 0x0 KECCAK256 ADD PUSH1 0x0 SWAP1 SLOAD SWAP1 PUSH2 0x100 EXP SWAP1 DIV PUSH20 0xFFFFFFFFFFFFFFFFFFFFFFFFFFFFFFFFFFFFFFFF AND PUSH1 0x3 DUP3 DUP2 SLOAD DUP2 LT PUSH2 0x368A JUMPI PUSH2 0x3689 PUSH2 0x4657 JUMP JUMPDEST JUMPDEST SWAP1 PUSH1 0x0 MSTORE PUSH1 0x20 PUSH1 0x0 KECCAK256 ADD PUSH1 0x0 PUSH2 0x100 EXP DUP2 SLOAD DUP2 PUSH20 0xFFFFFFFFFFFFFFFFFFFFFFFFFFFFFFFFFFFFFFFF MUL NOT AND SWAP1 DUP4 PUSH20 0xFFFFFFFFFFFFFFFFFFFFFFFFFFFFFFFFFFFFFFFF AND MUL OR SWAP1 SSTORE POP PUSH1 0x3 DUP1 SLOAD DUP1 PUSH2 0x36E4 JUMPI PUSH2 0x36E3 PUSH2 0x56F0 JUMP JUMPDEST JUMPDEST PUSH1 0x1 SWAP1 SUB DUP2 DUP2 SWAP1 PUSH1 0x0 MSTORE PUSH1 0x20 PUSH1 0x0 KECCAK256 ADD PUSH1 0x0 PUSH2 0x100 EXP DUP2 SLOAD SWAP1 PUSH20 0xFFFFFFFFFFFFFFFFFFFFFFFFFFFFFFFFFFFFFFFF MUL NOT AND SWAP1 SSTORE SWAP1 SSTORE PUSH2 0x372B JUMP JUMPDEST DUP1 DUP1 PUSH1 0x1 ADD SWAP2 POP POP PUSH2 0x35A8 JUMP JUMPDEST POP POP JUMP JUMPDEST PUSH1 0x0 DUP1 PUSH1 0x0 SWAP1 SLOAD SWAP1 PUSH2 0x100 EXP SWAP1 DIV PUSH20 0xFFFFFFFFFFFFFFFFFFFFFFFFFFFFFFFFFFFFFFFF AND SWAP1 POP DUP2 PUSH1 0x0 DUP1 PUSH2 0x100 EXP DUP2 SLOAD DUP2 PUSH20 0xFFFFFFFFFFFFFFFFFFFFFFFFFFFFFFFFFFFFFFFF MUL NOT AND SWAP1 DUP4 PUSH20 0xFFFFFFFFFFFFFFFFFFFFFFFFFFFFFFFFFFFFFFFF AND MUL OR SWAP1 SSTORE POP DUP2 PUSH20 0xFFFFFFFFFFFFFFFFFFFFFFFFFFFFFFFFFFFFFFFF AND DUP2 PUSH20 0xFFFFFFFFFFFFFFFFFFFFFFFFFFFFFFFFFFFFFFFF AND PUSH32 0x8BE0079C531659141344CD1FD0A4F28419497F9722A3DAAFE3B4186F6B6457E0 PUSH1 0x40 MLOAD PUSH1 0x40 MLOAD DUP1 SWAP2 SUB SWAP1 LOG3 POP POP JUMP JUMPDEST PUSH1 0x2 PUSH1 0x1 SLOAD SUB PUSH2 0x382F JUMPI PUSH1 0x40 MLOAD PUSH32 0x3EE5AEB500000000000000000000000000000000000000000000000000000000 DUP2 MSTORE PUSH1 0x4 ADD PUSH1 0x40 MLOAD DUP1 SWAP2 SUB SWAP1 REVERT JUMPDEST PUSH1 0x2 PUSH1 0x1 DUP2 SWAP1 SSTORE POP JUMP JUMPDEST PUSH1 0x0 DUP1 PUSH1 0x0 SWAP1 POP JUMPDEST DUP4 MLOAD DUP2 LT ISZERO PUSH2 0x3882 JUMPI DUP3 DUP5 DUP3 DUP2 MLOAD DUP2 LT PUSH2 0x385E JUMPI PUSH2 0x385D PUSH2 0x4657 JUMP JUMPDEST JUMPDEST PUSH1 0x20 MUL PUSH1 0x20 ADD ADD MLOAD SUB PUSH2 0x3875 JUMPI PUSH1 0x1 SWAP2 POP POP PUSH2 0x3888 JUMP JUMPDEST DUP1 DUP1 PUSH1 0x1 ADD SWAP2 POP POP PUSH2 0x3841 JUMP JUMPDEST POP PUSH1 0x0 SWAP1 POP JUMPDEST SWAP3 SWAP2 POP POP JUMP JUMPDEST PUSH1 0x1 DUP1 DUP2 SWAP1 SSTORE POP JUMP JUMPDEST PUSH1 0x0 CALLER SWAP1 POP SWAP1 JUMP JUMPDEST POP DUP1 SLOAD PUSH2 0x38AB SWAP1 PUSH2 0x46B5 JUMP JUMPDEST PUSH1 0x0 DUP3 SSTORE DUP1 PUSH1 0x1F LT PUSH2 0x38BD JUMPI POP PUSH2 0x38DC JUMP JUMPDEST PUSH1 0x1F ADD PUSH1 0x20 SWAP1 DIV SWAP1 PUSH1 0x0 MSTORE PUSH1 0x20 PUSH1 0x0 KECCAK256 SWAP1 DUP2 ADD SWAP1 PUSH2 0x38DB SWAP2 SWAP1 PUSH2 0x39B6 JUMP JUMPDEST JUMPDEST POP JUMP JUMPDEST DUP3 DUP1 SLOAD DUP3 DUP3 SSTORE SWAP1 PUSH1 0x0 MSTORE PUSH1 0x20 PUSH1 0x0 KECCAK256 SWAP1 DUP2 ADD SWAP3 DUP3 ISZERO PUSH2 0x3958 JUMPI SWAP2 PUSH1 0x20 MUL DUP3 ADD JUMPDEST DUP3 DUP2 GT ISZERO PUSH2 0x3957 JUMPI DUP3 MLOAD DUP3 PUSH1 0x0 PUSH2 0x100 EXP DUP2 SLOAD DUP2 PUSH20 0xFFFFFFFFFFFFFFFFFFFFFFFFFFFFFFFFFFFFFFFF MUL NOT AND SWAP1 DUP4 PUSH20 0xFFFFFFFFFFFFFFFFFFFFFFFFFFFFFFFFFFFFFFFF AND MUL OR SWAP1 SSTORE POP SWAP2 PUSH1 0x20 ADD SWAP2 SWAP1 PUSH1 0x1 ADD SWAP1 PUSH2 0x38FF JUMP JUMPDEST JUMPDEST POP SWAP1 POP PUSH2 0x3965 SWAP2 SWAP1 PUSH2 0x39B6 JUMP JUMPDEST POP SWAP1 JUMP JUMPDEST DUP3 DUP1 SLOAD DUP3 DUP3 SSTORE SWAP1 PUSH1 0x0 MSTORE PUSH1 0x20 PUSH1 0x0 KECCAK256 SWAP1 DUP2 ADD SWAP3 DUP3 ISZERO PUSH2 0x39A5 JUMPI SWAP2 PUSH1 0x20 MUL DUP3 ADD JUMPDEST DUP3 DUP2 GT ISZERO PUSH2 0x39A4 JUMPI DUP3 MLOAD DUP3 SSTORE SWAP2 PUSH1 0x20 ADD SWAP2 SWAP1 PUSH1 0x1 ADD SWAP1 PUSH2 0x3989 JUMP JUMPDEST JUMPDEST POP SWAP1 POP PUSH2 0x39B2 SWAP2 SWAP1 PUSH2 0x39B6 JUMP JUMPDEST POP SWAP1 JUMP JUMPDEST JUMPDEST DUP1 DUP3 GT ISZERO PUSH2 0x39CF JUMPI PUSH1 0x0 DUP2 PUSH1 0x0 SWAP1 SSTORE POP PUSH1 0x1 ADD PUSH2 0x39B7 JUMP JUMPDEST POP SWAP1 JUMP JUMPDEST PUSH1 0x0 PUSH1 0x40 MLOAD SWAP1 POP SWAP1 JUMP JUMPDEST PUSH1 0x0 DUP1 REVERT JUMPDEST PUSH1 0x0 DUP1 REVERT JUMPDEST PUSH1 0x0 DUP2 SWAP1 POP SWAP2 SWAP1 POP JUMP JUMPDEST PUSH2 0x39FA DUP2 PUSH2 0x39E7 JUMP JUMPDEST DUP2 EQ PUSH2 0x3A05 JUMPI PUSH1 0x0 DUP1 REVERT JUMPDEST POP JUMP JUMPDEST PUSH1 0x0 DUP2 CALLDATALOAD SWAP1 POP PUSH2 0x3A17 DUP2 PUSH2 0x39F1 JUMP JUMPDEST SWAP3 SWAP2 POP POP JUMP JUMPDEST PUSH1 0x0 DUP1 REVERT JUMPDEST PUSH1 0x0 DUP1 REVERT JUMPDEST PUSH1 0x0 PUSH1 0x1F NOT PUSH1 0x1F DUP4 ADD AND SWAP1 POP SWAP2 SWAP1 POP JUMP JUMPDEST PUSH32 0x4E487B7100000000000000000000000000000000000000000000000000000000 PUSH1 0x0 MSTORE PUSH1 0x41 PUSH1 0x4 MSTORE PUSH1 0x24 PUSH1 0x0 REVERT JUMPDEST PUSH2 0x3A70 DUP3 PUSH2 0x3A27 JUMP JUMPDEST DUP2 ADD DUP2 DUP2 LT PUSH8 0xFFFFFFFFFFFFFFFF DUP3 GT OR ISZERO PUSH2 0x3A8F JUMPI PUSH2 0x3A8E PUSH2 0x3A38 JUMP JUMPDEST JUMPDEST DUP1 PUSH1 0x40 MSTORE POP POP POP JUMP JUMPDEST PUSH1 0x0 PUSH2 0x3AA2 PUSH2 0x39D3 JUMP JUMPDEST SWAP1 POP PUSH2 0x3AAE DUP3 DUP3 PUSH2 0x3A67 JUMP JUMPDEST SWAP2 SWAP1 POP JUMP JUMPDEST PUSH1 0x0 PUSH8 0xFFFFFFFFFFFFFFFF DUP3 GT ISZERO PUSH2 0x3ACE JUMPI PUSH2 0x3ACD PUSH2 0x3A38 JUMP JUMPDEST JUMPDEST PUSH2 0x3AD7 DUP3 PUSH2 0x3A27 JUMP JUMPDEST SWAP1 POP PUSH1 0x20 DUP2 ADD SWAP1 POP SWAP2 SWAP1 POP JUMP JUMPDEST DUP3 DUP2 DUP4 CALLDATACOPY PUSH1 0x0 DUP4 DUP4 ADD MSTORE POP POP POP JUMP JUMPDEST PUSH1 0x0 PUSH2 0x3B06 PUSH2 0x3B01 DUP5 PUSH2 0x3AB3 JUMP JUMPDEST PUSH2 0x3A98 JUMP JUMPDEST SWAP1 POP DUP3 DUP2 MSTORE PUSH1 0x20 DUP2 ADD DUP5 DUP5 DUP5 ADD GT ISZERO PUSH2 0x3B22 JUMPI PUSH2 0x3B21 PUSH2 0x3A22 JUMP JUMPDEST JUMPDEST PUSH2 0x3B2D DUP5 DUP3 DUP6 PUSH2 0x3AE4 JUMP JUMPDEST POP SWAP4 SWAP3 POP POP POP JUMP JUMPDEST PUSH1 0x0 DUP3 PUSH1 0x1F DUP4 ADD SLT PUSH2 0x3B4A JUMPI PUSH2 0x3B49 PUSH2 0x3A1D JUMP JUMPDEST JUMPDEST DUP2 CALLDATALOAD PUSH2 0x3B5A DUP5 DUP3 PUSH1 0x20 DUP7 ADD PUSH2 0x3AF3 JUMP JUMPDEST SWAP2 POP POP SWAP3 SWAP2 POP POP JUMP JUMPDEST PUSH1 0x0 DUP1 PUSH1 0x40 DUP4 DUP6 SUB SLT ISZERO PUSH2 0x3B7A JUMPI PUSH2 0x3B79 PUSH2 0x39DD JUMP JUMPDEST JUMPDEST PUSH1 0x0 PUSH2 0x3B88 DUP6 DUP3 DUP7 ADD PUSH2 0x3A08 JUMP JUMPDEST SWAP3 POP POP PUSH1 0x20 DUP4 ADD CALLDATALOAD PUSH8 0xFFFFFFFFFFFFFFFF DUP2 GT ISZERO PUSH2 0x3BA9 JUMPI PUSH2 0x3BA8 PUSH2 0x39E2 JUMP JUMPDEST JUMPDEST PUSH2 0x3BB5 DUP6 DUP3 DUP7 ADD PUSH2 0x3B35 JUMP JUMPDEST SWAP2 POP POP SWAP3 POP SWAP3 SWAP1 POP JUMP JUMPDEST PUSH1 0x0 DUP2 MLOAD SWAP1 POP SWAP2 SWAP1 POP JUMP JUMPDEST PUSH1 0x0 DUP3 DUP3 MSTORE PUSH1 0x20 DUP3 ADD SWAP1 POP SWAP3 SWAP2 POP POP JUMP JUMPDEST PUSH1 0x0 JUMPDEST DUP4 DUP2 LT ISZERO PUSH2 0x3BF9 JUMPI DUP1 DUP3 ADD MLOAD DUP2 DUP5 ADD MSTORE PUSH1 0x20 DUP2 ADD SWAP1 POP PUSH2 0x3BDE JUMP JUMPDEST PUSH1 0x0 DUP5 DUP5 ADD MSTORE POP POP POP POP JUMP JUMPDEST PUSH1 0x0 PUSH2 0x3C10 DUP3 PUSH2 0x3BBF JUMP JUMPDEST PUSH2 0x3C1A DUP2 DUP6 PUSH2 0x3BCA JUMP JUMPDEST SWAP4 POP PUSH2 0x3C2A DUP2 DUP6 PUSH1 0x20 DUP7 ADD PUSH2 0x3BDB JUMP JUMPDEST PUSH2 0x3C33 DUP2 PUSH2 0x3A27 JUMP JUMPDEST DUP5 ADD SWAP2 POP POP SWAP3 SWAP2 POP POP JUMP JUMPDEST PUSH1 0x0 DUP2 MLOAD SWAP1 POP SWAP2 SWAP1 POP JUMP JUMPDEST PUSH1 0x0 DUP3 DUP3 MSTORE PUSH1 0x20 DUP3 ADD SWAP1 POP SWAP3 SWAP2 POP POP JUMP JUMPDEST PUSH1 0x0 DUP2 SWAP1 POP PUSH1 0x20 DUP3 ADD SWAP1 POP SWAP2 SWAP1 POP JUMP JUMPDEST PUSH2 0x3C73 DUP2 PUSH2 0x39E7 JUMP JUMPDEST DUP3 MSTORE POP POP JUMP JUMPDEST PUSH1 0x0 PUSH2 0x3C85 DUP4 DUP4 PUSH2 0x3C6A JUMP JUMPDEST PUSH1 0x20 DUP4 ADD SWAP1 POP SWAP3 SWAP2 POP POP JUMP JUMPDEST PUSH1 0x0 PUSH1 0x20 DUP3 ADD SWAP1 POP SWAP2 SWAP1 POP JUMP JUMPDEST PUSH1 0x0 PUSH2 0x3CA9 DUP3 PUSH2 0x3C3E JUMP JUMPDEST PUSH2 0x3CB3 DUP2 DUP6 PUSH2 0x3C49 JUMP JUMPDEST SWAP4 POP PUSH2 0x3CBE DUP4 PUSH2 0x3C5A JUMP JUMPDEST DUP1 PUSH1 0x0 JUMPDEST DUP4 DUP2 LT ISZERO PUSH2 0x3CEF JUMPI DUP2 MLOAD PUSH2 0x3CD6 DUP9 DUP3 PUSH2 0x3C79 JUMP JUMPDEST SWAP8 POP PUSH2 0x3CE1 DUP4 PUSH2 0x3C91 JUMP JUMPDEST SWAP3 POP POP PUSH1 0x1 DUP2 ADD SWAP1 POP PUSH2 0x3CC2 JUMP JUMPDEST POP DUP6 SWAP4 POP POP POP POP SWAP3 SWAP2 POP POP JUMP JUMPDEST PUSH1 0x0 PUSH1 0x60 DUP3 ADD SWAP1 POP DUP2 DUP2 SUB PUSH1 0x0 DUP4 ADD MSTORE PUSH2 0x3D16 DUP2 DUP7 PUSH2 0x3C05 JUMP JUMPDEST SWAP1 POP DUP2 DUP2 SUB PUSH1 0x20 DUP4 ADD MSTORE PUSH2 0x3D2A DUP2 DUP6 PUSH2 0x3C9E JUMP JUMPDEST SWAP1 POP DUP2 DUP2 SUB PUSH1 0x40 DUP4 ADD MSTORE PUSH2 0x3D3E DUP2 DUP5 PUSH2 0x3C9E JUMP JUMPDEST SWAP1 POP SWAP5 SWAP4 POP POP POP POP JUMP JUMPDEST PUSH1 0x0 PUSH1 0x20 DUP3 DUP5 SUB SLT ISZERO PUSH2 0x3D5E JUMPI PUSH2 0x3D5D PUSH2 0x39DD JUMP JUMPDEST JUMPDEST PUSH1 0x0 PUSH2 0x3D6C DUP5 DUP3 DUP6 ADD PUSH2 0x3A08 JUMP JUMPDEST SWAP2 POP POP SWAP3 SWAP2 POP POP JUMP JUMPDEST PUSH1 0x0 PUSH20 0xFFFFFFFFFFFFFFFFFFFFFFFFFFFFFFFFFFFFFFFF DUP3 AND SWAP1 POP SWAP2 SWAP1 POP JUMP JUMPDEST PUSH1 0x0 PUSH2 0x3DA0 DUP3 PUSH2 0x3D75 JUMP JUMPDEST SWAP1 POP SWAP2 SWAP1 POP JUMP JUMPDEST PUSH2 0x3DB0 DUP2 PUSH2 0x3D95 JUMP JUMPDEST DUP2 EQ PUSH2 0x3DBB JUMPI PUSH1 0x0 DUP1 REVERT JUMPDEST POP JUMP JUMPDEST PUSH1 0x0 DUP2 CALLDATALOAD SWAP1 POP PUSH2 0x3DCD DUP2 PUSH2 0x3DA7 JUMP JUMPDEST SWAP3 SWAP2 POP POP JUMP JUMPDEST PUSH1 0x0 PUSH1 0x20 DUP3 DUP5 SUB SLT ISZERO PUSH2 0x3DE9 JUMPI PUSH2 0x3DE8 PUSH2 0x39DD JUMP JUMPDEST JUMPDEST PUSH1 0x0 PUSH2 0x3DF7 DUP5 DUP3 DUP6 ADD PUSH2 0x3DBE JUMP JUMPDEST SWAP2 POP POP SWAP3 SWAP2 POP POP JUMP JUMPDEST PUSH2 0x3E09 DUP2 PUSH2 0x3D95 JUMP JUMPDEST DUP3 MSTORE POP POP JUMP JUMPDEST PUSH1 0x0 PUSH1 0x20 DUP3 ADD SWAP1 POP PUSH2 0x3E24 PUSH1 0x0 DUP4 ADD DUP5 PUSH2 0x3E00 JUMP JUMPDEST SWAP3 SWAP2 POP POP JUMP JUMPDEST PUSH1 0x0 DUP2 ISZERO ISZERO SWAP1 POP SWAP2 SWAP1 POP JUMP JUMPDEST PUSH2 0x3E3F DUP2 PUSH2 0x3E2A JUMP JUMPDEST DUP3 MSTORE POP POP JUMP JUMPDEST PUSH1 0x0 PUSH1 0x20 DUP3 ADD SWAP1 POP PUSH2 0x3E5A PUSH1 0x0 DUP4 ADD DUP5 PUSH2 0x3E36 JUMP JUMPDEST SWAP3 SWAP2 POP POP JUMP JUMPDEST PUSH2 0x3E69 DUP2 PUSH2 0x39E7 JUMP JUMPDEST DUP3 MSTORE POP POP JUMP JUMPDEST PUSH1 0x0 PUSH1 0x20 DUP3 ADD SWAP1 POP PUSH2 0x3E84 PUSH1 0x0 DUP4 ADD DUP5 PUSH2 0x3E60 JUMP JUMPDEST SWAP3 SWAP2 POP POP JUMP JUMPDEST PUSH1 0x0 PUSH1 0x80 DUP3 ADD SWAP1 POP DUP2 DUP2 SUB PUSH1 0x0 DUP4 ADD MSTORE PUSH2 0x3EA4 DUP2 DUP8 PUSH2 0x3C05 JUMP JUMPDEST SWAP1 POP PUSH2 0x3EB3 PUSH1 0x20 DUP4 ADD DUP7 PUSH2 0x3E36 JUMP JUMPDEST PUSH2 0x3EC0 PUSH1 0x40 DUP4 ADD DUP6 PUSH2 0x3E60 JUMP JUMPDEST PUSH2 0x3ECD PUSH1 0x60 DUP4 ADD DUP5 PUSH2 0x3E60 JUMP JUMPDEST SWAP6 SWAP5 POP POP POP POP POP JUMP JUMPDEST PUSH1 0x0 PUSH8 0xFFFFFFFFFFFFFFFF DUP3 GT ISZERO PUSH2 0x3EF1 JUMPI PUSH2 0x3EF0 PUSH2 0x3A38 JUMP JUMPDEST JUMPDEST PUSH1 0x20 DUP3 MUL SWAP1 POP PUSH1 0x20 DUP2 ADD SWAP1 POP SWAP2 SWAP1 POP JUMP JUMPDEST PUSH1 0x0 DUP1 REVERT JUMPDEST PUSH1 0x0 PUSH2 0x3F1A PUSH2 0x3F15 DUP5 PUSH2 0x3ED6 JUMP JUMPDEST PUSH2 0x3A98 JUMP JUMPDEST SWAP1 POP DUP1 DUP4 DUP3 MSTORE PUSH1 0x20 DUP3 ADD SWAP1 POP PUSH1 0x20 DUP5 MUL DUP4 ADD DUP6 DUP2 GT ISZERO PUSH2 0x3F3D JUMPI PUSH2 0x3F3C PUSH2 0x3F02 JUMP JUMPDEST JUMPDEST DUP4 JUMPDEST DUP2 DUP2 LT ISZERO PUSH2 0x3F84 JUMPI DUP1 CALLDATALOAD PUSH8 0xFFFFFFFFFFFFFFFF DUP2 GT ISZERO PUSH2 0x3F62 JUMPI PUSH2 0x3F61 PUSH2 0x3A1D JUMP JUMPDEST JUMPDEST DUP1 DUP7 ADD PUSH2 0x3F6F DUP10 DUP3 PUSH2 0x3B35 JUMP JUMPDEST DUP6 MSTORE PUSH1 0x20 DUP6 ADD SWAP5 POP POP POP PUSH1 0x20 DUP2 ADD SWAP1 POP PUSH2 0x3F3F JUMP JUMPDEST POP POP POP SWAP4 SWAP3 POP POP POP JUMP JUMPDEST PUSH1 0x0 DUP3 PUSH1 0x1F DUP4 ADD SLT PUSH2 0x3FA3 JUMPI PUSH2 0x3FA2 PUSH2 0x3A1D JUMP JUMPDEST JUMPDEST DUP2 CALLDATALOAD PUSH2 0x3FB3 DUP5 DUP3 PUSH1 0x20 DUP7 ADD PUSH2 0x3F07 JUMP JUMPDEST SWAP2 POP POP SWAP3 SWAP2 POP POP JUMP JUMPDEST PUSH1 0x0 DUP1 PUSH1 0x0 PUSH1 0x60 DUP5 DUP7 SUB SLT ISZERO PUSH2 0x3FD5 JUMPI PUSH2 0x3FD4 PUSH2 0x39DD JUMP JUMPDEST JUMPDEST PUSH1 0x0 PUSH2 0x3FE3 DUP7 DUP3 DUP8 ADD PUSH2 0x3A08 JUMP JUMPDEST SWAP4 POP POP PUSH1 0x20 DUP5 ADD CALLDATALOAD PUSH8 0xFFFFFFFFFFFFFFFF DUP2 GT ISZERO PUSH2 0x4004 JUMPI PUSH2 0x4003 PUSH2 0x39E2 JUMP JUMPDEST JUMPDEST PUSH2 0x4010 DUP7 DUP3 DUP8 ADD PUSH2 0x3B35 JUMP JUMPDEST SWAP3 POP POP PUSH1 0x40 DUP5 ADD CALLDATALOAD PUSH8 0xFFFFFFFFFFFFFFFF DUP2 GT ISZERO PUSH2 0x4031 JUMPI PUSH2 0x4030 PUSH2 0x39E2 JUMP JUMPDEST JUMPDEST PUSH2 0x403D DUP7 DUP3 DUP8 ADD PUSH2 0x3F8E JUMP JUMPDEST SWAP2 POP POP SWAP3 POP SWAP3 POP SWAP3 JUMP JUMPDEST PUSH1 0x0 DUP2 MLOAD SWAP1 POP SWAP2 SWAP1 POP JUMP JUMPDEST PUSH1 0x0 DUP3 DUP3 MSTORE PUSH1 0x20 DUP3 ADD SWAP1 POP SWAP3 SWAP2 POP POP JUMP JUMPDEST PUSH1 0x0 DUP2 SWAP1 POP PUSH1 0x20 DUP3 ADD SWAP1 POP SWAP2 SWAP1 POP JUMP JUMPDEST PUSH1 0x0 DUP3 DUP3 MSTORE PUSH1 0x20 DUP3 ADD SWAP1 POP SWAP3 SWAP2 POP POP JUMP JUMPDEST PUSH1 0x0 PUSH2 0x408F DUP3 PUSH2 0x3BBF JUMP JUMPDEST PUSH2 0x4099 DUP2 DUP6 PUSH2 0x4073 JUMP JUMPDEST SWAP4 POP PUSH2 0x40A9 DUP2 DUP6 PUSH1 0x20 DUP7 ADD PUSH2 0x3BDB JUMP JUMPDEST PUSH2 0x40B2 DUP2 PUSH2 0x3A27 JUMP JUMPDEST DUP5 ADD SWAP2 POP POP SWAP3 SWAP2 POP POP JUMP JUMPDEST PUSH1 0x0 PUSH2 0x40C9 DUP4 DUP4 PUSH2 0x4084 JUMP JUMPDEST SWAP1 POP SWAP3 SWAP2 POP POP JUMP JUMPDEST PUSH1 0x0 PUSH1 0x20 DUP3 ADD SWAP1 POP SWAP2 SWAP1 POP JUMP JUMPDEST PUSH1 0x0 PUSH2 0x40E9 DUP3 PUSH2 0x4047 JUMP JUMPDEST PUSH2 0x40F3 DUP2 DUP6 PUSH2 0x4052 JUMP JUMPDEST SWAP4 POP DUP4 PUSH1 0x20 DUP3 MUL DUP6 ADD PUSH2 0x4105 DUP6 PUSH2 0x4063 JUMP JUMPDEST DUP1 PUSH1 0x0 JUMPDEST DUP6 DUP2 LT ISZERO PUSH2 0x4141 JUMPI DUP5 DUP5 SUB DUP10 MSTORE DUP2 MLOAD PUSH2 0x4122 DUP6 DUP3 PUSH2 0x40BD JUMP JUMPDEST SWAP5 POP PUSH2 0x412D DUP4 PUSH2 0x40D1 JUMP JUMPDEST SWAP3 POP PUSH1 0x20 DUP11 ADD SWAP10 POP POP PUSH1 0x1 DUP2 ADD SWAP1 POP PUSH2 0x4109 JUMP JUMPDEST POP DUP3 SWAP8 POP DUP8 SWAP6 POP POP POP POP POP POP SWAP3 SWAP2 POP POP JUMP JUMPDEST PUSH1 0x0 PUSH1 0xA0 DUP3 ADD SWAP1 POP DUP2 DUP2 SUB PUSH1 0x0 DUP4 ADD MSTORE PUSH2 0x416D DUP2 DUP9 PUSH2 0x3C05 JUMP JUMPDEST SWAP1 POP PUSH2 0x417C PUSH1 0x20 DUP4 ADD DUP8 PUSH2 0x3E36 JUMP JUMPDEST PUSH2 0x4189 PUSH1 0x40 DUP4 ADD DUP7 PUSH2 0x3E60 JUMP JUMPDEST PUSH2 0x4196 PUSH1 0x60 DUP4 ADD DUP6 PUSH2 0x3E60 JUMP JUMPDEST DUP2 DUP2 SUB PUSH1 0x80 DUP4 ADD MSTORE PUSH2 0x41A8 DUP2 DUP5 PUSH2 0x40DE JUMP JUMPDEST SWAP1 POP SWAP7 SWAP6 POP POP POP POP POP POP JUMP JUMPDEST PUSH1 0x0 PUSH2 0x100 DUP3 ADD SWAP1 POP DUP2 DUP2 SUB PUSH1 0x0 DUP4 ADD MSTORE PUSH2 0x41CF DUP2 DUP12 PUSH2 0x3C05 JUMP JUMPDEST SWAP1 POP DUP2 DUP2 SUB PUSH1 0x20 DUP4 ADD MSTORE PUSH2 0x41E3 DUP2 DUP11 PUSH2 0x3C05 JUMP JUMPDEST SWAP1 POP DUP2 DUP2 SUB PUSH1 0x40 DUP4 ADD MSTORE PUSH2 0x41F7 DUP2 DUP10 PUSH2 0x3C05 JUMP JUMPDEST SWAP1 POP DUP2 DUP2 SUB PUSH1 0x60 DUP4 ADD MSTORE PUSH2 0x420B DUP2 DUP9 PUSH2 0x3C05 JUMP JUMPDEST SWAP1 POP DUP2 DUP2 SUB PUSH1 0x80 DUP4 ADD MSTORE PUSH2 0x421F DUP2 DUP8 PUSH2 0x3C05 JUMP JUMPDEST SWAP1 POP PUSH2 0x422E PUSH1 0xA0 DUP4 ADD DUP7 PUSH2 0x3E00 JUMP JUMPDEST PUSH2 0x423B PUSH1 0xC0 DUP4 ADD DUP6 PUSH2 0x3E36 JUMP JUMPDEST PUSH2 0x4248 PUSH1 0xE0 DUP4 ADD DUP5 PUSH2 0x3E36 JUMP JUMPDEST SWAP10 SWAP9 POP POP POP POP POP POP POP POP POP JUMP JUMPDEST PUSH1 0x0 DUP2 MLOAD SWAP1 POP SWAP2 SWAP1 POP JUMP JUMPDEST PUSH1 0x0 DUP3 DUP3 MSTORE PUSH1 0x20 DUP3 ADD SWAP1 POP SWAP3 SWAP2 POP POP JUMP JUMPDEST PUSH1 0x0 DUP2 SWAP1 POP PUSH1 0x20 DUP3 ADD SWAP1 POP SWAP2 SWAP1 POP JUMP JUMPDEST PUSH2 0x428A DUP2 PUSH2 0x3D95 JUMP JUMPDEST DUP3 MSTORE POP POP JUMP JUMPDEST PUSH1 0x0 PUSH2 0x429C DUP4 DUP4 PUSH2 0x4281 JUMP JUMPDEST PUSH1 0x20 DUP4 ADD SWAP1 POP SWAP3 SWAP2 POP POP JUMP JUMPDEST PUSH1 0x0 PUSH1 0x20 DUP3 ADD SWAP1 POP SWAP2 SWAP1 POP JUMP JUMPDEST PUSH1 0x0 PUSH2 0x42C0 DUP3 PUSH2 0x4255 JUMP JUMPDEST PUSH2 0x42CA DUP2 DUP6 PUSH2 0x4260 JUMP JUMPDEST SWAP4 POP PUSH2 0x42D5 DUP4 PUSH2 0x4271 JUMP JUMPDEST DUP1 PUSH1 0x0 JUMPDEST DUP4 DUP2 LT ISZERO PUSH2 0x4306 JUMPI DUP2 MLOAD PUSH2 0x42ED DUP9 DUP3 PUSH2 0x4290 JUMP JUMPDEST SWAP8 POP PUSH2 0x42F8 DUP4 PUSH2 0x42A8 JUMP JUMPDEST SWAP3 POP POP PUSH1 0x1 DUP2 ADD SWAP1 POP PUSH2 0x42D9 JUMP JUMPDEST POP DUP6 SWAP4 POP POP POP POP SWAP3 SWAP2 POP POP JUMP JUMPDEST PUSH1 0x0 PUSH1 0x20 DUP3 ADD SWAP1 POP DUP2 DUP2 SUB PUSH1 0x0 DUP4 ADD MSTORE PUSH2 0x432D DUP2 DUP5 PUSH2 0x42B5 JUMP JUMPDEST SWAP1 POP SWAP3 SWAP2 POP POP JUMP JUMPDEST PUSH1 0x0 DUP1 PUSH1 0x0 PUSH1 0x60 DUP5 DUP7 SUB SLT ISZERO PUSH2 0x434E JUMPI PUSH2 0x434D PUSH2 0x39DD JUMP JUMPDEST JUMPDEST PUSH1 0x0 PUSH2 0x435C DUP7 DUP3 DUP8 ADD PUSH2 0x3A08 JUMP JUMPDEST SWAP4 POP POP PUSH1 0x20 DUP5 ADD CALLDATALOAD PUSH8 0xFFFFFFFFFFFFFFFF DUP2 GT ISZERO PUSH2 0x437D JUMPI PUSH2 0x437C PUSH2 0x39E2 JUMP JUMPDEST JUMPDEST PUSH2 0x4389 DUP7 DUP3 DUP8 ADD PUSH2 0x3B35 JUMP JUMPDEST SWAP3 POP POP PUSH1 0x40 PUSH2 0x439A DUP7 DUP3 DUP8 ADD PUSH2 0x3A08 JUMP JUMPDEST SWAP2 POP POP SWAP3 POP SWAP3 POP SWAP3 JUMP JUMPDEST PUSH1 0x0 DUP1 PUSH1 0x0 PUSH1 0x60 DUP5 DUP7 SUB SLT ISZERO PUSH2 0x43BD JUMPI PUSH2 0x43BC PUSH2 0x39DD JUMP JUMPDEST JUMPDEST PUSH1 0x0 DUP5 ADD CALLDATALOAD PUSH8 0xFFFFFFFFFFFFFFFF DUP2 GT ISZERO PUSH2 0x43DB JUMPI PUSH2 0x43DA PUSH2 0x39E2 JUMP JUMPDEST JUMPDEST PUSH2 0x43E7 DUP7 DUP3 DUP8 ADD PUSH2 0x3B35 JUMP JUMPDEST SWAP4 POP POP PUSH1 0x20 PUSH2 0x43F8 DUP7 DUP3 DUP8 ADD PUSH2 0x3A08 JUMP JUMPDEST SWAP3 POP POP PUSH1 0x40 PUSH2 0x4409 DUP7 DUP3 DUP8 ADD PUSH2 0x3A08 JUMP JUMPDEST SWAP2 POP POP SWAP3 POP SWAP3 POP SWAP3 JUMP JUMPDEST PUSH1 0x0 DUP1 PUSH1 0x0 DUP1 PUSH1 0x0 DUP1 PUSH1 0xC0 DUP8 DUP10 SUB SLT ISZERO PUSH2 0x4430 JUMPI PUSH2 0x442F PUSH2 0x39DD JUMP JUMPDEST JUMPDEST PUSH1 0x0 DUP8 ADD CALLDATALOAD PUSH8 0xFFFFFFFFFFFFFFFF DUP2 GT ISZERO PUSH2 0x444E JUMPI PUSH2 0x444D PUSH2 0x39E2 JUMP JUMPDEST JUMPDEST PUSH2 0x445A DUP10 DUP3 DUP11 ADD PUSH2 0x3B35 JUMP JUMPDEST SWAP7 POP POP PUSH1 0x20 DUP8 ADD CALLDATALOAD PUSH8 0xFFFFFFFFFFFFFFFF DUP2 GT ISZERO PUSH2 0x447B JUMPI PUSH2 0x447A PUSH2 0x39E2 JUMP JUMPDEST JUMPDEST PUSH2 0x4487 DUP10 DUP3 DUP11 ADD PUSH2 0x3B35 JUMP JUMPDEST SWAP6 POP POP PUSH1 0x40 DUP8 ADD CALLDATALOAD PUSH8 0xFFFFFFFFFFFFFFFF DUP2 GT ISZERO PUSH2 0x44A8 JUMPI PUSH2 0x44A7 PUSH2 0x39E2 JUMP JUMPDEST JUMPDEST PUSH2 0x44B4 DUP10 DUP3 DUP11 ADD PUSH2 0x3B35 JUMP JUMPDEST SWAP5 POP POP PUSH1 0x60 DUP8 ADD CALLDATALOAD PUSH8 0xFFFFFFFFFFFFFFFF DUP2 GT ISZERO PUSH2 0x44D5 JUMPI PUSH2 0x44D4 PUSH2 0x39E2 JUMP JUMPDEST JUMPDEST PUSH2 0x44E1 DUP10 DUP3 DUP11 ADD PUSH2 0x3B35 JUMP JUMPDEST SWAP4 POP POP PUSH1 0x80 DUP8 ADD CALLDATALOAD PUSH8 0xFFFFFFFFFFFFFFFF DUP2 GT ISZERO PUSH2 0x4502 JUMPI PUSH2 0x4501 PUSH2 0x39E2 JUMP JUMPDEST JUMPDEST PUSH2 0x450E DUP10 DUP3 DUP11 ADD PUSH2 0x3B35 JUMP JUMPDEST SWAP3 POP POP PUSH1 0xA0 PUSH2 0x451F DUP10 DUP3 DUP11 ADD PUSH2 0x3DBE JUMP JUMPDEST SWAP2 POP POP SWAP3 SWAP6 POP SWAP3 SWAP6 POP SWAP3 SWAP6 JUMP JUMPDEST PUSH32 0x456C656374696F6E20646F6573206E6F74206578697374000000000000000000 PUSH1 0x0 DUP3 ADD MSTORE POP JUMP JUMPDEST PUSH1 0x0 PUSH2 0x4562 PUSH1 0x17 DUP4 PUSH2 0x3BCA JUMP JUMPDEST SWAP2 POP PUSH2 0x456D DUP3 PUSH2 0x452C JUMP JUMPDEST PUSH1 0x20 DUP3 ADD SWAP1 POP SWAP2 SWAP1 POP JUMP JUMPDEST PUSH1 0x0 PUSH1 0x20 DUP3 ADD SWAP1 POP DUP2 DUP2 SUB PUSH1 0x0 DUP4 ADD MSTORE PUSH2 0x4591 DUP2 PUSH2 0x4555 JUMP JUMPDEST SWAP1 POP SWAP2 SWAP1 POP JUMP JUMPDEST PUSH32 0x456C656374696F6E206973207374696C6C206F70656E00000000000000000000 PUSH1 0x0 DUP3 ADD MSTORE POP JUMP JUMPDEST PUSH1 0x0 PUSH2 0x45CE PUSH1 0x16 DUP4 PUSH2 0x3BCA JUMP JUMPDEST SWAP2 POP PUSH2 0x45D9 DUP3 PUSH2 0x4598 JUMP JUMPDEST PUSH1 0x20 DUP3 ADD SWAP1 POP SWAP2 SWAP1 POP JUMP JUMPDEST PUSH1 0x0 PUSH1 0x20 DUP3 ADD SWAP1 POP DUP2 DUP2 SUB PUSH1 0x0 DUP4 ADD MSTORE PUSH2 0x45FD DUP2 PUSH2 0x45C1 JUMP JUMPDEST SWAP1 POP SWAP2 SWAP1 POP JUMP JUMPDEST PUSH1 0x0 DUP2 SWAP1 POP SWAP3 SWAP2 POP POP JUMP JUMPDEST PUSH1 0x0 PUSH2 0x461A DUP3 PUSH2 0x3BBF JUMP JUMPDEST PUSH2 0x4624 DUP2 DUP6 PUSH2 0x4604 JUMP JUMPDEST SWAP4 POP PUSH2 0x4634 DUP2 DUP6 PUSH1 0x20 DUP7 ADD PUSH2 0x3BDB JUMP JUMPDEST DUP1 DUP5 ADD SWAP2 POP POP SWAP3 SWAP2 POP POP JUMP JUMPDEST PUSH1 0x0 PUSH2 0x464C DUP3 DUP5 PUSH2 0x460F JUMP JUMPDEST SWAP2 POP DUP2 SWAP1 POP SWAP3 SWAP2 POP POP JUMP JUMPDEST PUSH32 0x4E487B7100000000000000000000000000000000000000000000000000000000 PUSH1 0x0 MSTORE PUSH1 0x32 PUSH1 0x4 MSTORE PUSH1 0x24 PUSH1 0x0 REVERT JUMPDEST PUSH32 0x4E487B7100000000000000000000000000000000000000000000000000000000 PUSH1 0x0 MSTORE PUSH1 0x22 PUSH1 0x4 MSTORE PUSH1 0x24 PUSH1 0x0 REVERT JUMPDEST PUSH1 0x0 PUSH1 0x2 DUP3 DIV SWAP1 POP PUSH1 0x1 DUP3 AND DUP1 PUSH2 0x46CD JUMPI PUSH1 0x7F DUP3 AND SWAP2 POP JUMPDEST PUSH1 0x20 DUP3 LT DUP2 SUB PUSH2 0x46E0 JUMPI PUSH2 0x46DF PUSH2 0x4686 JUMP JUMPDEST JUMPDEST POP SWAP2 SWAP1 POP JUMP JUMPDEST PUSH32 0x456C656374696F6E20697320616C726561647920636C6F736564000000000000 PUSH1 0x0 DUP3 ADD MSTORE POP JUMP JUMPDEST PUSH1 0x0 PUSH2 0x471C PUSH1 0x1A DUP4 PUSH2 0x3BCA JUMP JUMPDEST SWAP2 POP PUSH2 0x4727 DUP3 PUSH2 0x46E6 JUMP JUMPDEST PUSH1 0x20 DUP3 ADD SWAP1 POP SWAP2 SWAP1 POP JUMP JUMPDEST PUSH1 0x0 PUSH1 0x20 DUP3 ADD SWAP1 POP DUP2 DUP2 SUB PUSH1 0x0 DUP4 ADD MSTORE PUSH2 0x474B DUP2 PUSH2 0x470F JUMP JUMPDEST SWAP1 POP SWAP2 SWAP1 POP JUMP JUMPDEST PUSH32 0x456C656374696F6E20656E642074696D6520686173206E6F7420726561636865 PUSH1 0x0 DUP3 ADD MSTORE PUSH32 0x6400000000000000000000000000000000000000000000000000000000000000 PUSH1 0x20 DUP3 ADD MSTORE POP JUMP JUMPDEST PUSH1 0x0 PUSH2 0x47AE PUSH1 0x21 DUP4 PUSH2 0x3BCA JUMP JUMPDEST SWAP2 POP PUSH2 0x47B9 DUP3 PUSH2 0x4752 JUMP JUMPDEST PUSH1 0x40 DUP3 ADD SWAP1 POP SWAP2 SWAP1 POP JUMP JUMPDEST PUSH1 0x0 PUSH1 0x20 DUP3 ADD SWAP1 POP DUP2 DUP2 SUB PUSH1 0x0 DUP4 ADD MSTORE PUSH2 0x47DD DUP2 PUSH2 0x47A1 JUMP JUMPDEST SWAP1 POP SWAP2 SWAP1 POP JUMP JUMPDEST PUSH32 0x566F746572206973206E6F7420696E207468652070656E64696E67206C697374 PUSH1 0x0 DUP3 ADD MSTORE POP JUMP JUMPDEST PUSH1 0x0 PUSH2 0x481A PUSH1 0x20 DUP4 PUSH2 0x3BCA JUMP JUMPDEST SWAP2 POP PUSH2 0x4825 DUP3 PUSH2 0x47E4 JUMP JUMPDEST PUSH1 0x20 DUP3 ADD SWAP1 POP SWAP2 SWAP1 POP JUMP JUMPDEST PUSH1 0x0 PUSH1 0x20 DUP3 ADD SWAP1 POP DUP2 DUP2 SUB PUSH1 0x0 DUP4 ADD MSTORE PUSH2 0x4849 DUP2 PUSH2 0x480D JUMP JUMPDEST SWAP1 POP SWAP2 SWAP1 POP JUMP JUMPDEST PUSH1 0x0 DUP2 SWAP1 POP DUP2 PUSH1 0x0 MSTORE PUSH1 0x20 PUSH1 0x0 KECCAK256 SWAP1 POP SWAP2 SWAP1 POP JUMP JUMPDEST PUSH1 0x0 DUP2 SLOAD PUSH2 0x4872 DUP2 PUSH2 0x46B5 JUMP JUMPDEST PUSH2 0x487C DUP2 DUP7 PUSH2 0x3BCA JUMP JUMPDEST SWAP5 POP PUSH1 0x1 DUP3 AND PUSH1 0x0 DUP2 EQ PUSH2 0x4897 JUMPI PUSH1 0x1 DUP2 EQ PUSH2 0x48AD JUMPI PUSH2 0x48E0 JUMP JUMPDEST PUSH1 0xFF NOT DUP4 AND DUP7 MSTORE DUP2 ISZERO ISZERO PUSH1 0x20 MUL DUP7 ADD SWAP4 POP PUSH2 0x48E0 JUMP JUMPDEST PUSH2 0x48B6 DUP6 PUSH2 0x4850 JUMP JUMPDEST PUSH1 0x0 JUMPDEST DUP4 DUP2 LT ISZERO PUSH2 0x48D8 JUMPI DUP2 SLOAD DUP2 DUP10 ADD MSTORE PUSH1 0x1 DUP3 ADD SWAP2 POP PUSH1 0x20 DUP2 ADD SWAP1 POP PUSH2 0x48B9 JUMP JUMPDEST DUP1 DUP9 ADD SWAP6 POP POP POP JUMPDEST POP POP POP SWAP3 SWAP2 POP POP JUMP JUMPDEST PUSH1 0x0 PUSH1 0x20 DUP3 ADD SWAP1 POP DUP2 DUP2 SUB PUSH1 0x0 DUP4 ADD MSTORE PUSH2 0x4903 DUP2 DUP5 PUSH2 0x4865 JUMP JUMPDEST SWAP1 POP SWAP3 SWAP2 POP POP JUMP JUMPDEST PUSH1 0x0 PUSH1 0x20 DUP3 ADD SWAP1 POP DUP2 DUP2 SUB PUSH1 0x0 DUP4 ADD MSTORE PUSH2 0x4925 DUP2 DUP5 PUSH2 0x3C05 JUMP JUMPDEST SWAP1 POP SWAP3 SWAP2 POP POP JUMP JUMPDEST PUSH32 0x43616E6E6F7420726573657420616464726573736573207768696C6520616E20 PUSH1 0x0 DUP3 ADD MSTORE PUSH32 0x656C656374696F6E20697320696E2070726F6772657373000000000000000000 PUSH1 0x20 DUP3 ADD MSTORE POP JUMP JUMPDEST PUSH1 0x0 PUSH2 0x4989 PUSH1 0x37 DUP4 PUSH2 0x3BCA JUMP JUMPDEST SWAP2 POP PUSH2 0x4994 DUP3 PUSH2 0x492D JUMP JUMPDEST PUSH1 0x40 DUP3 ADD SWAP1 POP SWAP2 SWAP1 POP JUMP JUMPDEST PUSH1 0x0 PUSH1 0x20 DUP3 ADD SWAP1 POP DUP2 DUP2 SUB PUSH1 0x0 DUP4 ADD MSTORE PUSH2 0x49B8 DUP2 PUSH2 0x497C JUMP JUMPDEST SWAP1 POP SWAP2 SWAP1 POP JUMP JUMPDEST PUSH32 0x456C656374696F6E20686173206E6F7420737461727465642079657400000000 PUSH1 0x0 DUP3 ADD MSTORE POP JUMP JUMPDEST PUSH1 0x0 PUSH2 0x49F5 PUSH1 0x1C DUP4 PUSH2 0x3BCA JUMP JUMPDEST SWAP2 POP PUSH2 0x4A00 DUP3 PUSH2 0x49BF JUMP JUMPDEST PUSH1 0x20 DUP3 ADD SWAP1 POP SWAP2 SWAP1 POP JUMP JUMPDEST PUSH1 0x0 PUSH1 0x20 DUP3 ADD SWAP1 POP DUP2 DUP2 SUB PUSH1 0x0 DUP4 ADD MSTORE PUSH2 0x4A24 DUP2 PUSH2 0x49E8 JUMP JUMPDEST SWAP1 POP SWAP2 SWAP1 POP JUMP JUMPDEST PUSH32 0x456C656374696F6E2068617320616C726561647920656E646564000000000000 PUSH1 0x0 DUP3 ADD MSTORE POP JUMP JUMPDEST PUSH1 0x0 PUSH2 0x4A61 PUSH1 0x1A DUP4 PUSH2 0x3BCA JUMP JUMPDEST SWAP2 POP PUSH2 0x4A6C DUP3 PUSH2 0x4A2B JUMP JUMPDEST PUSH1 0x20 DUP3 ADD SWAP1 POP SWAP2 SWAP1 POP JUMP JUMPDEST PUSH1 0x0 PUSH1 0x20 DUP3 ADD SWAP1 POP DUP2 DUP2 SUB PUSH1 0x0 DUP4 ADD MSTORE PUSH2 0x4A90 DUP2 PUSH2 0x4A54 JUMP JUMPDEST SWAP1 POP SWAP2 SWAP1 POP JUMP JUMPDEST PUSH32 0x456C656374696F6E2068617320616C7265616479207374617274656400000000 PUSH1 0x0 DUP3 ADD MSTORE POP JUMP JUMPDEST PUSH1 0x0 PUSH2 0x4ACD PUSH1 0x1C DUP4 PUSH2 0x3BCA JUMP JUMPDEST SWAP2 POP PUSH2 0x4AD8 DUP3 PUSH2 0x4A97 JUMP JUMPDEST PUSH1 0x20 DUP3 ADD SWAP1 POP SWAP2 SWAP1 POP JUMP JUMPDEST PUSH1 0x0 PUSH1 0x20 DUP3 ADD SWAP1 POP DUP2 DUP2 SUB PUSH1 0x0 DUP4 ADD MSTORE PUSH2 0x4AFC DUP2 PUSH2 0x4AC0 JUMP JUMPDEST SWAP1 POP SWAP2 SWAP1 POP JUMP JUMPDEST PUSH32 0x506F736974696F6E206E616D652063616E6E6F7420626520656D707479000000 PUSH1 0x0 DUP3 ADD MSTORE POP JUMP JUMPDEST PUSH1 0x0 PUSH2 0x4B39 PUSH1 0x1D DUP4 PUSH2 0x3BCA JUMP JUMPDEST SWAP2 POP PUSH2 0x4B44 DUP3 PUSH2 0x4B03 JUMP JUMPDEST PUSH1 0x20 DUP3 ADD SWAP1 POP SWAP2 SWAP1 POP JUMP JUMPDEST PUSH1 0x0 PUSH1 0x20 DUP3 ADD SWAP1 POP DUP2 DUP2 SUB PUSH1 0x0 DUP4 ADD MSTORE PUSH2 0x4B68 DUP2 PUSH2 0x4B2C JUMP JUMPDEST SWAP1 POP SWAP2 SWAP1 POP JUMP JUMPDEST PUSH1 0x0 PUSH1 0x20 PUSH1 0x1F DUP4 ADD DIV SWAP1 POP SWAP2 SWAP1 POP JUMP JUMPDEST PUSH1 0x0 DUP3 DUP3 SHL SWAP1 POP SWAP3 SWAP2 POP POP JUMP JUMPDEST PUSH1 0x0 PUSH1 0x8 DUP4 MUL PUSH2 0x4BBC PUSH32 0xFFFFFFFFFFFFFFFFFFFFFFFFFFFFFFFFFFFFFFFFFFFFFFFFFFFFFFFFFFFFFFFF DUP3 PUSH2 0x4B7F JUMP JUMPDEST PUSH2 0x4BC6 DUP7 DUP4 PUSH2 0x4B7F JUMP JUMPDEST SWAP6 POP DUP1 NOT DUP5 AND SWAP4 POP DUP1 DUP7 AND DUP5 OR SWAP3 POP POP POP SWAP4 SWAP3 POP POP POP JUMP JUMPDEST PUSH1 0x0 DUP2 SWAP1 POP SWAP2 SWAP1 POP JUMP JUMPDEST PUSH1 0x0 PUSH2 0x4C03 PUSH2 0x4BFE PUSH2 0x4BF9 DUP5 PUSH2 0x39E7 JUMP JUMPDEST PUSH2 0x4BDE JUMP JUMPDEST PUSH2 0x39E7 JUMP JUMPDEST SWAP1 POP SWAP2 SWAP1 POP JUMP JUMPDEST PUSH1 0x0 DUP2 SWAP1 POP SWAP2 SWAP1 POP JUMP JUMPDEST PUSH2 0x4C1D DUP4 PUSH2 0x4BE8 JUMP JUMPDEST PUSH2 0x4C31 PUSH2 0x4C29 DUP3 PUSH2 0x4C0A JUMP JUMPDEST DUP5 DUP5 SLOAD PUSH2 0x4B8C JUMP JUMPDEST DUP3 SSTORE POP POP POP POP JUMP JUMPDEST PUSH1 0x0 SWAP1 JUMP JUMPDEST PUSH2 0x4C46 PUSH2 0x4C39 JUMP JUMPDEST PUSH2 0x4C51 DUP2 DUP5 DUP5 PUSH2 0x4C14 JUMP JUMPDEST POP POP POP JUMP JUMPDEST JUMPDEST DUP2 DUP2 LT ISZERO PUSH2 0x4C75 JUMPI PUSH2 0x4C6A PUSH1 0x0 DUP3 PUSH2 0x4C3E JUMP JUMPDEST PUSH1 0x1 DUP2 ADD SWAP1 POP PUSH2 0x4C57 JUMP JUMPDEST POP POP JUMP JUMPDEST PUSH1 0x1F DUP3 GT ISZERO PUSH2 0x4CBA JUMPI PUSH2 0x4C8B DUP2 PUSH2 0x4850 JUMP JUMPDEST PUSH2 0x4C94 DUP5 PUSH2 0x4B6F JUMP JUMPDEST DUP2 ADD PUSH1 0x20 DUP6 LT ISZERO PUSH2 0x4CA3 JUMPI DUP2 SWAP1 POP JUMPDEST PUSH2 0x4CB7 PUSH2 0x4CAF DUP6 PUSH2 0x4B6F JUMP JUMPDEST DUP4 ADD DUP3 PUSH2 0x4C56 JUMP JUMPDEST POP POP JUMPDEST POP POP POP JUMP JUMPDEST PUSH1 0x0 DUP3 DUP3 SHR SWAP1 POP SWAP3 SWAP2 POP POP JUMP JUMPDEST PUSH1 0x0 PUSH2 0x4CDD PUSH1 0x0 NOT DUP5 PUSH1 0x8 MUL PUSH2 0x4CBF JUMP JUMPDEST NOT DUP1 DUP4 AND SWAP2 POP POP SWAP3 SWAP2 POP POP JUMP JUMPDEST PUSH1 0x0 PUSH2 0x4CF6 DUP4 DUP4 PUSH2 0x4CCC JUMP JUMPDEST SWAP2 POP DUP3 PUSH1 0x2 MUL DUP3 OR SWAP1 POP SWAP3 SWAP2 POP POP JUMP JUMPDEST PUSH2 0x4D0F DUP3 PUSH2 0x3BBF JUMP JUMPDEST PUSH8 0xFFFFFFFFFFFFFFFF DUP2 GT ISZERO PUSH2 0x4D28 JUMPI PUSH2 0x4D27 PUSH2 0x3A38 JUMP JUMPDEST JUMPDEST PUSH2 0x4D32 DUP3 SLOAD PUSH2 0x46B5 JUMP JUMPDEST PUSH2 0x4D3D DUP3 DUP3 DUP6 PUSH2 0x4C79 JUMP JUMPDEST PUSH1 0x0 PUSH1 0x20 SWAP1 POP PUSH1 0x1F DUP4 GT PUSH1 0x1 DUP2 EQ PUSH2 0x4D70 JUMPI PUSH1 0x0 DUP5 ISZERO PUSH2 0x4D5E JUMPI DUP3 DUP8 ADD MLOAD SWAP1 POP JUMPDEST PUSH2 0x4D68 DUP6 DUP3 PUSH2 0x4CEA JUMP JUMPDEST DUP7 SSTORE POP PUSH2 0x4DD0 JUMP JUMPDEST PUSH1 0x1F NOT DUP5 AND PUSH2 0x4D7E DUP7 PUSH2 0x4850 JUMP JUMPDEST PUSH1 0x0 JUMPDEST DUP3 DUP2 LT ISZERO PUSH2 0x4DA6 JUMPI DUP5 DUP10 ADD MLOAD DUP3 SSTORE PUSH1 0x1 DUP3 ADD SWAP2 POP PUSH1 0x20 DUP6 ADD SWAP5 POP PUSH1 0x20 DUP2 ADD SWAP1 POP PUSH2 0x4D81 JUMP JUMPDEST DUP7 DUP4 LT ISZERO PUSH2 0x4DC3 JUMPI DUP5 DUP10 ADD MLOAD PUSH2 0x4DBF PUSH1 0x1F DUP10 AND DUP3 PUSH2 0x4CCC JUMP JUMPDEST DUP4 SSTORE POP JUMPDEST PUSH1 0x1 PUSH1 0x2 DUP9 MUL ADD DUP9 SSTORE POP POP POP JUMPDEST POP POP POP POP POP POP JUMP JUMPDEST PUSH32 0x506F736974696F6E20646F6573206E6F74206578697374000000000000000000 PUSH1 0x0 DUP3 ADD MSTORE POP JUMP JUMPDEST PUSH1 0x0 PUSH2 0x4E0E PUSH1 0x17 DUP4 PUSH2 0x3BCA JUMP JUMPDEST SWAP2 POP PUSH2 0x4E19 DUP3 PUSH2 0x4DD8 JUMP JUMPDEST PUSH1 0x20 DUP3 ADD SWAP1 POP SWAP2 SWAP1 POP JUMP JUMPDEST PUSH1 0x0 PUSH1 0x20 DUP3 ADD SWAP1 POP DUP2 DUP2 SUB PUSH1 0x0 DUP4 ADD MSTORE PUSH2 0x4E3D DUP2 PUSH2 0x4E01 JUMP JUMPDEST SWAP1 POP SWAP2 SWAP1 POP JUMP JUMPDEST PUSH32 0x4174206C656173742074776F2063616E64696461746573206172652072657175 PUSH1 0x0 DUP3 ADD MSTORE PUSH32 0x6972656420666F72206120706F736974696F6E00000000000000000000000000 PUSH1 0x20 DUP3 ADD MSTORE POP JUMP JUMPDEST PUSH1 0x0 PUSH2 0x4EA0 PUSH1 0x33 DUP4 PUSH2 0x3BCA JUMP JUMPDEST SWAP2 POP PUSH2 0x4EAB DUP3 PUSH2 0x4E44 JUMP JUMPDEST PUSH1 0x40 DUP3 ADD SWAP1 POP SWAP2 SWAP1 POP JUMP JUMPDEST PUSH1 0x0 PUSH1 0x20 DUP3 ADD SWAP1 POP DUP2 DUP2 SUB PUSH1 0x0 DUP4 ADD MSTORE PUSH2 0x4ECF DUP2 PUSH2 0x4E93 JUMP JUMPDEST SWAP1 POP SWAP2 SWAP1 POP JUMP JUMPDEST PUSH32 0x43616E646964617465206E616D6520616C726561647920657869737473000000 PUSH1 0x0 DUP3 ADD MSTORE POP JUMP JUMPDEST PUSH1 0x0 PUSH2 0x4F0C PUSH1 0x1D DUP4 PUSH2 0x3BCA JUMP JUMPDEST SWAP2 POP PUSH2 0x4F17 DUP3 PUSH2 0x4ED6 JUMP JUMPDEST PUSH1 0x20 DUP3 ADD SWAP1 POP SWAP2 SWAP1 POP JUMP JUMPDEST PUSH1 0x0 PUSH1 0x20 DUP3 ADD SWAP1 POP DUP2 DUP2 SUB PUSH1 0x0 DUP4 ADD MSTORE PUSH2 0x4F3B DUP2 PUSH2 0x4EFF JUMP JUMPDEST SWAP1 POP SWAP2 SWAP1 POP JUMP JUMPDEST PUSH32 0x4E487B7100000000000000000000000000000000000000000000000000000000 PUSH1 0x0 MSTORE PUSH1 0x11 PUSH1 0x4 MSTORE PUSH1 0x24 PUSH1 0x0 REVERT JUMPDEST PUSH1 0x0 PUSH2 0x4F7C DUP3 PUSH2 0x39E7 JUMP JUMPDEST SWAP2 POP PUSH32 0xFFFFFFFFFFFFFFFFFFFFFFFFFFFFFFFFFFFFFFFFFFFFFFFFFFFFFFFFFFFFFFFF DUP3 SUB PUSH2 0x4FAE JUMPI PUSH2 0x4FAD PUSH2 0x4F42 JUMP JUMPDEST JUMPDEST PUSH1 0x1 DUP3 ADD SWAP1 POP SWAP2 SWAP1 POP JUMP JUMPDEST PUSH1 0x0 PUSH1 0x40 DUP3 ADD SWAP1 POP DUP2 DUP2 SUB PUSH1 0x0 DUP4 ADD MSTORE PUSH2 0x4FD3 DUP2 DUP6 PUSH2 0x3C05 JUMP JUMPDEST SWAP1 POP DUP2 DUP2 SUB PUSH1 0x20 DUP4 ADD MSTORE PUSH2 0x4FE7 DUP2 DUP5 PUSH2 0x40DE JUMP JUMPDEST SWAP1 POP SWAP4 SWAP3 POP POP POP JUMP JUMPDEST PUSH32 0x456C656374696F6E20697320616C7265616479206F70656E0000000000000000 PUSH1 0x0 DUP3 ADD MSTORE POP JUMP JUMPDEST PUSH1 0x0 PUSH2 0x5026 PUSH1 0x18 DUP4 PUSH2 0x3BCA JUMP JUMPDEST SWAP2 POP PUSH2 0x5031 DUP3 PUSH2 0x4FF0 JUMP JUMPDEST PUSH1 0x20 DUP3 ADD SWAP1 POP SWAP2 SWAP1 POP JUMP JUMPDEST PUSH1 0x0 PUSH1 0x20 DUP3 ADD SWAP1 POP DUP2 DUP2 SUB PUSH1 0x0 DUP4 ADD MSTORE PUSH2 0x5055 DUP2 PUSH2 0x5019 JUMP JUMPDEST SWAP1 POP SWAP2 SWAP1 POP JUMP JUMPDEST PUSH32 0x456C656374696F6E2073746172742074696D6520686173206E6F742072656163 PUSH1 0x0 DUP3 ADD MSTORE PUSH32 0x6865640000000000000000000000000000000000000000000000000000000000 PUSH1 0x20 DUP3 ADD MSTORE POP JUMP JUMPDEST PUSH1 0x0 PUSH2 0x50B8 PUSH1 0x23 DUP4 PUSH2 0x3BCA JUMP JUMPDEST SWAP2 POP PUSH2 0x50C3 DUP3 PUSH2 0x505C JUMP JUMPDEST PUSH1 0x40 DUP3 ADD SWAP1 POP SWAP2 SWAP1 POP JUMP JUMPDEST PUSH1 0x0 PUSH1 0x20 DUP3 ADD SWAP1 POP DUP2 DUP2 SUB PUSH1 0x0 DUP4 ADD MSTORE PUSH2 0x50E7 DUP2 PUSH2 0x50AB JUMP JUMPDEST SWAP1 POP SWAP2 SWAP1 POP JUMP JUMPDEST PUSH32 0x566F74657220646F6573206E6F74206578697374000000000000000000000000 PUSH1 0x0 DUP3 ADD MSTORE POP JUMP JUMPDEST PUSH1 0x0 PUSH2 0x5124 PUSH1 0x14 DUP4 PUSH2 0x3BCA JUMP JUMPDEST SWAP2 POP PUSH2 0x512F DUP3 PUSH2 0x50EE JUMP JUMPDEST PUSH1 0x20 DUP3 ADD SWAP1 POP SWAP2 SWAP1 POP JUMP JUMPDEST PUSH1 0x0 PUSH1 0x20 DUP3 ADD SWAP1 POP DUP2 DUP2 SUB PUSH1 0x0 DUP4 ADD MSTORE PUSH2 0x5153 DUP2 PUSH2 0x5117 JUMP JUMPDEST SWAP1 POP SWAP2 SWAP1 POP JUMP JUMPDEST PUSH32 0x456C656374696F6E206973206E6F74206F70656E000000000000000000000000 PUSH1 0x0 DUP3 ADD MSTORE POP JUMP JUMPDEST PUSH1 0x0 PUSH2 0x5190 PUSH1 0x14 DUP4 PUSH2 0x3BCA JUMP JUMPDEST SWAP2 POP PUSH2 0x519B DUP3 PUSH2 0x515A JUMP JUMPDEST PUSH1 0x20 DUP3 ADD SWAP1 POP SWAP2 SWAP1 POP JUMP JUMPDEST PUSH1 0x0 PUSH1 0x20 DUP3 ADD SWAP1 POP DUP2 DUP2 SUB PUSH1 0x0 DUP4 ADD MSTORE PUSH2 0x51BF DUP2 PUSH2 0x5183 JUMP JUMPDEST SWAP1 POP SWAP2 SWAP1 POP JUMP JUMPDEST PUSH32 0x456C656374696F6E206973206E6F74206F70656E20666F7220766F74696E6700 PUSH1 0x0 DUP3 ADD MSTORE POP JUMP JUMPDEST PUSH1 0x0 PUSH2 0x51FC PUSH1 0x1F DUP4 PUSH2 0x3BCA JUMP JUMPDEST SWAP2 POP PUSH2 0x5207 DUP3 PUSH2 0x51C6 JUMP JUMPDEST PUSH1 0x20 DUP3 ADD SWAP1 POP SWAP2 SWAP1 POP JUMP JUMPDEST PUSH1 0x0 PUSH1 0x20 DUP3 ADD SWAP1 POP DUP2 DUP2 SUB PUSH1 0x0 DUP4 ADD MSTORE PUSH2 0x522B DUP2 PUSH2 0x51EF JUMP JUMPDEST SWAP1 POP SWAP2 SWAP1 POP JUMP JUMPDEST PUSH32 0x566F746572206973206E6F7420617070726F7665640000000000000000000000 PUSH1 0x0 DUP3 ADD MSTORE POP JUMP JUMPDEST PUSH1 0x0 PUSH2 0x5268 PUSH1 0x15 DUP4 PUSH2 0x3BCA JUMP JUMPDEST SWAP2 POP PUSH2 0x5273 DUP3 PUSH2 0x5232 JUMP JUMPDEST PUSH1 0x20 DUP3 ADD SWAP1 POP SWAP2 SWAP1 POP JUMP JUMPDEST PUSH1 0x0 PUSH1 0x20 DUP3 ADD SWAP1 POP DUP2 DUP2 SUB PUSH1 0x0 DUP4 ADD MSTORE PUSH2 0x5297 DUP2 PUSH2 0x525B JUMP JUMPDEST SWAP1 POP SWAP2 SWAP1 POP JUMP JUMPDEST PUSH32 0x566F7465722068617320616C726561647920766F746564000000000000000000 PUSH1 0x0 DUP3 ADD MSTORE POP JUMP JUMPDEST PUSH1 0x0 PUSH2 0x52D4 PUSH1 0x17 DUP4 PUSH2 0x3BCA JUMP JUMPDEST SWAP2 POP PUSH2 0x52DF DUP3 PUSH2 0x529E JUMP JUMPDEST PUSH1 0x20 DUP3 ADD SWAP1 POP SWAP2 SWAP1 POP JUMP JUMPDEST PUSH1 0x0 PUSH1 0x20 DUP3 ADD SWAP1 POP DUP2 DUP2 SUB PUSH1 0x0 DUP4 ADD MSTORE PUSH2 0x5303 DUP2 PUSH2 0x52C7 JUMP JUMPDEST SWAP1 POP SWAP2 SWAP1 POP JUMP JUMPDEST PUSH32 0x566F7465722773204D6574616D61736B206164647265737320646F6573206E6F PUSH1 0x0 DUP3 ADD MSTORE PUSH32 0x74206D6174636800000000000000000000000000000000000000000000000000 PUSH1 0x20 DUP3 ADD MSTORE POP JUMP JUMPDEST PUSH1 0x0 PUSH2 0x5366 PUSH1 0x27 DUP4 PUSH2 0x3BCA JUMP JUMPDEST SWAP2 POP PUSH2 0x5371 DUP3 PUSH2 0x530A JUMP JUMPDEST PUSH1 0x40 DUP3 ADD SWAP1 POP SWAP2 SWAP1 POP JUMP JUMPDEST PUSH1 0x0 PUSH1 0x20 DUP3 ADD SWAP1 POP DUP2 DUP2 SUB PUSH1 0x0 DUP4 ADD MSTORE PUSH2 0x5395 DUP2 PUSH2 0x5359 JUMP JUMPDEST SWAP1 POP SWAP2 SWAP1 POP JUMP JUMPDEST PUSH32 0x496E76616C69642063616E646964617465000000000000000000000000000000 PUSH1 0x0 DUP3 ADD MSTORE POP JUMP JUMPDEST PUSH1 0x0 PUSH2 0x53D2 PUSH1 0x11 DUP4 PUSH2 0x3BCA JUMP JUMPDEST SWAP2 POP PUSH2 0x53DD DUP3 PUSH2 0x539C JUMP JUMPDEST PUSH1 0x20 DUP3 ADD SWAP1 POP SWAP2 SWAP1 POP JUMP JUMPDEST PUSH1 0x0 PUSH1 0x20 DUP3 ADD SWAP1 POP DUP2 DUP2 SUB PUSH1 0x0 DUP4 ADD MSTORE PUSH2 0x5401 DUP2 PUSH2 0x53C5 JUMP JUMPDEST SWAP1 POP SWAP2 SWAP1 POP JUMP JUMPDEST PUSH32 0x496E76616C696420696E64657800000000000000000000000000000000000000 PUSH1 0x0 DUP3 ADD MSTORE POP JUMP JUMPDEST PUSH1 0x0 PUSH2 0x543E PUSH1 0xD DUP4 PUSH2 0x3BCA JUMP JUMPDEST SWAP2 POP PUSH2 0x5449 DUP3 PUSH2 0x5408 JUMP JUMPDEST PUSH1 0x20 DUP3 ADD SWAP1 POP SWAP2 SWAP1 POP JUMP JUMPDEST PUSH1 0x0 PUSH1 0x20 DUP3 ADD SWAP1 POP DUP2 DUP2 SUB PUSH1 0x0 DUP4 ADD MSTORE PUSH2 0x546D DUP2 PUSH2 0x5431 JUMP JUMPDEST SWAP1 POP SWAP2 SWAP1 POP JUMP JUMPDEST PUSH32 0x496E76616C696420656C656374696F6E20737461727420616E6420656E642074 PUSH1 0x0 DUP3 ADD MSTORE PUSH32 0x696D650000000000000000000000000000000000000000000000000000000000 PUSH1 0x20 DUP3 ADD MSTORE POP JUMP JUMPDEST PUSH1 0x0 PUSH2 0x54D0 PUSH1 0x23 DUP4 PUSH2 0x3BCA JUMP JUMPDEST SWAP2 POP PUSH2 0x54DB DUP3 PUSH2 0x5474 JUMP JUMPDEST PUSH1 0x40 DUP3 ADD SWAP1 POP SWAP2 SWAP1 POP JUMP JUMPDEST PUSH1 0x0 PUSH1 0x20 DUP3 ADD SWAP1 POP DUP2 DUP2 SUB PUSH1 0x0 DUP4 ADD MSTORE PUSH2 0x54FF DUP2 PUSH2 0x54C3 JUMP JUMPDEST SWAP1 POP SWAP2 SWAP1 POP JUMP JUMPDEST PUSH32 0x43616E6E6F7420726567697374657220766F7465727320616674657220746865 PUSH1 0x0 DUP3 ADD MSTORE PUSH32 0x20656C656374696F6E2068617320737461727465640000000000000000000000 PUSH1 0x20 DUP3 ADD MSTORE POP JUMP JUMPDEST PUSH1 0x0 PUSH2 0x5562 PUSH1 0x35 DUP4 PUSH2 0x3BCA JUMP JUMPDEST SWAP2 POP PUSH2 0x556D DUP3 PUSH2 0x5506 JUMP JUMPDEST PUSH1 0x40 DUP3 ADD SWAP1 POP SWAP2 SWAP1 POP JUMP JUMPDEST PUSH1 0x0 PUSH1 0x20 DUP3 ADD SWAP1 POP DUP2 DUP2 SUB PUSH1 0x0 DUP4 ADD MSTORE PUSH2 0x5591 DUP2 PUSH2 0x5555 JUMP JUMPDEST SWAP1 POP SWAP2 SWAP1 POP JUMP JUMPDEST PUSH32 0x566F74657220697320616C7265616479207265676973746572656420616E6420 PUSH1 0x0 DUP3 ADD MSTORE PUSH32 0x617070726F766564000000000000000000000000000000000000000000000000 PUSH1 0x20 DUP3 ADD MSTORE POP JUMP JUMPDEST PUSH1 0x0 PUSH2 0x55F4 PUSH1 0x28 DUP4 PUSH2 0x3BCA JUMP JUMPDEST SWAP2 POP PUSH2 0x55FF DUP3 PUSH2 0x5598 JUMP JUMPDEST PUSH1 0x40 DUP3 ADD SWAP1 POP SWAP2 SWAP1 POP JUMP JUMPDEST PUSH1 0x0 PUSH1 0x20 DUP3 ADD SWAP1 POP DUP2 DUP2 SUB PUSH1 0x0 DUP4 ADD MSTORE PUSH2 0x5623 DUP2 PUSH2 0x55E7 JUMP JUMPDEST SWAP1 POP SWAP2 SWAP1 POP JUMP JUMPDEST PUSH32 0x566F74657220697320616C7265616479207265676973746572656420616E6420 PUSH1 0x0 DUP3 ADD MSTORE PUSH32 0x70656E64696E6720617070726F76616C00000000000000000000000000000000 PUSH1 0x20 DUP3 ADD MSTORE POP JUMP JUMPDEST PUSH1 0x0 PUSH2 0x5686 PUSH1 0x30 DUP4 PUSH2 0x3BCA JUMP JUMPDEST SWAP2 POP PUSH2 0x5691 DUP3 PUSH2 0x562A JUMP JUMPDEST PUSH1 0x40 DUP3 ADD SWAP1 POP SWAP2 SWAP1 POP JUMP JUMPDEST PUSH1 0x0 PUSH1 0x20 DUP3 ADD SWAP1 POP DUP2 DUP2 SUB PUSH1 0x0 DUP4 ADD MSTORE PUSH2 0x56B5 DUP2 PUSH2 0x5679 JUMP JUMPDEST SWAP1 POP SWAP2 SWAP1 POP JUMP JUMPDEST PUSH1 0x0 PUSH2 0x56C7 DUP3 PUSH2 0x39E7 JUMP JUMPDEST SWAP2 POP PUSH2 0x56D2 DUP4 PUSH2 0x39E7 JUMP JUMPDEST SWAP3 POP DUP3 DUP3 SUB SWAP1 POP DUP2 DUP2 GT ISZERO PUSH2 0x56EA JUMPI PUSH2 0x56E9 PUSH2 0x4F42 JUMP JUMPDEST JUMPDEST SWAP3 SWAP2 POP POP JUMP JUMPDEST PUSH32 0x4E487B7100000000000000000000000000000000000000000000000000000000 PUSH1 0x0 MSTORE PUSH1 0x31 PUSH1 0x4 MSTORE PUSH1 0x24 PUSH1 0x0 REVERT INVALID LOG2 PUSH5 0x6970667358 0x22 SLT KECCAK256 SWAP15 0x4C BYTE PUSH24 0x1FD3F35236D4C9D51C759A64B2213E1494909FE2C20C2671 SWAP10 0xA9 0xB3 CREATE PUSH5 0x736F6C6343 STOP ADDMOD XOR STOP CALLER "},"methodIdentifiers":{"addCandidates(uint256,string,string[])":"7da3b49a","approveVoter(address)":"119d4ddb","approvedVoters(uint256)":"aed93010","candidateCounts(uint256)":"5824bf30","closeElection(uint256)":"09e33d07","createElection(string,uint256,uint256)":"f49a7a17","createPosition(uint256,string)":"760b5b23","electionCount()":"997d2830","electionEnded()":"c94ca9e3","electionStarted()":"d5346da1","elections(uint256)":"5e6fef01","endElection()":"59f78468","getApprovedVoters(uint256)":"f452130b","getElection(uint256)":"9d710777","getElectionProgress(uint256,string)":"d6c79eaa","getElectionResult(uint256,string)":"0003a3d1","getPendingVoters()":"c3322d09","getVoter(address)":"d4f50f98","isOwner(address)":"2f54bf6e","openElection(uint256)":"9a1d5956","owner()":"8da5cb5b","pendingVoters(uint256)":"24a9267b","registerVoter(string,string,string,string,string,address)":"ff9e50fe","rejectVoter(address)":"1b04772b","renounceOwnership()":"715018a6","resetRegisteredAddresses()":"3cfe3a37","startElection()":"62d73eb8","transferOwnership(address)":"f2fde38b","vote(uint256,string,uint256)":"f0f45457","voters(address)":"a3ec138d"}}}}}