{
  "_format": "hh-sol-artifact-1",
  "contractName": "Voting",
  "sourceName": "contracts/Voting.sol",
  "abi": [
    {
      "inputs": [],
      "stateMutability": "nonpayable",
      "type": "constructor"
    },
    {
      "inputs": [
        {
          "internalType": "address",
          "name": "owner",
          "type": "address"
        }
      ],
      "name": "OwnableInvalidOwner",
      "type": "error"
    },
    {
      "inputs": [
        {
          "internalType": "address",
          "name": "account",
          "type": "address"
        }
      ],
      "name": "OwnableUnauthorizedAccount",
      "type": "error"
    },
    {
      "inputs": [],
      "name": "ReentrancyGuardReentrantCall",
      "type": "error"
    },
    {
      "anonymous": false,
      "inputs": [
        {
          "indexed": true,
          "internalType": "uint256",
          "name": "electionId",
          "type": "uint256"
        },
        {
          "indexed": false,
          "internalType": "string",
          "name": "positionName",
          "type": "string"
        },
        {
          "indexed": false,
          "internalType": "string",
          "name": "candidateName",
          "type": "string"
        }
      ],
      "name": "CandidateApproved",
      "type": "event"
    },
    {
      "anonymous": false,
      "inputs": [
        {
          "indexed": true,
          "internalType": "uint256",
          "name": "electionId",
          "type": "uint256"
        },
        {
          "indexed": false,
          "internalType": "string",
          "name": "positionName",
          "type": "string"
        },
        {
          "indexed": false,
          "internalType": "string",
          "name": "candidateName",
          "type": "string"
        }
      ],
      "name": "CandidateRegistered",
      "type": "event"
    },
    {
      "anonymous": false,
      "inputs": [
        {
          "indexed": true,
          "internalType": "uint256",
          "name": "electionId",
          "type": "uint256"
        },
        {
          "indexed": false,
          "internalType": "string",
          "name": "positionName",
          "type": "string"
        },
        {
          "indexed": false,
          "internalType": "string",
          "name": "candidateName",
          "type": "string"
        }
      ],
      "name": "CandidateRejected",
      "type": "event"
    },
    {
      "anonymous": false,
      "inputs": [
        {
          "indexed": true,
          "internalType": "uint256",
          "name": "electionId",
          "type": "uint256"
        }
      ],
      "name": "ElectionClosed",
      "type": "event"
    },
    {
      "anonymous": false,
      "inputs": [
        {
          "indexed": true,
          "internalType": "uint256",
          "name": "electionId",
          "type": "uint256"
        },
        {
          "indexed": false,
          "internalType": "string",
          "name": "name",
          "type": "string"
        }
      ],
      "name": "ElectionCreated",
      "type": "event"
    },
    {
      "anonymous": false,
      "inputs": [],
      "name": "ElectionEnded",
      "type": "event"
    },
    {
      "anonymous": false,
      "inputs": [
        {
          "indexed": true,
          "internalType": "uint256",
          "name": "electionId",
          "type": "uint256"
        }
      ],
      "name": "ElectionOpened",
      "type": "event"
    },
    {
      "anonymous": false,
      "inputs": [],
      "name": "ElectionStarted",
      "type": "event"
    },
    {
      "anonymous": false,
      "inputs": [
        {
          "indexed": true,
          "internalType": "uint256",
          "name": "electionId",
          "type": "uint256"
        },
        {
          "indexed": false,
          "internalType": "uint256",
          "name": "newEndTime",
          "type": "uint256"
        }
      ],
      "name": "ElectionTimeExtended",
      "type": "event"
    },
    {
      "anonymous": false,
      "inputs": [
        {
          "indexed": true,
          "internalType": "address",
          "name": "previousOwner",
          "type": "address"
        },
        {
          "indexed": true,
          "internalType": "address",
          "name": "newOwner",
          "type": "address"
        }
      ],
      "name": "OwnershipTransferred",
      "type": "event"
    },
    {
      "anonymous": false,
      "inputs": [
        {
          "indexed": true,
          "internalType": "uint256",
          "name": "electionId",
          "type": "uint256"
        },
        {
          "indexed": false,
          "internalType": "string",
          "name": "positionName",
          "type": "string"
        }
      ],
      "name": "PositionCreated",
      "type": "event"
    },
    {
      "anonymous": false,
      "inputs": [],
      "name": "RegisteredAddressesReset",
      "type": "event"
    },
    {
      "anonymous": false,
      "inputs": [
        {
          "indexed": true,
          "internalType": "uint256",
          "name": "electionId",
          "type": "uint256"
        },
        {
          "indexed": true,
          "internalType": "address",
          "name": "voterAddress",
          "type": "address"
        },
        {
          "indexed": false,
          "internalType": "string",
          "name": "positionName",
          "type": "string"
        },
        {
          "indexed": true,
          "internalType": "uint256",
          "name": "candidateId",
          "type": "uint256"
        }
      ],
      "name": "VoteCast",
      "type": "event"
    },
    {
      "anonymous": false,
      "inputs": [
        {
          "indexed": true,
          "internalType": "address",
          "name": "voterAddress",
          "type": "address"
        },
        {
          "indexed": false,
          "internalType": "string",
          "name": "email",
          "type": "string"
        }
      ],
      "name": "VoterApproved",
      "type": "event"
    },
    {
      "anonymous": false,
      "inputs": [
        {
          "indexed": true,
          "internalType": "address",
          "name": "voterAddress",
          "type": "address"
        },
        {
          "indexed": false,
          "internalType": "string",
          "name": "email",
          "type": "string"
        }
      ],
      "name": "VoterRegistered",
      "type": "event"
    },
    {
      "anonymous": false,
      "inputs": [
        {
          "indexed": true,
          "internalType": "address",
          "name": "voterAddress",
          "type": "address"
        },
        {
          "indexed": false,
          "internalType": "string",
          "name": "email",
          "type": "string"
        }
      ],
      "name": "VoterRejected",
      "type": "event"
    },
    {
      "inputs": [
        {
          "internalType": "uint256",
          "name": "_electionId",
          "type": "uint256"
        },
        {
          "internalType": "string",
          "name": "_positionName",
          "type": "string"
        },
        {
          "internalType": "uint256",
          "name": "_candidateId",
          "type": "uint256"
        }
      ],
      "name": "approveCandidate",
      "outputs": [],
      "stateMutability": "nonpayable",
      "type": "function"
    },
    {
      "inputs": [
        {
          "internalType": "address",
          "name": "_voterAddress",
          "type": "address"
        }
      ],
      "name": "approveVoter",
      "outputs": [],
      "stateMutability": "nonpayable",
      "type": "function"
    },
    {
      "inputs": [
        {
          "internalType": "uint256",
          "name": "",
          "type": "uint256"
        }
      ],
      "name": "approvedVoters",
      "outputs": [
        {
          "internalType": "address",
          "name": "",
          "type": "address"
        }
      ],
      "stateMutability": "view",
      "type": "function"
    },
    {
      "inputs": [
        {
          "internalType": "uint256",
          "name": "",
          "type": "uint256"
        }
      ],
      "name": "candidateCounts",
      "outputs": [
        {
          "internalType": "uint256",
          "name": "",
          "type": "uint256"
        }
      ],
      "stateMutability": "view",
      "type": "function"
    },
    {
      "inputs": [
        {
          "internalType": "uint256",
          "name": "_electionId",
          "type": "uint256"
        }
      ],
      "name": "closeElection",
      "outputs": [],
      "stateMutability": "nonpayable",
      "type": "function"
    },
    {
      "inputs": [
        {
          "internalType": "string",
          "name": "_name",
          "type": "string"
        },
        {
          "internalType": "uint256",
          "name": "_startTime",
          "type": "uint256"
        },
        {
          "internalType": "uint256",
          "name": "_endTime",
          "type": "uint256"
        }
      ],
      "name": "createElection",
      "outputs": [],
      "stateMutability": "nonpayable",
      "type": "function"
    },
    {
      "inputs": [
        {
          "internalType": "uint256",
          "name": "_electionId",
          "type": "uint256"
        },
        {
          "internalType": "string",
          "name": "_positionName",
          "type": "string"
        }
      ],
      "name": "createPosition",
      "outputs": [],
      "stateMutability": "nonpayable",
      "type": "function"
    },
    {
      "inputs": [],
      "name": "electionCount",
      "outputs": [
        {
          "internalType": "uint256",
          "name": "",
          "type": "uint256"
        }
      ],
      "stateMutability": "view",
      "type": "function"
    },
    {
      "inputs": [],
      "name": "electionEnded",
      "outputs": [
        {
          "internalType": "bool",
          "name": "",
          "type": "bool"
        }
      ],
      "stateMutability": "view",
      "type": "function"
    },
    {
      "inputs": [],
      "name": "electionStarted",
      "outputs": [
        {
          "internalType": "bool",
          "name": "",
          "type": "bool"
        }
      ],
      "stateMutability": "view",
      "type": "function"
    },
    {
      "inputs": [
        {
          "internalType": "uint256",
          "name": "",
          "type": "uint256"
        }
      ],
      "name": "elections",
      "outputs": [
        {
          "internalType": "string",
          "name": "name",
          "type": "string"
        },
        {
          "internalType": "bool",
          "name": "isOpen",
          "type": "bool"
        },
        {
          "internalType": "uint256",
          "name": "startTime",
          "type": "uint256"
        },
        {
          "internalType": "uint256",
          "name": "endTime",
          "type": "uint256"
        }
      ],
      "stateMutability": "view",
      "type": "function"
    },
    {
      "inputs": [],
      "name": "endElection",
      "outputs": [],
      "stateMutability": "nonpayable",
      "type": "function"
    },
    {
      "inputs": [
        {
          "internalType": "uint256",
          "name": "_electionId",
          "type": "uint256"
        },
        {
          "internalType": "uint256",
          "name": "_newEndTime",
          "type": "uint256"
        }
      ],
      "name": "extendElectionTime",
      "outputs": [],
      "stateMutability": "nonpayable",
      "type": "function"
    },
    {
      "inputs": [
        {
          "internalType": "uint256",
          "name": "index",
          "type": "uint256"
        }
      ],
      "name": "getApprovedVoters",
      "outputs": [
        {
          "internalType": "address",
          "name": "",
          "type": "address"
        }
      ],
      "stateMutability": "view",
      "type": "function"
    },
    {
      "inputs": [
        {
          "internalType": "uint256",
          "name": "_electionId",
          "type": "uint256"
        }
      ],
      "name": "getElection",
      "outputs": [
        {
          "internalType": "string",
          "name": "",
          "type": "string"
        },
        {
          "internalType": "bool",
          "name": "",
          "type": "bool"
        },
        {
          "internalType": "uint256",
          "name": "",
          "type": "uint256"
        },
        {
          "internalType": "uint256",
          "name": "",
          "type": "uint256"
        },
        {
          "internalType": "string[]",
          "name": "",
          "type": "string[]"
        }
      ],
      "stateMutability": "view",
      "type": "function"
    },
    {
      "inputs": [
        {
          "internalType": "uint256",
          "name": "_electionId",
          "type": "uint256"
        },
        {
          "internalType": "string",
          "name": "_positionName",
          "type": "string"
        }
      ],
      "name": "getElectionProgress",
      "outputs": [
        {
          "internalType": "string",
          "name": "",
          "type": "string"
        },
        {
          "internalType": "uint256[]",
          "name": "",
          "type": "uint256[]"
        },
        {
          "internalType": "uint256[]",
          "name": "",
          "type": "uint256[]"
        }
      ],
      "stateMutability": "view",
      "type": "function"
    },
    {
      "inputs": [
        {
          "internalType": "uint256",
          "name": "_electionId",
          "type": "uint256"
        },
        {
          "internalType": "string",
          "name": "_positionName",
          "type": "string"
        }
      ],
      "name": "getElectionResult",
      "outputs": [
        {
          "internalType": "string",
          "name": "",
          "type": "string"
        },
        {
          "internalType": "uint256[]",
          "name": "",
          "type": "uint256[]"
        },
        {
          "internalType": "uint256[]",
          "name": "",
          "type": "uint256[]"
        }
      ],
      "stateMutability": "view",
      "type": "function"
    },
    {
      "inputs": [],
      "name": "getPendingVoters",
      "outputs": [
        {
          "internalType": "address[]",
          "name": "",
          "type": "address[]"
        }
      ],
      "stateMutability": "view",
      "type": "function"
    },
    {
      "inputs": [
        {
          "internalType": "uint256",
          "name": "_electionId",
          "type": "uint256"
        },
        {
          "internalType": "string",
          "name": "_positionName",
          "type": "string"
        }
      ],
      "name": "getRegisteredCandidates",
      "outputs": [
        {
          "internalType": "uint256[]",
          "name": "",
          "type": "uint256[]"
        },
        {
          "internalType": "string[]",
          "name": "",
          "type": "string[]"
        },
        {
          "internalType": "bool[]",
          "name": "",
          "type": "bool[]"
        }
      ],
      "stateMutability": "view",
      "type": "function"
    },
    {
      "inputs": [
        {
          "internalType": "address",
          "name": "_voterAddress",
          "type": "address"
        }
      ],
      "name": "getVoter",
      "outputs": [
        {
          "internalType": "string",
          "name": "",
          "type": "string"
        },
        {
          "internalType": "string",
          "name": "",
          "type": "string"
        },
        {
          "internalType": "string",
          "name": "",
          "type": "string"
        },
        {
          "internalType": "string",
          "name": "",
          "type": "string"
        },
        {
          "internalType": "string",
          "name": "",
          "type": "string"
        },
        {
          "internalType": "address",
          "name": "",
          "type": "address"
        },
        {
          "internalType": "bool",
          "name": "",
          "type": "bool"
        },
        {
          "internalType": "bool",
          "name": "",
          "type": "bool"
        }
      ],
      "stateMutability": "view",
      "type": "function"
    },
    {
      "inputs": [
        {
          "internalType": "address",
          "name": "_address",
          "type": "address"
        }
      ],
      "name": "isOwner",
      "outputs": [
        {
          "internalType": "bool",
          "name": "",
          "type": "bool"
        }
      ],
      "stateMutability": "view",
      "type": "function"
    },
    {
      "inputs": [
        {
          "internalType": "uint256",
          "name": "_electionId",
          "type": "uint256"
        }
      ],
      "name": "openElection",
      "outputs": [],
      "stateMutability": "nonpayable",
      "type": "function"
    },
    {
      "inputs": [],
      "name": "owner",
      "outputs": [
        {
          "internalType": "address",
          "name": "",
          "type": "address"
        }
      ],
      "stateMutability": "view",
      "type": "function"
    },
    {
      "inputs": [
        {
          "internalType": "uint256",
          "name": "",
          "type": "uint256"
        }
      ],
      "name": "pendingVoters",
      "outputs": [
        {
          "internalType": "address",
          "name": "",
          "type": "address"
        }
      ],
      "stateMutability": "view",
      "type": "function"
    },
    {
      "inputs": [
        {
          "internalType": "uint256",
          "name": "_electionId",
          "type": "uint256"
        },
        {
          "internalType": "string",
          "name": "_positionName",
          "type": "string"
        },
        {
          "internalType": "string",
          "name": "_candidateName",
          "type": "string"
        }
      ],
      "name": "registerCandidate",
      "outputs": [],
      "stateMutability": "nonpayable",
      "type": "function"
    },
    {
      "inputs": [
        {
          "internalType": "string",
          "name": "_firstName",
          "type": "string"
        },
        {
          "internalType": "string",
          "name": "_lastName",
          "type": "string"
        },
        {
          "internalType": "string",
          "name": "_registrationNumber",
          "type": "string"
        },
        {
          "internalType": "string",
          "name": "_email",
          "type": "string"
        },
        {
          "internalType": "string",
          "name": "_phoneNumber",
          "type": "string"
        },
        {
          "internalType": "address",
          "name": "_metamaskAddress",
          "type": "address"
        }
      ],
      "name": "registerVoter",
      "outputs": [],
      "stateMutability": "nonpayable",
      "type": "function"
    },
    {
      "inputs": [
        {
          "internalType": "uint256",
          "name": "_electionId",
          "type": "uint256"
        },
        {
          "internalType": "string",
          "name": "_positionName",
          "type": "string"
        },
        {
          "internalType": "uint256",
          "name": "_candidateId",
          "type": "uint256"
        }
      ],
      "name": "rejectCandidate",
      "outputs": [],
      "stateMutability": "nonpayable",
      "type": "function"
    },
    {
      "inputs": [
        {
          "internalType": "address",
          "name": "_voterAddress",
          "type": "address"
        }
      ],
      "name": "rejectVoter",
      "outputs": [],
      "stateMutability": "nonpayable",
      "type": "function"
    },
    {
      "inputs": [],
      "name": "renounceOwnership",
      "outputs": [],
      "stateMutability": "nonpayable",
      "type": "function"
    },
    {
      "inputs": [],
      "name": "resetRegisteredAddresses",
      "outputs": [],
      "stateMutability": "nonpayable",
      "type": "function"
    },
    {
      "inputs": [],
      "name": "startElection",
      "outputs": [],
      "stateMutability": "nonpayable",
      "type": "function"
    },
    {
      "inputs": [
        {
          "internalType": "address",
          "name": "newOwner",
          "type": "address"
        }
      ],
      "name": "transferOwnership",
      "outputs": [],
      "stateMutability": "nonpayable",
      "type": "function"
    },
    {
      "inputs": [
        {
          "internalType": "uint256",
          "name": "_electionId",
          "type": "uint256"
        },
        {
          "internalType": "string",
          "name": "_positionName",
          "type": "string"
        },
        {
          "internalType": "uint256",
          "name": "_candidateId",
          "type": "uint256"
        }
      ],
      "name": "vote",
      "outputs": [],
      "stateMutability": "nonpayable",
      "type": "function"
    },
    {
      "inputs": [
        {
          "internalType": "address",
          "name": "",
          "type": "address"
        }
      ],
      "name": "voters",
      "outputs": [
        {
          "internalType": "string",
          "name": "firstName",
          "type": "string"
        },
        {
          "internalType": "string",
          "name": "lastName",
          "type": "string"
        },
        {
          "internalType": "string",
          "name": "registrationNumber",
          "type": "string"
        },
        {
          "internalType": "string",
          "name": "email",
          "type": "string"
        },
        {
          "internalType": "string",
          "name": "phoneNumber",
          "type": "string"
        },
        {
          "internalType": "address",
          "name": "metamaskAddress",
          "type": "address"
        },
        {
          "internalType": "bool",
          "name": "approved",
          "type": "bool"
        },
        {
          "internalType": "bool",
          "name": "voted",
          "type": "bool"
        }
      ],
      "stateMutability": "view",
      "type": "function"
    }
  ],
  "bytecode": "0x6080806040523461007e5733156100685760008054336001600160a01b03198216811783556040519290916001600160a01b0316907f8be0079c531659141344cd1fd0a4f28419497f9722a3daafe3b4186f6b6457e09080a3600180556132a990816100848239f35b631e4fbdf760e01b815260006004820152602490fd5b600080fdfe6080604052600436101561001257600080fd5b60003560e01c806203a3d11461023657806309e33d0714610231578063119d4ddb1461022c5780631b04772b1461022757806324a9267b146102225780632f54bf6e1461021d5780633cfe3a37146102185780634da3fe5a146102135780634f3333691461020e57806351090d33146102095780635824bf301461020457806359f78468146101ff5780635e6fef01146101fa57806362d73eb8146101f5578063715018a6146101f0578063760b5b23146101eb5780638da5cb5b146101e6578063997d2830146101e15780639a1d5956146101dc5780639d710777146101d7578063a3ec138d146101d2578063aed93010146101cd578063bd5b5faf146101c8578063c3322d09146101c3578063c94ca9e3146101be578063d4f50f98146101b9578063d5346da1146101b4578063d6c79eaa146101af578063f0f45457146101aa578063f2fde38b146101a5578063f309ed15146101a0578063f452130b1461019b578063f49a7a17146101965763ff9e50fe1461019157600080fd5b612003565b611eae565b611e30565b611c45565b611bbd565b6119d4565b611904565b6118e1565b611802565b6117dc565b611727565b6115a0565b611557565b611493565b611337565b61122c565b61120e565b6111e5565b6110f5565b61109a565b61102f565b610fbb565b610e18565b610dec565b610c8e565b610acd565b6109a6565b6108a3565b61086e565b610825565b6106fd565b6105f8565b6104fc565b610415565b634e487b7160e01b600052604160045260246000fd5b90601f801991011681019081106001600160401b0382111761027257604052565b61023b565b60405190604082018281106001600160401b0382111761027257604052565b60405190608082018281106001600160401b0382111761027257604052565b6040519061010082018281106001600160401b0382111761027257604052565b81601f8201121561032b578035906001600160401b0382116102725760405192610309601f8401601f191660200185610251565b8284526020838301011161032b57816000926020809301838601378301015290565b600080fd5b90604060031983011261032b5760043591602435906001600160401b03821161032b5761035f916004016102d5565b90565b60005b8381106103755750506000910152565b8181015183820152602001610365565b9060209161039e81518092818552858086019101610362565b601f01601f1916010190565b90815180825260208080930193019160005b8281106103ca575050505090565b8351855293810193928101926001016103bc565b91610407906103f961035f9593606086526060860190610385565b9084820360208601526103aa565b9160408184039101526103aa565b3461032b5761042336610330565b906104326006548211156120a5565b806000526005602052610461604060002092600460019461045a60ff600183015416156120f1565b0190612136565b61046d6001820161215c565b9261047884516121ec565b926000825b6104a2575b50505061049161049e91610f9e565b91604051938493846103de565b0390f35b85518110156104f75790828260026104e26104be84968b61221e565b516104d3866000526007602052604060002090565b90600052602052604060002090565b01546104ee828961221e565b5201909161047d565b610482565b3461032b57602036600319011261032b576004356105186130a3565b6105266006548211156120a5565b6000908082526005602052604082206001810160ff81541615610587576105566003610560930154421015612232565b805460ff19169055565b7f393c4b8e62f1195313cf17dcf00793c668ddfc35881cd8015559c074f6d61e838280a280f35b60405162461bcd60e51b815260206004820152601a60248201527f456c656374696f6e20697320616c726561647920636c6f7365640000000000006044820152606490fd5b600435906001600160a01b038216820361032b57565b60a435906001600160a01b038216820361032b57565b3461032b57602036600319011261032b576106116105cc565b6106196130a3565b61062a610625826130cf565b612288565b6001600160a01b0381166000818152600260205260408120600501805460ff60a01b1916600160a01b1790556004549092600160401b8210156102725760018201806004558210156106f8576004845260008051602061325483398151915290910180546001600160a01b0319166001600160a01b0383161790556106b390613123565b613123565b80825260026020527f5ae161ff96a81f4fa8ddd8555ab13483a0fe416f296b510e08cbb11f98f9a10e6106f26003604085200160405191829182612328565b0390a280f35b6107ad565b3461032b57602036600319011261032b576107166105cc565b61071e6130a3565b61072a610625826130cf565b60018060a01b0381167f376d99d855649bd6e81e7fce16d54ac5f2c7fadae7b2f50b619c182afe401bbb6106f261077e61079960009585875260026020526107856003604089200160405194858092610f08565b0384610251565b85875260026020526106ae604088206123af565b604051918291602083526020830190610385565b634e487b7160e01b600052603260045260246000fd5b6003548110156106f85760036000526000805160206132348339815191520190600090565b6004548110156106f85760046000526000805160206132548339815191520190600090565b80548210156106f85760005260206000200190600090565b3461032b57602036600319011261032b5760043560035481101561032b57600360005260008051602061323483398151915201546040516001600160a01b039091168152602090f35b3461032b57602036600319011261032b5760206108896105cc565b6000546040516001600160a01b0392831691909216148152f35b3461032b576000806003193601126109a3576108bd6130a3565b6108d86108d36108cf600a5460ff1690565b1590565b612402565b805b600354811015610933578061092d61092861090e6108f96001956107c3565b905460039190911b1c6001600160a01b031690565b6001600160a01b0316600090815260026020526040902090565b6123af565b016108da565b50805b60045481101561095b578061095561092861090e6108f96001956107e8565b01610936565b5061096c6109676121c4565b612474565b61097c6109776121c4565b612508565b7f351a0247e8bb60a07bea1959df8f0e260dee3b0ccbbef1517ca1367b986664eb8180a180f35b80fd5b3461032b57604036600319011261032b576004356024356109c56130a3565b6109d36006548311156120a5565b816000526005602052600360406000206109f360ff60018301541661259c565b018054821115610a33578190556040519081527f9957539d9b3c3f294da9088900bece7540cdb76274e882913ae25bca90b2061e9080602081015b0390a2005b60405162461bcd60e51b815260206004820152603660248201527f4e657720656e642074696d65206d7573742062652067726561746572207468616044820152756e207468652063757272656e7420656e642074696d6560501b6064820152608490fd5b90606060031983011261032b5760043591602435906001600160401b03821161032b57610ac6916004016102d5565b9060443590565b3461032b577fe46ef16f45f14b433702c21c325ca11d00b469b9c13d430220e2b5726cdfa25e6001610afe36610a97565b610b0b94929391946130a3565b610b196006548511156120a5565b6106f26000958587526005602052610b4a610b43610b3d600460408b200184612136565b54610ece565b15156125e9565b8587526005602052610b6460026040892001544210612635565b858752600760205260408720838852602052610bc0604088209360038501868154610b9260ff821615612681565b60ff191617905585610bba6004610bb38b6000526005602052604060002090565b0185612136565b016126cd565b6040519384930190836126f0565b90808251908181526020809101926020808460051b8301019501936000915b848310610bfd5750505050505090565b9091929394958480610c1b600193601f198682030187528a51610385565b9801930193019194939290610bed565b90610c41610c51916060845260608401906103aa565b6020938382036020850152610bce565b9060408183039101526020808451928381520193019160005b828110610c78575050505090565b8351151585529381019392810192600101610c6a565b3461032b57610c9c36610330565b610caa6006548311156120a5565b816000526005602052610cca610b43610b3d600460406000200184612136565b81600052600860205260406000205491610ce3836121ec565b91610ced84612715565b93610cf7816121ec565b9260009260019060015b84811115610d22578588528589528587526040518061049e898c8c84610c2b565b610d3a816104d3866000526007602052604060002090565b89610d58610d52876000526009602052604060002090565b85612136565b8a610d70610d698886019384612773565b5460ff1690565b610d87575b50505050610d829061275f565b610d01565b6003610de294610dc38c8096610db38a9f97610d829b610dad610ddd9a610dcc9a61221e565b52610f9e565b610dbd838361221e565b5261221e565b50015460ff1690565b610dd6838c61221e565b9015159052565b61275f565b959089388a610d75565b3461032b57602036600319011261032b5760043560005260086020526020604060002054604051908152f35b3461032b576000806003193601126109a357610e326130a3565b600a5460ff811615610e895760ff610e4e9160081c1615612805565b610e6261010061ff0019600a541617600a55565b7f66ec723071e4bb646f7b35d31bc2dee8510979bd8c180edd0690d4f5e802f1e48180a180f35b60405162461bcd60e51b815260206004820152601c60248201527f456c656374696f6e20686173206e6f74207374617274656420796574000000006044820152606490fd5b90600182811c92168015610efe575b6020831014610ee857565b634e487b7160e01b600052602260045260246000fd5b91607f1691610edd565b805460009392610f1782610ece565b91828252602093600191600181169081600014610f7f5750600114610f3e575b5050505050565b90939495506000929192528360002092846000945b838610610f6b57505050500101903880808080610f37565b805485870183015294019385908201610f53565b60ff19168685015250505090151560051b010191503880808080610f37565b90610fb9610fb29260405193848092610f08565b0383610251565b565b3461032b57602036600319011261032b576004356000526005602052611019604060002060405190610ff182610fb28184610f08565b60ff600182015416906003600282015491015490604051948594608086526080860190610385565b9215156020850152604084015260608301520390f35b3461032b576000806003193601126109a3576110496130a3565b6001600a5461105b60ff821615612635565b61106b60ff8260081c1615612805565b60ff191617600a557fc475c26aa25ed8e85a7faa790e5f63b5d7ee1025f12821f4c9bfddd36ab4d1128180a180f35b3461032b576000806003193601126109a3576110b46130a3565b80546001600160a01b03198116825581906001600160a01b03167f8be0079c531659141344cd1fd0a4f28419497f9722a3daafe3b4186f6b6457e08280a380f35b3461032b5761110336610330565b61110b6130a3565b6111196006548311156120a5565b8051156111a057610a2e7f9d3f9d97cfa4d97c52f6be76984c7c9ac6dcbfd36f22e4b5ba1a4fbf01d83a7c9161119461115c856000526005602052604060002090565b611169836005830161296b565b61118f60046111766121c4565b9261117f610277565b9386855260208501520184612136565b6129ae565b604051918291826123f1565b60405162461bcd60e51b815260206004820152601d60248201527f506f736974696f6e206e616d652063616e6e6f7420626520656d7074790000006044820152606490fd5b3461032b57600036600319011261032b576000546040516001600160a01b039091168152602090f35b3461032b57600036600319011261032b576020600654604051908152f35b3461032b57602036600319011261032b576004356112486130a3565b6112566006548211156120a5565b6000908082526005602052604082206001810160ff8154166112b9576112856002611292930154421015612a3e565b805460ff19166001179055565b7f0589f8b93514c651c0c92b06bdb8118fe508daadf2ffdac1f516191be20fcb858280a280f35b60405162461bcd60e51b815260206004820152601860248201527f456c656374696f6e20697320616c7265616479206f70656e00000000000000006044820152606490fd5b9193909261131861035f969460a0855260a0850190610385565b9415156020840152604083015260608201526080818403910152610bce565b3461032b5760208060031936011261032b5760043561135a6006548211156120a5565b600052600560205260409061139a60406000209260019360ff600182015416936002820154906003830154926113a1600582019160405197888092610f08565b0387610251565b8054916113ad836121ad565b956113bb6040519788610251565b83875260208701926000526020600020906000935b8585106113eb578a8a61049e8b8b8b604051958695866112fe565b8b8481928451611406816113ff818a610f08565b0382610251565b8152019301940193916113d0565b96936114596114759461144b60e0999c9b989561143d611467968d610100908181520190610385565b8c810360208e015290610385565b908a820360408c0152610385565b9088820360608a0152610385565b908682036080880152610385565b6001600160a01b0390961660a0850152151560c08401521515910152565b3461032b57602036600319011261032b576001600160a01b03806114b56105cc565b166000526002602052604061049e81600020928251926114e0846114d98188610f08565b0385610251565b8051936114fb856114f48160018a01610f08565b0386610251565b8151956115168761150f8160028501610f08565b0388610251565b8251611529816113ff8160038601610f08565b600561153760048401610f9e565b920154935197889760ff8660a81c169660ff8760a01c1696169489611414565b3461032b57602036600319011261032b5760043560045481101561032b57600460005260008051602061325483398151915201546040516001600160a01b039091168152602090f35b3461032b57606036600319011261032b576001600160401b0360043560243582811161032b576115d49036906004016102d5565b9160443590811161032b5761160e7f0ec1a365aeeec255796bf50d7a2a8f24d0d5f5c6ada0167b6c647428d91645829136906004016102d5565b61161c6006548411156120a5565b600093838552600560205261163d610b43610b3d6004604089200184612136565b838552600560205261165760026040872001544210612635565b838552600960205261168361167e6108cf610d6961167860408a2086612136565b86612136565b612a96565b611697846000526008602052604060002090565b6116a1815461275f565b90556116f56116ba856000526008602052604060002090565b546116f06116c6610296565b918083528560208401528860408401528860608401526104d3886000526007602052604060002090565b612ae2565b611718611285611712611712876000526009602052604060002090565b84612136565b6106f260405192839283612b1a565b3461032b576000806003193601126109a357604051809160035490818352602080930180926003835260008051602061323483398151915290835b8181106117bf5750505084611778910385610251565b60405193838594850191818652518092526040850193925b82811061179f57505050500390f35b83516001600160a01b031685528695509381019392810192600101611790565b82546001600160a01b031684529286019260019283019201611762565b3461032b57600036600319011261032b57602060ff600a5460081c166040519015158152f35b3461032b57602036600319011261032b5761181b6105cc565b61184d60018060a01b0391828116600052600260205282600560406000200154161515806118b2575b61090e90612b3f565b9061049e60058301549161186084610f9e565b9261186d60018601610f9e565b9361187a60028701610f9e565b95611893600461188c60038401610f9e565b9201610f9e565b9060405197889760ff8660a81c169660ff8760a01c1696169489611414565b506001600160a01b038116600090815260026020526040902061090e906118d8906125df565b15159050611844565b3461032b57600036600319011261032b57602060ff600a54166040519015158152f35b3461032b5761191236610330565b6119206006548311156120a5565b60046000928060005260209260056020526040916119526040600020926001958461045a60ff60018a9801541661259c565b9261195f6001850161215c565b9661196a88516121ec565b966000965b611982575b888861049e61049189610f9e565b8880518810156119ce578760026119b961199f899a9b8a9561221e565b518887526007865287872090600052602052604060002090565b01546119c5828c61221e565b5201969561196f565b50611974565b3461032b576119e236610a97565b91600260015414611bab576002600155611a006006548211156120a5565b806000526005602052611a20610b43610b3d600460406000200185612136565b611af0611aeb84611ae66001611ae06004611a45886000526005602052604060002090565b611a5a611a558583015460ff1690565b612b82565b336000908152600260205260409020611a8590611a80906005905b015460a01c60ff1690565b612bce565b336000908152600260205260409020611ab290611aad906108cf906005015460a81c60ff1690565b612c12565b33600090815260026020526040902060050154611ad9906001600160a01b03163314612c5e565b0188612136565b0161215c565b6131fd565b612cba565b611b1d611b186003611b10866104d3866000526007602052604060002090565b015460ff1690565b612cfa565b336000908152600260205260409020611b4690600501805460ff60a81b1916600160a81b179055565b6002611b60846104d3846000526007602052604060002090565b01611b6b815461275f565b90557fd9f61bad27b367f9d956d43115ce9b23449b64e56e608eb9569f6b929b632e7e60405180611b9d3395826123f1565b0390a4611ba960018055565b005b604051633ee5aeb560e01b8152600490fd5b3461032b57602036600319011261032b57611bd66105cc565b611bde6130a3565b6001600160a01b039081168015611c2c57600080546001600160a01b03198116831782559092167f8be0079c531659141344cd1fd0a4f28419497f9722a3daafe3b4186f6b6457e08380a380f35b604051631e4fbdf760e01b815260006004820152602490fd5b3461032b57611c5336610a97565b9091611c5d6130a3565b611c6b6006548211156120a5565b6000918183526005602052611c8c610b43610b3d6004604087200187612136565b8183526005602052611ca660026040852001544210612635565b611cbe816104d3846000526007602052604060002090565b93611cd8611cd36108cf600388015460ff1690565b612681565b611ce56001809601610f9e565b91611d03610556610d52610d52876000526009602052604060002090565b611d23611d1e826104d3876000526007602052604060002090565b612d46565b6001611d456004611d3e876000526005602052604060002090565b0184612136565b019085875b611d84575b505050907fc965973ca1e6509f55ff868bce7a20c938b1b78836c93db3d55171313e920b83916106f260405192839283612b1a565b825480821015611e2a5782611da6611d9c848761080d565b90549060031b1c90565b14611db45750870187611d4a565b7fc965973ca1e6509f55ff868bce7a20c938b1b78836c93db3d55171313e920b8396979850611e2093925090611e02611dfb611d9c611df5611e1b95612d64565b8661080d565b918461080d565b90919082549060031b91821b91600019901b1916179055565b612d89565b8493923880611d4f565b50611d4f565b3461032b57602036600319011261032b57600435600454811015611e7957600460005260008051602061325483398151915201546040516001600160a01b039091168152602090f35b60405162461bcd60e51b815260206004820152600d60248201526c092dcecc2d8d2c840d2dcc8caf609b1b6044820152606490fd5b3461032b57606036600319011261032b576004356001600160401b03811161032b57611ede9036906004016102d5565b602435604435611eec6130a3565b80821015611fb2577f52be7c4e77b4de76b7607d621492061fe13b58597e72dfb5e51ab8f6187ed14191610a2e91600691611f2f611f2a845461275f565b600655565b611f4d86611f4885546000526005602052604060002090565b612896565b611f726001611f6785546000526005602052604060002090565b01805460ff19169055565b6002611f8984546000526005602052604060002090565b01556003611fa283546000526005602052604060002090565b01555492604051918291826123f1565b60405162461bcd60e51b815260206004820152602360248201527f496e76616c696420656c656374696f6e20737461727420616e6420656e642074604482015262696d6560e81b6064820152608490fd5b3461032b5760c036600319011261032b5760046001600160401b03813581811161032b5761203490369084016102d5565b9060243581811161032b5761204c90369085016102d5565b9060443581811161032b5761206490369086016102d5565b60643582811161032b5761207b90369087016102d5565b9160843590811161032b57611ba995612096913691016102d5565b9261209f6105e2565b94612f9f565b156120ac57565b60405162461bcd60e51b815260206004820152601760248201527f456c656374696f6e20646f6573206e6f742065786973740000000000000000006044820152606490fd5b156120f857565b60405162461bcd60e51b815260206004820152601660248201527522b632b1ba34b7b71034b99039ba34b6361037b832b760511b6044820152606490fd5b602090612150928260405194838680955193849201610362565b82019081520301902090565b90604051918281549182825260209260208301916000526020600020936000905b82821061219357505050610fb992500383610251565b85548452600195860195889550938101939091019061217d565b6001600160401b0381116102725760051b60200190565b604051602081018181106001600160401b038211176102725760405260008152906000368137565b906121f6826121ad565b6122036040519182610251565b8281528092612214601f19916121ad565b0190602036910137565b80518210156106f85760209160051b010190565b1561223957565b60405162461bcd60e51b815260206004820152602160248201527f456c656374696f6e20656e642074696d6520686173206e6f74207265616368656044820152601960fa1b6064820152608490fd5b1561228f57565b606460405162461bcd60e51b815260206004820152602060248201527f566f746572206973206e6f7420696e207468652070656e64696e67206c6973746044820152fd5b60035490600160401b8210156102725760018201806003558210156106f857600360005260008051602061323483398151915290910180546001600160a01b0319166001600160a01b03909216919091179055565b90602061035f928181520190610f08565b818110612344575050565b60008155600101612339565b634e487b7160e01b600052601160045260246000fd5b6123708154610ece565b908161237a575050565b81601f6000931160011461238c575055565b9080839182526123ab601f60208420940160051c840160018501612339565b5555565b60056000916123bd81612366565b6123c960018201612366565b6123d560028201612366565b6123e160038201612366565b6123ed60048201612366565b0155565b90602061035f928181520190610385565b1561240957565b60405162461bcd60e51b815260206004820152603760248201527f43616e6e6f7420726573657420616464726573736573207768696c6520616e2060448201527f656c656374696f6e20697320696e2070726f67726573730000000000000000006064820152608490fd5b8051906001600160401b03821161027257600160401b821161027257600354826003558083106124e4575b50602080910190600360005260005b8381106124bb5750505050565b82516001600160a01b0316600080516020613234833981519152820155918101916001016124ae565b61250290836000805160206132348339815191529182019101612339565b3861249f565b8051906001600160401b03821161027257600160401b82116102725760045482600455808310612578575b50602080910190600460005260005b83811061254f5750505050565b82516001600160a01b031660008051602061325483398151915282015591810191600101612542565b61259690836000805160206132548339815191529182019101612339565b38612533565b156125a357565b60405162461bcd60e51b815260206004820152601460248201527322b632b1ba34b7b71034b9903737ba1037b832b760611b6044820152606490fd5b61035f9054610ece565b156125f057565b60405162461bcd60e51b815260206004820152601760248201527f506f736974696f6e20646f6573206e6f742065786973740000000000000000006044820152606490fd5b1561263c57565b60405162461bcd60e51b815260206004820152601c60248201527f456c656374696f6e2068617320616c72656164792073746172746564000000006044820152606490fd5b1561268857565b60405162461bcd60e51b815260206004820152601d60248201527f43616e64696461746520697320616c726561647920617070726f7665640000006044820152606490fd5b90815491600160401b8310156102725782611e02916001610fb99501815561080d565b909161270761035f93604084526040840190610385565b916020818403910152610f08565b9061271f826121ad565b61272c6040519182610251565b828152809261273d601f19916121ad565b019060005b82811061274e57505050565b806060602080938501015201612742565b600019811461276e5760010190565b612350565b906040518092600090805461278781610ece565b916001918083169081156127eb57506001146127ad575b50505060209281520301902090565b60009081526020808220969450915b8382106127d5575050506020935082019092388061279e565b86548883015295860195879550908201906127bc565b60ff1916865250505080151502820190506020388061279e565b1561280c57565b60405162461bcd60e51b815260206004820152601a60248201527f456c656374696f6e2068617320616c726561647920656e6465640000000000006044820152606490fd5b9190601f811161286057505050565b610fb9926000526020600020906020601f840160051c8301931061288c575b601f0160051c0190612339565b909150819061287f565b91909182516001600160401b038111610272576128bd816128b78454610ece565b84612851565b602080601f8311600114612900575081906128f19394956000926128f5575b50508160011b916000199060031b1c19161790565b9055565b0151905038806128dc565b90601f1983169561291685600052602060002090565b926000905b8882106129535750508360019596971061293a575b505050811b019055565b015160001960f88460031b161c19169055388080612930565b8060018596829496860151815501950193019061291b565b8054600160401b811015610272576129889160018201815561080d565b91909161299857610fb991612896565b634e487b7160e01b600052600060045260246000fd5b906129ba815183612896565b6001809201602080920151918251926001600160401b03841161027257600160401b8411610272576020908354858555808610612a21575b50019160005260206000209060005b848110612a1057505050505050565b835183820155928101928501612a01565b612a38908560005286846000209182019101612339565b386129f2565b15612a4557565b60405162461bcd60e51b815260206004820152602360248201527f456c656374696f6e2073746172742074696d6520686173206e6f7420726561636044820152621a195960ea1b6064820152608490fd5b15612a9d57565b60405162461bcd60e51b815260206004820152601d60248201527f43616e646964617465206e616d6520616c7265616479206578697374730000006044820152606490fd5b600360609183518155612afc602085015160018301612896565b6040840151600282015501910151151560ff80198354169116179055565b9091612b3161035f93604084526040840190610385565b916020818403910152610385565b15612b4657565b60405162461bcd60e51b8152602060048201526014602482015273159bdd195c88191bd95cc81b9bdd08195e1a5cdd60621b6044820152606490fd5b15612b8957565b60405162461bcd60e51b815260206004820152601f60248201527f456c656374696f6e206973206e6f74206f70656e20666f7220766f74696e67006044820152606490fd5b15612bd557565b60405162461bcd60e51b8152602060048201526015602482015274159bdd195c881a5cc81b9bdd08185c1c1c9bdd9959605a1b6044820152606490fd5b15612c1957565b60405162461bcd60e51b815260206004820152601760248201527f566f7465722068617320616c726561647920766f7465640000000000000000006044820152606490fd5b15612c6557565b60405162461bcd60e51b815260206004820152602760248201527f566f7465722773204d6574616d61736b206164647265737320646f6573206e6f6044820152660e840dac2e8c6d60cb1b6064820152608490fd5b15612cc157565b60405162461bcd60e51b8152602060048201526011602482015270496e76616c69642063616e64696461746560781b6044820152606490fd5b15612d0157565b60405162461bcd60e51b815260206004820152601960248201527f43616e646964617465206973206e6f7420617070726f766564000000000000006044820152606490fd5b6003600091828155612d5a60018201612366565b8260028201550155565b60001981019190821161276e57565b634e487b7160e01b600052603160045260246000fd5b8054908115612db35760001991820191612da3838361080d565b909182549160031b1b1916905555565b612d73565b15612dbf57565b60405162461bcd60e51b815260206004820152603560248201527f43616e6e6f7420726567697374657220766f746572732061667465722074686560448201527408195b1958dd1a5bdb881a185cc81cdd185c9d1959605a1b6064820152608490fd5b15612e2957565b60405162461bcd60e51b815260206004820152602860248201527f566f74657220697320616c7265616479207265676973746572656420616e6420604482015267185c1c1c9bdd995960c21b6064820152608490fd5b15612e8657565b60405162461bcd60e51b815260206004820152603060248201527f566f74657220697320616c7265616479207265676973746572656420616e642060448201526f1c195b991a5b99c8185c1c1c9bdd985b60821b6064820152608490fd5b90612f8560e06005610fb994612efb855182612896565b612f0c602086015160018301612896565b612f1d604086015160028301612896565b612f2e606086015160038301612896565b612f3f608086015160048301612896565b60a08581015191909201805460c087015160ff60a01b90151590941b939093166001600160a01b039092166001600160a81b031990931692909217178155920151151590565b815460ff60a81b191690151560a81b60ff60a81b16179055565b7fffeb7702be7dcd8fee170d954b70afb9a7c78f7f5cff232d037e7b9d8243356a9461309e94969361307c93612fe2612fdd6108cf600a5460ff1690565b612db8565b61300e6130096108cf6005611a758a60018060a01b03166000526002602052604060002090565b612e22565b61302261301d6108cf886130cf565b612e7f565b61302a6102b5565b938452602084015260408301526060820187905260808201526001600160a01b03831660a0820152600060c0820181905260e082018190526001600160a01b0384168152600260205260409020612ee4565b613085816122d3565b6040516001600160a01b039091169390918291826123f1565b0390a2565b6000546001600160a01b031633036130b757565b60405163118cdaa760e01b8152336004820152602490fd5b6003805491906000805b8481106130ea575050505050600090565b8282526000805160206132348339815191528101546001600160a01b03858116911614613119576001016130d9565b5050505050600190565b6000805b6003805480831015610f37578184526000805160206132348339815191528301546001600160a01b03919082168683161461316757505050600101613127565b6131af93929495509061318461317f61319193612d64565b6107c3565b905490861b1c16916107c3565b90919060018060a01b038084549260031b9316831b921b1916179055565b8054918215612db357600019830192808410156106f857908290527fc2575a0e9e593c00f959f8c92f12db2869c3395a3b0502d05e2516446f71f85a0180546001600160a01b031916905555565b9060005b825181101561322b5781613215828561221e565b511461322357600101613201565b505050600190565b50505060009056fec2575a0e9e593c00f959f8c92f12db2869c3395a3b0502d05e2516446f71f85b8a35acfbc15ff81a39ae7d344fd709f28e8600b4aa8c65c6b64bfe7fe36bd19ba2646970667358221220d53a94862d30df07418650d74c5382b56d0929c94d18611028e7fd55a282a00964736f6c63430008180033",
  "linkReferences": {},
  "deployedLinkReferences": {}
}