{
  "_format": "hh-sol-artifact-1",
  "contractName": "Voting",
  "sourceName": "contracts/Voting.sol",
  "abi": [
    {
      "inputs": [],
      "stateMutability": "nonpayable",
      "type": "constructor"
    },
    {
      "inputs": [
        {
          "internalType": "address",
          "name": "owner",
          "type": "address"
        }
      ],
      "name": "OwnableInvalidOwner",
      "type": "error"
    },
    {
      "inputs": [
        {
          "internalType": "address",
          "name": "account",
          "type": "address"
        }
      ],
      "name": "OwnableUnauthorizedAccount",
      "type": "error"
    },
    {
      "inputs": [],
      "name": "ReentrancyGuardReentrantCall",
      "type": "error"
    },
    {
      "anonymous": false,
      "inputs": [
        {
          "indexed": true,
          "internalType": "uint256",
          "name": "electionId",
          "type": "uint256"
        },
        {
          "indexed": false,
          "internalType": "string",
          "name": "positionName",
          "type": "string"
        },
        {
          "indexed": false,
          "internalType": "string",
          "name": "candidateName",
          "type": "string"
        }
      ],
      "name": "CandidateApproved",
      "type": "event"
    },
    {
      "anonymous": false,
      "inputs": [
        {
          "indexed": true,
          "internalType": "uint256",
          "name": "electionId",
          "type": "uint256"
        },
        {
          "indexed": false,
          "internalType": "string",
          "name": "positionName",
          "type": "string"
        },
        {
          "indexed": false,
          "internalType": "string",
          "name": "candidateName",
          "type": "string"
        },
        {
          "indexed": false,
          "internalType": "address",
          "name": "candidateAddress",
          "type": "address"
        }
      ],
      "name": "CandidateRegistered",
      "type": "event"
    },
    {
      "anonymous": false,
      "inputs": [
        {
          "indexed": true,
          "internalType": "uint256",
          "name": "electionId",
          "type": "uint256"
        },
        {
          "indexed": false,
          "internalType": "string",
          "name": "positionName",
          "type": "string"
        },
        {
          "indexed": false,
          "internalType": "string",
          "name": "candidateName",
          "type": "string"
        }
      ],
      "name": "CandidateRejected",
      "type": "event"
    },
    {
      "anonymous": false,
      "inputs": [
        {
          "indexed": true,
          "internalType": "uint256",
          "name": "electionId",
          "type": "uint256"
        },
        {
          "indexed": false,
          "internalType": "string",
          "name": "name",
          "type": "string"
        }
      ],
      "name": "ElectionCreated",
      "type": "event"
    },
    {
      "anonymous": false,
      "inputs": [
        {
          "indexed": true,
          "internalType": "uint256",
          "name": "electionId",
          "type": "uint256"
        },
        {
          "indexed": false,
          "internalType": "uint256",
          "name": "newEndTime",
          "type": "uint256"
        }
      ],
      "name": "ElectionTimeExtended",
      "type": "event"
    },
    {
      "anonymous": false,
      "inputs": [
        {
          "indexed": true,
          "internalType": "address",
          "name": "previousOwner",
          "type": "address"
        },
        {
          "indexed": true,
          "internalType": "address",
          "name": "newOwner",
          "type": "address"
        }
      ],
      "name": "OwnershipTransferred",
      "type": "event"
    },
    {
      "anonymous": false,
      "inputs": [
        {
          "indexed": true,
          "internalType": "uint256",
          "name": "electionId",
          "type": "uint256"
        },
        {
          "indexed": false,
          "internalType": "string",
          "name": "positionName",
          "type": "string"
        }
      ],
      "name": "PositionCreated",
      "type": "event"
    },
    {
      "anonymous": false,
      "inputs": [],
      "name": "RegisteredAddressesReset",
      "type": "event"
    },
    {
      "anonymous": false,
      "inputs": [
        {
          "indexed": true,
          "internalType": "uint256",
          "name": "electionId",
          "type": "uint256"
        },
        {
          "indexed": true,
          "internalType": "address",
          "name": "voterAddress",
          "type": "address"
        },
        {
          "indexed": false,
          "internalType": "string",
          "name": "positionName",
          "type": "string"
        },
        {
          "indexed": true,
          "internalType": "uint256",
          "name": "candidateId",
          "type": "uint256"
        }
      ],
      "name": "VoteCast",
      "type": "event"
    },
    {
      "anonymous": false,
      "inputs": [
        {
          "indexed": true,
          "internalType": "address",
          "name": "voterAddress",
          "type": "address"
        },
        {
          "indexed": false,
          "internalType": "string",
          "name": "email",
          "type": "string"
        }
      ],
      "name": "VoterApproved",
      "type": "event"
    },
    {
      "anonymous": false,
      "inputs": [
        {
          "indexed": true,
          "internalType": "address",
          "name": "voterAddress",
          "type": "address"
        },
        {
          "indexed": false,
          "internalType": "string",
          "name": "email",
          "type": "string"
        }
      ],
      "name": "VoterRegistered",
      "type": "event"
    },
    {
      "anonymous": false,
      "inputs": [
        {
          "indexed": true,
          "internalType": "address",
          "name": "voterAddress",
          "type": "address"
        },
        {
          "indexed": false,
          "internalType": "string",
          "name": "email",
          "type": "string"
        }
      ],
      "name": "VoterRejected",
      "type": "event"
    },
    {
      "inputs": [
        {
          "internalType": "uint256",
          "name": "_electionId",
          "type": "uint256"
        },
        {
          "internalType": "string",
          "name": "_positionName",
          "type": "string"
        },
        {
          "internalType": "uint256",
          "name": "_candidateId",
          "type": "uint256"
        }
      ],
      "name": "approveCandidate",
      "outputs": [],
      "stateMutability": "nonpayable",
      "type": "function"
    },
    {
      "inputs": [
        {
          "internalType": "address",
          "name": "_voterAddress",
          "type": "address"
        }
      ],
      "name": "approveVoter",
      "outputs": [],
      "stateMutability": "nonpayable",
      "type": "function"
    },
    {
      "inputs": [
        {
          "internalType": "uint256",
          "name": "",
          "type": "uint256"
        }
      ],
      "name": "approvedVoters",
      "outputs": [
        {
          "internalType": "address",
          "name": "",
          "type": "address"
        }
      ],
      "stateMutability": "view",
      "type": "function"
    },
    {
      "inputs": [
        {
          "internalType": "uint256",
          "name": "",
          "type": "uint256"
        }
      ],
      "name": "candidateCounts",
      "outputs": [
        {
          "internalType": "uint256",
          "name": "",
          "type": "uint256"
        }
      ],
      "stateMutability": "view",
      "type": "function"
    },
    {
      "inputs": [
        {
          "internalType": "string",
          "name": "_name",
          "type": "string"
        },
        {
          "internalType": "uint256",
          "name": "_startTime",
          "type": "uint256"
        },
        {
          "internalType": "uint256",
          "name": "_endTime",
          "type": "uint256"
        }
      ],
      "name": "createElection",
      "outputs": [],
      "stateMutability": "nonpayable",
      "type": "function"
    },
    {
      "inputs": [
        {
          "internalType": "uint256",
          "name": "_electionId",
          "type": "uint256"
        },
        {
          "internalType": "string",
          "name": "_positionName",
          "type": "string"
        }
      ],
      "name": "createPosition",
      "outputs": [],
      "stateMutability": "nonpayable",
      "type": "function"
    },
    {
      "inputs": [],
      "name": "electionCount",
      "outputs": [
        {
          "internalType": "uint256",
          "name": "",
          "type": "uint256"
        }
      ],
      "stateMutability": "view",
      "type": "function"
    },
    {
      "inputs": [
        {
          "internalType": "uint256",
          "name": "",
          "type": "uint256"
        }
      ],
      "name": "elections",
      "outputs": [
        {
          "internalType": "string",
          "name": "name",
          "type": "string"
        },
        {
          "internalType": "uint256",
          "name": "startTime",
          "type": "uint256"
        },
        {
          "internalType": "uint256",
          "name": "endTime",
          "type": "uint256"
        }
      ],
      "stateMutability": "view",
      "type": "function"
    },
    {
      "inputs": [
        {
          "internalType": "uint256",
          "name": "_electionId",
          "type": "uint256"
        },
        {
          "internalType": "uint256",
          "name": "_newEndTime",
          "type": "uint256"
        }
      ],
      "name": "extendElectionTime",
      "outputs": [],
      "stateMutability": "nonpayable",
      "type": "function"
    },
    {
      "inputs": [
        {
          "internalType": "uint256",
          "name": "index",
          "type": "uint256"
        }
      ],
      "name": "getApprovedVoters",
      "outputs": [
        {
          "internalType": "address",
          "name": "",
          "type": "address"
        }
      ],
      "stateMutability": "view",
      "type": "function"
    },
    {
      "inputs": [
        {
          "internalType": "uint256",
          "name": "_electionId",
          "type": "uint256"
        }
      ],
      "name": "getElection",
      "outputs": [
        {
          "internalType": "string",
          "name": "",
          "type": "string"
        },
        {
          "internalType": "uint256",
          "name": "",
          "type": "uint256"
        },
        {
          "internalType": "uint256",
          "name": "",
          "type": "uint256"
        },
        {
          "internalType": "string[]",
          "name": "",
          "type": "string[]"
        }
      ],
      "stateMutability": "view",
      "type": "function"
    },
    {
      "inputs": [
        {
          "internalType": "uint256",
          "name": "_electionId",
          "type": "uint256"
        },
        {
          "internalType": "string",
          "name": "_positionName",
          "type": "string"
        }
      ],
      "name": "getElectionProgress",
      "outputs": [
        {
          "internalType": "string",
          "name": "",
          "type": "string"
        },
        {
          "internalType": "uint256[]",
          "name": "",
          "type": "uint256[]"
        },
        {
          "internalType": "uint256[]",
          "name": "",
          "type": "uint256[]"
        },
        {
          "internalType": "address[]",
          "name": "",
          "type": "address[]"
        }
      ],
      "stateMutability": "view",
      "type": "function"
    },
    {
      "inputs": [
        {
          "internalType": "uint256",
          "name": "_electionId",
          "type": "uint256"
        },
        {
          "internalType": "string",
          "name": "_positionName",
          "type": "string"
        }
      ],
      "name": "getElectionResult",
      "outputs": [
        {
          "internalType": "string",
          "name": "",
          "type": "string"
        },
        {
          "internalType": "uint256[]",
          "name": "",
          "type": "uint256[]"
        },
        {
          "internalType": "uint256[]",
          "name": "",
          "type": "uint256[]"
        },
        {
          "internalType": "address[]",
          "name": "",
          "type": "address[]"
        }
      ],
      "stateMutability": "view",
      "type": "function"
    },
    {
      "inputs": [],
      "name": "getPendingVoters",
      "outputs": [
        {
          "internalType": "address[]",
          "name": "",
          "type": "address[]"
        }
      ],
      "stateMutability": "view",
      "type": "function"
    },
    {
      "inputs": [
        {
          "internalType": "uint256",
          "name": "_electionId",
          "type": "uint256"
        },
        {
          "internalType": "string",
          "name": "_positionName",
          "type": "string"
        }
      ],
      "name": "getRegisteredCandidates",
      "outputs": [
        {
          "internalType": "uint256[]",
          "name": "",
          "type": "uint256[]"
        },
        {
          "internalType": "string[]",
          "name": "",
          "type": "string[]"
        },
        {
          "internalType": "bool[]",
          "name": "",
          "type": "bool[]"
        }
      ],
      "stateMutability": "view",
      "type": "function"
    },
    {
      "inputs": [
        {
          "internalType": "address",
          "name": "_voterAddress",
          "type": "address"
        }
      ],
      "name": "getVoter",
      "outputs": [
        {
          "internalType": "string",
          "name": "",
          "type": "string"
        },
        {
          "internalType": "string",
          "name": "",
          "type": "string"
        },
        {
          "internalType": "string",
          "name": "",
          "type": "string"
        },
        {
          "internalType": "string",
          "name": "",
          "type": "string"
        },
        {
          "internalType": "string",
          "name": "",
          "type": "string"
        },
        {
          "internalType": "address",
          "name": "",
          "type": "address"
        },
        {
          "internalType": "bool",
          "name": "",
          "type": "bool"
        },
        {
          "internalType": "bool",
          "name": "",
          "type": "bool"
        }
      ],
      "stateMutability": "view",
      "type": "function"
    },
    {
      "inputs": [
        {
          "internalType": "address",
          "name": "_address",
          "type": "address"
        }
      ],
      "name": "isOwner",
      "outputs": [
        {
          "internalType": "bool",
          "name": "",
          "type": "bool"
        }
      ],
      "stateMutability": "view",
      "type": "function"
    },
    {
      "inputs": [],
      "name": "owner",
      "outputs": [
        {
          "internalType": "address",
          "name": "",
          "type": "address"
        }
      ],
      "stateMutability": "view",
      "type": "function"
    },
    {
      "inputs": [
        {
          "internalType": "uint256",
          "name": "",
          "type": "uint256"
        }
      ],
      "name": "pendingVoters",
      "outputs": [
        {
          "internalType": "address",
          "name": "",
          "type": "address"
        }
      ],
      "stateMutability": "view",
      "type": "function"
    },
    {
      "inputs": [
        {
          "internalType": "uint256",
          "name": "_electionId",
          "type": "uint256"
        },
        {
          "internalType": "string",
          "name": "_positionName",
          "type": "string"
        },
        {
          "internalType": "string",
          "name": "_candidateName",
          "type": "string"
        }
      ],
      "name": "registerCandidate",
      "outputs": [],
      "stateMutability": "nonpayable",
      "type": "function"
    },
    {
      "inputs": [
        {
          "internalType": "string",
          "name": "_firstName",
          "type": "string"
        },
        {
          "internalType": "string",
          "name": "_lastName",
          "type": "string"
        },
        {
          "internalType": "string",
          "name": "_registrationNumber",
          "type": "string"
        },
        {
          "internalType": "string",
          "name": "_email",
          "type": "string"
        },
        {
          "internalType": "string",
          "name": "_phoneNumber",
          "type": "string"
        },
        {
          "internalType": "address",
          "name": "_metamaskAddress",
          "type": "address"
        }
      ],
      "name": "registerVoter",
      "outputs": [],
      "stateMutability": "nonpayable",
      "type": "function"
    },
    {
      "inputs": [
        {
          "internalType": "uint256",
          "name": "_electionId",
          "type": "uint256"
        },
        {
          "internalType": "string",
          "name": "_positionName",
          "type": "string"
        },
        {
          "internalType": "uint256",
          "name": "_candidateId",
          "type": "uint256"
        }
      ],
      "name": "rejectCandidate",
      "outputs": [],
      "stateMutability": "nonpayable",
      "type": "function"
    },
    {
      "inputs": [
        {
          "internalType": "address",
          "name": "_voterAddress",
          "type": "address"
        }
      ],
      "name": "rejectVoter",
      "outputs": [],
      "stateMutability": "nonpayable",
      "type": "function"
    },
    {
      "inputs": [],
      "name": "renounceOwnership",
      "outputs": [],
      "stateMutability": "nonpayable",
      "type": "function"
    },
    {
      "inputs": [],
      "name": "resetRegisteredAddresses",
      "outputs": [],
      "stateMutability": "nonpayable",
      "type": "function"
    },
    {
      "inputs": [
        {
          "internalType": "address",
          "name": "newOwner",
          "type": "address"
        }
      ],
      "name": "transferOwnership",
      "outputs": [],
      "stateMutability": "nonpayable",
      "type": "function"
    },
    {
      "inputs": [
        {
          "internalType": "uint256",
          "name": "_electionId",
          "type": "uint256"
        },
        {
          "internalType": "string",
          "name": "_positionName",
          "type": "string"
        },
        {
          "internalType": "uint256",
          "name": "_candidateId",
          "type": "uint256"
        }
      ],
      "name": "vote",
      "outputs": [],
      "stateMutability": "nonpayable",
      "type": "function"
    },
    {
      "inputs": [
        {
          "internalType": "address",
          "name": "",
          "type": "address"
        }
      ],
      "name": "voters",
      "outputs": [
        {
          "internalType": "string",
          "name": "firstName",
          "type": "string"
        },
        {
          "internalType": "string",
          "name": "lastName",
          "type": "string"
        },
        {
          "internalType": "string",
          "name": "registrationNumber",
          "type": "string"
        },
        {
          "internalType": "string",
          "name": "email",
          "type": "string"
        },
        {
          "internalType": "string",
          "name": "phoneNumber",
          "type": "string"
        },
        {
          "internalType": "address",
          "name": "metamaskAddress",
          "type": "address"
        },
        {
          "internalType": "bool",
          "name": "approved",
          "type": "bool"
        },
        {
          "internalType": "bool",
          "name": "voted",
          "type": "bool"
        }
      ],
      "stateMutability": "view",
      "type": "function"
    }
  ],
  "bytecode": "0x6080806040523461007e5733156100685760008054336001600160a01b03198216811783556040519290916001600160a01b0316907f8be0079c531659141344cd1fd0a4f28419497f9722a3daafe3b4186f6b6457e09080a36001805561301a90816100848239f35b631e4fbdf760e01b815260006004820152602490fd5b600080fdfe6080604052600436101561001257600080fd5b60003560e01c806203a3d1146101d6578063119d4ddb146101d15780631b04772b146101cc57806324a9267b146101c75780632f54bf6e146101c25780633cfe3a37146101bd5780634da3fe5a146101b85780634f333369146101b357806351090d33146101ae5780635824bf30146101a95780635e6fef01146101a4578063715018a61461019f578063760b5b231461019a5780638da5cb5b14610195578063997d2830146101905780639d7107771461018b578063a3ec138d14610186578063aed9301014610181578063bd5b5faf1461017c578063c3322d0914610177578063d4f50f9814610172578063d6c79eaa1461016d578063f0f4545714610168578063f2fde38b14610163578063f309ed151461015e578063f452130b14610159578063f49a7a17146101545763ff9e50fe1461014f57600080fd5b611dc0565b611c8f565b611c11565b611a1c565b611994565b611756565b61164c565b61156d565b6114e7565b611349565b611300565b61123c565b6110f1565b6110a2565b611079565b610f89565b610f2e565b610ecb565b610db2565b610c52565b610a92565b610988565b610862565b61082d565b6107e4565b6106bc565b6105b7565b610403565b634e487b7160e01b600052604160045260246000fd5b90601f801991011681019081106001600160401b0382111761021257604052565b6101db565b60405190604082018281106001600160401b0382111761021257604052565b6040519060a082018281106001600160401b0382111761021257604052565b6040519061010082018281106001600160401b0382111761021257604052565b81601f820112156102cb578035906001600160401b03821161021257604051926102a9601f8401601f1916602001856101f1565b828452602083830101116102cb57816000926020809301838601378301015290565b600080fd5b9060406003198301126102cb5760043591602435906001600160401b0382116102cb576102ff91600401610275565b90565b60005b8381106103155750506000910152565b8181015183820152602001610305565b9060209161033e81518092818552858086019101610302565b601f01601f1916010190565b90815180825260208080930193019160005b82811061036a575050505090565b83518552938101939281019260010161035c565b90815180825260208080930193019160005b82811061039e575050505090565b83516001600160a01b031685529381019392810192600101610390565b926103e76102ff95936103d96103f594608088526080880190610325565b90868203602088015261034a565b90848203604086015261034a565b91606081840391015261037e565b346102cb57610411366102d0565b61041f600654831115611e62565b610479610436836000526005602052604060002090565b33600090815260026020526040902090929061045b906005905b015460a81c60ff1690565b8015610577575b61046e90949394611eae565b600380940190611f0e565b9160019161048960018501611f34565b936104948551611fc4565b9384936104a18751611fc4565b936000835b6104cb575b88876104c7886104ba89610eae565b92604051948594856103bb565b0390f35b888051821015610571579061056761054e8561053d610511899a9b9c6105288760026105208c8f9c846104fd91611ff6565b519687916000526007602052604060002090565b90600052602052604060002090565b015492611ff6565b52610511886000526007602052604060002090565b015460081c6001600160a01b031690565b610558838b611ff6565b6001600160a01b039091169052565b01879695946104a6565b506104ab565b506000546001600160a01b03163314610462565b600435906001600160a01b03821682036102cb57565b60a435906001600160a01b03821682036102cb57565b346102cb5760203660031901126102cb576105d061058b565b6105d8612e14565b6105e96105e482612e40565b61200a565b6001600160a01b0381166000818152600260205260408120600501805460ff60a01b1916600160a01b1790556004549092600160401b8210156102125760018201806004558210156106b75760048452600080516020612fc583398151915290910180546001600160a01b0319166001600160a01b03831617905561067290612e94565b612e94565b80825260026020527f5ae161ff96a81f4fa8ddd8555ab13483a0fe416f296b510e08cbb11f98f9a10e6106b160036040852001604051918291826120aa565b0390a280f35b61076c565b346102cb5760203660031901126102cb576106d561058b565b6106dd612e14565b6106e96105e482612e40565b60018060a01b0381167f376d99d855649bd6e81e7fce16d54ac5f2c7fadae7b2f50b619c182afe401bbb6106b161073d61075860009585875260026020526107446003604089200160405194858092610e18565b03846101f1565b858752600260205261066d60408820612131565b604051918291602083526020830190610325565b634e487b7160e01b600052603260045260246000fd5b6003548110156106b7576003600052600080516020612fa58339815191520190600090565b6004548110156106b7576004600052600080516020612fc58339815191520190600090565b80548210156106b75760005260206000200190600090565b346102cb5760203660031901126102cb576004356003548110156102cb576003600052600080516020612fa583398151915201546040516001600160a01b039091168152602090f35b346102cb5760203660031901126102cb57602061084861058b565b6000546040516001600160a01b0392831691909216148152f35b346102cb576000806003193601126109855761087c612e14565b60016108a260016108996006546000526005602052604060002090565b01544210612184565b8082815b61095b575b5082905b6108fc575b826108c56108c0611f9c565b6121f6565b6108d56108d0611f9c565b61228a565b7f351a0247e8bb60a07bea1959df8f0e260dee3b0ccbbef1517ca1367b986664eb8180a180f35b60045481101561095657818161094f61094a61093061091b85966107a7565b905460039190911b1c6001600160a01b031690565b6001600160a01b0316600090815260026020526040902090565b612131565b01906108af565b6108b4565b600354811015610980578061097961094a61093061091b8695610782565b01816108a6565b6108ab565b80fd5b346102cb5760403660031901126102cb576004356024356109a7612e14565b6109b5600654831115611e62565b8160005260056020526002604060002001805491824211610a175780610a1292610a017f9957539d9b3c3f294da9088900bece7540cdb76274e882913ae25bca90b2061e95831161231e565b556040519081529081906020820190565b0390a2005b60405162461bcd60e51b815260206004820152601a60248201527f456c656374696f6e2068617320616c726561647920656e6465640000000000006044820152606490fd5b9060606003198301126102cb5760043591602435906001600160401b0382116102cb57610a8b91600401610275565b9060443590565b346102cb577fe46ef16f45f14b433702c21c325ca11d00b469b9c13d430220e2b5726cdfa25e6001610ac336610a5c565b610ad09492939194612e14565b610ade600654851115611e62565b6106b16000958587526005602052610b0f610b08610b02600360408b200184611f0e565b54610dde565b1515612393565b8587526005602052610b288460408920015442106123df565b858752600760205260408720838852602052610b84604088209360038501868154610b5660ff82161561242b565b60ff191617905585610b7e6003610b778b6000526005602052604060002090565b0185611f0e565b01612477565b60405193849301908361249a565b90808251908181526020809101926020808460051b8301019501936000915b848310610bc15750505050505090565b9091929394958480610bdf600193601f198682030187528a51610325565b9801930193019194939290610bb1565b90610c05610c159160608452606084019061034a565b6020938382036020850152610b92565b9060408183039101526020808451928381520193019160005b828110610c3c575050505090565b8351151585529381019392810192600101610c2e565b346102cb57610c60366102d0565b610c6e600654831115611e62565b816000526005602052600390610c91610b08610b02600360406000200184611f0e565b82600052600860205260406000205491610caa83611fc4565b92610cb4816124bf565b94610cbe82611fc4565b9360009360019160015b85811115610ce957868952868a52868852604051806104c78a8d8d84610bef565b610d0181610511876000526007602052604060002090565b8a610d1f610d19886000526009602052604060002090565b85611f0e565b8b610d37610d30898601938461251d565b5460ff1690565b610d4e575b50505050610d4990612509565b610cc8565b86610da894610d898d8096899f610da397610d499b610d73610d7993610d929a611ff6565b52610eae565b610d838383611ff6565b52611ff6565b50015460ff1690565b610d9c838d611ff6565b9015159052565b612509565b96908a388b610d3c565b346102cb5760203660031901126102cb5760043560005260086020526020604060002054604051908152f35b90600182811c92168015610e0e575b6020831014610df857565b634e487b7160e01b600052602260045260246000fd5b91607f1691610ded565b805460009392610e2782610dde565b91828252602093600191600181169081600014610e8f5750600114610e4e575b5050505050565b90939495506000929192528360002092846000945b838610610e7b57505050500101903880808080610e47565b805485870183015294019385908201610e63565b60ff19168685015250505090151560051b010191503880808080610e47565b90610ec9610ec29260405193848092610e18565b03836101f1565b565b346102cb5760203660031901126102cb576004356000526005602052610f1f604060002060405190610f0182610ec28184610e18565b60026001820154910154604051938493606085526060850190610325565b91602084015260408301520390f35b346102cb5760008060031936011261098557610f48612e14565b80546001600160a01b03198116825581906001600160a01b03167f8be0079c531659141344cd1fd0a4f28419497f9722a3daafe3b4186f6b6457e08280a380f35b346102cb57610f97366102d0565b610f9f612e14565b610fad600654831115611e62565b80511561103457610a127f9d3f9d97cfa4d97c52f6be76984c7c9ac6dcbfd36f22e4b5ba1a4fbf01d83a7c91611028610ff0856000526005602052604060002090565b610ffd83600483016126c9565b611023600361100a611f9c565b92611013610217565b9386855260208501520184611f0e565b61270c565b60405191829182612173565b60405162461bcd60e51b815260206004820152601d60248201527f506f736974696f6e206e616d652063616e6e6f7420626520656d7074790000006044820152606490fd5b346102cb5760003660031901126102cb576000546040516001600160a01b039091168152602090f35b346102cb5760003660031901126102cb576020600654604051908152f35b90926110d96102ff959394608084526080840190610325565b93602083015260408201526060818403910152610b92565b346102cb576020806003193601126102cb57600435611114600654821115611e62565b60005260056020526111466040806000206001808201549460028301549261114d600482019160405197888092610e18565b03876101f1565b80549161115983611f85565b9561116760405197886101f1565b83875260208701926000526020600020906000935b85851061119457604051806104c78b8b8f8f856110c0565b8684819284516111af816111a8818a610e18565b03826101f1565b81520193019401939161117c565b969361120261121e946111f460e0999c9b98956111e6611210968d610100908181520190610325565b8c810360208e015290610325565b908a820360408c0152610325565b9088820360608a0152610325565b908682036080880152610325565b6001600160a01b0390961660a0850152151560c08401521515910152565b346102cb5760203660031901126102cb576001600160a01b038061125e61058b565b16600052600260205260406104c78160002092825192611289846112828188610e18565b03856101f1565b8051936112a48561129d8160018a01610e18565b03866101f1565b8151956112bf876112b88160028501610e18565b03886101f1565b82516112d2816111a88160038601610e18565b60056112e060048401610eae565b920154935197889760ff8660a81c169660ff8760a01c16961694896111bd565b346102cb5760203660031901126102cb576004356004548110156102cb576004600052600080516020612fc583398151915201546040516001600160a01b039091168152602090f35b346102cb5760603660031901126102cb576001600160401b036004356024358281116102cb5761137d903690600401610275565b916044359081116102cb576113b77f0c4b7c638d801c3cac701d285b0f4f2010a787228a6dac952a05d3ef837f32a6913690600401610275565b926113c6600654841115611e62565b60009383855260056020526113e7610b08610b026003604089200185611f0e565b8385526005602052611401600160408720015442106123df565b838552600960205261142b611426611422610d30610d1960408a2087611f0e565b1590565b61279c565b61143f846000526008602052604060002090565b6114498154612509565b90556114a6611462856000526008602052604060002090565b546114a161146e610236565b82815260208101859052604081018990526060810189905233608082015291610511886000526007602052604060002090565b6127e8565b6114d66114c96114c3610d19876000526009602052604060002090565b83611f0e565b805460ff19166001179055565b6106b1604051928392339184612844565b346102cb5760003660031901126102cb5760405180600354918281526020809101926003600052600080516020612fa5833981519152916000905b82821061154d576104c785611539818903826101f1565b60405191829160208352602083019061037e565b83546001600160a01b031686529485019460019384019390910190611522565b346102cb5760203660031901126102cb5761158661058b565b6115b860018060a01b03918281166000526002602052826005604060002001541615158061161d575b6109309061287e565b906104c76005830154916115cb84610eae565b926115d860018601610eae565b936115e560028701610eae565b956115fe60046115f760038401610eae565b9201610eae565b9060405197889760ff8660a81c169660ff8760a01c16961694896111bd565b506001600160a01b03811660009081526002602052604090206109309061164390612389565b151590506115af565b346102cb5761165a366102d0565b611662612e14565b611670600654831115611e62565b6000908260005260209160056020526003611695604093600360406000200190611f0e565b906001906116a560018401611f34565b966116b08851611fc4565b9687966116bd8a51611fc4565b966000865b6116d6575b8b8a6104c78b6104ba8c610eae565b8b805182101561175057906117468a610558836117408c9d9e9f61053d60078f998f938f908f8f8f61052061172f938c93600293611717866105119b611ff6565b519a8b938a8352522090600052602052604060002090565b526000526007602052604060002090565b92611ff6565b018a9998976116c2565b506116c7565b346102cb5761176436610a5c565b91600260015414611982576002600155611782600654821115611e62565b8060005260056020526117a2610b08610b02600360406000200185611f0e565b6000546001600160a01b031633146119495761188061187b84611876600161187060036117d9886000526005602052604060002090565b838101544210158061193b575b6117ef906128c1565b33600090815260026020526040902061181a90611815906005905b015460a01c60ff1690565b61290d565b3360009081526002602052604090206118429061183d9061142290600590610450565b612951565b33600090815260026020526040902060050154611869906001600160a01b0316331461299d565b0188611f0e565b01611f34565b612f6e565b6129f9565b6118ad6118a860036118a086610511866000526007602052604060002090565b015460ff1690565b612a39565b3360009081526002602052604090206118d690600501805460ff60a81b1916600160a81b179055565b60026118f084610511846000526007602052604060002090565b016118fb8154612509565b90557fd9f61bad27b367f9d956d43115ce9b23449b64e56e608eb9569f6b929b632e7e6040518061192d339582612173565b0390a461193960018055565b005b5060028101544211156117e6565b60405162461bcd60e51b81526020600482015260116024820152704f776e65722063616e6e6f7420766f746560781b6044820152606490fd5b604051633ee5aeb560e01b8152600490fd5b346102cb5760203660031901126102cb576119ad61058b565b6119b5612e14565b6001600160a01b039081168015611a0357600080546001600160a01b03198116831782559092167f8be0079c531659141344cd1fd0a4f28419497f9722a3daafe3b4186f6b6457e08380a380f35b604051631e4fbdf760e01b815260006004820152602490fd5b346102cb57611a2a36610a5c565b9091611a34612e14565b611a42600654821115611e62565b6000918183526005602052611a63610b08610b026003604087200187611f0e565b81835260056020526040832093611a8060018096015442106123df565b611abc6001611a9d84610511876000526007602052604060002090565b611ab6611ab1611422600384015460ff1690565b61242b565b01610eae565b91611ae4611ada610d19610d19876000526009602052604060002090565b805460ff19169055565b611b04611aff82610511876000526007602052604060002090565b612a85565b6001611b266003611b1f876000526005602052604060002090565b0184611f0e565b019085875b611b65575b505050907fc965973ca1e6509f55ff868bce7a20c938b1b78836c93db3d55171313e920b83916106b160405192839283612af7565b825480821015611c0b5782611b87611b7d84876107cc565b90549060031b1c90565b14611b955750870187611b2b565b7fc965973ca1e6509f55ff868bce7a20c938b1b78836c93db3d55171313e920b8396979850611c0193925090611be3611bdc611b7d611bd6611bfc95612aa3565b866107cc565b91846107cc565b90919082549060031b91821b91600019901b1916179055565b612ac8565b8493923880611b30565b50611b30565b346102cb5760203660031901126102cb57600435600454811015611c5a576004600052600080516020612fc583398151915201546040516001600160a01b039091168152602090f35b60405162461bcd60e51b815260206004820152600d60248201526c092dcecc2d8d2c840d2dcc8caf609b1b6044820152606490fd5b346102cb5760603660031901126102cb576004356001600160401b0381116102cb57611cbf903690600401610275565b604435602435611ccd612e14565b81811015611d6f57611ce8611ce3600654612509565b600655565b611d0783611d026006546000526005602052604060002090565b6125f4565b6001611d1f6006546000526005602052604060002090565b01556002611d396006546000526005602052604060002090565b01557f52be7c4e77b4de76b7607d621492061fe13b58597e72dfb5e51ab8f6187ed141610a126006549260405191829182612173565b60405162461bcd60e51b815260206004820152602360248201527f496e76616c696420656c656374696f6e20737461727420616e6420656e642074604482015262696d6560e81b6064820152608490fd5b346102cb5760c03660031901126102cb5760046001600160401b0381358181116102cb57611df19036908401610275565b906024358181116102cb57611e099036908501610275565b906044358181116102cb57611e219036908601610275565b6064358281116102cb57611e389036908701610275565b916084359081116102cb5761193995611e5391369101610275565b92611e5c6105a1565b94612d03565b15611e6957565b60405162461bcd60e51b815260206004820152601760248201527f456c656374696f6e20646f6573206e6f742065786973740000000000000000006044820152606490fd5b15611eb557565b60405162461bcd60e51b815260206004820152602b60248201527f4f6e6c7920766f74656420766f74657273206f722061646d696e2063616e207660448201526a69657720726573756c747360a81b6064820152608490fd5b602090611f28928260405194838680955193849201610302565b82019081520301902090565b90604051918281549182825260209260208301916000526020600020936000905b828210611f6b57505050610ec9925003836101f1565b855484526001958601958895509381019390910190611f55565b6001600160401b0381116102125760051b60200190565b604051602081018181106001600160401b038211176102125760405260008152906000368137565b90611fce82611f85565b611fdb60405191826101f1565b8281528092611fec601f1991611f85565b0190602036910137565b80518210156106b75760209160051b010190565b1561201157565b606460405162461bcd60e51b815260206004820152602060248201527f566f746572206973206e6f7420696e207468652070656e64696e67206c6973746044820152fd5b60035490600160401b8210156102125760018201806003558210156106b7576003600052600080516020612fa583398151915290910180546001600160a01b0319166001600160a01b03909216919091179055565b9060206102ff928181520190610e18565b8181106120c6575050565b600081556001016120bb565b634e487b7160e01b600052601160045260246000fd5b6120f28154610dde565b90816120fc575050565b81601f6000931160011461210e575055565b90808391825261212d601f60208420940160051c8401600185016120bb565b5555565b600560009161213f816120e8565b61214b600182016120e8565b612157600282016120e8565b612163600382016120e8565b61216f600482016120e8565b0155565b9060206102ff928181520190610325565b1561218b57565b60405162461bcd60e51b815260206004820152603760248201527f43616e6e6f7420726573657420616464726573736573207768696c6520616e2060448201527f656c656374696f6e20697320696e2070726f67726573730000000000000000006064820152608490fd5b8051906001600160401b03821161021257600160401b82116102125760035482600355808310612266575b50602080910190600360005260005b83811061223d5750505050565b82516001600160a01b0316600080516020612fa583398151915282015591810191600101612230565b6122849083600080516020612fa583398151915291820191016120bb565b38612221565b8051906001600160401b03821161021257600160401b821161021257600454826004558083106122fa575b50602080910190600460005260005b8381106122d15750505050565b82516001600160a01b0316600080516020612fc5833981519152820155918101916001016122c4565b6123189083600080516020612fc583398151915291820191016120bb565b386122b5565b1561232557565b60405162461bcd60e51b815260206004820152603660248201527f4e657720656e642074696d65206d7573742062652067726561746572207468616044820152756e207468652063757272656e7420656e642074696d6560501b6064820152608490fd5b6102ff9054610dde565b1561239a57565b60405162461bcd60e51b815260206004820152601760248201527f506f736974696f6e20646f6573206e6f742065786973740000000000000000006044820152606490fd5b156123e657565b60405162461bcd60e51b815260206004820152601c60248201527f456c656374696f6e2068617320616c72656164792073746172746564000000006044820152606490fd5b1561243257565b60405162461bcd60e51b815260206004820152601d60248201527f43616e64696461746520697320616c726561647920617070726f7665640000006044820152606490fd5b90815491600160401b8310156102125782611be3916001610ec9950181556107cc565b90916124b16102ff93604084526040840190610325565b916020818403910152610e18565b906124c982611f85565b6124d660405191826101f1565b82815280926124e7601f1991611f85565b019060005b8281106124f857505050565b8060606020809385010152016124ec565b60001981146125185760010190565b6120d2565b906040518092600090805461253181610dde565b916001918083169081156125955750600114612557575b50505060209281520301902090565b60009081526020808220969450915b83821061257f5750505060209350820190923880612548565b8654888301529586019587955090820190612566565b60ff19168652505050801515028201905060203880612548565b9190601f81116125be57505050565b610ec9926000526020600020906020601f840160051c830193106125ea575b601f0160051c01906120bb565b90915081906125dd565b91909182516001600160401b0381116102125761261b816126158454610dde565b846125af565b602080601f831160011461265e5750819061264f939495600092612653575b50508160011b916000199060031b1c19161790565b9055565b01519050388061263a565b90601f1983169561267485600052602060002090565b926000905b8882106126b157505083600195969710612698575b505050811b019055565b015160001960f88460031b161c1916905538808061268e565b80600185968294968601518155019501930190612679565b8054600160401b811015610212576126e6916001820181556107cc565b9190916126f657610ec9916125f4565b634e487b7160e01b600052600060045260246000fd5b906127188151836125f4565b6001809201602080920151918251926001600160401b03841161021257600160401b841161021257602090835485855580861061277f575b50019160005260206000209060005b84811061276e57505050505050565b83518382015592810192850161275f565b6127969085600052868460002091820191016120bb565b38612750565b156127a357565b60405162461bcd60e51b815260206004820152601d60248201527f43616e646964617465206e616d6520616c7265616479206578697374730000006044820152606490fd5b600390825181556128006020840151600183016125f4565b604083015160028201550190606081015115159060ff8354916080610100600160a81b0391015160081b169216906affffffffffffffffffffff60a81b1617179055565b9161286e90612860604093969596606086526060860190610325565b908482036020860152610325565b6001600160a01b03909416910152565b1561288557565b60405162461bcd60e51b8152602060048201526014602482015273159bdd195c88191bd95cc81b9bdd08195e1a5cdd60621b6044820152606490fd5b156128c857565b60405162461bcd60e51b815260206004820152601f60248201527f456c656374696f6e206973206e6f74206f70656e20666f7220766f74696e67006044820152606490fd5b1561291457565b60405162461bcd60e51b8152602060048201526015602482015274159bdd195c881a5cc81b9bdd08185c1c1c9bdd9959605a1b6044820152606490fd5b1561295857565b60405162461bcd60e51b815260206004820152601760248201527f566f7465722068617320616c726561647920766f7465640000000000000000006044820152606490fd5b156129a457565b60405162461bcd60e51b815260206004820152602760248201527f566f7465722773204d6574616d61736b206164647265737320646f6573206e6f6044820152660e840dac2e8c6d60cb1b6064820152608490fd5b15612a0057565b60405162461bcd60e51b8152602060048201526011602482015270496e76616c69642063616e64696461746560781b6044820152606490fd5b15612a4057565b60405162461bcd60e51b815260206004820152601960248201527f43616e646964617465206973206e6f7420617070726f766564000000000000006044820152606490fd5b6003600091828155612a99600182016120e8565b8260028201550155565b60001981019190821161251857565b634e487b7160e01b600052603160045260246000fd5b8054908115612af25760001991820191612ae283836107cc565b909182549160031b1b1916905555565b612ab2565b9091612b0e6102ff93604084526040840190610325565b916020818403910152610325565b15612b2357565b60405162461bcd60e51b815260206004820152603560248201527f43616e6e6f7420726567697374657220766f746572732061667465722074686560448201527408195b1958dd1a5bdb881a185cc81cdd185c9d1959605a1b6064820152608490fd5b15612b8d57565b60405162461bcd60e51b815260206004820152602860248201527f566f74657220697320616c7265616479207265676973746572656420616e6420604482015267185c1c1c9bdd995960c21b6064820152608490fd5b15612bea57565b60405162461bcd60e51b815260206004820152603060248201527f566f74657220697320616c7265616479207265676973746572656420616e642060448201526f1c195b991a5b99c8185c1c1c9bdd985b60821b6064820152608490fd5b90612ce960e06005610ec994612c5f8551826125f4565b612c706020860151600183016125f4565b612c816040860151600283016125f4565b612c926060860151600383016125f4565b612ca36080860151600483016125f4565b60a08581015191909201805460c087015160ff60a01b90151590941b939093166001600160a01b039092166001600160a81b031990931692909217178155920151151590565b815460ff60a81b191690151560a81b60ff60a81b16179055565b7fffeb7702be7dcd8fee170d954b70afb9a7c78f7f5cff232d037e7b9d8243356a94612e0f949693612ded93612d536001612d4a6006546000526005602052604060002090565b01544210612b1c565b612d7f612d7a611422600561180a8a60018060a01b03166000526002602052604060002090565b612b86565b612d93612d8e61142288612e40565b612be3565b612d9b610255565b938452602084015260408301526060820187905260808201526001600160a01b03831660a0820152600060c0820181905260e082018190526001600160a01b0384168152600260205260409020612c48565b612df681612055565b6040516001600160a01b03909116939091829182612173565b0390a2565b6000546001600160a01b03163303612e2857565b60405163118cdaa760e01b8152336004820152602490fd5b6003805491906000805b848110612e5b575050505050600090565b828252600080516020612fa58339815191528101546001600160a01b03858116911614612e8a57600101612e4a565b5050505050600190565b6000805b6003805480831015610e4757818452600080516020612fa58339815191528301546001600160a01b039190821686831614612ed857505050600101612e98565b612f20939294955090612ef5612ef0612f0293612aa3565b610782565b905490861b1c1691610782565b90919060018060a01b038084549260031b9316831b921b1916179055565b8054918215612af257600019830192808410156106b757908290527fc2575a0e9e593c00f959f8c92f12db2869c3395a3b0502d05e2516446f71f85a0180546001600160a01b031916905555565b9060005b8251811015612f9c5781612f868285611ff6565b5114612f9457600101612f72565b505050600190565b50505060009056fec2575a0e9e593c00f959f8c92f12db2869c3395a3b0502d05e2516446f71f85b8a35acfbc15ff81a39ae7d344fd709f28e8600b4aa8c65c6b64bfe7fe36bd19ba2646970667358221220690a83aeec5ba24ed44ba41c3b4fc8838c8dc857a80a95a5f5bc0c690c346d3364736f6c63430008180033",
  "linkReferences": {},
  "deployedLinkReferences": {}
}