{
  "_format": "hh-sol-artifact-1",
  "contractName": "Voting",
  "sourceName": "contracts/Voting.sol",
  "abi": [
    {
      "inputs": [],
      "stateMutability": "nonpayable",
      "type": "constructor"
    },
    {
      "inputs": [
        {
          "internalType": "address",
          "name": "owner",
          "type": "address"
        }
      ],
      "name": "OwnableInvalidOwner",
      "type": "error"
    },
    {
      "inputs": [
        {
          "internalType": "address",
          "name": "account",
          "type": "address"
        }
      ],
      "name": "OwnableUnauthorizedAccount",
      "type": "error"
    },
    {
      "inputs": [],
      "name": "ReentrancyGuardReentrantCall",
      "type": "error"
    },
    {
      "anonymous": false,
      "inputs": [
        {
          "indexed": true,
          "internalType": "uint256",
          "name": "electionId",
          "type": "uint256"
        },
        {
          "indexed": false,
          "internalType": "string",
          "name": "positionName",
          "type": "string"
        },
        {
          "indexed": false,
          "internalType": "string",
          "name": "candidateName",
          "type": "string"
        }
      ],
      "name": "CandidateApproved",
      "type": "event"
    },
    {
      "anonymous": false,
      "inputs": [
        {
          "indexed": true,
          "internalType": "uint256",
          "name": "electionId",
          "type": "uint256"
        },
        {
          "indexed": false,
          "internalType": "string",
          "name": "positionName",
          "type": "string"
        },
        {
          "indexed": false,
          "internalType": "string",
          "name": "candidateName",
          "type": "string"
        },
        {
          "indexed": false,
          "internalType": "address",
          "name": "candidateAddress",
          "type": "address"
        }
      ],
      "name": "CandidateRegistered",
      "type": "event"
    },
    {
      "anonymous": false,
      "inputs": [
        {
          "indexed": true,
          "internalType": "uint256",
          "name": "electionId",
          "type": "uint256"
        },
        {
          "indexed": false,
          "internalType": "string",
          "name": "positionName",
          "type": "string"
        },
        {
          "indexed": false,
          "internalType": "string",
          "name": "candidateName",
          "type": "string"
        }
      ],
      "name": "CandidateRejected",
      "type": "event"
    },
    {
      "anonymous": false,
      "inputs": [
        {
          "indexed": true,
          "internalType": "uint256",
          "name": "electionId",
          "type": "uint256"
        },
        {
          "indexed": false,
          "internalType": "string",
          "name": "name",
          "type": "string"
        }
      ],
      "name": "ElectionCreated",
      "type": "event"
    },
    {
      "anonymous": false,
      "inputs": [
        {
          "indexed": true,
          "internalType": "uint256",
          "name": "electionId",
          "type": "uint256"
        },
        {
          "indexed": false,
          "internalType": "uint256",
          "name": "newEndTime",
          "type": "uint256"
        }
      ],
      "name": "ElectionTimeExtended",
      "type": "event"
    },
    {
      "anonymous": false,
      "inputs": [
        {
          "indexed": true,
          "internalType": "address",
          "name": "previousOwner",
          "type": "address"
        },
        {
          "indexed": true,
          "internalType": "address",
          "name": "newOwner",
          "type": "address"
        }
      ],
      "name": "OwnershipTransferred",
      "type": "event"
    },
    {
      "anonymous": false,
      "inputs": [
        {
          "indexed": true,
          "internalType": "uint256",
          "name": "electionId",
          "type": "uint256"
        },
        {
          "indexed": false,
          "internalType": "string",
          "name": "positionName",
          "type": "string"
        }
      ],
      "name": "PositionCreated",
      "type": "event"
    },
    {
      "anonymous": false,
      "inputs": [],
      "name": "RegisteredAddressesReset",
      "type": "event"
    },
    {
      "anonymous": false,
      "inputs": [
        {
          "indexed": true,
          "internalType": "uint256",
          "name": "electionId",
          "type": "uint256"
        },
        {
          "indexed": true,
          "internalType": "address",
          "name": "voterAddress",
          "type": "address"
        },
        {
          "indexed": false,
          "internalType": "string",
          "name": "positionName",
          "type": "string"
        },
        {
          "indexed": true,
          "internalType": "uint256",
          "name": "candidateId",
          "type": "uint256"
        }
      ],
      "name": "VoteCast",
      "type": "event"
    },
    {
      "anonymous": false,
      "inputs": [
        {
          "indexed": true,
          "internalType": "address",
          "name": "voterAddress",
          "type": "address"
        },
        {
          "indexed": false,
          "internalType": "string",
          "name": "email",
          "type": "string"
        }
      ],
      "name": "VoterApproved",
      "type": "event"
    },
    {
      "anonymous": false,
      "inputs": [
        {
          "indexed": true,
          "internalType": "address",
          "name": "voterAddress",
          "type": "address"
        },
        {
          "indexed": false,
          "internalType": "string",
          "name": "email",
          "type": "string"
        }
      ],
      "name": "VoterRegistered",
      "type": "event"
    },
    {
      "anonymous": false,
      "inputs": [
        {
          "indexed": true,
          "internalType": "address",
          "name": "voterAddress",
          "type": "address"
        },
        {
          "indexed": false,
          "internalType": "string",
          "name": "email",
          "type": "string"
        }
      ],
      "name": "VoterRejected",
      "type": "event"
    },
    {
      "inputs": [
        {
          "internalType": "uint256",
          "name": "_electionId",
          "type": "uint256"
        },
        {
          "internalType": "string",
          "name": "_positionName",
          "type": "string"
        },
        {
          "internalType": "uint256",
          "name": "_candidateId",
          "type": "uint256"
        }
      ],
      "name": "approveCandidate",
      "outputs": [],
      "stateMutability": "nonpayable",
      "type": "function"
    },
    {
      "inputs": [
        {
          "internalType": "address",
          "name": "_voterAddress",
          "type": "address"
        }
      ],
      "name": "approveVoter",
      "outputs": [],
      "stateMutability": "nonpayable",
      "type": "function"
    },
    {
      "inputs": [
        {
          "internalType": "uint256",
          "name": "",
          "type": "uint256"
        }
      ],
      "name": "approvedVoters",
      "outputs": [
        {
          "internalType": "address",
          "name": "",
          "type": "address"
        }
      ],
      "stateMutability": "view",
      "type": "function"
    },
    {
      "inputs": [
        {
          "internalType": "uint256",
          "name": "",
          "type": "uint256"
        }
      ],
      "name": "candidateCounts",
      "outputs": [
        {
          "internalType": "uint256",
          "name": "",
          "type": "uint256"
        }
      ],
      "stateMutability": "view",
      "type": "function"
    },
    {
      "inputs": [
        {
          "internalType": "string",
          "name": "_name",
          "type": "string"
        },
        {
          "internalType": "uint256",
          "name": "_startTime",
          "type": "uint256"
        },
        {
          "internalType": "uint256",
          "name": "_endTime",
          "type": "uint256"
        }
      ],
      "name": "createElection",
      "outputs": [],
      "stateMutability": "nonpayable",
      "type": "function"
    },
    {
      "inputs": [
        {
          "internalType": "uint256",
          "name": "_electionId",
          "type": "uint256"
        },
        {
          "internalType": "string",
          "name": "_positionName",
          "type": "string"
        }
      ],
      "name": "createPosition",
      "outputs": [],
      "stateMutability": "nonpayable",
      "type": "function"
    },
    {
      "inputs": [],
      "name": "electionCount",
      "outputs": [
        {
          "internalType": "uint256",
          "name": "",
          "type": "uint256"
        }
      ],
      "stateMutability": "view",
      "type": "function"
    },
    {
      "inputs": [
        {
          "internalType": "uint256",
          "name": "",
          "type": "uint256"
        }
      ],
      "name": "elections",
      "outputs": [
        {
          "internalType": "string",
          "name": "name",
          "type": "string"
        },
        {
          "internalType": "uint256",
          "name": "startTime",
          "type": "uint256"
        },
        {
          "internalType": "uint256",
          "name": "endTime",
          "type": "uint256"
        }
      ],
      "stateMutability": "view",
      "type": "function"
    },
    {
      "inputs": [
        {
          "internalType": "uint256",
          "name": "_electionId",
          "type": "uint256"
        },
        {
          "internalType": "uint256",
          "name": "_newEndTime",
          "type": "uint256"
        }
      ],
      "name": "extendElectionTime",
      "outputs": [],
      "stateMutability": "nonpayable",
      "type": "function"
    },
    {
      "inputs": [
        {
          "internalType": "uint256",
          "name": "index",
          "type": "uint256"
        }
      ],
      "name": "getApprovedVoters",
      "outputs": [
        {
          "internalType": "address",
          "name": "",
          "type": "address"
        }
      ],
      "stateMutability": "view",
      "type": "function"
    },
    {
      "inputs": [
        {
          "internalType": "uint256",
          "name": "_electionId",
          "type": "uint256"
        }
      ],
      "name": "getElection",
      "outputs": [
        {
          "internalType": "string",
          "name": "",
          "type": "string"
        },
        {
          "internalType": "uint256",
          "name": "",
          "type": "uint256"
        },
        {
          "internalType": "uint256",
          "name": "",
          "type": "uint256"
        },
        {
          "internalType": "string[]",
          "name": "",
          "type": "string[]"
        }
      ],
      "stateMutability": "view",
      "type": "function"
    },
    {
      "inputs": [
        {
          "internalType": "uint256",
          "name": "_electionId",
          "type": "uint256"
        },
        {
          "internalType": "string",
          "name": "_positionName",
          "type": "string"
        }
      ],
      "name": "getElectionProgress",
      "outputs": [
        {
          "internalType": "string",
          "name": "",
          "type": "string"
        },
        {
          "internalType": "uint256[]",
          "name": "",
          "type": "uint256[]"
        },
        {
          "internalType": "uint256[]",
          "name": "",
          "type": "uint256[]"
        },
        {
          "internalType": "address[]",
          "name": "",
          "type": "address[]"
        }
      ],
      "stateMutability": "view",
      "type": "function"
    },
    {
      "inputs": [
        {
          "internalType": "uint256",
          "name": "_electionId",
          "type": "uint256"
        },
        {
          "internalType": "string",
          "name": "_positionName",
          "type": "string"
        }
      ],
      "name": "getElectionResult",
      "outputs": [
        {
          "internalType": "string",
          "name": "",
          "type": "string"
        },
        {
          "internalType": "uint256[]",
          "name": "",
          "type": "uint256[]"
        },
        {
          "internalType": "uint256[]",
          "name": "",
          "type": "uint256[]"
        },
        {
          "internalType": "address[]",
          "name": "",
          "type": "address[]"
        }
      ],
      "stateMutability": "view",
      "type": "function"
    },
    {
      "inputs": [],
      "name": "getPendingVoters",
      "outputs": [
        {
          "internalType": "address[]",
          "name": "",
          "type": "address[]"
        }
      ],
      "stateMutability": "view",
      "type": "function"
    },
    {
      "inputs": [
        {
          "internalType": "uint256",
          "name": "_electionId",
          "type": "uint256"
        },
        {
          "internalType": "string",
          "name": "_positionName",
          "type": "string"
        }
      ],
      "name": "getRegisteredCandidates",
      "outputs": [
        {
          "internalType": "uint256[]",
          "name": "",
          "type": "uint256[]"
        },
        {
          "internalType": "string[]",
          "name": "",
          "type": "string[]"
        },
        {
          "internalType": "bool[]",
          "name": "",
          "type": "bool[]"
        }
      ],
      "stateMutability": "view",
      "type": "function"
    },
    {
      "inputs": [
        {
          "internalType": "address",
          "name": "_voterAddress",
          "type": "address"
        }
      ],
      "name": "getVoter",
      "outputs": [
        {
          "internalType": "string",
          "name": "",
          "type": "string"
        },
        {
          "internalType": "string",
          "name": "",
          "type": "string"
        },
        {
          "internalType": "string",
          "name": "",
          "type": "string"
        },
        {
          "internalType": "string",
          "name": "",
          "type": "string"
        },
        {
          "internalType": "string",
          "name": "",
          "type": "string"
        },
        {
          "internalType": "address",
          "name": "",
          "type": "address"
        },
        {
          "internalType": "bool",
          "name": "",
          "type": "bool"
        },
        {
          "internalType": "bool",
          "name": "",
          "type": "bool"
        }
      ],
      "stateMutability": "view",
      "type": "function"
    },
    {
      "inputs": [
        {
          "internalType": "address",
          "name": "_address",
          "type": "address"
        }
      ],
      "name": "isOwner",
      "outputs": [
        {
          "internalType": "bool",
          "name": "",
          "type": "bool"
        }
      ],
      "stateMutability": "view",
      "type": "function"
    },
    {
      "inputs": [],
      "name": "owner",
      "outputs": [
        {
          "internalType": "address",
          "name": "",
          "type": "address"
        }
      ],
      "stateMutability": "view",
      "type": "function"
    },
    {
      "inputs": [
        {
          "internalType": "uint256",
          "name": "",
          "type": "uint256"
        }
      ],
      "name": "pendingVoters",
      "outputs": [
        {
          "internalType": "address",
          "name": "",
          "type": "address"
        }
      ],
      "stateMutability": "view",
      "type": "function"
    },
    {
      "inputs": [
        {
          "internalType": "uint256",
          "name": "_electionId",
          "type": "uint256"
        },
        {
          "internalType": "string",
          "name": "_positionName",
          "type": "string"
        },
        {
          "internalType": "string",
          "name": "_candidateName",
          "type": "string"
        }
      ],
      "name": "registerCandidate",
      "outputs": [],
      "stateMutability": "nonpayable",
      "type": "function"
    },
    {
      "inputs": [
        {
          "internalType": "string",
          "name": "_firstName",
          "type": "string"
        },
        {
          "internalType": "string",
          "name": "_lastName",
          "type": "string"
        },
        {
          "internalType": "string",
          "name": "_registrationNumber",
          "type": "string"
        },
        {
          "internalType": "string",
          "name": "_email",
          "type": "string"
        },
        {
          "internalType": "string",
          "name": "_phoneNumber",
          "type": "string"
        },
        {
          "internalType": "address",
          "name": "_metamaskAddress",
          "type": "address"
        }
      ],
      "name": "registerVoter",
      "outputs": [],
      "stateMutability": "nonpayable",
      "type": "function"
    },
    {
      "inputs": [
        {
          "internalType": "uint256",
          "name": "_electionId",
          "type": "uint256"
        },
        {
          "internalType": "string",
          "name": "_positionName",
          "type": "string"
        },
        {
          "internalType": "uint256",
          "name": "_candidateId",
          "type": "uint256"
        }
      ],
      "name": "rejectCandidate",
      "outputs": [],
      "stateMutability": "nonpayable",
      "type": "function"
    },
    {
      "inputs": [
        {
          "internalType": "address",
          "name": "_voterAddress",
          "type": "address"
        }
      ],
      "name": "rejectVoter",
      "outputs": [],
      "stateMutability": "nonpayable",
      "type": "function"
    },
    {
      "inputs": [],
      "name": "renounceOwnership",
      "outputs": [],
      "stateMutability": "nonpayable",
      "type": "function"
    },
    {
      "inputs": [],
      "name": "resetRegisteredAddresses",
      "outputs": [],
      "stateMutability": "nonpayable",
      "type": "function"
    },
    {
      "inputs": [
        {
          "internalType": "address",
          "name": "newOwner",
          "type": "address"
        }
      ],
      "name": "transferOwnership",
      "outputs": [],
      "stateMutability": "nonpayable",
      "type": "function"
    },
    {
      "inputs": [
        {
          "internalType": "uint256",
          "name": "_electionId",
          "type": "uint256"
        },
        {
          "internalType": "string[]",
          "name": "_positionNames",
          "type": "string[]"
        },
        {
          "internalType": "uint256[]",
          "name": "_candidateIds",
          "type": "uint256[]"
        }
      ],
      "name": "vote",
      "outputs": [],
      "stateMutability": "nonpayable",
      "type": "function"
    },
    {
      "inputs": [
        {
          "internalType": "address",
          "name": "",
          "type": "address"
        }
      ],
      "name": "voters",
      "outputs": [
        {
          "internalType": "string",
          "name": "firstName",
          "type": "string"
        },
        {
          "internalType": "string",
          "name": "lastName",
          "type": "string"
        },
        {
          "internalType": "string",
          "name": "registrationNumber",
          "type": "string"
        },
        {
          "internalType": "string",
          "name": "email",
          "type": "string"
        },
        {
          "internalType": "string",
          "name": "phoneNumber",
          "type": "string"
        },
        {
          "internalType": "address",
          "name": "metamaskAddress",
          "type": "address"
        },
        {
          "internalType": "bool",
          "name": "approved",
          "type": "bool"
        },
        {
          "internalType": "bool",
          "name": "voted",
          "type": "bool"
        }
      ],
      "stateMutability": "view",
      "type": "function"
    }
  ],
  "bytecode": "0x6080806040523461007e5733156100685760008054336001600160a01b03198216811783556040519290916001600160a01b0316907f8be0079c531659141344cd1fd0a4f28419497f9722a3daafe3b4186f6b6457e09080a36001805561311b90816100848239f35b631e4fbdf760e01b815260006004820152602490fd5b600080fdfe6080604052600436101561001257600080fd5b60003560e01c806203a3d1146101d6578063119d4ddb146101d15780631b04772b146101cc57806324a9267b146101c75780632f54bf6e146101c25780633cfe3a37146101bd5780634da3fe5a146101b85780634f333369146101b357806351090d33146101ae5780635824bf30146101a95780635e6fef01146101a45780636dbd59811461019f578063715018a61461019a578063760b5b23146101955780638da5cb5b14610190578063997d28301461018b5780639d71077714610186578063a3ec138d14610181578063aed930101461017c578063bd5b5faf14610177578063c3322d0914610172578063d4f50f981461016d578063d6c79eaa14610168578063f2fde38b14610163578063f309ed151461015e578063f452130b14610159578063f49a7a17146101545763ff9e50fe1461014f57600080fd5b611cba565b611b89565b611b0b565b611916565b61188e565b611784565b6116a5565b61161f565b611481565b611438565b611374565b611229565b6111da565b6111b1565b6110c1565b611066565b610fa5565b610ecb565b610db2565b610c52565b610a92565b610988565b610862565b61082d565b6107e4565b6106bc565b6105b7565b610403565b634e487b7160e01b600052604160045260246000fd5b90601f801991011681019081106001600160401b0382111761021257604052565b6101db565b60405190604082018281106001600160401b0382111761021257604052565b6040519060a082018281106001600160401b0382111761021257604052565b6040519061010082018281106001600160401b0382111761021257604052565b81601f820112156102cb578035906001600160401b03821161021257604051926102a9601f8401601f1916602001856101f1565b828452602083830101116102cb57816000926020809301838601378301015290565b600080fd5b9060406003198301126102cb5760043591602435906001600160401b0382116102cb576102ff91600401610275565b90565b60005b8381106103155750506000910152565b8181015183820152602001610305565b9060209161033e81518092818552858086019101610302565b601f01601f1916010190565b90815180825260208080930193019160005b82811061036a575050505090565b83518552938101939281019260010161035c565b90815180825260208080930193019160005b82811061039e575050505090565b83516001600160a01b031685529381019392810192600101610390565b926103e76102ff95936103d96103f594608088526080880190610325565b90868203602088015261034a565b90848203604086015261034a565b91606081840391015261037e565b346102cb57610411366102d0565b61041f600654831115611d5c565b610479610436836000526005602052604060002090565b33600090815260026020526040902090929061045b906005905b015460a81c60ff1690565b8015610577575b61046e90949394611da8565b600380940190611e08565b9160019161048960018501611e2e565b936104948551611ea7565b9384936104a18751611ea7565b936000835b6104cb575b88876104c7886104ba89610eae565b92604051948594856103bb565b0390f35b888051821015610571579061056761054e8561053d610511899a9b9c6105288760026105208c8f9c846104fd91611ed9565b519687916000526007602052604060002090565b90600052602052604060002090565b015492611ed9565b52610511886000526007602052604060002090565b015460081c6001600160a01b031690565b610558838b611ed9565b6001600160a01b039091169052565b01879695946104a6565b506104ab565b506000546001600160a01b03163314610462565b600435906001600160a01b03821682036102cb57565b60a435906001600160a01b03821682036102cb57565b346102cb5760203660031901126102cb576105d061058b565b6105d8612f15565b6105e96105e482612f41565b611eed565b6001600160a01b0381166000818152600260205260408120600501805460ff60a01b1916600160a01b1790556004549092600160401b8210156102125760018201806004558210156106b757600484526000805160206130c683398151915290910180546001600160a01b0319166001600160a01b03831617905561067290612f95565b612f95565b80825260026020527f5ae161ff96a81f4fa8ddd8555ab13483a0fe416f296b510e08cbb11f98f9a10e6106b16003604085200160405191829182611f8d565b0390a280f35b61076c565b346102cb5760203660031901126102cb576106d561058b565b6106dd612f15565b6106e96105e482612f41565b60018060a01b0381167f376d99d855649bd6e81e7fce16d54ac5f2c7fadae7b2f50b619c182afe401bbb6106b161073d61075860009585875260026020526107446003604089200160405194858092610e18565b03846101f1565b858752600260205261066d60408820612014565b604051918291602083526020830190610325565b634e487b7160e01b600052603260045260246000fd5b6003548110156106b75760036000526000805160206130a68339815191520190600090565b6004548110156106b75760046000526000805160206130c68339815191520190600090565b80548210156106b75760005260206000200190600090565b346102cb5760203660031901126102cb576004356003548110156102cb5760036000526000805160206130a683398151915201546040516001600160a01b039091168152602090f35b346102cb5760203660031901126102cb57602061084861058b565b6000546040516001600160a01b0392831691909216148152f35b346102cb576000806003193601126109855761087c612f15565b60016108a260016108996006546000526005602052604060002090565b01544210612067565b8082815b61095b575b5082905b6108fc575b826108c56108c0611e7f565b6120d9565b6108d56108d0611e7f565b61216d565b7f351a0247e8bb60a07bea1959df8f0e260dee3b0ccbbef1517ca1367b986664eb8180a180f35b60045481101561095657818161094f61094a61093061091b85966107a7565b905460039190911b1c6001600160a01b031690565b6001600160a01b0316600090815260026020526040902090565b612014565b01906108af565b6108b4565b600354811015610980578061097961094a61093061091b8695610782565b01816108a6565b6108ab565b80fd5b346102cb5760403660031901126102cb576004356024356109a7612f15565b6109b5600654831115611d5c565b8160005260056020526002604060002001805491824211610a175780610a1292610a017f9957539d9b3c3f294da9088900bece7540cdb76274e882913ae25bca90b2061e958311612201565b556040519081529081906020820190565b0390a2005b60405162461bcd60e51b815260206004820152601a60248201527f456c656374696f6e2068617320616c726561647920656e6465640000000000006044820152606490fd5b9060606003198301126102cb5760043591602435906001600160401b0382116102cb57610a8b91600401610275565b9060443590565b346102cb577fe46ef16f45f14b433702c21c325ca11d00b469b9c13d430220e2b5726cdfa25e6001610ac336610a5c565b610ad09492939194612f15565b610ade600654851115611d5c565b6106b16000958587526005602052610b0f610b08610b02600360408b200184611e08565b54610dde565b1515612276565b8587526005602052610b288460408920015442106122c2565b858752600760205260408720838852602052610b84604088209360038501868154610b5660ff82161561230e565b60ff191617905585610b7e6003610b778b6000526005602052604060002090565b0185611e08565b0161235a565b60405193849301908361237d565b90808251908181526020809101926020808460051b8301019501936000915b848310610bc15750505050505090565b9091929394958480610bdf600193601f198682030187528a51610325565b9801930193019194939290610bb1565b90610c05610c159160608452606084019061034a565b6020938382036020850152610b92565b9060408183039101526020808451928381520193019160005b828110610c3c575050505090565b8351151585529381019392810192600101610c2e565b346102cb57610c60366102d0565b610c6e600654831115611d5c565b816000526005602052600390610c91610b08610b02600360406000200184611e08565b82600052600860205260406000205491610caa83611ea7565b92610cb4816123a2565b94610cbe82611ea7565b9360009360019160015b85811115610ce957868952868a52868852604051806104c78a8d8d84610bef565b610d0181610511876000526007602052604060002090565b8a610d1f610d19886000526009602052604060002090565b85611e08565b8b610d37610d308986019384612400565b5460ff1690565b610d4e575b50505050610d49906123ec565b610cc8565b86610da894610d898d8096899f610da397610d499b610d73610d7993610d929a611ed9565b52610eae565b610d838383611ed9565b52611ed9565b50015460ff1690565b610d9c838d611ed9565b9015159052565b6123ec565b96908a388b610d3c565b346102cb5760203660031901126102cb5760043560005260086020526020604060002054604051908152f35b90600182811c92168015610e0e575b6020831014610df857565b634e487b7160e01b600052602260045260246000fd5b91607f1691610ded565b805460009392610e2782610dde565b91828252602093600191600181169081600014610e8f5750600114610e4e575b5050505050565b90939495506000929192528360002092846000945b838610610e7b57505050500101903880808080610e47565b805485870183015294019385908201610e63565b60ff19168685015250505090151560051b010191503880808080610e47565b90610ec9610ec29260405193848092610e18565b03836101f1565b565b346102cb5760203660031901126102cb576004356000526005602052610f1f604060002060405190610f0182610ec28184610e18565b60026001820154910154604051938493606085526060850190610325565b91602084015260408301520390f35b6001600160401b0381116102125760051b60200190565b9080601f830112156102cb576020908235610f5f81610f2e565b93610f6d60405195866101f1565b81855260208086019260051b8201019283116102cb57602001905b828210610f96575050505090565b81358152908301908301610f88565b346102cb5760603660031901126102cb576001600160401b03602480358281116102cb57366023820112156102cb57806004013590610fe382610f2e565b92610ff160405194856101f1565b8284526020926024602086019160051b840101923684116102cb5760248101915b84831061104057604435878982116102cb5761103561103e923690600401610f45565b90600435612692565b005b82358881116102cb57869161105b8392873691870101610275565b815201920191611012565b346102cb5760008060031936011261098557611080612f15565b80546001600160a01b03198116825581906001600160a01b03167f8be0079c531659141344cd1fd0a4f28419497f9722a3daafe3b4186f6b6457e08280a380f35b346102cb576110cf366102d0565b6110d7612f15565b6110e5600654831115611d5c565b80511561116c57610a127f9d3f9d97cfa4d97c52f6be76984c7c9ac6dcbfd36f22e4b5ba1a4fbf01d83a7c91611160611128856000526005602052604060002090565b611135836004830161298e565b61115b6003611142611e7f565b9261114b610217565b9386855260208501520184611e08565b6129d1565b60405191829182612056565b60405162461bcd60e51b815260206004820152601d60248201527f506f736974696f6e206e616d652063616e6e6f7420626520656d7074790000006044820152606490fd5b346102cb5760003660031901126102cb576000546040516001600160a01b039091168152602090f35b346102cb5760003660031901126102cb576020600654604051908152f35b90926112116102ff959394608084526080840190610325565b93602083015260408201526060818403910152610b92565b346102cb576020806003193601126102cb5760043561124c600654821115611d5c565b600052600560205261127e60408060002060018082015494600283015492611285600482019160405197888092610e18565b03876101f1565b80549161129183610f2e565b9561129f60405197886101f1565b83875260208701926000526020600020906000935b8585106112cc57604051806104c78b8b8f8f856111f8565b8684819284516112e7816112e0818a610e18565b03826101f1565b8152019301940193916112b4565b969361133a6113569461132c60e0999c9b989561131e611348968d610100908181520190610325565b8c810360208e015290610325565b908a820360408c0152610325565b9088820360608a0152610325565b908682036080880152610325565b6001600160a01b0390961660a0850152151560c08401521515910152565b346102cb5760203660031901126102cb576001600160a01b038061139661058b565b16600052600260205260406104c781600020928251926113c1846113ba8188610e18565b03856101f1565b8051936113dc856113d58160018a01610e18565b03866101f1565b8151956113f7876113f08160028501610e18565b03886101f1565b825161140a816112e08160038601610e18565b600561141860048401610eae565b920154935197889760ff8660a81c169660ff8760a01c16961694896112f5565b346102cb5760203660031901126102cb576004356004548110156102cb5760046000526000805160206130c683398151915201546040516001600160a01b039091168152602090f35b346102cb5760603660031901126102cb576001600160401b036004356024358281116102cb576114b5903690600401610275565b916044359081116102cb576114ef7f0c4b7c638d801c3cac701d285b0f4f2010a787228a6dac952a05d3ef837f32a6913690600401610275565b926114fe600654841115611d5c565b600093838552600560205261151f610b08610b026003604089200185611e08565b8385526005602052611539600160408720015442106122c2565b838552600960205261156361155e61155a610d30610d1960408a2087611e08565b1590565b612a61565b611577846000526008602052604060002090565b61158181546123ec565b90556115de61159a856000526008602052604060002090565b546115d96115a6610236565b82815260208101859052604081018990526060810189905233608082015291610511886000526007602052604060002090565b612aad565b61160e6116016115fb610d19876000526009602052604060002090565b83611e08565b805460ff19166001179055565b6106b1604051928392339184612b09565b346102cb5760003660031901126102cb57604051806003549182815260208091019260036000526000805160206130a6833981519152916000905b828210611685576104c785611671818903826101f1565b60405191829160208352602083019061037e565b83546001600160a01b03168652948501946001938401939091019061165a565b346102cb5760203660031901126102cb576116be61058b565b6116f060018060a01b039182811660005260026020528260056040600020015416151580611755575b61093090612b43565b906104c760058301549161170384610eae565b9261171060018601610eae565b9361171d60028701610eae565b95611736600461172f60038401610eae565b9201610eae565b9060405197889760ff8660a81c169660ff8760a01c16961694896112f5565b506001600160a01b03811660009081526002602052604090206109309061177b9061226c565b151590506116e7565b346102cb57611792366102d0565b61179a612f15565b6117a8600654831115611d5c565b60009082600052602091600560205260036117cd604093600360406000200190611e08565b906001906117dd60018401611e2e565b966117e88851611ea7565b9687966117f58a51611ea7565b966000865b61180e575b8b8a6104c78b6104ba8c610eae565b8b8051821015611888579061187e8a610558836118788c9d9e9f61053d60078f998f938f908f8f8f610520611867938c9360029361184f866105119b611ed9565b519a8b938a8352522090600052602052604060002090565b526000526007602052604060002090565b92611ed9565b018a9998976117fa565b506117ff565b346102cb5760203660031901126102cb576118a761058b565b6118af612f15565b6001600160a01b0390811680156118fd57600080546001600160a01b03198116831782559092167f8be0079c531659141344cd1fd0a4f28419497f9722a3daafe3b4186f6b6457e08380a380f35b604051631e4fbdf760e01b815260006004820152602490fd5b346102cb5761192436610a5c565b909161192e612f15565b61193c600654821115611d5c565b600091818352600560205261195d610b08610b026003604087200187611e08565b8183526005602052604083209361197a60018096015442106122c2565b6119b6600161199784610511876000526007602052604060002090565b6119b06119ab61155a600384015460ff1690565b61230e565b01610eae565b916119de6119d4610d19610d19876000526009602052604060002090565b805460ff19169055565b6119fe6119f982610511876000526007602052604060002090565b612b86565b6001611a206003611a19876000526005602052604060002090565b0184611e08565b019085875b611a5f575b505050907fc965973ca1e6509f55ff868bce7a20c938b1b78836c93db3d55171313e920b83916106b160405192839283612bf8565b825480821015611b055782611a81611a7784876107cc565b90549060031b1c90565b14611a8f5750870187611a25565b7fc965973ca1e6509f55ff868bce7a20c938b1b78836c93db3d55171313e920b8396979850611afb93925090611add611ad6611a77611ad0611af695612ba4565b866107cc565b91846107cc565b90919082549060031b91821b91600019901b1916179055565b612bc9565b8493923880611a2a565b50611a2a565b346102cb5760203660031901126102cb57600435600454811015611b545760046000526000805160206130c683398151915201546040516001600160a01b039091168152602090f35b60405162461bcd60e51b815260206004820152600d60248201526c092dcecc2d8d2c840d2dcc8caf609b1b6044820152606490fd5b346102cb5760603660031901126102cb576004356001600160401b0381116102cb57611bb9903690600401610275565b604435602435611bc7612f15565b81811015611c6957611be2611bdd6006546123ec565b600655565b611c0183611bfc6006546000526005602052604060002090565b6128b9565b6001611c196006546000526005602052604060002090565b01556002611c336006546000526005602052604060002090565b01557f52be7c4e77b4de76b7607d621492061fe13b58597e72dfb5e51ab8f6187ed141610a126006549260405191829182612056565b60405162461bcd60e51b815260206004820152602360248201527f496e76616c696420656c656374696f6e20737461727420616e6420656e642074604482015262696d6560e81b6064820152608490fd5b346102cb5760c03660031901126102cb5760046001600160401b0381358181116102cb57611ceb9036908401610275565b906024358181116102cb57611d039036908501610275565b906044358181116102cb57611d1b9036908601610275565b6064358281116102cb57611d329036908701610275565b916084359081116102cb5761103e95611d4d91369101610275565b92611d566105a1565b94612e04565b15611d6357565b60405162461bcd60e51b815260206004820152601760248201527f456c656374696f6e20646f6573206e6f742065786973740000000000000000006044820152606490fd5b15611daf57565b60405162461bcd60e51b815260206004820152602b60248201527f4f6e6c7920766f74656420766f74657273206f722061646d696e2063616e207660448201526a69657720726573756c747360a81b6064820152608490fd5b602090611e22928260405194838680955193849201610302565b82019081520301902090565b90604051918281549182825260209260208301916000526020600020936000905b828210611e6557505050610ec9925003836101f1565b855484526001958601958895509381019390910190611e4f565b604051602081018181106001600160401b038211176102125760405260008152906000368137565b90611eb182610f2e565b611ebe60405191826101f1565b8281528092611ecf601f1991610f2e565b0190602036910137565b80518210156106b75760209160051b010190565b15611ef457565b606460405162461bcd60e51b815260206004820152602060248201527f566f746572206973206e6f7420696e207468652070656e64696e67206c6973746044820152fd5b60035490600160401b8210156102125760018201806003558210156106b75760036000526000805160206130a683398151915290910180546001600160a01b0319166001600160a01b03909216919091179055565b9060206102ff928181520190610e18565b818110611fa9575050565b60008155600101611f9e565b634e487b7160e01b600052601160045260246000fd5b611fd58154610dde565b9081611fdf575050565b81601f60009311600114611ff1575055565b908083918252612010601f60208420940160051c840160018501611f9e565b5555565b600560009161202281611fcb565b61202e60018201611fcb565b61203a60028201611fcb565b61204660038201611fcb565b61205260048201611fcb565b0155565b9060206102ff928181520190610325565b1561206e57565b60405162461bcd60e51b815260206004820152603760248201527f43616e6e6f7420726573657420616464726573736573207768696c6520616e2060448201527f656c656374696f6e20697320696e2070726f67726573730000000000000000006064820152608490fd5b8051906001600160401b03821161021257600160401b82116102125760035482600355808310612149575b50602080910190600360005260005b8381106121205750505050565b82516001600160a01b03166000805160206130a683398151915282015591810191600101612113565b61216790836000805160206130a68339815191529182019101611f9e565b38612104565b8051906001600160401b03821161021257600160401b821161021257600454826004558083106121dd575b50602080910190600460005260005b8381106121b45750505050565b82516001600160a01b03166000805160206130c6833981519152820155918101916001016121a7565b6121fb90836000805160206130c68339815191529182019101611f9e565b38612198565b1561220857565b60405162461bcd60e51b815260206004820152603660248201527f4e657720656e642074696d65206d7573742062652067726561746572207468616044820152756e207468652063757272656e7420656e642074696d6560501b6064820152608490fd5b6102ff9054610dde565b1561227d57565b60405162461bcd60e51b815260206004820152601760248201527f506f736974696f6e20646f6573206e6f742065786973740000000000000000006044820152606490fd5b156122c957565b60405162461bcd60e51b815260206004820152601c60248201527f456c656374696f6e2068617320616c72656164792073746172746564000000006044820152606490fd5b1561231557565b60405162461bcd60e51b815260206004820152601d60248201527f43616e64696461746520697320616c726561647920617070726f7665640000006044820152606490fd5b90815491600160401b8310156102125782611add916001610ec9950181556107cc565b90916123946102ff93604084526040840190610325565b916020818403910152610e18565b906123ac82610f2e565b6123b960405191826101f1565b82815280926123ca601f1991610f2e565b019060005b8281106123db57505050565b8060606020809385010152016123cf565b60001981146123fb5760010190565b611fb5565b906040518092600090805461241481610dde565b91600191808316908115612478575060011461243a575b50505060209281520301902090565b60009081526020808220969450915b838210612462575050506020935082019092388061242b565b8654888301529586019587955090820190612449565b60ff1916865250505080151502820190506020388061242b565b1561249957565b60405162461bcd60e51b815260206004820152600d60248201526c125b9d985b1a59081a5b9c1d5d609a1b6044820152606490fd5b156124d557565b60405162461bcd60e51b815260206004820152601f60248201527f456c656374696f6e206973206e6f74206f70656e20666f7220766f74696e67006044820152606490fd5b1561252157565b60405162461bcd60e51b8152602060048201526015602482015274159bdd195c881a5cc81b9bdd08185c1c1c9bdd9959605a1b6044820152606490fd5b1561256557565b60405162461bcd60e51b815260206004820152601760248201527f566f7465722068617320616c726561647920766f7465640000000000000000006044820152606490fd5b156125b157565b60405162461bcd60e51b815260206004820152602760248201527f566f7465722773204d6574616d61736b206164647265737320646f6573206e6f6044820152660e840dac2e8c6d60cb1b6064820152608490fd5b1561260d57565b60405162461bcd60e51b8152602060048201526011602482015270496e76616c69642063616e64696461746560781b6044820152606490fd5b1561264d57565b60405162461bcd60e51b815260206004820152601960248201527f43616e646964617465206973206e6f7420617070726f766564000000000000006044820152606490fd5b9092916126a28451825114612492565b60005b845181101561284a57806126bb60019287611ed9565b516126c68285611ed9565b51906127db6127d66126e2886000526005602052604060002090565b6127b66127b1866127ac8a808601544210158061283c575b612703906124ce565b612798612791612785600561274161273c826127313360018060a01b03166000526002602052604060002090565b015460a01c60ff1690565b61251a565b336000908152600260205260409020612768906127639061155a908490610450565b61255e565b33600090815260026020526040902001546001600160a01b031690565b6001600160a01b031690565b33146125aa565b6127a660038097018a611e08565b01611e2e565b61306f565b612606565b6127ce856105118b6000526007602052604060002090565b015460ff1690565b612646565b60026127f583610511896000526007602052604060002090565b0161280081546123ec565b9055857fd9f61bad27b367f9d956d43115ce9b23449b64e56e608eb9569f6b929b632e7e60405180612833339582612056565b0390a4016126a5565b5060028601544211156126fa565b5050336000908152600260205260409020600501805460ff60a81b1916600160a81b179055509050565b9190601f811161288357505050565b610ec9926000526020600020906020601f840160051c830193106128af575b601f0160051c0190611f9e565b90915081906128a2565b91909182516001600160401b038111610212576128e0816128da8454610dde565b84612874565b602080601f831160011461292357508190612914939495600092612918575b50508160011b916000199060031b1c19161790565b9055565b0151905038806128ff565b90601f1983169561293985600052602060002090565b926000905b8882106129765750508360019596971061295d575b505050811b019055565b015160001960f88460031b161c19169055388080612953565b8060018596829496860151815501950193019061293e565b8054600160401b811015610212576129ab916001820181556107cc565b9190916129bb57610ec9916128b9565b634e487b7160e01b600052600060045260246000fd5b906129dd8151836128b9565b6001809201602080920151918251926001600160401b03841161021257600160401b8411610212576020908354858555808610612a44575b50019160005260206000209060005b848110612a3357505050505050565b835183820155928101928501612a24565b612a5b908560005286846000209182019101611f9e565b38612a15565b15612a6857565b60405162461bcd60e51b815260206004820152601d60248201527f43616e646964617465206e616d6520616c7265616479206578697374730000006044820152606490fd5b60039082518155612ac56020840151600183016128b9565b604083015160028201550190606081015115159060ff8354916080610100600160a81b0391015160081b169216906affffffffffffffffffffff60a81b1617179055565b91612b3390612b25604093969596606086526060860190610325565b908482036020860152610325565b6001600160a01b03909416910152565b15612b4a57565b60405162461bcd60e51b8152602060048201526014602482015273159bdd195c88191bd95cc81b9bdd08195e1a5cdd60621b6044820152606490fd5b6003600091828155612b9a60018201611fcb565b8260028201550155565b6000198101919082116123fb57565b634e487b7160e01b600052603160045260246000fd5b8054908115612bf35760001991820191612be383836107cc565b909182549160031b1b1916905555565b612bb3565b9091612c0f6102ff93604084526040840190610325565b916020818403910152610325565b15612c2457565b60405162461bcd60e51b815260206004820152603560248201527f43616e6e6f7420726567697374657220766f746572732061667465722074686560448201527408195b1958dd1a5bdb881a185cc81cdd185c9d1959605a1b6064820152608490fd5b15612c8e57565b60405162461bcd60e51b815260206004820152602860248201527f566f74657220697320616c7265616479207265676973746572656420616e6420604482015267185c1c1c9bdd995960c21b6064820152608490fd5b15612ceb57565b60405162461bcd60e51b815260206004820152603060248201527f566f74657220697320616c7265616479207265676973746572656420616e642060448201526f1c195b991a5b99c8185c1c1c9bdd985b60821b6064820152608490fd5b90612dea60e06005610ec994612d608551826128b9565b612d716020860151600183016128b9565b612d826040860151600283016128b9565b612d936060860151600383016128b9565b612da46080860151600483016128b9565b60a08581015191909201805460c087015160ff60a01b90151590941b939093166001600160a01b039092166001600160a81b031990931692909217178155920151151590565b815460ff60a81b191690151560a81b60ff60a81b16179055565b7fffeb7702be7dcd8fee170d954b70afb9a7c78f7f5cff232d037e7b9d8243356a94612f10949693612eee93612e546001612e4b6006546000526005602052604060002090565b01544210612c1d565b612e80612e7b61155a60056127318a60018060a01b03166000526002602052604060002090565b612c87565b612e94612e8f61155a88612f41565b612ce4565b612e9c610255565b938452602084015260408301526060820187905260808201526001600160a01b03831660a0820152600060c0820181905260e082018190526001600160a01b0384168152600260205260409020612d49565b612ef781611f38565b6040516001600160a01b03909116939091829182612056565b0390a2565b6000546001600160a01b03163303612f2957565b60405163118cdaa760e01b8152336004820152602490fd5b6003805491906000805b848110612f5c575050505050600090565b8282526000805160206130a68339815191528101546001600160a01b03858116911614612f8b57600101612f4b565b5050505050600190565b6000805b6003805480831015610e47578184526000805160206130a68339815191528301546001600160a01b039190821686831614612fd957505050600101612f99565b613021939294955090612ff6612ff161300393612ba4565b610782565b905490861b1c1691610782565b90919060018060a01b038084549260031b9316831b921b1916179055565b8054918215612bf357600019830192808410156106b757908290527fc2575a0e9e593c00f959f8c92f12db2869c3395a3b0502d05e2516446f71f85a0180546001600160a01b031916905555565b9060005b825181101561309d57816130878285611ed9565b511461309557600101613073565b505050600190565b50505060009056fec2575a0e9e593c00f959f8c92f12db2869c3395a3b0502d05e2516446f71f85b8a35acfbc15ff81a39ae7d344fd709f28e8600b4aa8c65c6b64bfe7fe36bd19ba26469706673582212202e7364b24aad3b6a15b3d2baf93906cb6eb2bab8f7015cc506164cace900667a64736f6c63430008180033",
  "linkReferences": {},
  "deployedLinkReferences": {}
}